{
  "_format": "hh-sol-artifact-1",
  "contractName": "EARNPRIVATE",
  "sourceName": "contracts/EarnPrivate.sol",
  "abi": [
    {
      "inputs": [
        {
          "internalType": "address",
          "name": "_walletPool",
          "type": "address"
        },
        {
          "internalType": "address",
          "name": "_TokenRecibe",
          "type": "address"
        },
        {
          "internalType": "address",
          "name": "_wallet1",
          "type": "address"
        },
        {
          "internalType": "address",
          "name": "_wallet2",
          "type": "address"
        }
      ],
      "stateMutability": "nonpayable",
      "type": "constructor"
    },
    {
      "anonymous": false,
      "inputs": [
        {
          "indexed": true,
          "internalType": "address",
          "name": "previousOwner",
          "type": "address"
        },
        {
          "indexed": true,
          "internalType": "address",
          "name": "newOwner",
          "type": "address"
        }
      ],
      "name": "OwnershipTransferred",
      "type": "event"
    },
    {
      "inputs": [
        {
          "internalType": "uint256",
          "name": "_amount",
          "type": "uint256"
        }
      ],
      "name": "ChangeLimitAmount",
      "outputs": [],
      "stateMutability": "nonpayable",
      "type": "function"
    },
    {
      "inputs": [
        {
          "internalType": "uint256",
          "name": "_amount",
          "type": "uint256"
        }
      ],
      "name": "ChangeMaxAmount",
      "outputs": [],
      "stateMutability": "nonpayable",
      "type": "function"
    },
    {
      "inputs": [
        {
          "internalType": "uint256",
          "name": "_amount",
          "type": "uint256"
        }
      ],
      "name": "ChangeMinAmount",
      "outputs": [],
      "stateMutability": "nonpayable",
      "type": "function"
    },
    {
      "inputs": [
        {
          "internalType": "address",
          "name": "_wallet",
          "type": "address"
        }
      ],
      "name": "ChangeWallet1",
      "outputs": [],
      "stateMutability": "nonpayable",
      "type": "function"
    },
    {
      "inputs": [
        {
          "internalType": "address",
          "name": "_wallet",
          "type": "address"
        }
      ],
      "name": "ChangeWallet2",
      "outputs": [],
      "stateMutability": "nonpayable",
      "type": "function"
    },
    {
      "inputs": [
        {
          "internalType": "address",
          "name": "_wallet",
          "type": "address"
        }
      ],
      "name": "ChangeWalletRecibe",
      "outputs": [],
      "stateMutability": "nonpayable",
      "type": "function"
    },
    {
      "inputs": [
        {
          "internalType": "uint256",
          "name": "_amount",
          "type": "uint256"
        }
      ],
      "name": "Deposit",
      "outputs": [],
      "stateMutability": "nonpayable",
      "type": "function"
    },
    {
      "inputs": [],
      "name": "Distribute",
      "outputs": [],
      "stateMutability": "nonpayable",
      "type": "function"
    },
    {
      "inputs": [],
      "name": "EarnDeposit",
      "outputs": [],
      "stateMutability": "nonpayable",
      "type": "function"
    },
    {
      "inputs": [
        {
          "internalType": "uint256",
          "name": "_limit",
          "type": "uint256"
        },
        {
          "internalType": "uint256",
          "name": "_maxAmount",
          "type": "uint256"
        },
        {
          "internalType": "uint256",
          "name": "_minAmount",
          "type": "uint256"
        },
        {
          "internalType": "uint256",
          "name": "_percent",
          "type": "uint256"
        }
      ],
      "name": "Initialized",
      "outputs": [],
      "stateMutability": "nonpayable",
      "type": "function"
    },
    {
      "inputs": [],
      "name": "MaxAmount",
      "outputs": [
        {
          "internalType": "uint256",
          "name": "",
          "type": "uint256"
        }
      ],
      "stateMutability": "view",
      "type": "function"
    },
    {
      "inputs": [],
      "name": "MinAmount",
      "outputs": [
        {
          "internalType": "uint256",
          "name": "",
          "type": "uint256"
        }
      ],
      "stateMutability": "view",
      "type": "function"
    },
    {
      "inputs": [],
      "name": "PercentEarn",
      "outputs": [
        {
          "internalType": "uint256",
          "name": "",
          "type": "uint256"
        }
      ],
      "stateMutability": "view",
      "type": "function"
    },
    {
      "inputs": [
        {
          "internalType": "address",
          "name": "_wallet",
          "type": "address"
        }
      ],
      "name": "addUserWhiteList",
      "outputs": [],
      "stateMutability": "nonpayable",
      "type": "function"
    },
    {
      "inputs": [
        {
          "internalType": "address",
          "name": "",
          "type": "address"
        }
      ],
      "name": "balanceUser",
      "outputs": [
        {
          "internalType": "uint256",
          "name": "Amount",
          "type": "uint256"
        },
        {
          "internalType": "uint256",
          "name": "initTime",
          "type": "uint256"
        },
        {
          "internalType": "uint256",
          "name": "finishTime",
          "type": "uint256"
        },
        {
          "internalType": "uint256",
          "name": "Earn",
          "type": "uint256"
        }
      ],
      "stateMutability": "view",
      "type": "function"
    },
    {
      "inputs": [],
      "name": "limit",
      "outputs": [
        {
          "internalType": "uint256",
          "name": "",
          "type": "uint256"
        }
      ],
      "stateMutability": "view",
      "type": "function"
    },
    {
      "inputs": [],
      "name": "lock",
      "outputs": [],
      "stateMutability": "nonpayable",
      "type": "function"
    },
    {
      "inputs": [],
      "name": "owner",
      "outputs": [
        {
          "internalType": "address",
          "name": "",
          "type": "address"
        }
      ],
      "stateMutability": "view",
      "type": "function"
    },
    {
      "inputs": [],
      "name": "recolect",
      "outputs": [
        {
          "internalType": "uint256",
          "name": "",
          "type": "uint256"
        }
      ],
      "stateMutability": "view",
      "type": "function"
    },
    {
      "inputs": [],
      "name": "renounceOwnership",
      "outputs": [],
      "stateMutability": "nonpayable",
      "type": "function"
    },
    {
      "inputs": [
        {
          "internalType": "address",
          "name": "newOwner",
          "type": "address"
        }
      ],
      "name": "transferOwnership",
      "outputs": [],
      "stateMutability": "nonpayable",
      "type": "function"
    },
    {
      "inputs": [],
      "name": "walletPool",
      "outputs": [
        {
          "internalType": "address",
          "name": "",
          "type": "address"
        }
      ],
      "stateMutability": "view",
      "type": "function"
    },
    {
      "inputs": [
        {
          "internalType": "address",
          "name": "",
          "type": "address"
        }
      ],
      "name": "whiteList",
      "outputs": [
        {
          "internalType": "bool",
          "name": "",
          "type": "bool"
        }
      ],
      "stateMutability": "view",
      "type": "function"
    }
  ],
  "bytecode": "0x60806040523480156200001157600080fd5b50604051620022293803806200222983398181016040528101906200003791906200024f565b620000576200004b6200016c60201b60201c565b6200017460201b60201c565b6001808190555083600260006101000a81548173ffffffffffffffffffffffffffffffffffffffff021916908373ffffffffffffffffffffffffffffffffffffffff16021790555082600360006101000a81548173ffffffffffffffffffffffffffffffffffffffff021916908373ffffffffffffffffffffffffffffffffffffffff16021790555081600460006101000a81548173ffffffffffffffffffffffffffffffffffffffff021916908373ffffffffffffffffffffffffffffffffffffffff16021790555080600560006101000a81548173ffffffffffffffffffffffffffffffffffffffff021916908373ffffffffffffffffffffffffffffffffffffffff1602179055505050505062000314565b600033905090565b60008060009054906101000a900473ffffffffffffffffffffffffffffffffffffffff169050816000806101000a81548173ffffffffffffffffffffffffffffffffffffffff021916908373ffffffffffffffffffffffffffffffffffffffff1602179055508173ffffffffffffffffffffffffffffffffffffffff168173ffffffffffffffffffffffffffffffffffffffff167f8be0079c531659141344cd1fd0a4f28419497f9722a3daafe3b4186f6b6457e060405160405180910390a35050565b6000815190506200024981620002fa565b92915050565b600080600080608085870312156200026c576200026b620002f5565b5b60006200027c8782880162000238565b94505060206200028f8782880162000238565b9350506040620002a28782880162000238565b9250506060620002b58782880162000238565b91505092959194509250565b6000620002ce82620002d5565b9050919050565b600073ffffffffffffffffffffffffffffffffffffffff82169050919050565b600080fd5b6200030581620002c1565b81146200031157600080fd5b50565b611f0580620003246000396000f3fe608060405234801561001057600080fd5b506004361061014d5760003560e01c80636b68f810116100c3578063bb1711a61161007c578063bb1711a614610316578063e5c154f114610332578063ec65240614610350578063f2fde38b1461036e578063f5eb88901461038a578063f83d08ba146103bd5761014d565b80636b68f8101461028c578063715018a6146102a85780637586c414146102b25780637c32ae1b146102d05780638da5cb5b146102da578063a4d66daf146102f85761014d565b8063372c12b111610115578063372c12b1146101cc57806339b6e9d0146101fc57806347afd82f146102185780634d6ce1e51461023457806354f3a6e01461025057806360a810021461026e5761014d565b8063131bed341461015257806313cad1d11461015c57806319704d2a1461017857806321adc903146101945780632a8a9938146101b0575b600080fd5b61015a6103c7565b005b61017660048036038101906101719190611455565b610686565b005b610192600480360381019061018d91906113fb565b610698565b005b6101ae60048036038101906101a991906114af565b6106e4565b005b6101ca60048036038101906101c591906113fb565b610779565b005b6101e660048036038101906101e191906113fb565b6107dc565b6040516101f391906117a8565b60405180910390f35b610216600480360381019061021191906113fb565b6107fc565b005b610232600480360381019061022d91906113fb565b610848565b005b61024e60048036038101906102499190611455565b610894565b005b610258610e36565b6040516102659190611983565b60405180910390f35b610276610e3c565b6040516102839190611983565b60405180910390f35b6102a660048036038101906102a19190611455565b610e42565b005b6102b0610e54565b005b6102ba610e68565b6040516102c79190611983565b60405180910390f35b6102d8610e6e565b005b6102e2611083565b6040516102ef919061172d565b60405180910390f35b6103006110ac565b60405161030d9190611983565b60405180910390f35b610330600480360381019061032b9190611455565b6110b2565b005b61033a6110c4565b604051610347919061172d565b60405180910390f35b6103586110ea565b6040516103659190611983565b60405180910390f35b610388600480360381019061038391906113fb565b6110f0565b005b6103a4600480360381019061039f91906113fb565b611174565b6040516103b4949392919061199e565b60405180910390f35b6103c56111a4565b005b6103cf6111d8565b600b60009054906101000a900460ff161561041f576040517f08c379a0000000000000000000000000000000000000000000000000000000008152600401610416906117e3565b60405180910390fd5b6000600c60003373ffffffffffffffffffffffffffffffffffffffff1673ffffffffffffffffffffffffffffffffffffffff168152602001908152602001600020604051806080016040529081600082015481526020016001820154815260200160028201548152602001600382015481525050905042816040015111156104dc576040517f08c379a00000000000000000000000000000000000000000000000000000000081526004016104d390611843565b60405180910390fd5b6000816000015111610523576040517f08c379a000000000000000000000000000000000000000000000000000000000815260040161051a90611903565b60405180910390fd5b600081606001519050600082600001818152505060008260600181815250508160000151600660008282546105589190611ad5565b9250508190555081600c60003373ffffffffffffffffffffffffffffffffffffffff1673ffffffffffffffffffffffffffffffffffffffff16815260200190815260200160002060008201518160000155602082015181600101556040820151816002015560608201518160030155905050600360009054906101000a900473ffffffffffffffffffffffffffffffffffffffff1673ffffffffffffffffffffffffffffffffffffffff1663a9059cbb33836040518363ffffffff1660e01b815260040161062792919061177f565b602060405180830381600087803b15801561064157600080fd5b505af1158015610655573d6000803e3d6000fd5b505050506040513d601f19601f820116820180604052508101906106799190611428565b505050610684611228565b565b61068e611231565b8060088190555050565b6106a0611231565b80600560006101000a81548173ffffffffffffffffffffffffffffffffffffffff021916908373ffffffffffffffffffffffffffffffffffffffff16021790555050565b6106ec611231565b600b60019054906101000a900460ff161561073c576040517f08c379a0000000000000000000000000000000000000000000000000000000008152600401610733906117c3565b60405180910390fd5b83600781905550826008819055508160098190555080600a819055506001600b60016101000a81548160ff02191690831515021790555050505050565b610781611231565b6001600d60008373ffffffffffffffffffffffffffffffffffffffff1673ffffffffffffffffffffffffffffffffffffffff16815260200190815260200160002060006101000a81548160ff02191690831515021790555050565b600d6020528060005260406000206000915054906101000a900460ff1681565b610804611231565b80600460006101000a81548173ffffffffffffffffffffffffffffffffffffffff021916908373ffffffffffffffffffffffffffffffffffffffff16021790555050565b610850611231565b80600260006101000a81548173ffffffffffffffffffffffffffffffffffffffff021916908373ffffffffffffffffffffffffffffffffffffffff16021790555050565b61089c6111d8565b600b60009054906101000a900460ff16156108ec576040517f08c379a00000000000000000000000000000000000000000000000000000000081526004016108e3906117e3565b60405180910390fd5b600b60019054906101000a900460ff1661093b576040517f08c379a0000000000000000000000000000000000000000000000000000000008152600401610932906118e3565b60405180910390fd5b600d60003373ffffffffffffffffffffffffffffffffffffffff1673ffffffffffffffffffffffffffffffffffffffff16815260200190815260200160002060009054906101000a900460ff166109c7576040517f08c379a00000000000000000000000000000000000000000000000000000000081526004016109be90611883565b60405180910390fd5b80600360009054906101000a900473ffffffffffffffffffffffffffffffffffffffff1673ffffffffffffffffffffffffffffffffffffffff166370a08231336040518263ffffffff1660e01b8152600401610a23919061172d565b60206040518083038186803b158015610a3b57600080fd5b505afa158015610a4f573d6000803e3d6000fd5b505050506040513d601f19601f82011682018060405250810190610a739190611482565b1015610ab4576040517f08c379a0000000000000000000000000000000000000000000000000000000008152600401610aab90611923565b60405180910390fd5b6000600c60003373ffffffffffffffffffffffffffffffffffffffff1673ffffffffffffffffffffffffffffffffffffffff16815260200190815260200160002060405180608001604052908160008201548152602001600182015481526020016002820154815260200160038201548152505090508160066000828254610b3c91906119f4565b925050819055508181600001818151610b5591906119f4565b91508181525050600854816000015110610ba4576040517f08c379a0000000000000000000000000000000000000000000000000000000008152600401610b9b90611803565b60405180910390fd5b6007548210610be8576040517f08c379a0000000000000000000000000000000000000000000000000000000008152600401610bdf90611863565b60405180910390fd5b60075460065410610c2e576040517f08c379a0000000000000000000000000000000000000000000000000000000008152600401610c2590611963565b60405180910390fd5b60006009541115610c7f57600954821015610c7e576040517f08c379a0000000000000000000000000000000000000000000000000000000008152600401610c75906118c3565b60405180910390fd5b5b6000610cad6064610c9f600a5485600001516112af90919063ffffffff16565b6112c590919063ffffffff16565b8260000151610cbc91906119f4565b90508082606001818152505062093a8042610cd791906119f4565b8260400181815250504282602001818152505081600c60003373ffffffffffffffffffffffffffffffffffffffff1673ffffffffffffffffffffffffffffffffffffffff16815260200190815260200160002060008201518160000155602082015181600101556040820151816002015560608201518160030155905050600360009054906101000a900473ffffffffffffffffffffffffffffffffffffffff1673ffffffffffffffffffffffffffffffffffffffff166323b872dd33600260009054906101000a900473ffffffffffffffffffffffffffffffffffffffff16866040518463ffffffff1660e01b8152600401610dd693929190611748565b602060405180830381600087803b158015610df057600080fd5b505af1158015610e04573d6000803e3d6000fd5b505050506040513d601f19601f82011682018060405250810190610e289190611428565b505050610e33611228565b50565b600a5481565b60085481565b610e4a611231565b8060078190555050565b610e5c611231565b610e6660006112db565b565b60065481565b610e76611231565b6000610ea16064610e9360326006546112af90919063ffffffff16565b6112c590919063ffffffff16565b600654610eae91906119f4565b9050600060065482610ec09190611ad5565b90506000610ed86002836112c590919063ffffffff16565b9050600360009054906101000a900473ffffffffffffffffffffffffffffffffffffffff1673ffffffffffffffffffffffffffffffffffffffff1663a9059cbb600460009054906101000a900473ffffffffffffffffffffffffffffffffffffffff16836040518363ffffffff1660e01b8152600401610f5992919061177f565b602060405180830381600087803b158015610f7357600080fd5b505af1158015610f87573d6000803e3d6000fd5b505050506040513d601f19601f82011682018060405250810190610fab9190611428565b50600360009054906101000a900473ffffffffffffffffffffffffffffffffffffffff1673ffffffffffffffffffffffffffffffffffffffff1663a9059cbb600560009054906101000a900473ffffffffffffffffffffffffffffffffffffffff16836040518363ffffffff1660e01b815260040161102b92919061177f565b602060405180830381600087803b15801561104557600080fd5b505af1158015611059573d6000803e3d6000fd5b505050506040513d601f19601f8201168201806040525081019061107d9190611428565b50505050565b60008060009054906101000a900473ffffffffffffffffffffffffffffffffffffffff16905090565b60075481565b6110ba611231565b8060098190555050565b600260009054906101000a900473ffffffffffffffffffffffffffffffffffffffff1681565b60095481565b6110f8611231565b600073ffffffffffffffffffffffffffffffffffffffff168173ffffffffffffffffffffffffffffffffffffffff161415611168576040517f08c379a000000000000000000000000000000000000000000000000000000000815260040161115f90611823565b60405180910390fd5b611171816112db565b50565b600c6020528060005260406000206000915090508060000154908060010154908060020154908060030154905084565b6111ac611231565b600b60009054906101000a900460ff1615600b60006101000a81548160ff021916908315150217905550565b6002600154141561121e576040517f08c379a000000000000000000000000000000000000000000000000000000000815260040161121590611943565b60405180910390fd5b6002600181905550565b60018081905550565b61123961139f565b73ffffffffffffffffffffffffffffffffffffffff16611257611083565b73ffffffffffffffffffffffffffffffffffffffff16146112ad576040517f08c379a00000000000000000000000000000000000000000000000000000000081526004016112a4906118a3565b60405180910390fd5b565b600081836112bd9190611a7b565b905092915050565b600081836112d39190611a4a565b905092915050565b60008060009054906101000a900473ffffffffffffffffffffffffffffffffffffffff169050816000806101000a81548173ffffffffffffffffffffffffffffffffffffffff021916908373ffffffffffffffffffffffffffffffffffffffff1602179055508173ffffffffffffffffffffffffffffffffffffffff168173ffffffffffffffffffffffffffffffffffffffff167f8be0079c531659141344cd1fd0a4f28419497f9722a3daafe3b4186f6b6457e060405160405180910390a35050565b600033905090565b6000813590506113b681611e8a565b92915050565b6000815190506113cb81611ea1565b92915050565b6000813590506113e081611eb8565b92915050565b6000815190506113f581611eb8565b92915050565b60006020828403121561141157611410611baf565b5b600061141f848285016113a7565b91505092915050565b60006020828403121561143e5761143d611baf565b5b600061144c848285016113bc565b91505092915050565b60006020828403121561146b5761146a611baf565b5b6000611479848285016113d1565b91505092915050565b60006020828403121561149857611497611baf565b5b60006114a6848285016113e6565b91505092915050565b600080600080608085870312156114c9576114c8611baf565b5b60006114d7878288016113d1565b94505060206114e8878288016113d1565b93505060406114f9878288016113d1565b925050606061150a878288016113d1565b91505092959194509250565b61151f81611b09565b82525050565b61152e81611b1b565b82525050565b60006115416019836119e3565b915061154c82611bb4565b602082019050919050565b6000611564600b836119e3565b915061156f82611bdd565b602082019050919050565b6000611587600d836119e3565b915061159282611c06565b602082019050919050565b60006115aa6026836119e3565b91506115b582611c2f565b604082019050919050565b60006115cd6021836119e3565b91506115d882611c7e565b604082019050919050565b60006115f0600d836119e3565b91506115fb82611ccd565b602082019050919050565b60006116136018836119e3565b915061161e82611cf6565b602082019050919050565b60006116366020836119e3565b915061164182611d1f565b602082019050919050565b6000611659602a836119e3565b915061166482611d48565b604082019050919050565b600061167c6018836119e3565b915061168782611d97565b602082019050919050565b600061169f6033836119e3565b91506116aa82611dc0565b604082019050919050565b60006116c26013836119e3565b91506116cd82611e0f565b602082019050919050565b60006116e5601f836119e3565b91506116f082611e38565b602082019050919050565b6000611708601b836119e3565b915061171382611e61565b602082019050919050565b61172781611b47565b82525050565b60006020820190506117426000830184611516565b92915050565b600060608201905061175d6000830186611516565b61176a6020830185611516565b611777604083018461171e565b949350505050565b60006040820190506117946000830185611516565b6117a1602083018461171e565b9392505050565b60006020820190506117bd6000830184611525565b92915050565b600060208201905081810360008301526117dc81611534565b9050919050565b600060208201905081810360008301526117fc81611557565b9050919050565b6000602082019050818103600083015261181c8161157a565b9050919050565b6000602082019050818103600083015261183c8161159d565b9050919050565b6000602082019050818103600083015261185c816115c0565b9050919050565b6000602082019050818103600083015261187c816115e3565b9050919050565b6000602082019050818103600083015261189c81611606565b9050919050565b600060208201905081810360008301526118bc81611629565b9050919050565b600060208201905081810360008301526118dc8161164c565b9050919050565b600060208201905081810360008301526118fc8161166f565b9050919050565b6000602082019050818103600083015261191c81611692565b9050919050565b6000602082019050818103600083015261193c816116b5565b9050919050565b6000602082019050818103600083015261195c816116d8565b9050919050565b6000602082019050818103600083015261197c816116fb565b9050919050565b6000602082019050611998600083018461171e565b92915050565b60006080820190506119b3600083018761171e565b6119c0602083018661171e565b6119cd604083018561171e565b6119da606083018461171e565b95945050505050565b600082825260208201905092915050565b60006119ff82611b47565b9150611a0a83611b47565b9250827fffffffffffffffffffffffffffffffffffffffffffffffffffffffffffffffff03821115611a3f57611a3e611b51565b5b828201905092915050565b6000611a5582611b47565b9150611a6083611b47565b925082611a7057611a6f611b80565b5b828204905092915050565b6000611a8682611b47565b9150611a9183611b47565b9250817fffffffffffffffffffffffffffffffffffffffffffffffffffffffffffffffff0483118215151615611aca57611ac9611b51565b5b828202905092915050565b6000611ae082611b47565b9150611aeb83611b47565b925082821015611afe57611afd611b51565b5b828203905092915050565b6000611b1482611b27565b9050919050565b60008115159050919050565b600073ffffffffffffffffffffffffffffffffffffffff82169050919050565b6000819050919050565b7f4e487b7100000000000000000000000000000000000000000000000000000000600052601160045260246000fd5b7f4e487b7100000000000000000000000000000000000000000000000000000000600052601260045260246000fd5b600080fd5b7f506f6f6c20686173206265656e20696e697469616c697a656400000000000000600082015250565b7f506175736564204561726e000000000000000000000000000000000000000000600082015250565b7f4c696d6974206f66207573657200000000000000000000000000000000000000600082015250565b7f4f776e61626c653a206e6577206f776e657220697320746865207a65726f206160008201527f6464726573730000000000000000000000000000000000000000000000000000602082015250565b7f796f75206e65656420776169742066696e6973682c20746f207769746864726160008201527f7700000000000000000000000000000000000000000000000000000000000000602082015250565b7f4c696d6974206f6620706f6f6c00000000000000000000000000000000000000600082015250565b7f596f7520617265206e6f7420696e2077686974656c6973740000000000000000600082015250565b7f4f776e61626c653a2063616c6c6572206973206e6f7420746865206f776e6572600082015250565b7f496e73756666696369656e7420616d6f756e742c206c657373207468616e207460008201527f6865206d696e696d756d00000000000000000000000000000000000000000000602082015250565b7f506f6f6c20697473206e6f7420696e697469616c697a65640000000000000000600082015250565b7f796f75206861766520616c72656164792077697468647261776e20796f75722060008201527f6361706974616c20616e642070726f6669747300000000000000000000000000602082015250565b7f496e73756666696369656e7420616d6f756e7400000000000000000000000000600082015250565b7f5265656e7472616e637947756172643a207265656e7472616e742063616c6c00600082015250565b7f506f6f6c206c696d697420686173206265656e20726561636865640000000000600082015250565b611e9381611b09565b8114611e9e57600080fd5b50565b611eaa81611b1b565b8114611eb557600080fd5b50565b611ec181611b47565b8114611ecc57600080fd5b5056fea26469706673582212209d31afff8d95bf589941b1bd054ac1db6b80c1d9962248a053235916765ea71264736f6c63430008050033",
  "linkReferences": {},
  "deployedLinkReferences": {}
}