{
  "_format": "hh-sol-artifact-1",
  "contractName": "VoteSimple",
  "sourceName": "contracts/SimpleVote.sol",
  "abi": [
    {
      "inputs": [
        {
          "internalType": "uint256",
          "name": "_time",
          "type": "uint256"
        },
        {
          "internalType": "uint256",
          "name": "_voteForAprove",
          "type": "uint256"
        }
      ],
      "stateMutability": "nonpayable",
      "type": "constructor"
    },
    {
      "anonymous": false,
      "inputs": [
        {
          "indexed": false,
          "internalType": "address",
          "name": "User",
          "type": "address"
        },
        {
          "indexed": false,
          "internalType": "uint256",
          "name": "vote",
          "type": "uint256"
        }
      ],
      "name": "SubmitVote",
      "type": "event"
    },
    {
      "inputs": [
        {
          "internalType": "uint256",
          "name": "_time",
          "type": "uint256"
        }
      ],
      "name": "ChangeTimeVote",
      "outputs": [],
      "stateMutability": "nonpayable",
      "type": "function"
    },
    {
      "inputs": [
        {
          "internalType": "uint256",
          "name": "_voteAprove",
          "type": "uint256"
        }
      ],
      "name": "ChangeVoteAprove",
      "outputs": [],
      "stateMutability": "nonpayable",
      "type": "function"
    },
    {
      "inputs": [],
      "name": "CloseVote",
      "outputs": [
        {
          "internalType": "bool",
          "name": "",
          "type": "bool"
        }
      ],
      "stateMutability": "view",
      "type": "function"
    },
    {
      "inputs": [
        {
          "internalType": "uint256",
          "name": "_vote",
          "type": "uint256"
        }
      ],
      "name": "EmitVote",
      "outputs": [],
      "stateMutability": "nonpayable",
      "type": "function"
    },
    {
      "inputs": [],
      "name": "TimeToVote",
      "outputs": [
        {
          "internalType": "uint256",
          "name": "",
          "type": "uint256"
        }
      ],
      "stateMutability": "view",
      "type": "function"
    },
    {
      "inputs": [
        {
          "internalType": "address",
          "name": "",
          "type": "address"
        }
      ],
      "name": "UserVote",
      "outputs": [
        {
          "internalType": "bool",
          "name": "",
          "type": "bool"
        }
      ],
      "stateMutability": "view",
      "type": "function"
    },
    {
      "inputs": [],
      "name": "VoteForAprove",
      "outputs": [
        {
          "internalType": "uint256",
          "name": "",
          "type": "uint256"
        }
      ],
      "stateMutability": "view",
      "type": "function"
    },
    {
      "inputs": [],
      "name": "VoteNo",
      "outputs": [
        {
          "internalType": "uint256",
          "name": "",
          "type": "uint256"
        }
      ],
      "stateMutability": "view",
      "type": "function"
    },
    {
      "inputs": [],
      "name": "VoteYes",
      "outputs": [
        {
          "internalType": "uint256",
          "name": "",
          "type": "uint256"
        }
      ],
      "stateMutability": "view",
      "type": "function"
    },
    {
      "inputs": [],
      "name": "_owner",
      "outputs": [
        {
          "internalType": "address",
          "name": "",
          "type": "address"
        }
      ],
      "stateMutability": "view",
      "type": "function"
    }
  ],
  "bytecode": "0x608060405234801561001057600080fd5b50604051610ad9380380610ad98339818101604052810190610032919061009d565b806000819055508160038190555033600460006101000a81548173ffffffffffffffffffffffffffffffffffffffff021916908373ffffffffffffffffffffffffffffffffffffffff1602179055505050610103565b600081519050610097816100ec565b92915050565b600080604083850312156100b4576100b36100e7565b5b60006100c285828601610088565b92505060206100d385828601610088565b9150509250929050565b6000819050919050565b600080fd5b6100f5816100dd565b811461010057600080fd5b50565b6109c7806101126000396000f3fe608060405234801561001057600080fd5b506004361061009e5760003560e01c8063b2bdfa7b11610066578063b2bdfa7b14610147578063ba73b67414610165578063bdcacb5214610183578063c4d6560f146101a1578063e8e1b423146101bd5761009e565b8063243792ca146100a357806333d3480a146100c1578063459f7cf8146100f15780637215761c1461010f578063ab12d9981461012b575b600080fd5b6100ab6101db565b6040516100b89190610761565b60405180910390f35b6100db60048036038101906100d69190610598565b6101e1565b6040516100e891906106c6565b60405180910390f35b6100f9610201565b6040516101069190610761565b60405180910390f35b610129600480360381019061012491906105c5565b610207565b005b610145600480360381019061014091906105c5565b6103f5565b005b61014f61048f565b60405161015c91906106ab565b60405180910390f35b61016d6104b5565b60405161017a9190610761565b60405180910390f35b61018b6104bb565b6040516101989190610761565b60405180910390f35b6101bb60048036038101906101b691906105c5565b6104c1565b005b6101c561055b565b6040516101d291906106c6565b60405180910390f35b60025481565b60056020528060005260406000206000915054906101000a900460ff1681565b60035481565b60018114806102165750600281145b610255576040517f08c379a000000000000000000000000000000000000000000000000000000000815260040161024c906106e1565b60405180910390fd5b600560003373ffffffffffffffffffffffffffffffffffffffff1673ffffffffffffffffffffffffffffffffffffffff16815260200190815260200160002060009054906101000a900460ff16156102e2576040517f08c379a00000000000000000000000000000000000000000000000000000000081526004016102d990610741565b60405180910390fd5b600460149054906101000a900460ff1615610332576040517f08c379a000000000000000000000000000000000000000000000000000000000815260040161032990610721565b60405180910390fd5b600181141561035557600180600082825461034d919061078d565b925050819055505b600281141561037957600160026000828254610371919061078d565b925050819055505b600260005461038891906107e3565b600254600154610398919061078d565b50506001600560003373ffffffffffffffffffffffffffffffffffffffff1673ffffffffffffffffffffffffffffffffffffffff16815260200190815260200160002060006101000a81548160ff02191690831515021790555050565b600460009054906101000a900473ffffffffffffffffffffffffffffffffffffffff1673ffffffffffffffffffffffffffffffffffffffff163373ffffffffffffffffffffffffffffffffffffffff1614610485576040517f08c379a000000000000000000000000000000000000000000000000000000000815260040161047c90610701565b60405180910390fd5b8060008190555050565b600460009054906101000a900473ffffffffffffffffffffffffffffffffffffffff1681565b60015481565b60005481565b600460009054906101000a900473ffffffffffffffffffffffffffffffffffffffff1673ffffffffffffffffffffffffffffffffffffffff163373ffffffffffffffffffffffffffffffffffffffff1614610551576040517f08c379a000000000000000000000000000000000000000000000000000000000815260040161054890610701565b60405180910390fd5b8060038190555050565b600460149054906101000a900460ff1681565b60008135905061057d81610963565b92915050565b6000813590506105928161097a565b92915050565b6000602082840312156105ae576105ad6108ba565b5b60006105bc8482850161056e565b91505092915050565b6000602082840312156105db576105da6108ba565b5b60006105e984828501610583565b91505092915050565b6105fb81610814565b82525050565b61060a81610826565b82525050565b600061061d600c8361077c565b9150610628826108bf565b602082019050919050565b600061064060118361077c565b915061064b826108e8565b602082019050919050565b600061066360128361077c565b915061066e82610911565b602082019050919050565b600061068660168361077c565b91506106918261093a565b602082019050919050565b6106a581610852565b82525050565b60006020820190506106c060008301846105f2565b92915050565b60006020820190506106db6000830184610601565b92915050565b600060208201905081810360008301526106fa81610610565b9050919050565b6000602082019050818103600083015261071a81610633565b9050919050565b6000602082019050818103600083015261073a81610656565b9050919050565b6000602082019050818103600083015261075a81610679565b9050919050565b6000602082019050610776600083018461069c565b92915050565b600082825260208201905092915050565b600061079882610852565b91506107a383610852565b9250827fffffffffffffffffffffffffffffffffffffffffffffffffffffffffffffffff038211156107d8576107d761085c565b5b828201905092915050565b60006107ee82610852565b91506107f983610852565b9250826108095761080861088b565b5b828204905092915050565b600061081f82610832565b9050919050565b60008115159050919050565b600073ffffffffffffffffffffffffffffffffffffffff82169050919050565b6000819050919050565b7f4e487b7100000000000000000000000000000000000000000000000000000000600052601160045260246000fd5b7f4e487b7100000000000000000000000000000000000000000000000000000000600052601260045260246000fd5b600080fd5b7f696e76616c696420566f74650000000000000000000000000000000000000000600082015250565b7f596f7520617265206e6f74204f776e6572000000000000000000000000000000600082015250565b7f566f746520616c20526561647920446f6e650000000000000000000000000000600082015250565b7f596f75206861766520616c20726561647920766f746500000000000000000000600082015250565b61096c81610814565b811461097757600080fd5b50565b61098381610852565b811461098e57600080fd5b5056fea2646970667358221220973344e049e86dfff5c33065f64d20a4f3fa1d6d85070b83fedcf81a74d44c1b64736f6c63430008050033",
  "linkReferences": {},
  "deployedLinkReferences": {}
}