{
  "_format": "hh-sol-artifact-1",
  "contractName": "BeNTFTurkei",
  "sourceName": "contracts/BeNFTTurkei.sol",
  "abi": [
    {
      "inputs": [
        {
          "internalType": "address",
          "name": "_usdt",
          "type": "address"
        },
        {
          "internalType": "string",
          "name": "_baseuri",
          "type": "string"
        }
      ],
      "stateMutability": "nonpayable",
      "type": "constructor"
    },
    {
      "anonymous": false,
      "inputs": [
        {
          "indexed": true,
          "internalType": "address",
          "name": "owner",
          "type": "address"
        },
        {
          "indexed": true,
          "internalType": "address",
          "name": "approved",
          "type": "address"
        },
        {
          "indexed": true,
          "internalType": "uint256",
          "name": "tokenId",
          "type": "uint256"
        }
      ],
      "name": "Approval",
      "type": "event"
    },
    {
      "anonymous": false,
      "inputs": [
        {
          "indexed": true,
          "internalType": "address",
          "name": "owner",
          "type": "address"
        },
        {
          "indexed": true,
          "internalType": "address",
          "name": "operator",
          "type": "address"
        },
        {
          "indexed": false,
          "internalType": "bool",
          "name": "approved",
          "type": "bool"
        }
      ],
      "name": "ApprovalForAll",
      "type": "event"
    },
    {
      "anonymous": false,
      "inputs": [
        {
          "indexed": true,
          "internalType": "address",
          "name": "previousOwner",
          "type": "address"
        },
        {
          "indexed": true,
          "internalType": "address",
          "name": "newOwner",
          "type": "address"
        }
      ],
      "name": "OwnershipTransferred",
      "type": "event"
    },
    {
      "anonymous": false,
      "inputs": [
        {
          "indexed": false,
          "internalType": "address",
          "name": "account",
          "type": "address"
        }
      ],
      "name": "Paused",
      "type": "event"
    },
    {
      "anonymous": false,
      "inputs": [
        {
          "indexed": true,
          "internalType": "address",
          "name": "from",
          "type": "address"
        },
        {
          "indexed": true,
          "internalType": "address",
          "name": "to",
          "type": "address"
        },
        {
          "indexed": true,
          "internalType": "uint256",
          "name": "tokenId",
          "type": "uint256"
        }
      ],
      "name": "Transfer",
      "type": "event"
    },
    {
      "anonymous": false,
      "inputs": [
        {
          "indexed": false,
          "internalType": "address",
          "name": "account",
          "type": "address"
        }
      ],
      "name": "Unpaused",
      "type": "event"
    },
    {
      "inputs": [
        {
          "internalType": "uint256",
          "name": "_price",
          "type": "uint256"
        }
      ],
      "name": "ChangePrice",
      "outputs": [],
      "stateMutability": "nonpayable",
      "type": "function"
    },
    {
      "inputs": [
        {
          "internalType": "address",
          "name": "to",
          "type": "address"
        },
        {
          "internalType": "uint256",
          "name": "tokenId",
          "type": "uint256"
        }
      ],
      "name": "approve",
      "outputs": [],
      "stateMutability": "nonpayable",
      "type": "function"
    },
    {
      "inputs": [
        {
          "internalType": "address",
          "name": "owner",
          "type": "address"
        }
      ],
      "name": "balanceOf",
      "outputs": [
        {
          "internalType": "uint256",
          "name": "",
          "type": "uint256"
        }
      ],
      "stateMutability": "view",
      "type": "function"
    },
    {
      "inputs": [
        {
          "internalType": "uint256",
          "name": "tokenId",
          "type": "uint256"
        }
      ],
      "name": "burn",
      "outputs": [],
      "stateMutability": "nonpayable",
      "type": "function"
    },
    {
      "inputs": [
        {
          "internalType": "uint256",
          "name": "tokenId",
          "type": "uint256"
        }
      ],
      "name": "getApproved",
      "outputs": [
        {
          "internalType": "address",
          "name": "",
          "type": "address"
        }
      ],
      "stateMutability": "view",
      "type": "function"
    },
    {
      "inputs": [
        {
          "internalType": "address",
          "name": "owner",
          "type": "address"
        },
        {
          "internalType": "address",
          "name": "operator",
          "type": "address"
        }
      ],
      "name": "isApprovedForAll",
      "outputs": [
        {
          "internalType": "bool",
          "name": "",
          "type": "bool"
        }
      ],
      "stateMutability": "view",
      "type": "function"
    },
    {
      "inputs": [],
      "name": "name",
      "outputs": [
        {
          "internalType": "string",
          "name": "",
          "type": "string"
        }
      ],
      "stateMutability": "view",
      "type": "function"
    },
    {
      "inputs": [],
      "name": "owner",
      "outputs": [
        {
          "internalType": "address",
          "name": "",
          "type": "address"
        }
      ],
      "stateMutability": "view",
      "type": "function"
    },
    {
      "inputs": [
        {
          "internalType": "uint256",
          "name": "tokenId",
          "type": "uint256"
        }
      ],
      "name": "ownerOf",
      "outputs": [
        {
          "internalType": "address",
          "name": "",
          "type": "address"
        }
      ],
      "stateMutability": "view",
      "type": "function"
    },
    {
      "inputs": [],
      "name": "pause",
      "outputs": [],
      "stateMutability": "nonpayable",
      "type": "function"
    },
    {
      "inputs": [],
      "name": "paused",
      "outputs": [
        {
          "internalType": "bool",
          "name": "",
          "type": "bool"
        }
      ],
      "stateMutability": "view",
      "type": "function"
    },
    {
      "inputs": [],
      "name": "price",
      "outputs": [
        {
          "internalType": "uint256",
          "name": "",
          "type": "uint256"
        }
      ],
      "stateMutability": "view",
      "type": "function"
    },
    {
      "inputs": [],
      "name": "renounceOwnership",
      "outputs": [],
      "stateMutability": "nonpayable",
      "type": "function"
    },
    {
      "inputs": [],
      "name": "safeMint",
      "outputs": [],
      "stateMutability": "nonpayable",
      "type": "function"
    },
    {
      "inputs": [
        {
          "internalType": "address",
          "name": "from",
          "type": "address"
        },
        {
          "internalType": "address",
          "name": "to",
          "type": "address"
        },
        {
          "internalType": "uint256",
          "name": "tokenId",
          "type": "uint256"
        }
      ],
      "name": "safeTransferFrom",
      "outputs": [],
      "stateMutability": "nonpayable",
      "type": "function"
    },
    {
      "inputs": [
        {
          "internalType": "address",
          "name": "from",
          "type": "address"
        },
        {
          "internalType": "address",
          "name": "to",
          "type": "address"
        },
        {
          "internalType": "uint256",
          "name": "tokenId",
          "type": "uint256"
        },
        {
          "internalType": "bytes",
          "name": "data",
          "type": "bytes"
        }
      ],
      "name": "safeTransferFrom",
      "outputs": [],
      "stateMutability": "nonpayable",
      "type": "function"
    },
    {
      "inputs": [
        {
          "internalType": "address",
          "name": "operator",
          "type": "address"
        },
        {
          "internalType": "bool",
          "name": "approved",
          "type": "bool"
        }
      ],
      "name": "setApprovalForAll",
      "outputs": [],
      "stateMutability": "nonpayable",
      "type": "function"
    },
    {
      "inputs": [],
      "name": "supply",
      "outputs": [
        {
          "internalType": "uint256",
          "name": "",
          "type": "uint256"
        }
      ],
      "stateMutability": "view",
      "type": "function"
    },
    {
      "inputs": [
        {
          "internalType": "bytes4",
          "name": "interfaceId",
          "type": "bytes4"
        }
      ],
      "name": "supportsInterface",
      "outputs": [
        {
          "internalType": "bool",
          "name": "",
          "type": "bool"
        }
      ],
      "stateMutability": "view",
      "type": "function"
    },
    {
      "inputs": [],
      "name": "symbol",
      "outputs": [
        {
          "internalType": "string",
          "name": "",
          "type": "string"
        }
      ],
      "stateMutability": "view",
      "type": "function"
    },
    {
      "inputs": [
        {
          "internalType": "uint256",
          "name": "index",
          "type": "uint256"
        }
      ],
      "name": "tokenByIndex",
      "outputs": [
        {
          "internalType": "uint256",
          "name": "",
          "type": "uint256"
        }
      ],
      "stateMutability": "view",
      "type": "function"
    },
    {
      "inputs": [
        {
          "internalType": "address",
          "name": "owner",
          "type": "address"
        },
        {
          "internalType": "uint256",
          "name": "index",
          "type": "uint256"
        }
      ],
      "name": "tokenOfOwnerByIndex",
      "outputs": [
        {
          "internalType": "uint256",
          "name": "",
          "type": "uint256"
        }
      ],
      "stateMutability": "view",
      "type": "function"
    },
    {
      "inputs": [
        {
          "internalType": "uint256",
          "name": "tokenId",
          "type": "uint256"
        }
      ],
      "name": "tokenURI",
      "outputs": [
        {
          "internalType": "string",
          "name": "",
          "type": "string"
        }
      ],
      "stateMutability": "view",
      "type": "function"
    },
    {
      "inputs": [],
      "name": "totalSupply",
      "outputs": [
        {
          "internalType": "uint256",
          "name": "",
          "type": "uint256"
        }
      ],
      "stateMutability": "view",
      "type": "function"
    },
    {
      "inputs": [
        {
          "internalType": "address",
          "name": "from",
          "type": "address"
        },
        {
          "internalType": "address",
          "name": "to",
          "type": "address"
        },
        {
          "internalType": "uint256",
          "name": "tokenId",
          "type": "uint256"
        }
      ],
      "name": "transferFrom",
      "outputs": [],
      "stateMutability": "nonpayable",
      "type": "function"
    },
    {
      "inputs": [
        {
          "internalType": "address",
          "name": "newOwner",
          "type": "address"
        }
      ],
      "name": "transferOwnership",
      "outputs": [],
      "stateMutability": "nonpayable",
      "type": "function"
    },
    {
      "inputs": [],
      "name": "unpause",
      "outputs": [],
      "stateMutability": "nonpayable",
      "type": "function"
    }
  ],
  "bytecode": "0x60806040526103e8600b556801a055690d9db80000600c553480156200002457600080fd5b50604051620040843803806200408483398181016040528101906200004a91906200039a565b6040518060400160405280601581526020017f4d617261732026204861746179204368617269747900000000000000000000008152506040518060400160405280600481526020017f4d264843000000000000000000000000000000000000000000000000000000008152508160009080519060200190620000ce92919062000255565b508060019080519060200190620000e792919062000255565b5050506000600a60006101000a81548160ff02191690831515021790555062000125620001196200018760201b60201c565b6200018f60201b60201c565b81600f60006101000a81548173ffffffffffffffffffffffffffffffffffffffff021916908373ffffffffffffffffffffffffffffffffffffffff16021790555080600d90805190602001906200017e92919062000255565b505050620005d2565b600033905090565b6000600a60019054906101000a900473ffffffffffffffffffffffffffffffffffffffff16905081600a60016101000a81548173ffffffffffffffffffffffffffffffffffffffff021916908373ffffffffffffffffffffffffffffffffffffffff1602179055508173ffffffffffffffffffffffffffffffffffffffff168173ffffffffffffffffffffffffffffffffffffffff167f8be0079c531659141344cd1fd0a4f28419497f9722a3daafe3b4186f6b6457e060405160405180910390a35050565b8280546200026390620004c9565b90600052602060002090601f016020900481019282620002875760008555620002d3565b82601f10620002a257805160ff1916838001178555620002d3565b82800160010185558215620002d3579182015b82811115620002d2578251825591602001919060010190620002b5565b5b509050620002e29190620002e6565b5090565b5b8082111562000301576000816000905550600101620002e7565b5090565b60006200031c620003168462000429565b62000400565b9050828152602081018484840111156200033b576200033a62000598565b5b6200034884828562000493565b509392505050565b6000815190506200036181620005b8565b92915050565b600082601f8301126200037f576200037e62000593565b5b81516200039184826020860162000305565b91505092915050565b60008060408385031215620003b457620003b3620005a2565b5b6000620003c48582860162000350565b925050602083015167ffffffffffffffff811115620003e857620003e76200059d565b5b620003f68582860162000367565b9150509250929050565b60006200040c6200041f565b90506200041a8282620004ff565b919050565b6000604051905090565b600067ffffffffffffffff82111562000447576200044662000564565b5b6200045282620005a7565b9050602081019050919050565b60006200046c8262000473565b9050919050565b600073ffffffffffffffffffffffffffffffffffffffff82169050919050565b60005b83811015620004b357808201518184015260208101905062000496565b83811115620004c3576000848401525b50505050565b60006002820490506001821680620004e257607f821691505b60208210811415620004f957620004f862000535565b5b50919050565b6200050a82620005a7565b810181811067ffffffffffffffff821117156200052c576200052b62000564565b5b80604052505050565b7f4e487b7100000000000000000000000000000000000000000000000000000000600052602260045260246000fd5b7f4e487b7100000000000000000000000000000000000000000000000000000000600052604160045260246000fd5b600080fd5b600080fd5b600080fd5b600080fd5b6000601f19601f8301169050919050565b620005c3816200045f565b8114620005cf57600080fd5b50565b613aa280620005e26000396000f3fe608060405234801561001057600080fd5b50600436106101a95760003560e01c80636352211e116100f9578063a035b1fe11610097578063c87b56dd11610071578063c87b56dd14610470578063e985e9c5146104a0578063f2fde38b146104d0578063fb92488b146104ec576101a9565b8063a035b1fe1461041a578063a22cb46514610438578063b88d4fde14610454576101a9565b8063715018a6116100d3578063715018a6146103ca5780638456cb59146103d45780638da5cb5b146103de57806395d89b41146103fc576101a9565b80636352211e146103605780636871ee401461039057806370a082311461039a576101a9565b806323b872dd1161016657806342842e0e1161014057806342842e0e146102da57806342966c68146102f65780634f6ccce7146103125780635c975abb14610342576101a9565b806323b872dd146102845780632f745c59146102a05780633f4ba83a146102d0576101a9565b806301ffc9a7146101ae578063047fc9aa146101de57806306fdde03146101fc578063081812fc1461021a578063095ea7b31461024a57806318160ddd14610266575b600080fd5b6101c860048036038101906101c39190612a50565b610508565b6040516101d59190612f5d565b60405180910390f35b6101e661051a565b6040516101f391906131fa565b60405180910390f35b610204610520565b6040516102119190612f78565b60405180910390f35b610234600480360381019061022f9190612aaa565b6105b2565b6040516102419190612ebf565b60405180910390f35b610264600480360381019061025f91906129e3565b6105f8565b005b61026e610710565b60405161027b91906131fa565b60405180910390f35b61029e600480360381019061029991906128cd565b61071d565b005b6102ba60048036038101906102b591906129e3565b61077d565b6040516102c791906131fa565b60405180910390f35b6102d8610822565b005b6102f460048036038101906102ef91906128cd565b610834565b005b610310600480360381019061030b9190612aaa565b610854565b005b61032c60048036038101906103279190612aaa565b6108b0565b60405161033991906131fa565b60405180910390f35b61034a610921565b6040516103579190612f5d565b60405180910390f35b61037a60048036038101906103759190612aaa565b610938565b6040516103879190612ebf565b60405180910390f35b6103986109bf565b005b6103b460048036038101906103af9190612860565b610b87565b6040516103c191906131fa565b60405180910390f35b6103d2610c3f565b005b6103dc610c53565b005b6103e6610c65565b6040516103f39190612ebf565b60405180910390f35b610404610c8f565b6040516104119190612f78565b60405180910390f35b610422610d21565b60405161042f91906131fa565b60405180910390f35b610452600480360381019061044d91906129a3565b610d27565b005b61046e60048036038101906104699190612920565b610d3d565b005b61048a60048036038101906104859190612aaa565b610d9f565b6040516104979190612f78565b60405180910390f35b6104ba60048036038101906104b5919061288d565b610de2565b6040516104c79190612f5d565b60405180910390f35b6104ea60048036038101906104e59190612860565b610e76565b005b61050660048036038101906105019190612aaa565b610efa565b005b600061051382610f0c565b9050919050565b600b5481565b60606000805461052f90613398565b80601f016020809104026020016040519081016040528092919081815260200182805461055b90613398565b80156105a85780601f1061057d576101008083540402835291602001916105a8565b820191906000526020600020905b81548152906001019060200180831161058b57829003601f168201915b5050505050905090565b60006105bd82610f86565b6004600083815260200190815260200160002060009054906101000a900473ffffffffffffffffffffffffffffffffffffffff169050919050565b600061060382610938565b90508073ffffffffffffffffffffffffffffffffffffffff168373ffffffffffffffffffffffffffffffffffffffff161415610674576040517f08c379a000000000000000000000000000000000000000000000000000000000815260040161066b9061317a565b60405180910390fd5b8073ffffffffffffffffffffffffffffffffffffffff16610693610fd1565b73ffffffffffffffffffffffffffffffffffffffff1614806106c257506106c1816106bc610fd1565b610de2565b5b610701576040517f08c379a00000000000000000000000000000000000000000000000000000000081526004016106f89061319a565b60405180910390fd5b61070b8383610fd9565b505050565b6000600880549050905090565b61072e610728610fd1565b82611092565b61076d576040517f08c379a000000000000000000000000000000000000000000000000000000000815260040161076490612fba565b60405180910390fd5b610778838383611127565b505050565b600061078883610b87565b82106107c9576040517f08c379a00000000000000000000000000000000000000000000000000000000081526004016107c090612fda565b60405180910390fd5b600660008473ffffffffffffffffffffffffffffffffffffffff1673ffffffffffffffffffffffffffffffffffffffff168152602001908152602001600020600083815260200190815260200160002054905092915050565b61082a611421565b61083261149f565b565b61084f83838360405180602001604052806000815250610d3d565b505050565b61086561085f610fd1565b82611092565b6108a4576040517f08c379a000000000000000000000000000000000000000000000000000000000815260040161089b90612fba565b60405180910390fd5b6108ad81611502565b50565b60006108ba610710565b82106108fb576040517f08c379a00000000000000000000000000000000000000000000000000000000081526004016108f2906131ba565b60405180910390fd5b6008828154811061090f5761090e6134b7565b5b90600052602060002001549050919050565b6000600a60009054906101000a900460ff16905090565b60008061094483611650565b9050600073ffffffffffffffffffffffffffffffffffffffff168173ffffffffffffffffffffffffffffffffffffffff1614156109b6576040517f08c379a00000000000000000000000000000000000000000000000000000000081526004016109ad9061315a565b60405180910390fd5b80915050919050565b600c54600f60009054906101000a900473ffffffffffffffffffffffffffffffffffffffff1673ffffffffffffffffffffffffffffffffffffffff166370a08231336040518263ffffffff1660e01b8152600401610a1d9190612ebf565b60206040518083038186803b158015610a3557600080fd5b505afa158015610a49573d6000803e3d6000fd5b505050506040513d601f19601f82011682018060405250810190610a6d9190612ad7565b1015610aae576040517f08c379a0000000000000000000000000000000000000000000000000000000008152600401610aa59061303a565b60405180910390fd5b610ab8600e61168d565b6000610ac4600e6116a3565b9050610ad033826116b1565b600f60009054906101000a900473ffffffffffffffffffffffffffffffffffffffff1673ffffffffffffffffffffffffffffffffffffffff166323b872dd3330600c546040518463ffffffff1660e01b8152600401610b3193929190612eda565b602060405180830381600087803b158015610b4b57600080fd5b505af1158015610b5f573d6000803e3d6000fd5b505050506040513d601f19601f82011682018060405250810190610b839190612a23565b5050565b60008073ffffffffffffffffffffffffffffffffffffffff168273ffffffffffffffffffffffffffffffffffffffff161415610bf8576040517f08c379a0000000000000000000000000000000000000000000000000000000008152600401610bef906130fa565b60405180910390fd5b600360008373ffffffffffffffffffffffffffffffffffffffff1673ffffffffffffffffffffffffffffffffffffffff168152602001908152602001600020549050919050565b610c47611421565b610c5160006116cf565b565b610c5b611421565b610c63611795565b565b6000600a60019054906101000a900473ffffffffffffffffffffffffffffffffffffffff16905090565b606060018054610c9e90613398565b80601f0160208091040260200160405190810160405280929190818152602001828054610cca90613398565b8015610d175780601f10610cec57610100808354040283529160200191610d17565b820191906000526020600020905b815481529060010190602001808311610cfa57829003601f168201915b5050505050905090565b600c5481565b610d39610d32610fd1565b83836117f8565b5050565b610d4e610d48610fd1565b83611092565b610d8d576040517f08c379a0000000000000000000000000000000000000000000000000000000008152600401610d8490612fba565b60405180910390fd5b610d9984848484611965565b50505050565b6060610daa82610f86565b610db26119c1565b610dbb83611a53565b604051602001610dcc929190612e90565b6040516020818303038152906040529050919050565b6000600560008473ffffffffffffffffffffffffffffffffffffffff1673ffffffffffffffffffffffffffffffffffffffff16815260200190815260200160002060008373ffffffffffffffffffffffffffffffffffffffff1673ffffffffffffffffffffffffffffffffffffffff16815260200190815260200160002060009054906101000a900460ff16905092915050565b610e7e611421565b600073ffffffffffffffffffffffffffffffffffffffff168173ffffffffffffffffffffffffffffffffffffffff161415610eee576040517f08c379a0000000000000000000000000000000000000000000000000000000008152600401610ee59061301a565b60405180910390fd5b610ef7816116cf565b50565b610f02611421565b80600c8190555050565b60007f780e9d63000000000000000000000000000000000000000000000000000000007bffffffffffffffffffffffffffffffffffffffffffffffffffffffff1916827bffffffffffffffffffffffffffffffffffffffffffffffffffffffff19161480610f7f5750610f7e82611b2b565b5b9050919050565b610f8f81611c0d565b610fce576040517f08c379a0000000000000000000000000000000000000000000000000000000008152600401610fc59061315a565b60405180910390fd5b50565b600033905090565b816004600083815260200190815260200160002060006101000a81548173ffffffffffffffffffffffffffffffffffffffff021916908373ffffffffffffffffffffffffffffffffffffffff160217905550808273ffffffffffffffffffffffffffffffffffffffff1661104c83610938565b73ffffffffffffffffffffffffffffffffffffffff167f8c5be1e5ebec7d5bd14f71427d1e84f3dd0314c0f7b2291e5b200ac8c7c3b92560405160405180910390a45050565b60008061109e83610938565b90508073ffffffffffffffffffffffffffffffffffffffff168473ffffffffffffffffffffffffffffffffffffffff1614806110e057506110df8185610de2565b5b8061111e57508373ffffffffffffffffffffffffffffffffffffffff16611106846105b2565b73ffffffffffffffffffffffffffffffffffffffff16145b91505092915050565b8273ffffffffffffffffffffffffffffffffffffffff1661114782610938565b73ffffffffffffffffffffffffffffffffffffffff161461119d576040517f08c379a00000000000000000000000000000000000000000000000000000000081526004016111949061305a565b60405180910390fd5b600073ffffffffffffffffffffffffffffffffffffffff168273ffffffffffffffffffffffffffffffffffffffff16141561120d576040517f08c379a00000000000000000000000000000000000000000000000000000000081526004016112049061309a565b60405180910390fd5b61121a8383836001611c4e565b8273ffffffffffffffffffffffffffffffffffffffff1661123a82610938565b73ffffffffffffffffffffffffffffffffffffffff1614611290576040517f08c379a00000000000000000000000000000000000000000000000000000000081526004016112879061305a565b60405180910390fd5b6004600082815260200190815260200160002060006101000a81549073ffffffffffffffffffffffffffffffffffffffff02191690556001600360008573ffffffffffffffffffffffffffffffffffffffff1673ffffffffffffffffffffffffffffffffffffffff168152602001908152602001600020600082825403925050819055506001600360008473ffffffffffffffffffffffffffffffffffffffff1673ffffffffffffffffffffffffffffffffffffffff16815260200190815260200160002060008282540192505081905550816002600083815260200190815260200160002060006101000a81548173ffffffffffffffffffffffffffffffffffffffff021916908373ffffffffffffffffffffffffffffffffffffffff160217905550808273ffffffffffffffffffffffffffffffffffffffff168473ffffffffffffffffffffffffffffffffffffffff167fddf252ad1be2c89b69c2b068fc378daa952ba7f163c4a11628f55a4df523b3ef60405160405180910390a461141c8383836001611c68565b505050565b611429610fd1565b73ffffffffffffffffffffffffffffffffffffffff16611447610c65565b73ffffffffffffffffffffffffffffffffffffffff161461149d576040517f08c379a00000000000000000000000000000000000000000000000000000000081526004016114949061313a565b60405180910390fd5b565b6114a7611c6e565b6000600a60006101000a81548160ff0219169083151502179055507f5db9ee0a495bf2e6ff9c91a7834c1ba4fdd244a5e8aa4e537bd38aeae4b073aa6114eb610fd1565b6040516114f89190612ebf565b60405180910390a1565b600061150d82610938565b905061151d816000846001611c4e565b61152682610938565b90506004600083815260200190815260200160002060006101000a81549073ffffffffffffffffffffffffffffffffffffffff02191690556001600360008373ffffffffffffffffffffffffffffffffffffffff1673ffffffffffffffffffffffffffffffffffffffff168152602001908152602001600020600082825403925050819055506002600083815260200190815260200160002060006101000a81549073ffffffffffffffffffffffffffffffffffffffff021916905581600073ffffffffffffffffffffffffffffffffffffffff168273ffffffffffffffffffffffffffffffffffffffff167fddf252ad1be2c89b69c2b068fc378daa952ba7f163c4a11628f55a4df523b3ef60405160405180910390a461164c816000846001611c68565b5050565b60006002600083815260200190815260200160002060009054906101000a900473ffffffffffffffffffffffffffffffffffffffff169050919050565b6001816000016000828254019250508190555050565b600081600001549050919050565b6116cb828260405180602001604052806000815250611cb7565b5050565b6000600a60019054906101000a900473ffffffffffffffffffffffffffffffffffffffff16905081600a60016101000a81548173ffffffffffffffffffffffffffffffffffffffff021916908373ffffffffffffffffffffffffffffffffffffffff1602179055508173ffffffffffffffffffffffffffffffffffffffff168173ffffffffffffffffffffffffffffffffffffffff167f8be0079c531659141344cd1fd0a4f28419497f9722a3daafe3b4186f6b6457e060405160405180910390a35050565b61179d611d12565b6001600a60006101000a81548160ff0219169083151502179055507f62e78cea01bee320cd4e420270b5ea74000d11b0c9f74754ebdbfc544b05a2586117e1610fd1565b6040516117ee9190612ebf565b60405180910390a1565b8173ffffffffffffffffffffffffffffffffffffffff168373ffffffffffffffffffffffffffffffffffffffff161415611867576040517f08c379a000000000000000000000000000000000000000000000000000000000815260040161185e906130ba565b60405180910390fd5b80600560008573ffffffffffffffffffffffffffffffffffffffff1673ffffffffffffffffffffffffffffffffffffffff16815260200190815260200160002060008473ffffffffffffffffffffffffffffffffffffffff1673ffffffffffffffffffffffffffffffffffffffff16815260200190815260200160002060006101000a81548160ff0219169083151502179055508173ffffffffffffffffffffffffffffffffffffffff168373ffffffffffffffffffffffffffffffffffffffff167f17307eab39ab6107e8899845ad3d59bd9653f200f220920489ca2b5937696c31836040516119589190612f5d565b60405180910390a3505050565b611970848484611127565b61197c84848484611d5c565b6119bb576040517f08c379a00000000000000000000000000000000000000000000000000000000081526004016119b290612ffa565b60405180910390fd5b50505050565b6060600d80546119d090613398565b80601f01602080910402602001604051908101604052809291908181526020018280546119fc90613398565b8015611a495780601f10611a1e57610100808354040283529160200191611a49565b820191906000526020600020905b815481529060010190602001808311611a2c57829003601f168201915b5050505050905090565b606060006001611a6284611ef3565b01905060008167ffffffffffffffff811115611a8157611a806134e6565b5b6040519080825280601f01601f191660200182016040528015611ab35781602001600182028036833780820191505090505b509050600082602001820190505b600115611b20578080600190039150507f3031323334353637383961626364656600000000000000000000000000000000600a86061a8153600a8581611b0a57611b0961342a565b5b0494506000851415611b1b57611b20565b611ac1565b819350505050919050565b60007f80ac58cd000000000000000000000000000000000000000000000000000000007bffffffffffffffffffffffffffffffffffffffffffffffffffffffff1916827bffffffffffffffffffffffffffffffffffffffffffffffffffffffff19161480611bf657507f5b5e139f000000000000000000000000000000000000000000000000000000007bffffffffffffffffffffffffffffffffffffffffffffffffffffffff1916827bffffffffffffffffffffffffffffffffffffffffffffffffffffffff1916145b80611c065750611c0582612046565b5b9050919050565b60008073ffffffffffffffffffffffffffffffffffffffff16611c2f83611650565b73ffffffffffffffffffffffffffffffffffffffff1614159050919050565b611c56611d12565b611c62848484846120b0565b50505050565b50505050565b611c76610921565b611cb5576040517f08c379a0000000000000000000000000000000000000000000000000000000008152600401611cac90612f9a565b60405180910390fd5b565b611cc18383612210565b611cce6000848484611d5c565b611d0d576040517f08c379a0000000000000000000000000000000000000000000000000000000008152600401611d0490612ffa565b60405180910390fd5b505050565b611d1a610921565b15611d5a576040517f08c379a0000000000000000000000000000000000000000000000000000000008152600401611d51906130da565b60405180910390fd5b565b6000611d7d8473ffffffffffffffffffffffffffffffffffffffff1661242e565b15611ee6578373ffffffffffffffffffffffffffffffffffffffff1663150b7a02611da6610fd1565b8786866040518563ffffffff1660e01b8152600401611dc89493929190612f11565b602060405180830381600087803b158015611de257600080fd5b505af1925050508015611e1357506040513d601f19601f82011682018060405250810190611e109190612a7d565b60015b611e96573d8060008114611e43576040519150601f19603f3d011682016040523d82523d6000602084013e611e48565b606091505b50600081511415611e8e576040517f08c379a0000000000000000000000000000000000000000000000000000000008152600401611e8590612ffa565b60405180910390fd5b805181602001fd5b63150b7a0260e01b7bffffffffffffffffffffffffffffffffffffffffffffffffffffffff1916817bffffffffffffffffffffffffffffffffffffffffffffffffffffffff191614915050611eeb565b600190505b949350505050565b600080600090507a184f03e93ff9f4daa797ed6e38ed64bf6a1f0100000000000000008310611f51577a184f03e93ff9f4daa797ed6e38ed64bf6a1f0100000000000000008381611f4757611f4661342a565b5b0492506040810190505b6d04ee2d6d415b85acef81000000008310611f8e576d04ee2d6d415b85acef81000000008381611f8457611f8361342a565b5b0492506020810190505b662386f26fc100008310611fbd57662386f26fc100008381611fb357611fb261342a565b5b0492506010810190505b6305f5e1008310611fe6576305f5e1008381611fdc57611fdb61342a565b5b0492506008810190505b612710831061200b5761271083816120015761200061342a565b5b0492506004810190505b6064831061202e57606483816120245761202361342a565b5b0492506002810190505b600a831061203d576001810190505b80915050919050565b60007f01ffc9a7000000000000000000000000000000000000000000000000000000007bffffffffffffffffffffffffffffffffffffffffffffffffffffffff1916827bffffffffffffffffffffffffffffffffffffffffffffffffffffffff1916149050919050565b6120bc84848484612451565b6001811115612100576040517f08c379a00000000000000000000000000000000000000000000000000000000081526004016120f7906131da565b60405180910390fd5b6000829050600073ffffffffffffffffffffffffffffffffffffffff168573ffffffffffffffffffffffffffffffffffffffff1614156121485761214381612457565b612187565b8373ffffffffffffffffffffffffffffffffffffffff168573ffffffffffffffffffffffffffffffffffffffff16146121865761218585826124a0565b5b5b600073ffffffffffffffffffffffffffffffffffffffff168473ffffffffffffffffffffffffffffffffffffffff1614156121ca576121c58161260d565b612209565b8473ffffffffffffffffffffffffffffffffffffffff168473ffffffffffffffffffffffffffffffffffffffff16146122085761220784826126de565b5b5b5050505050565b600073ffffffffffffffffffffffffffffffffffffffff168273ffffffffffffffffffffffffffffffffffffffff161415612280576040517f08c379a00000000000000000000000000000000000000000000000000000000081526004016122779061311a565b60405180910390fd5b61228981611c0d565b156122c9576040517f08c379a00000000000000000000000000000000000000000000000000000000081526004016122c09061307a565b60405180910390fd5b6122d7600083836001611c4e565b6122e081611c0d565b15612320576040517f08c379a00000000000000000000000000000000000000000000000000000000081526004016123179061307a565b60405180910390fd5b6001600360008473ffffffffffffffffffffffffffffffffffffffff1673ffffffffffffffffffffffffffffffffffffffff16815260200190815260200160002060008282540192505081905550816002600083815260200190815260200160002060006101000a81548173ffffffffffffffffffffffffffffffffffffffff021916908373ffffffffffffffffffffffffffffffffffffffff160217905550808273ffffffffffffffffffffffffffffffffffffffff16600073ffffffffffffffffffffffffffffffffffffffff167fddf252ad1be2c89b69c2b068fc378daa952ba7f163c4a11628f55a4df523b3ef60405160405180910390a461242a600083836001611c68565b5050565b6000808273ffffffffffffffffffffffffffffffffffffffff163b119050919050565b50505050565b6008805490506009600083815260200190815260200160002081905550600881908060018154018082558091505060019003906000526020600020016000909190919091505550565b600060016124ad84610b87565b6124b791906132ae565b905060006007600084815260200190815260200160002054905081811461259c576000600660008673ffffffffffffffffffffffffffffffffffffffff1673ffffffffffffffffffffffffffffffffffffffff168152602001908152602001600020600084815260200190815260200160002054905080600660008773ffffffffffffffffffffffffffffffffffffffff1673ffffffffffffffffffffffffffffffffffffffff168152602001908152602001600020600084815260200190815260200160002081905550816007600083815260200190815260200160002081905550505b6007600084815260200190815260200160002060009055600660008573ffffffffffffffffffffffffffffffffffffffff1673ffffffffffffffffffffffffffffffffffffffff16815260200190815260200160002060008381526020019081526020016000206000905550505050565b6000600160088054905061262191906132ae565b9050600060096000848152602001908152602001600020549050600060088381548110612651576126506134b7565b5b906000526020600020015490508060088381548110612673576126726134b7565b5b9060005260206000200181905550816009600083815260200190815260200160002081905550600960008581526020019081526020016000206000905560088054806126c2576126c1613488565b5b6001900381819060005260206000200160009055905550505050565b60006126e983610b87565b905081600660008573ffffffffffffffffffffffffffffffffffffffff1673ffffffffffffffffffffffffffffffffffffffff168152602001908152602001600020600083815260200190815260200160002081905550806007600084815260200190815260200160002081905550505050565b600061277061276b8461323a565b613215565b90508281526020810184848401111561278c5761278b61351a565b5b612797848285613356565b509392505050565b6000813590506127ae81613a10565b92915050565b6000813590506127c381613a27565b92915050565b6000815190506127d881613a27565b92915050565b6000813590506127ed81613a3e565b92915050565b60008151905061280281613a3e565b92915050565b600082601f83011261281d5761281c613515565b5b813561282d84826020860161275d565b91505092915050565b60008135905061284581613a55565b92915050565b60008151905061285a81613a55565b92915050565b60006020828403121561287657612875613524565b5b60006128848482850161279f565b91505092915050565b600080604083850312156128a4576128a3613524565b5b60006128b28582860161279f565b92505060206128c38582860161279f565b9150509250929050565b6000806000606084860312156128e6576128e5613524565b5b60006128f48682870161279f565b93505060206129058682870161279f565b925050604061291686828701612836565b9150509250925092565b6000806000806080858703121561293a57612939613524565b5b60006129488782880161279f565b94505060206129598782880161279f565b935050604061296a87828801612836565b925050606085013567ffffffffffffffff81111561298b5761298a61351f565b5b61299787828801612808565b91505092959194509250565b600080604083850312156129ba576129b9613524565b5b60006129c88582860161279f565b92505060206129d9858286016127b4565b9150509250929050565b600080604083850312156129fa576129f9613524565b5b6000612a088582860161279f565b9250506020612a1985828601612836565b9150509250929050565b600060208284031215612a3957612a38613524565b5b6000612a47848285016127c9565b91505092915050565b600060208284031215612a6657612a65613524565b5b6000612a74848285016127de565b91505092915050565b600060208284031215612a9357612a92613524565b5b6000612aa1848285016127f3565b91505092915050565b600060208284031215612ac057612abf613524565b5b6000612ace84828501612836565b91505092915050565b600060208284031215612aed57612aec613524565b5b6000612afb8482850161284b565b91505092915050565b612b0d816132e2565b82525050565b612b1c816132f4565b82525050565b6000612b2d8261326b565b612b378185613281565b9350612b47818560208601613365565b612b5081613529565b840191505092915050565b6000612b6682613276565b612b708185613292565b9350612b80818560208601613365565b612b8981613529565b840191505092915050565b6000612b9f82613276565b612ba981856132a3565b9350612bb9818560208601613365565b80840191505092915050565b6000612bd2601483613292565b9150612bdd8261353a565b602082019050919050565b6000612bf5602d83613292565b9150612c0082613563565b604082019050919050565b6000612c18602b83613292565b9150612c23826135b2565b604082019050919050565b6000612c3b603283613292565b9150612c4682613601565b604082019050919050565b6000612c5e602683613292565b9150612c6982613650565b604082019050919050565b6000612c81601383613292565b9150612c8c8261369f565b602082019050919050565b6000612ca4602583613292565b9150612caf826136c8565b604082019050919050565b6000612cc7601c83613292565b9150612cd282613717565b602082019050919050565b6000612cea602483613292565b9150612cf582613740565b604082019050919050565b6000612d0d601983613292565b9150612d188261378f565b602082019050919050565b6000612d30601083613292565b9150612d3b826137b8565b602082019050919050565b6000612d53602983613292565b9150612d5e826137e1565b604082019050919050565b6000612d76602083613292565b9150612d8182613830565b602082019050919050565b6000612d996005836132a3565b9150612da482613859565b600582019050919050565b6000612dbc602083613292565b9150612dc782613882565b602082019050919050565b6000612ddf601883613292565b9150612dea826138ab565b602082019050919050565b6000612e02602183613292565b9150612e0d826138d4565b604082019050919050565b6000612e25603d83613292565b9150612e3082613923565b604082019050919050565b6000612e48602c83613292565b9150612e5382613972565b604082019050919050565b6000612e6b603583613292565b9150612e76826139c1565b604082019050919050565b612e8a8161334c565b82525050565b6000612e9c8285612b94565b9150612ea88284612b94565b9150612eb382612d8c565b91508190509392505050565b6000602082019050612ed46000830184612b04565b92915050565b6000606082019050612eef6000830186612b04565b612efc6020830185612b04565b612f096040830184612e81565b949350505050565b6000608082019050612f266000830187612b04565b612f336020830186612b04565b612f406040830185612e81565b8181036060830152612f528184612b22565b905095945050505050565b6000602082019050612f726000830184612b13565b92915050565b60006020820190508181036000830152612f928184612b5b565b905092915050565b60006020820190508181036000830152612fb381612bc5565b9050919050565b60006020820190508181036000830152612fd381612be8565b9050919050565b60006020820190508181036000830152612ff381612c0b565b9050919050565b6000602082019050818103600083015261301381612c2e565b9050919050565b6000602082019050818103600083015261303381612c51565b9050919050565b6000602082019050818103600083015261305381612c74565b9050919050565b6000602082019050818103600083015261307381612c97565b9050919050565b6000602082019050818103600083015261309381612cba565b9050919050565b600060208201905081810360008301526130b381612cdd565b9050919050565b600060208201905081810360008301526130d381612d00565b9050919050565b600060208201905081810360008301526130f381612d23565b9050919050565b6000602082019050818103600083015261311381612d46565b9050919050565b6000602082019050818103600083015261313381612d69565b9050919050565b6000602082019050818103600083015261315381612daf565b9050919050565b6000602082019050818103600083015261317381612dd2565b9050919050565b6000602082019050818103600083015261319381612df5565b9050919050565b600060208201905081810360008301526131b381612e18565b9050919050565b600060208201905081810360008301526131d381612e3b565b9050919050565b600060208201905081810360008301526131f381612e5e565b9050919050565b600060208201905061320f6000830184612e81565b92915050565b600061321f613230565b905061322b82826133ca565b919050565b6000604051905090565b600067ffffffffffffffff821115613255576132546134e6565b5b61325e82613529565b9050602081019050919050565b600081519050919050565b600081519050919050565b600082825260208201905092915050565b600082825260208201905092915050565b600081905092915050565b60006132b98261334c565b91506132c48361334c565b9250828210156132d7576132d66133fb565b5b828203905092915050565b60006132ed8261332c565b9050919050565b60008115159050919050565b60007fffffffff0000000000000000000000000000000000000000000000000000000082169050919050565b600073ffffffffffffffffffffffffffffffffffffffff82169050919050565b6000819050919050565b82818337600083830152505050565b60005b83811015613383578082015181840152602081019050613368565b83811115613392576000848401525b50505050565b600060028204905060018216806133b057607f821691505b602082108114156133c4576133c3613459565b5b50919050565b6133d382613529565b810181811067ffffffffffffffff821117156133f2576133f16134e6565b5b80604052505050565b7f4e487b7100000000000000000000000000000000000000000000000000000000600052601160045260246000fd5b7f4e487b7100000000000000000000000000000000000000000000000000000000600052601260045260246000fd5b7f4e487b7100000000000000000000000000000000000000000000000000000000600052602260045260246000fd5b7f4e487b7100000000000000000000000000000000000000000000000000000000600052603160045260246000fd5b7f4e487b7100000000000000000000000000000000000000000000000000000000600052603260045260246000fd5b7f4e487b7100000000000000000000000000000000000000000000000000000000600052604160045260246000fd5b600080fd5b600080fd5b600080fd5b600080fd5b6000601f19601f8301169050919050565b7f5061757361626c653a206e6f7420706175736564000000000000000000000000600082015250565b7f4552433732313a2063616c6c6572206973206e6f7420746f6b656e206f776e6560008201527f72206f7220617070726f76656400000000000000000000000000000000000000602082015250565b7f455243373231456e756d657261626c653a206f776e657220696e646578206f7560008201527f74206f6620626f756e6473000000000000000000000000000000000000000000602082015250565b7f4552433732313a207472616e7366657220746f206e6f6e20455243373231526560008201527f63656976657220696d706c656d656e7465720000000000000000000000000000602082015250565b7f4f776e61626c653a206e6577206f776e657220697320746865207a65726f206160008201527f6464726573730000000000000000000000000000000000000000000000000000602082015250565b7f696e73756666696369656e7420616d6f756e7400000000000000000000000000600082015250565b7f4552433732313a207472616e736665722066726f6d20696e636f72726563742060008201527f6f776e6572000000000000000000000000000000000000000000000000000000602082015250565b7f4552433732313a20746f6b656e20616c7265616479206d696e74656400000000600082015250565b7f4552433732313a207472616e7366657220746f20746865207a65726f2061646460008201527f7265737300000000000000000000000000000000000000000000000000000000602082015250565b7f4552433732313a20617070726f766520746f2063616c6c657200000000000000600082015250565b7f5061757361626c653a2070617573656400000000000000000000000000000000600082015250565b7f4552433732313a2061646472657373207a65726f206973206e6f74206120766160008201527f6c6964206f776e65720000000000000000000000000000000000000000000000602082015250565b7f4552433732313a206d696e7420746f20746865207a65726f2061646472657373600082015250565b7f2e6a736f6e000000000000000000000000000000000000000000000000000000600082015250565b7f4f776e61626c653a2063616c6c6572206973206e6f7420746865206f776e6572600082015250565b7f4552433732313a20696e76616c696420746f6b656e2049440000000000000000600082015250565b7f4552433732313a20617070726f76616c20746f2063757272656e74206f776e6560008201527f7200000000000000000000000000000000000000000000000000000000000000602082015250565b7f4552433732313a20617070726f76652063616c6c6572206973206e6f7420746f60008201527f6b656e206f776e6572206f7220617070726f76656420666f7220616c6c000000602082015250565b7f455243373231456e756d657261626c653a20676c6f62616c20696e646578206f60008201527f7574206f6620626f756e64730000000000000000000000000000000000000000602082015250565b7f455243373231456e756d657261626c653a20636f6e736563757469766520747260008201527f616e7366657273206e6f7420737570706f727465640000000000000000000000602082015250565b613a19816132e2565b8114613a2457600080fd5b50565b613a30816132f4565b8114613a3b57600080fd5b50565b613a4781613300565b8114613a5257600080fd5b50565b613a5e8161334c565b8114613a6957600080fd5b5056fea2646970667358221220bd6e3de4e1937f80367a631852e9ab652c2876492a88c36a5957f93a183e9bd064736f6c63430008050033",
  "linkReferences": {},
  "deployedLinkReferences": {}
}