{
  "_format": "hh-sol-artifact-1",
  "contractName": "BENFTPASS2",
  "sourceName": "contracts/BenftPassV2.sol",
  "abi": [
    {
      "inputs": [
        {
          "internalType": "address",
          "name": "_walletPool",
          "type": "address"
        },
        {
          "internalType": "address",
          "name": "_TokenRecibe",
          "type": "address"
        },
        {
          "internalType": "bool",
          "name": "_whiteListed",
          "type": "bool"
        }
      ],
      "stateMutability": "nonpayable",
      "type": "constructor"
    },
    {
      "anonymous": false,
      "inputs": [
        {
          "indexed": true,
          "internalType": "address",
          "name": "previousOwner",
          "type": "address"
        },
        {
          "indexed": true,
          "internalType": "address",
          "name": "newOwner",
          "type": "address"
        }
      ],
      "name": "OwnershipTransferred",
      "type": "event"
    },
    {
      "inputs": [
        {
          "internalType": "uint256",
          "name": "_amount",
          "type": "uint256"
        }
      ],
      "name": "ChangeLimitAmount",
      "outputs": [],
      "stateMutability": "nonpayable",
      "type": "function"
    },
    {
      "inputs": [
        {
          "internalType": "uint256",
          "name": "_amount",
          "type": "uint256"
        }
      ],
      "name": "ChangeMaxAmount",
      "outputs": [],
      "stateMutability": "nonpayable",
      "type": "function"
    },
    {
      "inputs": [
        {
          "internalType": "uint256",
          "name": "_amount",
          "type": "uint256"
        }
      ],
      "name": "ChangeMinAmount",
      "outputs": [],
      "stateMutability": "nonpayable",
      "type": "function"
    },
    {
      "inputs": [
        {
          "internalType": "uint256",
          "name": "_price",
          "type": "uint256"
        }
      ],
      "name": "ChangePrice",
      "outputs": [],
      "stateMutability": "nonpayable",
      "type": "function"
    },
    {
      "inputs": [
        {
          "internalType": "uint256",
          "name": "_recolect",
          "type": "uint256"
        }
      ],
      "name": "ChangeRecolect",
      "outputs": [],
      "stateMutability": "nonpayable",
      "type": "function"
    },
    {
      "inputs": [
        {
          "internalType": "address",
          "name": "_wallet",
          "type": "address"
        }
      ],
      "name": "ChangeWalletRecibe",
      "outputs": [],
      "stateMutability": "nonpayable",
      "type": "function"
    },
    {
      "inputs": [
        {
          "internalType": "uint256",
          "name": "_amount",
          "type": "uint256"
        }
      ],
      "name": "Deposit",
      "outputs": [],
      "stateMutability": "nonpayable",
      "type": "function"
    },
    {
      "inputs": [
        {
          "internalType": "uint256",
          "name": "_limit",
          "type": "uint256"
        },
        {
          "internalType": "uint256",
          "name": "_maxAmount",
          "type": "uint256"
        },
        {
          "internalType": "uint256",
          "name": "_minAmount",
          "type": "uint256"
        },
        {
          "internalType": "uint256",
          "name": "_price",
          "type": "uint256"
        }
      ],
      "name": "Initialized",
      "outputs": [],
      "stateMutability": "nonpayable",
      "type": "function"
    },
    {
      "inputs": [],
      "name": "MaxAmount",
      "outputs": [
        {
          "internalType": "uint256",
          "name": "",
          "type": "uint256"
        }
      ],
      "stateMutability": "view",
      "type": "function"
    },
    {
      "inputs": [],
      "name": "MinAmount",
      "outputs": [
        {
          "internalType": "uint256",
          "name": "",
          "type": "uint256"
        }
      ],
      "stateMutability": "view",
      "type": "function"
    },
    {
      "inputs": [],
      "name": "Price",
      "outputs": [
        {
          "internalType": "uint256",
          "name": "",
          "type": "uint256"
        }
      ],
      "stateMutability": "view",
      "type": "function"
    },
    {
      "inputs": [
        {
          "internalType": "address",
          "name": "_tokens",
          "type": "address"
        }
      ],
      "name": "RecoverTokens",
      "outputs": [],
      "stateMutability": "nonpayable",
      "type": "function"
    },
    {
      "inputs": [],
      "name": "TotalLeft",
      "outputs": [
        {
          "internalType": "uint256",
          "name": "",
          "type": "uint256"
        }
      ],
      "stateMutability": "view",
      "type": "function"
    },
    {
      "inputs": [
        {
          "internalType": "address",
          "name": "_wallet",
          "type": "address"
        }
      ],
      "name": "addUserWhiteList",
      "outputs": [],
      "stateMutability": "nonpayable",
      "type": "function"
    },
    {
      "inputs": [
        {
          "internalType": "address",
          "name": "",
          "type": "address"
        }
      ],
      "name": "balanceUser",
      "outputs": [
        {
          "internalType": "uint256",
          "name": "",
          "type": "uint256"
        }
      ],
      "stateMutability": "view",
      "type": "function"
    },
    {
      "inputs": [],
      "name": "limit",
      "outputs": [
        {
          "internalType": "uint256",
          "name": "",
          "type": "uint256"
        }
      ],
      "stateMutability": "view",
      "type": "function"
    },
    {
      "inputs": [],
      "name": "lock",
      "outputs": [],
      "stateMutability": "nonpayable",
      "type": "function"
    },
    {
      "inputs": [],
      "name": "owner",
      "outputs": [
        {
          "internalType": "address",
          "name": "",
          "type": "address"
        }
      ],
      "stateMutability": "view",
      "type": "function"
    },
    {
      "inputs": [],
      "name": "recolect",
      "outputs": [
        {
          "internalType": "uint256",
          "name": "",
          "type": "uint256"
        }
      ],
      "stateMutability": "view",
      "type": "function"
    },
    {
      "inputs": [],
      "name": "renounceOwnership",
      "outputs": [],
      "stateMutability": "nonpayable",
      "type": "function"
    },
    {
      "inputs": [
        {
          "internalType": "address",
          "name": "newOwner",
          "type": "address"
        }
      ],
      "name": "transferOwnership",
      "outputs": [],
      "stateMutability": "nonpayable",
      "type": "function"
    },
    {
      "inputs": [],
      "name": "walletPool",
      "outputs": [
        {
          "internalType": "address",
          "name": "",
          "type": "address"
        }
      ],
      "stateMutability": "view",
      "type": "function"
    },
    {
      "inputs": [
        {
          "internalType": "address",
          "name": "",
          "type": "address"
        }
      ],
      "name": "whiteList",
      "outputs": [
        {
          "internalType": "bool",
          "name": "",
          "type": "bool"
        }
      ],
      "stateMutability": "view",
      "type": "function"
    }
  ],
  "bytecode": "0x60806040523480156200001157600080fd5b5060405162001a6838038062001a688339818101604052810190620000379190620001fd565b620000576200004b6200010360201b60201c565b6200010b60201b60201c565b6001808190555082600260006101000a81548173ffffffffffffffffffffffffffffffffffffffff021916908373ffffffffffffffffffffffffffffffffffffffff16021790555081600360006101000a81548173ffffffffffffffffffffffffffffffffffffffff021916908373ffffffffffffffffffffffffffffffffffffffff16021790555080600a60026101000a81548160ff021916908315150217905550505050620002d2565b600033905090565b60008060009054906101000a900473ffffffffffffffffffffffffffffffffffffffff169050816000806101000a81548173ffffffffffffffffffffffffffffffffffffffff021916908373ffffffffffffffffffffffffffffffffffffffff1602179055508173ffffffffffffffffffffffffffffffffffffffff168173ffffffffffffffffffffffffffffffffffffffff167f8be0079c531659141344cd1fd0a4f28419497f9722a3daafe3b4186f6b6457e060405160405180910390a35050565b600081519050620001e0816200029e565b92915050565b600081519050620001f781620002b8565b92915050565b60008060006060848603121562000219576200021862000299565b5b60006200022986828701620001cf565b93505060206200023c86828701620001cf565b92505060406200024f86828701620001e6565b9150509250925092565b6000620002668262000279565b9050919050565b60008115159050919050565b600073ffffffffffffffffffffffffffffffffffffffff82169050919050565b600080fd5b620002a98162000259565b8114620002b557600080fd5b50565b620002c3816200026d565b8114620002cf57600080fd5b50565b61178680620002e26000396000f3fe608060405234801561001057600080fd5b506004361061014d5760003560e01c80637586c414116100c3578063ec6524061161007c578063ec6524061461033c578063ede6816e1461035a578063f2fde38b14610378578063f5eb889014610394578063f83d08ba146103c4578063fb92488b146103ce5761014d565b80637586c4141461028a5780638da5cb5b146102a85780639dfde201146102c6578063a4d66daf146102e4578063bb1711a614610302578063e5c154f11461031e5761014d565b806347afd82f1161011557806347afd82f146101f25780634d6ce1e51461020e57806360a810021461022a5780636b68f810146102485780636ff8f8c214610264578063715018a6146102805761014d565b806313cad1d11461015257806321adc9031461016e5780632a8a99381461018a578063372c12b1146101a6578063478b0f87146101d6575b600080fd5b61016c60048036038101906101679190610f3f565b6103ea565b005b61018860048036038101906101839190610f99565b6103fc565b005b6101a4600480360381019061019f9190610ee5565b610491565b005b6101c060048036038101906101bb9190610ee5565b6104f4565b6040516101cd9190611229565b60405180910390f35b6101f060048036038101906101eb9190610ee5565b610514565b005b61020c60048036038101906102079190610ee5565b610635565b005b61022860048036038101906102239190610f3f565b610681565b005b610232610b4f565b60405161023f91906113a4565b60405180910390f35b610262600480360381019061025d9190610f3f565b610b55565b005b61027e60048036038101906102799190610f3f565b610b67565b005b610288610b79565b005b610292610b8d565b60405161029f91906113a4565b60405180910390f35b6102b0610b93565b6040516102bd91906111ae565b60405180910390f35b6102ce610bbc565b6040516102db91906113a4565b60405180910390f35b6102ec610bc2565b6040516102f991906113a4565b60405180910390f35b61031c60048036038101906103179190610f3f565b610bc8565b005b610326610bda565b60405161033391906111ae565b60405180910390f35b610344610c00565b60405161035191906113a4565b60405180910390f35b610362610c06565b60405161036f91906113a4565b60405180910390f35b610392600480360381019061038d9190610ee5565b610c0c565b005b6103ae60048036038101906103a99190610ee5565b610c90565b6040516103bb91906113a4565b60405180910390f35b6103cc610ca8565b005b6103e860048036038101906103e39190610f3f565b610cdc565b005b6103f2610cee565b8060068190555050565b610404610cee565b600a60019054906101000a900460ff1615610454576040517f08c379a000000000000000000000000000000000000000000000000000000000815260040161044b90611244565b60405180910390fd5b836005819055508260068190555081600781905550806008819055506001600a60016101000a81548160ff02191690831515021790555050505050565b610499610cee565b6001600c60008373ffffffffffffffffffffffffffffffffffffffff1673ffffffffffffffffffffffffffffffffffffffff16815260200190815260200160002060006101000a81548160ff02191690831515021790555050565b600c6020528060005260406000206000915054906101000a900460ff1681565b61051c610cee565b8073ffffffffffffffffffffffffffffffffffffffff1663a9059cbb338373ffffffffffffffffffffffffffffffffffffffff166370a08231306040518263ffffffff1660e01b815260040161057291906111ae565b60206040518083038186803b15801561058a57600080fd5b505afa15801561059e573d6000803e3d6000fd5b505050506040513d601f19601f820116820180604052508101906105c29190610f6c565b6040518363ffffffff1660e01b81526004016105df929190611200565b602060405180830381600087803b1580156105f957600080fd5b505af115801561060d573d6000803e3d6000fd5b505050506040513d601f19601f820116820180604052508101906106319190610f12565b5050565b61063d610cee565b80600260006101000a81548173ffffffffffffffffffffffffffffffffffffffff021916908373ffffffffffffffffffffffffffffffffffffffff16021790555050565b610689610d6c565b600a60009054906101000a900460ff16156106d9576040517f08c379a00000000000000000000000000000000000000000000000000000000081526004016106d090611264565b60405180910390fd5b600a60019054906101000a900460ff16610728576040517f08c379a000000000000000000000000000000000000000000000000000000000815260040161071f90611344565b60405180910390fd5b600a60029054906101000a900460ff16156107ca57600c60003373ffffffffffffffffffffffffffffffffffffffff1673ffffffffffffffffffffffffffffffffffffffff16815260200190815260200160002060009054906101000a900460ff166107c9576040517f08c379a00000000000000000000000000000000000000000000000000000000081526004016107c0906112e4565b60405180910390fd5b5b6000816008546107da9190611426565b905080600360009054906101000a900473ffffffffffffffffffffffffffffffffffffffff1673ffffffffffffffffffffffffffffffffffffffff166370a08231336040518263ffffffff1660e01b815260040161083891906111ae565b60206040518083038186803b15801561085057600080fd5b505afa158015610864573d6000803e3d6000fd5b505050506040513d601f19601f820116820180604052508101906108889190610f6c565b10156108c9576040517f08c379a00000000000000000000000000000000000000000000000000000000081526004016108c090611364565b60405180910390fd5b6000600b60003373ffffffffffffffffffffffffffffffffffffffff1673ffffffffffffffffffffffffffffffffffffffff168152602001908152602001600020549050828161091991906113d0565b9050826009600082825461092d91906113d0565b92505081905550816004600082825461094691906113d0565b92505081905550600654811115610992576040517f08c379a000000000000000000000000000000000000000000000000000000000815260040161098990611284565b60405180910390fd5b60055460095411156109d9576040517f08c379a00000000000000000000000000000000000000000000000000000000081526004016109d0906112c4565b60405180910390fd5b60006007541115610a2a57600754831015610a29576040517f08c379a0000000000000000000000000000000000000000000000000000000008152600401610a2090611324565b60405180910390fd5b5b80600b60003373ffffffffffffffffffffffffffffffffffffffff1673ffffffffffffffffffffffffffffffffffffffff16815260200190815260200160002081905550600360009054906101000a900473ffffffffffffffffffffffffffffffffffffffff1673ffffffffffffffffffffffffffffffffffffffff166323b872dd33600260009054906101000a900473ffffffffffffffffffffffffffffffffffffffff16856040518463ffffffff1660e01b8152600401610aef939291906111c9565b602060405180830381600087803b158015610b0957600080fd5b505af1158015610b1d573d6000803e3d6000fd5b505050506040513d601f19601f82011682018060405250810190610b419190610f12565b505050610b4c610dbc565b50565b60065481565b610b5d610cee565b8060058190555050565b610b6f610cee565b8060048190555050565b610b81610cee565b610b8b6000610dc5565b565b60045481565b60008060009054906101000a900473ffffffffffffffffffffffffffffffffffffffff16905090565b60085481565b60055481565b610bd0610cee565b8060078190555050565b600260009054906101000a900473ffffffffffffffffffffffffffffffffffffffff1681565b60075481565b60095481565b610c14610cee565b600073ffffffffffffffffffffffffffffffffffffffff168173ffffffffffffffffffffffffffffffffffffffff161415610c84576040517f08c379a0000000000000000000000000000000000000000000000000000000008152600401610c7b906112a4565b60405180910390fd5b610c8d81610dc5565b50565b600b6020528060005260406000206000915090505481565b610cb0610cee565b600a60009054906101000a900460ff1615600a60006101000a81548160ff021916908315150217905550565b610ce4610cee565b8060088190555050565b610cf6610e89565b73ffffffffffffffffffffffffffffffffffffffff16610d14610b93565b73ffffffffffffffffffffffffffffffffffffffff1614610d6a576040517f08c379a0000000000000000000000000000000000000000000000000000000008152600401610d6190611304565b60405180910390fd5b565b60026001541415610db2576040517f08c379a0000000000000000000000000000000000000000000000000000000008152600401610da990611384565b60405180910390fd5b6002600181905550565b60018081905550565b60008060009054906101000a900473ffffffffffffffffffffffffffffffffffffffff169050816000806101000a81548173ffffffffffffffffffffffffffffffffffffffff021916908373ffffffffffffffffffffffffffffffffffffffff1602179055508173ffffffffffffffffffffffffffffffffffffffff168173ffffffffffffffffffffffffffffffffffffffff167f8be0079c531659141344cd1fd0a4f28419497f9722a3daafe3b4186f6b6457e060405160405180910390a35050565b600033905090565b600081359050610ea08161170b565b92915050565b600081519050610eb581611722565b92915050565b600081359050610eca81611739565b92915050565b600081519050610edf81611739565b92915050565b600060208284031215610efb57610efa6114f7565b5b6000610f0984828501610e91565b91505092915050565b600060208284031215610f2857610f276114f7565b5b6000610f3684828501610ea6565b91505092915050565b600060208284031215610f5557610f546114f7565b5b6000610f6384828501610ebb565b91505092915050565b600060208284031215610f8257610f816114f7565b5b6000610f9084828501610ed0565b91505092915050565b60008060008060808587031215610fb357610fb26114f7565b5b6000610fc187828801610ebb565b9450506020610fd287828801610ebb565b9350506040610fe387828801610ebb565b9250506060610ff487828801610ebb565b91505092959194509250565b61100981611480565b82525050565b61101881611492565b82525050565b600061102b6019836113bf565b9150611036826114fc565b602082019050919050565b600061104e600b836113bf565b915061105982611525565b602082019050919050565b6000611071600d836113bf565b915061107c8261154e565b602082019050919050565b60006110946026836113bf565b915061109f82611577565b604082019050919050565b60006110b7600d836113bf565b91506110c2826115c6565b602082019050919050565b60006110da6018836113bf565b91506110e5826115ef565b602082019050919050565b60006110fd6020836113bf565b915061110882611618565b602082019050919050565b6000611120602a836113bf565b915061112b82611641565b604082019050919050565b60006111436018836113bf565b915061114e82611690565b602082019050919050565b60006111666013836113bf565b9150611171826116b9565b602082019050919050565b6000611189601f836113bf565b9150611194826116e2565b602082019050919050565b6111a8816114be565b82525050565b60006020820190506111c36000830184611000565b92915050565b60006060820190506111de6000830186611000565b6111eb6020830185611000565b6111f8604083018461119f565b949350505050565b60006040820190506112156000830185611000565b611222602083018461119f565b9392505050565b600060208201905061123e600083018461100f565b92915050565b6000602082019050818103600083015261125d8161101e565b9050919050565b6000602082019050818103600083015261127d81611041565b9050919050565b6000602082019050818103600083015261129d81611064565b9050919050565b600060208201905081810360008301526112bd81611087565b9050919050565b600060208201905081810360008301526112dd816110aa565b9050919050565b600060208201905081810360008301526112fd816110cd565b9050919050565b6000602082019050818103600083015261131d816110f0565b9050919050565b6000602082019050818103600083015261133d81611113565b9050919050565b6000602082019050818103600083015261135d81611136565b9050919050565b6000602082019050818103600083015261137d81611159565b9050919050565b6000602082019050818103600083015261139d8161117c565b9050919050565b60006020820190506113b9600083018461119f565b92915050565b600082825260208201905092915050565b60006113db826114be565b91506113e6836114be565b9250827fffffffffffffffffffffffffffffffffffffffffffffffffffffffffffffffff0382111561141b5761141a6114c8565b5b828201905092915050565b6000611431826114be565b915061143c836114be565b9250817fffffffffffffffffffffffffffffffffffffffffffffffffffffffffffffffff0483118215151615611475576114746114c8565b5b828202905092915050565b600061148b8261149e565b9050919050565b60008115159050919050565b600073ffffffffffffffffffffffffffffffffffffffff82169050919050565b6000819050919050565b7f4e487b7100000000000000000000000000000000000000000000000000000000600052601160045260246000fd5b600080fd5b7f506f6f6c20686173206265656e20696e697469616c697a656400000000000000600082015250565b7f506175736564204561726e000000000000000000000000000000000000000000600082015250565b7f4c696d6974206f66207573657200000000000000000000000000000000000000600082015250565b7f4f776e61626c653a206e6577206f776e657220697320746865207a65726f206160008201527f6464726573730000000000000000000000000000000000000000000000000000602082015250565b7f4c696d6974206f6620706f6f6c00000000000000000000000000000000000000600082015250565b7f596f7520617265206e6f7420696e2077686974656c6973740000000000000000600082015250565b7f4f776e61626c653a2063616c6c6572206973206e6f7420746865206f776e6572600082015250565b7f496e73756666696369656e7420616d6f756e742c206c657373207468616e207460008201527f6865206d696e696d756d00000000000000000000000000000000000000000000602082015250565b7f506f6f6c20697473206e6f7420696e697469616c697a65640000000000000000600082015250565b7f496e73756666696369656e7420616d6f756e7400000000000000000000000000600082015250565b7f5265656e7472616e637947756172643a207265656e7472616e742063616c6c00600082015250565b61171481611480565b811461171f57600080fd5b50565b61172b81611492565b811461173657600080fd5b50565b611742816114be565b811461174d57600080fd5b5056fea26469706673582212206aa479088aa0191c7ead6920985cb718da34e99205195f697edabf0cb3ac579c64736f6c63430008050033",
  "linkReferences": {},
  "deployedLinkReferences": {}
}