{
  "_format": "hh-sol-artifact-1",
  "contractName": "BeNFTEARN",
  "sourceName": "contracts/Earn.sol",
  "abi": [
    {
      "inputs": [
        {
          "internalType": "address",
          "name": "_walletPool",
          "type": "address"
        },
        {
          "internalType": "address",
          "name": "_TokenRecibe",
          "type": "address"
        },
        {
          "internalType": "address",
          "name": "_wallet1",
          "type": "address"
        },
        {
          "internalType": "address",
          "name": "_wallet2",
          "type": "address"
        },
        {
          "internalType": "bool",
          "name": "_whitelist",
          "type": "bool"
        }
      ],
      "stateMutability": "nonpayable",
      "type": "constructor"
    },
    {
      "anonymous": false,
      "inputs": [
        {
          "indexed": true,
          "internalType": "address",
          "name": "previousOwner",
          "type": "address"
        },
        {
          "indexed": true,
          "internalType": "address",
          "name": "newOwner",
          "type": "address"
        }
      ],
      "name": "OwnershipTransferred",
      "type": "event"
    },
    {
      "inputs": [
        {
          "internalType": "uint256",
          "name": "_amount",
          "type": "uint256"
        }
      ],
      "name": "ChangeLimitAmount",
      "outputs": [],
      "stateMutability": "nonpayable",
      "type": "function"
    },
    {
      "inputs": [
        {
          "internalType": "uint256",
          "name": "_amount",
          "type": "uint256"
        }
      ],
      "name": "ChangeMaxAmount",
      "outputs": [],
      "stateMutability": "nonpayable",
      "type": "function"
    },
    {
      "inputs": [
        {
          "internalType": "uint256",
          "name": "_amount",
          "type": "uint256"
        }
      ],
      "name": "ChangeMinAmount",
      "outputs": [],
      "stateMutability": "nonpayable",
      "type": "function"
    },
    {
      "inputs": [
        {
          "internalType": "uint256",
          "name": "_amount",
          "type": "uint256"
        }
      ],
      "name": "ChangePercent",
      "outputs": [],
      "stateMutability": "nonpayable",
      "type": "function"
    },
    {
      "inputs": [
        {
          "internalType": "address",
          "name": "_wallet",
          "type": "address"
        }
      ],
      "name": "ChangeWallet1",
      "outputs": [],
      "stateMutability": "nonpayable",
      "type": "function"
    },
    {
      "inputs": [
        {
          "internalType": "address",
          "name": "_wallet",
          "type": "address"
        }
      ],
      "name": "ChangeWallet2",
      "outputs": [],
      "stateMutability": "nonpayable",
      "type": "function"
    },
    {
      "inputs": [
        {
          "internalType": "address",
          "name": "_wallet",
          "type": "address"
        }
      ],
      "name": "ChangeWalletRecibe",
      "outputs": [],
      "stateMutability": "nonpayable",
      "type": "function"
    },
    {
      "inputs": [
        {
          "internalType": "uint256",
          "name": "_amount",
          "type": "uint256"
        }
      ],
      "name": "Deposit",
      "outputs": [],
      "stateMutability": "nonpayable",
      "type": "function"
    },
    {
      "inputs": [],
      "name": "Distribute",
      "outputs": [],
      "stateMutability": "nonpayable",
      "type": "function"
    },
    {
      "inputs": [],
      "name": "EarnClaim",
      "outputs": [],
      "stateMutability": "nonpayable",
      "type": "function"
    },
    {
      "inputs": [
        {
          "internalType": "uint256",
          "name": "_limit",
          "type": "uint256"
        },
        {
          "internalType": "uint256",
          "name": "_maxAmount",
          "type": "uint256"
        },
        {
          "internalType": "uint256",
          "name": "_minAmount",
          "type": "uint256"
        },
        {
          "internalType": "uint256",
          "name": "_percent",
          "type": "uint256"
        }
      ],
      "name": "Initialized",
      "outputs": [],
      "stateMutability": "nonpayable",
      "type": "function"
    },
    {
      "inputs": [],
      "name": "MaxAmount",
      "outputs": [
        {
          "internalType": "uint256",
          "name": "",
          "type": "uint256"
        }
      ],
      "stateMutability": "view",
      "type": "function"
    },
    {
      "inputs": [],
      "name": "MinAmount",
      "outputs": [
        {
          "internalType": "uint256",
          "name": "",
          "type": "uint256"
        }
      ],
      "stateMutability": "view",
      "type": "function"
    },
    {
      "inputs": [],
      "name": "PercentEarn",
      "outputs": [
        {
          "internalType": "uint256",
          "name": "",
          "type": "uint256"
        }
      ],
      "stateMutability": "view",
      "type": "function"
    },
    {
      "inputs": [
        {
          "internalType": "address",
          "name": "_tokens",
          "type": "address"
        }
      ],
      "name": "RecoverTokens",
      "outputs": [],
      "stateMutability": "nonpayable",
      "type": "function"
    },
    {
      "inputs": [
        {
          "internalType": "address",
          "name": "_wallet",
          "type": "address"
        }
      ],
      "name": "addUserWhiteList",
      "outputs": [],
      "stateMutability": "nonpayable",
      "type": "function"
    },
    {
      "inputs": [
        {
          "internalType": "address",
          "name": "",
          "type": "address"
        }
      ],
      "name": "balanceUser",
      "outputs": [
        {
          "internalType": "uint256",
          "name": "Amount",
          "type": "uint256"
        },
        {
          "internalType": "uint256",
          "name": "initTime",
          "type": "uint256"
        },
        {
          "internalType": "uint256",
          "name": "finishTime",
          "type": "uint256"
        },
        {
          "internalType": "uint256",
          "name": "Earn",
          "type": "uint256"
        }
      ],
      "stateMutability": "view",
      "type": "function"
    },
    {
      "inputs": [],
      "name": "limit",
      "outputs": [
        {
          "internalType": "uint256",
          "name": "",
          "type": "uint256"
        }
      ],
      "stateMutability": "view",
      "type": "function"
    },
    {
      "inputs": [],
      "name": "lock",
      "outputs": [],
      "stateMutability": "nonpayable",
      "type": "function"
    },
    {
      "inputs": [],
      "name": "owner",
      "outputs": [
        {
          "internalType": "address",
          "name": "",
          "type": "address"
        }
      ],
      "stateMutability": "view",
      "type": "function"
    },
    {
      "inputs": [],
      "name": "recolect",
      "outputs": [
        {
          "internalType": "uint256",
          "name": "",
          "type": "uint256"
        }
      ],
      "stateMutability": "view",
      "type": "function"
    },
    {
      "inputs": [],
      "name": "renounceOwnership",
      "outputs": [],
      "stateMutability": "nonpayable",
      "type": "function"
    },
    {
      "inputs": [
        {
          "internalType": "address",
          "name": "newOwner",
          "type": "address"
        }
      ],
      "name": "transferOwnership",
      "outputs": [],
      "stateMutability": "nonpayable",
      "type": "function"
    },
    {
      "inputs": [],
      "name": "walletPool",
      "outputs": [
        {
          "internalType": "address",
          "name": "",
          "type": "address"
        }
      ],
      "stateMutability": "view",
      "type": "function"
    },
    {
      "inputs": [
        {
          "internalType": "address",
          "name": "",
          "type": "address"
        }
      ],
      "name": "whiteList",
      "outputs": [
        {
          "internalType": "bool",
          "name": "",
          "type": "bool"
        }
      ],
      "stateMutability": "view",
      "type": "function"
    }
  ],
  "bytecode": "0x60806040523480156200001157600080fd5b506040516200243e3803806200243e833981810160405281019062000037919062000281565b620000576200004b6200018760201b60201c565b6200018f60201b60201c565b6001808190555084600260006101000a81548173ffffffffffffffffffffffffffffffffffffffff021916908373ffffffffffffffffffffffffffffffffffffffff16021790555083600360006101000a81548173ffffffffffffffffffffffffffffffffffffffff021916908373ffffffffffffffffffffffffffffffffffffffff16021790555082600460006101000a81548173ffffffffffffffffffffffffffffffffffffffff021916908373ffffffffffffffffffffffffffffffffffffffff16021790555081600560006101000a81548173ffffffffffffffffffffffffffffffffffffffff021916908373ffffffffffffffffffffffffffffffffffffffff16021790555080600b60026101000a81548160ff021916908315150217905550505050505062000382565b600033905090565b60008060009054906101000a900473ffffffffffffffffffffffffffffffffffffffff169050816000806101000a81548173ffffffffffffffffffffffffffffffffffffffff021916908373ffffffffffffffffffffffffffffffffffffffff1602179055508173ffffffffffffffffffffffffffffffffffffffff168173ffffffffffffffffffffffffffffffffffffffff167f8be0079c531659141344cd1fd0a4f28419497f9722a3daafe3b4186f6b6457e060405160405180910390a35050565b60008151905062000264816200034e565b92915050565b6000815190506200027b8162000368565b92915050565b600080600080600060a08688031215620002a0576200029f62000349565b5b6000620002b08882890162000253565b9550506020620002c38882890162000253565b9450506040620002d68882890162000253565b9350506060620002e98882890162000253565b9250506080620002fc888289016200026a565b9150509295509295909350565b6000620003168262000329565b9050919050565b60008115159050919050565b600073ffffffffffffffffffffffffffffffffffffffff82169050919050565b600080fd5b620003598162000309565b81146200036557600080fd5b50565b62000373816200031d565b81146200037f57600080fd5b50565b6120ac80620003926000396000f3fe608060405234801561001057600080fd5b50600436106101735760003560e01c8063715018a6116100de578063bb1711a611610097578063ec65240611610071578063ec652406146103ae578063f2fde38b146103cc578063f5eb8890146103e8578063f83d08ba1461041b57610173565b8063bb1711a61461036a578063e5c154f114610386578063e7f50afe146103a457610173565b8063715018a6146102e05780637586c414146102ea5780637c32ae1b146103085780638da5cb5b1461031257806397a6410114610330578063a4d66daf1461034c57610173565b8063478b0f8711610130578063478b0f871461023457806347afd82f146102505780634d6ce1e51461026c57806354f3a6e01461028857806360a81002146102a65780636b68f810146102c457610173565b806313cad1d11461017857806319704d2a1461019457806321adc903146101b05780632a8a9938146101cc578063372c12b1146101e857806339b6e9d014610218575b600080fd5b610192600480360381019061018d91906115fc565b610425565b005b6101ae60048036038101906101a991906115a2565b610437565b005b6101ca60048036038101906101c59190611656565b610483565b005b6101e660048036038101906101e191906115a2565b610518565b005b61020260048036038101906101fd91906115a2565b61057b565b60405161020f919061194f565b60405180910390f35b610232600480360381019061022d91906115a2565b61059b565b005b61024e600480360381019061024991906115a2565b6105e7565b005b61026a600480360381019061026591906115a2565b610708565b005b610286600480360381019061028191906115fc565b610754565b005b610290610d0c565b60405161029d9190611b2a565b60405180910390f35b6102ae610d12565b6040516102bb9190611b2a565b60405180910390f35b6102de60048036038101906102d991906115fc565b610d18565b005b6102e8610d2a565b005b6102f2610d3e565b6040516102ff9190611b2a565b60405180910390f35b610310610d44565b005b61031a610f59565b60405161032791906118d4565b60405180910390f35b61034a600480360381019061034591906115fc565b610f82565b005b610354610f94565b6040516103619190611b2a565b60405180910390f35b610384600480360381019061037f91906115fc565b610f9a565b005b61038e610fac565b60405161039b91906118d4565b60405180910390f35b6103ac610fd2565b005b6103b6611291565b6040516103c39190611b2a565b60405180910390f35b6103e660048036038101906103e191906115a2565b611297565b005b61040260048036038101906103fd91906115a2565b61131b565b6040516104129493929190611b45565b60405180910390f35b61042361134b565b005b61042d61137f565b8060088190555050565b61043f61137f565b80600560006101000a81548173ffffffffffffffffffffffffffffffffffffffff021916908373ffffffffffffffffffffffffffffffffffffffff16021790555050565b61048b61137f565b600b60019054906101000a900460ff16156104db576040517f08c379a00000000000000000000000000000000000000000000000000000000081526004016104d29061196a565b60405180910390fd5b83600781905550826008819055508160098190555080600a819055506001600b60016101000a81548160ff02191690831515021790555050505050565b61052061137f565b6001600d60008373ffffffffffffffffffffffffffffffffffffffff1673ffffffffffffffffffffffffffffffffffffffff16815260200190815260200160002060006101000a81548160ff02191690831515021790555050565b600d6020528060005260406000206000915054906101000a900460ff1681565b6105a361137f565b80600460006101000a81548173ffffffffffffffffffffffffffffffffffffffff021916908373ffffffffffffffffffffffffffffffffffffffff16021790555050565b6105ef61137f565b8073ffffffffffffffffffffffffffffffffffffffff1663a9059cbb338373ffffffffffffffffffffffffffffffffffffffff166370a08231306040518263ffffffff1660e01b815260040161064591906118d4565b60206040518083038186803b15801561065d57600080fd5b505afa158015610671573d6000803e3d6000fd5b505050506040513d601f19601f820116820180604052508101906106959190611629565b6040518363ffffffff1660e01b81526004016106b2929190611926565b602060405180830381600087803b1580156106cc57600080fd5b505af11580156106e0573d6000803e3d6000fd5b505050506040513d601f19601f8201168201806040525081019061070491906115cf565b5050565b61071061137f565b80600260006101000a81548173ffffffffffffffffffffffffffffffffffffffff021916908373ffffffffffffffffffffffffffffffffffffffff16021790555050565b61075c6113fd565b600b60009054906101000a900460ff16156107ac576040517f08c379a00000000000000000000000000000000000000000000000000000000081526004016107a39061198a565b60405180910390fd5b600b60019054906101000a900460ff166107fb576040517f08c379a00000000000000000000000000000000000000000000000000000000081526004016107f290611a8a565b60405180910390fd5b600b60029054906101000a900460ff161561089d57600d60003373ffffffffffffffffffffffffffffffffffffffff1673ffffffffffffffffffffffffffffffffffffffff16815260200190815260200160002060009054906101000a900460ff1661089c576040517f08c379a000000000000000000000000000000000000000000000000000000000815260040161089390611a2a565b60405180910390fd5b5b80600360009054906101000a900473ffffffffffffffffffffffffffffffffffffffff1673ffffffffffffffffffffffffffffffffffffffff166370a08231336040518263ffffffff1660e01b81526004016108f991906118d4565b60206040518083038186803b15801561091157600080fd5b505afa158015610925573d6000803e3d6000fd5b505050506040513d601f19601f820116820180604052508101906109499190611629565b101561098a576040517f08c379a000000000000000000000000000000000000000000000000000000000815260040161098190611aca565b60405180910390fd5b6000600c60003373ffffffffffffffffffffffffffffffffffffffff1673ffffffffffffffffffffffffffffffffffffffff16815260200190815260200160002060405180608001604052908160008201548152602001600182015481526020016002820154815260200160038201548152505090508160066000828254610a129190611b9b565b925050819055508181600001818151610a2b9190611b9b565b91508181525050600854816000015110610a7a576040517f08c379a0000000000000000000000000000000000000000000000000000000008152600401610a71906119aa565b60405180910390fd5b6007548210610abe576040517f08c379a0000000000000000000000000000000000000000000000000000000008152600401610ab590611a0a565b60405180910390fd5b60075460065410610b04576040517f08c379a0000000000000000000000000000000000000000000000000000000008152600401610afb90611b0a565b60405180910390fd5b60006009541115610b5557600954821015610b54576040517f08c379a0000000000000000000000000000000000000000000000000000000008152600401610b4b90611a6a565b60405180910390fd5b5b6000610b836064610b75600a54856000015161144d90919063ffffffff16565b61146390919063ffffffff16565b8260000151610b929190611b9b565b90508082606001818152505062278d0042610bad9190611b9b565b8260400181815250504282602001818152505081600c60003373ffffffffffffffffffffffffffffffffffffffff1673ffffffffffffffffffffffffffffffffffffffff16815260200190815260200160002060008201518160000155602082015181600101556040820151816002015560608201518160030155905050600360009054906101000a900473ffffffffffffffffffffffffffffffffffffffff1673ffffffffffffffffffffffffffffffffffffffff166323b872dd33600260009054906101000a900473ffffffffffffffffffffffffffffffffffffffff16866040518463ffffffff1660e01b8152600401610cac939291906118ef565b602060405180830381600087803b158015610cc657600080fd5b505af1158015610cda573d6000803e3d6000fd5b505050506040513d601f19601f82011682018060405250810190610cfe91906115cf565b505050610d09611479565b50565b600a5481565b60085481565b610d2061137f565b8060078190555050565b610d3261137f565b610d3c6000611482565b565b60065481565b610d4c61137f565b6000610d776064610d69603260065461144d90919063ffffffff16565b61146390919063ffffffff16565b600654610d849190611b9b565b9050600060065482610d969190611c7c565b90506000610dae60028361146390919063ffffffff16565b9050600360009054906101000a900473ffffffffffffffffffffffffffffffffffffffff1673ffffffffffffffffffffffffffffffffffffffff1663a9059cbb600460009054906101000a900473ffffffffffffffffffffffffffffffffffffffff16836040518363ffffffff1660e01b8152600401610e2f929190611926565b602060405180830381600087803b158015610e4957600080fd5b505af1158015610e5d573d6000803e3d6000fd5b505050506040513d601f19601f82011682018060405250810190610e8191906115cf565b50600360009054906101000a900473ffffffffffffffffffffffffffffffffffffffff1673ffffffffffffffffffffffffffffffffffffffff1663a9059cbb600560009054906101000a900473ffffffffffffffffffffffffffffffffffffffff16836040518363ffffffff1660e01b8152600401610f01929190611926565b602060405180830381600087803b158015610f1b57600080fd5b505af1158015610f2f573d6000803e3d6000fd5b505050506040513d601f19601f82011682018060405250810190610f5391906115cf565b50505050565b60008060009054906101000a900473ffffffffffffffffffffffffffffffffffffffff16905090565b610f8a61137f565b80600a8190555050565b60075481565b610fa261137f565b8060098190555050565b600260009054906101000a900473ffffffffffffffffffffffffffffffffffffffff1681565b610fda6113fd565b600b60009054906101000a900460ff161561102a576040517f08c379a00000000000000000000000000000000000000000000000000000000081526004016110219061198a565b60405180910390fd5b6000600c60003373ffffffffffffffffffffffffffffffffffffffff1673ffffffffffffffffffffffffffffffffffffffff168152602001908152602001600020604051806080016040529081600082015481526020016001820154815260200160028201548152602001600382015481525050905042816040015111156110e7576040517f08c379a00000000000000000000000000000000000000000000000000000000081526004016110de906119ea565b60405180910390fd5b600081600001511161112e576040517f08c379a000000000000000000000000000000000000000000000000000000000815260040161112590611aaa565b60405180910390fd5b600081606001519050600082600001818152505060008260600181815250508160000151600660008282546111639190611c7c565b9250508190555081600c60003373ffffffffffffffffffffffffffffffffffffffff1673ffffffffffffffffffffffffffffffffffffffff16815260200190815260200160002060008201518160000155602082015181600101556040820151816002015560608201518160030155905050600360009054906101000a900473ffffffffffffffffffffffffffffffffffffffff1673ffffffffffffffffffffffffffffffffffffffff1663a9059cbb33836040518363ffffffff1660e01b8152600401611232929190611926565b602060405180830381600087803b15801561124c57600080fd5b505af1158015611260573d6000803e3d6000fd5b505050506040513d601f19601f8201168201806040525081019061128491906115cf565b50505061128f611479565b565b60095481565b61129f61137f565b600073ffffffffffffffffffffffffffffffffffffffff168173ffffffffffffffffffffffffffffffffffffffff16141561130f576040517f08c379a0000000000000000000000000000000000000000000000000000000008152600401611306906119ca565b60405180910390fd5b61131881611482565b50565b600c6020528060005260406000206000915090508060000154908060010154908060020154908060030154905084565b61135361137f565b600b60009054906101000a900460ff1615600b60006101000a81548160ff021916908315150217905550565b611387611546565b73ffffffffffffffffffffffffffffffffffffffff166113a5610f59565b73ffffffffffffffffffffffffffffffffffffffff16146113fb576040517f08c379a00000000000000000000000000000000000000000000000000000000081526004016113f290611a4a565b60405180910390fd5b565b60026001541415611443576040517f08c379a000000000000000000000000000000000000000000000000000000000815260040161143a90611aea565b60405180910390fd5b6002600181905550565b6000818361145b9190611c22565b905092915050565b600081836114719190611bf1565b905092915050565b60018081905550565b60008060009054906101000a900473ffffffffffffffffffffffffffffffffffffffff169050816000806101000a81548173ffffffffffffffffffffffffffffffffffffffff021916908373ffffffffffffffffffffffffffffffffffffffff1602179055508173ffffffffffffffffffffffffffffffffffffffff168173ffffffffffffffffffffffffffffffffffffffff167f8be0079c531659141344cd1fd0a4f28419497f9722a3daafe3b4186f6b6457e060405160405180910390a35050565b600033905090565b60008135905061155d81612031565b92915050565b60008151905061157281612048565b92915050565b6000813590506115878161205f565b92915050565b60008151905061159c8161205f565b92915050565b6000602082840312156115b8576115b7611d56565b5b60006115c68482850161154e565b91505092915050565b6000602082840312156115e5576115e4611d56565b5b60006115f384828501611563565b91505092915050565b60006020828403121561161257611611611d56565b5b600061162084828501611578565b91505092915050565b60006020828403121561163f5761163e611d56565b5b600061164d8482850161158d565b91505092915050565b600080600080608085870312156116705761166f611d56565b5b600061167e87828801611578565b945050602061168f87828801611578565b93505060406116a087828801611578565b92505060606116b187828801611578565b91505092959194509250565b6116c681611cb0565b82525050565b6116d581611cc2565b82525050565b60006116e8601983611b8a565b91506116f382611d5b565b602082019050919050565b600061170b600b83611b8a565b915061171682611d84565b602082019050919050565b600061172e600d83611b8a565b915061173982611dad565b602082019050919050565b6000611751602683611b8a565b915061175c82611dd6565b604082019050919050565b6000611774602183611b8a565b915061177f82611e25565b604082019050919050565b6000611797600d83611b8a565b91506117a282611e74565b602082019050919050565b60006117ba601883611b8a565b91506117c582611e9d565b602082019050919050565b60006117dd602083611b8a565b91506117e882611ec6565b602082019050919050565b6000611800602a83611b8a565b915061180b82611eef565b604082019050919050565b6000611823601883611b8a565b915061182e82611f3e565b602082019050919050565b6000611846603383611b8a565b915061185182611f67565b604082019050919050565b6000611869601383611b8a565b915061187482611fb6565b602082019050919050565b600061188c601f83611b8a565b915061189782611fdf565b602082019050919050565b60006118af601b83611b8a565b91506118ba82612008565b602082019050919050565b6118ce81611cee565b82525050565b60006020820190506118e960008301846116bd565b92915050565b600060608201905061190460008301866116bd565b61191160208301856116bd565b61191e60408301846118c5565b949350505050565b600060408201905061193b60008301856116bd565b61194860208301846118c5565b9392505050565b600060208201905061196460008301846116cc565b92915050565b60006020820190508181036000830152611983816116db565b9050919050565b600060208201905081810360008301526119a3816116fe565b9050919050565b600060208201905081810360008301526119c381611721565b9050919050565b600060208201905081810360008301526119e381611744565b9050919050565b60006020820190508181036000830152611a0381611767565b9050919050565b60006020820190508181036000830152611a238161178a565b9050919050565b60006020820190508181036000830152611a43816117ad565b9050919050565b60006020820190508181036000830152611a63816117d0565b9050919050565b60006020820190508181036000830152611a83816117f3565b9050919050565b60006020820190508181036000830152611aa381611816565b9050919050565b60006020820190508181036000830152611ac381611839565b9050919050565b60006020820190508181036000830152611ae38161185c565b9050919050565b60006020820190508181036000830152611b038161187f565b9050919050565b60006020820190508181036000830152611b23816118a2565b9050919050565b6000602082019050611b3f60008301846118c5565b92915050565b6000608082019050611b5a60008301876118c5565b611b6760208301866118c5565b611b7460408301856118c5565b611b8160608301846118c5565b95945050505050565b600082825260208201905092915050565b6000611ba682611cee565b9150611bb183611cee565b9250827fffffffffffffffffffffffffffffffffffffffffffffffffffffffffffffffff03821115611be657611be5611cf8565b5b828201905092915050565b6000611bfc82611cee565b9150611c0783611cee565b925082611c1757611c16611d27565b5b828204905092915050565b6000611c2d82611cee565b9150611c3883611cee565b9250817fffffffffffffffffffffffffffffffffffffffffffffffffffffffffffffffff0483118215151615611c7157611c70611cf8565b5b828202905092915050565b6000611c8782611cee565b9150611c9283611cee565b925082821015611ca557611ca4611cf8565b5b828203905092915050565b6000611cbb82611cce565b9050919050565b60008115159050919050565b600073ffffffffffffffffffffffffffffffffffffffff82169050919050565b6000819050919050565b7f4e487b7100000000000000000000000000000000000000000000000000000000600052601160045260246000fd5b7f4e487b7100000000000000000000000000000000000000000000000000000000600052601260045260246000fd5b600080fd5b7f506f6f6c20686173206265656e20696e697469616c697a656400000000000000600082015250565b7f506175736564204561726e000000000000000000000000000000000000000000600082015250565b7f4c696d6974206f66207573657200000000000000000000000000000000000000600082015250565b7f4f776e61626c653a206e6577206f776e657220697320746865207a65726f206160008201527f6464726573730000000000000000000000000000000000000000000000000000602082015250565b7f796f75206e65656420776169742066696e6973682c20746f207769746864726160008201527f7700000000000000000000000000000000000000000000000000000000000000602082015250565b7f4c696d6974206f6620706f6f6c00000000000000000000000000000000000000600082015250565b7f596f7520617265206e6f7420696e2077686974656c6973740000000000000000600082015250565b7f4f776e61626c653a2063616c6c6572206973206e6f7420746865206f776e6572600082015250565b7f496e73756666696369656e7420616d6f756e742c206c657373207468616e207460008201527f6865206d696e696d756d00000000000000000000000000000000000000000000602082015250565b7f506f6f6c20697473206e6f7420696e697469616c697a65640000000000000000600082015250565b7f796f75206861766520616c72656164792077697468647261776e20796f75722060008201527f6361706974616c20616e642070726f6669747300000000000000000000000000602082015250565b7f496e73756666696369656e7420616d6f756e7400000000000000000000000000600082015250565b7f5265656e7472616e637947756172643a207265656e7472616e742063616c6c00600082015250565b7f506f6f6c206c696d697420686173206265656e20726561636865640000000000600082015250565b61203a81611cb0565b811461204557600080fd5b50565b61205181611cc2565b811461205c57600080fd5b50565b61206881611cee565b811461207357600080fd5b5056fea2646970667358221220c3b2a2d9a0486dcd9309677bd0389a3a5fee89dddd2ced130fdd08371cd54ac864736f6c63430008050033",
  "linkReferences": {},
  "deployedLinkReferences": {}
}