{
  "_format": "hh-sol-artifact-1",
  "contractName": "BeNFT",
  "sourceName": "contracts/BeNFT.sol",
  "abi": [
    {
      "inputs": [],
      "stateMutability": "nonpayable",
      "type": "constructor"
    },
    {
      "anonymous": false,
      "inputs": [
        {
          "indexed": true,
          "internalType": "address",
          "name": "owner",
          "type": "address"
        },
        {
          "indexed": true,
          "internalType": "address",
          "name": "spender",
          "type": "address"
        },
        {
          "indexed": false,
          "internalType": "uint256",
          "name": "value",
          "type": "uint256"
        }
      ],
      "name": "Approval",
      "type": "event"
    },
    {
      "anonymous": false,
      "inputs": [
        {
          "indexed": true,
          "internalType": "address",
          "name": "from",
          "type": "address"
        },
        {
          "indexed": true,
          "internalType": "address",
          "name": "to",
          "type": "address"
        },
        {
          "indexed": false,
          "internalType": "uint256",
          "name": "value",
          "type": "uint256"
        }
      ],
      "name": "Transfer",
      "type": "event"
    },
    {
      "inputs": [
        {
          "internalType": "uint256",
          "name": "_amount",
          "type": "uint256"
        }
      ],
      "name": "Burn",
      "outputs": [],
      "stateMutability": "nonpayable",
      "type": "function"
    },
    {
      "inputs": [
        {
          "internalType": "address",
          "name": "owner",
          "type": "address"
        },
        {
          "internalType": "address",
          "name": "spender",
          "type": "address"
        }
      ],
      "name": "allowance",
      "outputs": [
        {
          "internalType": "uint256",
          "name": "",
          "type": "uint256"
        }
      ],
      "stateMutability": "view",
      "type": "function"
    },
    {
      "inputs": [
        {
          "internalType": "address",
          "name": "spender",
          "type": "address"
        },
        {
          "internalType": "uint256",
          "name": "amount",
          "type": "uint256"
        }
      ],
      "name": "approve",
      "outputs": [
        {
          "internalType": "bool",
          "name": "",
          "type": "bool"
        }
      ],
      "stateMutability": "nonpayable",
      "type": "function"
    },
    {
      "inputs": [
        {
          "internalType": "address",
          "name": "account",
          "type": "address"
        }
      ],
      "name": "balanceOf",
      "outputs": [
        {
          "internalType": "uint256",
          "name": "",
          "type": "uint256"
        }
      ],
      "stateMutability": "view",
      "type": "function"
    },
    {
      "inputs": [
        {
          "internalType": "address",
          "name": "account",
          "type": "address"
        }
      ],
      "name": "checkBlackList",
      "outputs": [
        {
          "internalType": "bool",
          "name": "",
          "type": "bool"
        }
      ],
      "stateMutability": "view",
      "type": "function"
    },
    {
      "inputs": [],
      "name": "decimals",
      "outputs": [
        {
          "internalType": "uint8",
          "name": "",
          "type": "uint8"
        }
      ],
      "stateMutability": "view",
      "type": "function"
    },
    {
      "inputs": [
        {
          "internalType": "address",
          "name": "account",
          "type": "address"
        }
      ],
      "name": "excludeListed",
      "outputs": [],
      "stateMutability": "nonpayable",
      "type": "function"
    },
    {
      "inputs": [
        {
          "internalType": "address",
          "name": "account",
          "type": "address"
        }
      ],
      "name": "includeListed",
      "outputs": [],
      "stateMutability": "nonpayable",
      "type": "function"
    },
    {
      "inputs": [],
      "name": "lock",
      "outputs": [],
      "stateMutability": "nonpayable",
      "type": "function"
    },
    {
      "inputs": [],
      "name": "name",
      "outputs": [
        {
          "internalType": "string",
          "name": "",
          "type": "string"
        }
      ],
      "stateMutability": "view",
      "type": "function"
    },
    {
      "inputs": [],
      "name": "owner",
      "outputs": [
        {
          "internalType": "address",
          "name": "",
          "type": "address"
        }
      ],
      "stateMutability": "view",
      "type": "function"
    },
    {
      "inputs": [],
      "name": "symbol",
      "outputs": [
        {
          "internalType": "string",
          "name": "",
          "type": "string"
        }
      ],
      "stateMutability": "view",
      "type": "function"
    },
    {
      "inputs": [],
      "name": "totalSupply",
      "outputs": [
        {
          "internalType": "uint256",
          "name": "",
          "type": "uint256"
        }
      ],
      "stateMutability": "view",
      "type": "function"
    },
    {
      "inputs": [
        {
          "internalType": "address",
          "name": "recipient",
          "type": "address"
        },
        {
          "internalType": "uint256",
          "name": "amount",
          "type": "uint256"
        }
      ],
      "name": "transfer",
      "outputs": [
        {
          "internalType": "bool",
          "name": "",
          "type": "bool"
        }
      ],
      "stateMutability": "nonpayable",
      "type": "function"
    },
    {
      "inputs": [
        {
          "internalType": "address",
          "name": "sender",
          "type": "address"
        },
        {
          "internalType": "address",
          "name": "recipient",
          "type": "address"
        },
        {
          "internalType": "uint256",
          "name": "amount",
          "type": "uint256"
        }
      ],
      "name": "transferFrom",
      "outputs": [
        {
          "internalType": "bool",
          "name": "",
          "type": "bool"
        }
      ],
      "stateMutability": "nonpayable",
      "type": "function"
    },
    {
      "inputs": [],
      "name": "unlock",
      "outputs": [],
      "stateMutability": "nonpayable",
      "type": "function"
    }
  ],
  "bytecode": "0x60806040526040518060400160405280600f81526020017f42654e465420536f6c7574696f6e73000000000000000000000000000000000081525060059080519060200190620000519291906200023e565b506040518060400160405280600681526020017f2442654e46540000000000000000000000000000000000000000000000000000815250600690805190602001906200009f9291906200023e565b506009600760006101000a81548160ff021916908360ff160217905550600760009054906101000a900460ff16600a620000da919062000377565b626acfc0620000ea9190620004b4565b600855348015620000fa57600080fd5b506200010b6200023660201b60201c565b6000806101000a81548173ffffffffffffffffffffffffffffffffffffffff021916908373ffffffffffffffffffffffffffffffffffffffff16021790555060085460036000735bd904c6c0c6ebe4fbc2df455e2d6e6e014123f573ffffffffffffffffffffffffffffffffffffffff1673ffffffffffffffffffffffffffffffffffffffff16815260200190815260200160002081905550735bd904c6c0c6ebe4fbc2df455e2d6e6e014123f573ffffffffffffffffffffffffffffffffffffffff16620001df6200023660201b60201c565b73ffffffffffffffffffffffffffffffffffffffff167fddf252ad1be2c89b69c2b068fc378daa952ba7f163c4a11628f55a4df523b3ef600854604051620002289190620002ff565b60405180910390a3620005cd565b600033905090565b8280546200024c906200052c565b90600052602060002090601f016020900481019282620002705760008555620002bc565b82601f106200028b57805160ff1916838001178555620002bc565b82800160010185558215620002bc579182015b82811115620002bb5782518255916020019190600101906200029e565b5b509050620002cb9190620002cf565b5090565b5b80821115620002ea576000816000905550600101620002d0565b5090565b620002f98162000515565b82525050565b6000602082019050620003166000830184620002ee565b92915050565b6000808291508390505b60018511156200036e5780860481111562000346576200034562000562565b5b6001851615620003565780820291505b80810290506200036685620005c0565b945062000326565b94509492505050565b6000620003848262000515565b915062000391836200051f565b9250620003c07fffffffffffffffffffffffffffffffffffffffffffffffffffffffffffffffff8484620003c8565b905092915050565b600082620003da5760019050620004ad565b81620003ea5760009050620004ad565b81600181146200040357600281146200040e5762000444565b6001915050620004ad565b60ff84111562000423576200042262000562565b5b8360020a9150848211156200043d576200043c62000562565b5b50620004ad565b5060208310610133831016604e8410600b84101617156200047e5782820a90508381111562000478576200047762000562565b5b620004ad565b6200048d84848460016200031c565b92509050818404811115620004a757620004a662000562565b5b81810290505b9392505050565b6000620004c18262000515565b9150620004ce8362000515565b9250817fffffffffffffffffffffffffffffffffffffffffffffffffffffffffffffffff04831182151516156200050a576200050962000562565b5b828202905092915050565b6000819050919050565b600060ff82169050919050565b600060028204905060018216806200054557607f821691505b602082108114156200055c576200055b62000591565b5b50919050565b7f4e487b7100000000000000000000000000000000000000000000000000000000600052601160045260246000fd5b7f4e487b7100000000000000000000000000000000000000000000000000000000600052602260045260246000fd5b60008160011c9050919050565b61230680620005dd6000396000f3fe608060405234801561001057600080fd5b50600436106101005760003560e01c806395d89b4111610097578063dd62ed3e11610066578063dd62ed3e1461029d578063e4f282ad146102cd578063f83d08ba146102fd578063fb99b0161461030757610100565b806395d89b4114610229578063a69df4b514610247578063a9059cbb14610251578063b90306ad1461028157610100565b8063313ce567116100d3578063313ce567146101a157806370a08231146101bf5780638ba27fa5146101ef5780638da5cb5b1461020b57610100565b806306fdde0314610105578063095ea7b31461012357806318160ddd1461015357806323b872dd14610171575b600080fd5b61010d610323565b60405161011a9190611b01565b60405180910390f35b61013d600480360381019061013891906117ff565b6103b5565b60405161014a9190611ae6565b60405180910390f35b61015b6103d3565b6040516101689190611ce3565b60405180910390f35b61018b600480360381019061018691906117ac565b6103dd565b6040516101989190611ae6565b60405180910390f35b6101a96104b6565b6040516101b69190611cfe565b60405180910390f35b6101d960048036038101906101d4919061173f565b6104cd565b6040516101e69190611ce3565b60405180910390f35b6102096004803603810190610204919061173f565b610516565b005b610213610699565b6040516102209190611acb565b60405180910390f35b6102316106c2565b60405161023e9190611b01565b60405180910390f35b61024f610754565b005b61026b600480360381019061026691906117ff565b610806565b6040516102789190611ae6565b60405180910390f35b61029b6004803603810190610296919061183f565b610824565b005b6102b760048036038101906102b2919061176c565b6108cd565b6040516102c49190611ce3565b60405180910390f35b6102e760048036038101906102e2919061173f565b610954565b6040516102f49190611ae6565b60405180910390f35b610305610a3f565b005b610321600480360381019061031c919061173f565b610af0565b005b60606005805461033290611e47565b80601f016020809104026020016040519081016040528092919081815260200182805461035e90611e47565b80156103ab5780601f10610380576101008083540402835291602001916103ab565b820191906000526020600020905b81548152906001019060200180831161038e57829003601f168201915b5050505050905090565b60006103c96103c2610c73565b8484610c7b565b6001905092915050565b6000600854905090565b60006103ea848484610fb6565b6104ab846103f6610c73565b6104a68560405180606001604052806021815260200161228a60219139600460008b73ffffffffffffffffffffffffffffffffffffffff1673ffffffffffffffffffffffffffffffffffffffff168152602001908152602001600020600061045c610c73565b73ffffffffffffffffffffffffffffffffffffffff1673ffffffffffffffffffffffffffffffffffffffff168152602001908152602001600020546114799092919063ffffffff16565b610c7b565b600190509392505050565b6000600760009054906101000a900460ff16905090565b6000600360008373ffffffffffffffffffffffffffffffffffffffff1673ffffffffffffffffffffffffffffffffffffffff168152602001908152602001600020549050919050565b61051e610c73565b73ffffffffffffffffffffffffffffffffffffffff1660008054906101000a900473ffffffffffffffffffffffffffffffffffffffff1673ffffffffffffffffffffffffffffffffffffffff16146105ab576040517f08c379a00000000000000000000000000000000000000000000000000000000081526004016105a290611c03565b60405180910390fd5b60011515600260008373ffffffffffffffffffffffffffffffffffffffff1673ffffffffffffffffffffffffffffffffffffffff16815260200190815260200160002060009054906101000a900460ff1615151461063e576040517f08c379a000000000000000000000000000000000000000000000000000000000815260040161063590611b23565b60405180910390fd5b6000600260008373ffffffffffffffffffffffffffffffffffffffff1673ffffffffffffffffffffffffffffffffffffffff16815260200190815260200160002060006101000a81548160ff02191690831515021790555050565b60008060009054906101000a900473ffffffffffffffffffffffffffffffffffffffff16905090565b6060600680546106d190611e47565b80601f01602080910402602001604051908101604052809291908181526020018280546106fd90611e47565b801561074a5780601f1061071f5761010080835404028352916020019161074a565b820191906000526020600020905b81548152906001019060200180831161072d57829003601f168201915b5050505050905090565b61075c610c73565b73ffffffffffffffffffffffffffffffffffffffff1660008054906101000a900473ffffffffffffffffffffffffffffffffffffffff1673ffffffffffffffffffffffffffffffffffffffff16146107e9576040517f08c379a00000000000000000000000000000000000000000000000000000000081526004016107e090611c03565b60405180910390fd5b6000600160146101000a81548160ff021916908315150217905550565b600061081a610813610c73565b8484610fb6565b6001905092915050565b61082c610c73565b73ffffffffffffffffffffffffffffffffffffffff1660008054906101000a900473ffffffffffffffffffffffffffffffffffffffff1673ffffffffffffffffffffffffffffffffffffffff16146108b9576040517f08c379a00000000000000000000000000000000000000000000000000000000081526004016108b090611c03565b60405180910390fd5b6108ca6108c4610c73565b826114dd565b50565b6000600460008473ffffffffffffffffffffffffffffffffffffffff1673ffffffffffffffffffffffffffffffffffffffff16815260200190815260200160002060008373ffffffffffffffffffffffffffffffffffffffff1673ffffffffffffffffffffffffffffffffffffffff16815260200190815260200160002054905092915050565b600061095e610c73565b73ffffffffffffffffffffffffffffffffffffffff1660008054906101000a900473ffffffffffffffffffffffffffffffffffffffff1673ffffffffffffffffffffffffffffffffffffffff16146109eb576040517f08c379a00000000000000000000000000000000000000000000000000000000081526004016109e290611c03565b60405180910390fd5b600260008373ffffffffffffffffffffffffffffffffffffffff1673ffffffffffffffffffffffffffffffffffffffff16815260200190815260200160002060009054906101000a900460ff169050919050565b610a47610c73565b73ffffffffffffffffffffffffffffffffffffffff1660008054906101000a900473ffffffffffffffffffffffffffffffffffffffff1673ffffffffffffffffffffffffffffffffffffffff1614610ad4576040517f08c379a0000000000000000000000000000000000000000000000000000000008152600401610acb90611c03565b60405180910390fd5b60018060146101000a81548160ff021916908315150217905550565b610af8610c73565b73ffffffffffffffffffffffffffffffffffffffff1660008054906101000a900473ffffffffffffffffffffffffffffffffffffffff1673ffffffffffffffffffffffffffffffffffffffff1614610b85576040517f08c379a0000000000000000000000000000000000000000000000000000000008152600401610b7c90611c03565b60405180910390fd5b60001515600260008373ffffffffffffffffffffffffffffffffffffffff1673ffffffffffffffffffffffffffffffffffffffff16815260200190815260200160002060009054906101000a900460ff16151514610c18576040517f08c379a0000000000000000000000000000000000000000000000000000000008152600401610c0f90611c83565b60405180910390fd5b6001600260008373ffffffffffffffffffffffffffffffffffffffff1673ffffffffffffffffffffffffffffffffffffffff16815260200190815260200160002060006101000a81548160ff02191690831515021790555050565b600033905090565b60001515600160149054906101000a900460ff16151514610cd1576040517f08c379a0000000000000000000000000000000000000000000000000000000008152600401610cc890611ca3565b60405180910390fd5b600073ffffffffffffffffffffffffffffffffffffffff168373ffffffffffffffffffffffffffffffffffffffff161415610d41576040517f08c379a0000000000000000000000000000000000000000000000000000000008152600401610d3890611b83565b60405180910390fd5b600073ffffffffffffffffffffffffffffffffffffffff168273ffffffffffffffffffffffffffffffffffffffff161415610db1576040517f08c379a0000000000000000000000000000000000000000000000000000000008152600401610da890611cc3565b60405180910390fd5b600260008473ffffffffffffffffffffffffffffffffffffffff1673ffffffffffffffffffffffffffffffffffffffff16815260200190815260200160002060009054906101000a900460ff1615610e3e576040517f08c379a0000000000000000000000000000000000000000000000000000000008152600401610e3590611be3565b60405180910390fd5b600260008373ffffffffffffffffffffffffffffffffffffffff1673ffffffffffffffffffffffffffffffffffffffff16815260200190815260200160002060009054906101000a900460ff1615610ecb576040517f08c379a0000000000000000000000000000000000000000000000000000000008152600401610ec290611be3565b60405180910390fd5b80600460008573ffffffffffffffffffffffffffffffffffffffff1673ffffffffffffffffffffffffffffffffffffffff16815260200190815260200160002060008473ffffffffffffffffffffffffffffffffffffffff1673ffffffffffffffffffffffffffffffffffffffff168152602001908152602001600020819055508173ffffffffffffffffffffffffffffffffffffffff168373ffffffffffffffffffffffffffffffffffffffff167f8c5be1e5ebec7d5bd14f71427d1e84f3dd0314c0f7b2291e5b200ac8c7c3b92583604051610fa99190611ce3565b60405180910390a3505050565b60001515600160149054906101000a900460ff1615151461100c576040517f08c379a000000000000000000000000000000000000000000000000000000000815260040161100390611ca3565b60405180910390fd5b600073ffffffffffffffffffffffffffffffffffffffff168373ffffffffffffffffffffffffffffffffffffffff16141561107c576040517f08c379a000000000000000000000000000000000000000000000000000000000815260040161107390611b43565b60405180910390fd5b600073ffffffffffffffffffffffffffffffffffffffff168273ffffffffffffffffffffffffffffffffffffffff1614156110ec576040517f08c379a00000000000000000000000000000000000000000000000000000000081526004016110e390611c43565b60405180910390fd5b600260008473ffffffffffffffffffffffffffffffffffffffff1673ffffffffffffffffffffffffffffffffffffffff16815260200190815260200160002060009054906101000a900460ff1615611179576040517f08c379a000000000000000000000000000000000000000000000000000000000815260040161117090611be3565b60405180910390fd5b600260008373ffffffffffffffffffffffffffffffffffffffff1673ffffffffffffffffffffffffffffffffffffffff16815260200190815260200160002060009054906101000a900460ff1615611206576040517f08c379a00000000000000000000000000000000000000000000000000000000081526004016111fd90611be3565b60405180910390fd5b60008111611249576040517f08c379a000000000000000000000000000000000000000000000000000000000815260040161124090611c23565b60405180910390fd5b80600360008573ffffffffffffffffffffffffffffffffffffffff1673ffffffffffffffffffffffffffffffffffffffff1681526020019081526020016000205410156112cb576040517f08c379a00000000000000000000000000000000000000000000000000000000081526004016112c290611b63565b60405180910390fd5b611337816040518060600160405280602681526020016122ab60269139600360008773ffffffffffffffffffffffffffffffffffffffff1673ffffffffffffffffffffffffffffffffffffffff168152602001908152602001600020546114799092919063ffffffff16565b600360008573ffffffffffffffffffffffffffffffffffffffff1673ffffffffffffffffffffffffffffffffffffffff168152602001908152602001600020819055506113cc81600360008573ffffffffffffffffffffffffffffffffffffffff1673ffffffffffffffffffffffffffffffffffffffff168152602001908152602001600020546116ad90919063ffffffff16565b600360008473ffffffffffffffffffffffffffffffffffffffff1673ffffffffffffffffffffffffffffffffffffffff168152602001908152602001600020819055508173ffffffffffffffffffffffffffffffffffffffff168373ffffffffffffffffffffffffffffffffffffffff167fddf252ad1be2c89b69c2b068fc378daa952ba7f163c4a11628f55a4df523b3ef8360405161146c9190611ce3565b60405180910390a3505050565b60008383111582906114c1576040517f08c379a00000000000000000000000000000000000000000000000000000000081526004016114b89190611b01565b60405180910390fd5b50600083856114d09190611d8b565b9050809150509392505050565b600073ffffffffffffffffffffffffffffffffffffffff168273ffffffffffffffffffffffffffffffffffffffff16141561154d576040517f08c379a000000000000000000000000000000000000000000000000000000000815260040161154490611c63565b60405180910390fd5b6115598260008361170b565b6000600360008473ffffffffffffffffffffffffffffffffffffffff1673ffffffffffffffffffffffffffffffffffffffff168152602001908152602001600020549050818110156115e0576040517f08c379a00000000000000000000000000000000000000000000000000000000081526004016115d790611ba3565b60405180910390fd5b818103600360008573ffffffffffffffffffffffffffffffffffffffff1673ffffffffffffffffffffffffffffffffffffffff1681526020019081526020016000208190555081600860008282540392505081905550600073ffffffffffffffffffffffffffffffffffffffff168373ffffffffffffffffffffffffffffffffffffffff167fddf252ad1be2c89b69c2b068fc378daa952ba7f163c4a11628f55a4df523b3ef846040516116949190611ce3565b60405180910390a36116a883600084611710565b505050565b60008082846116bc9190611d35565b905083811015611701576040517f08c379a00000000000000000000000000000000000000000000000000000000081526004016116f890611bc3565b60405180910390fd5b8091505092915050565b505050565b505050565b6000813590506117248161225b565b92915050565b60008135905061173981612272565b92915050565b60006020828403121561175557611754611ed7565b5b600061176384828501611715565b91505092915050565b6000806040838503121561178357611782611ed7565b5b600061179185828601611715565b92505060206117a285828601611715565b9150509250929050565b6000806000606084860312156117c5576117c4611ed7565b5b60006117d386828701611715565b93505060206117e486828701611715565b92505060406117f58682870161172a565b9150509250925092565b6000806040838503121561181657611815611ed7565b5b600061182485828601611715565b92505060206118358582860161172a565b9150509250929050565b60006020828403121561185557611854611ed7565b5b60006118638482850161172a565b91505092915050565b61187581611dbf565b82525050565b61188481611dd1565b82525050565b600061189582611d19565b61189f8185611d24565b93506118af818560208601611e14565b6118b881611edc565b840191505092915050565b60006118d0602983611d24565b91506118db82611eed565b604082019050919050565b60006118f3602583611d24565b91506118fe82611f3c565b604082019050919050565b6000611916600f83611d24565b915061192182611f8b565b602082019050919050565b6000611939602483611d24565b915061194482611fb4565b604082019050919050565b600061195c602283611d24565b915061196782612003565b604082019050919050565b600061197f601b83611d24565b915061198a82612052565b602082019050919050565b60006119a2601183611d24565b91506119ad8261207b565b602082019050919050565b60006119c5602083611d24565b91506119d0826120a4565b602082019050919050565b60006119e8602983611d24565b91506119f3826120cd565b604082019050919050565b6000611a0b602383611d24565b9150611a168261211c565b604082019050919050565b6000611a2e602183611d24565b9150611a398261216b565b604082019050919050565b6000611a51601a83611d24565b9150611a5c826121ba565b602082019050919050565b6000611a74601383611d24565b9150611a7f826121e3565b602082019050919050565b6000611a97602283611d24565b9150611aa28261220c565b604082019050919050565b611ab681611dfd565b82525050565b611ac581611e07565b82525050565b6000602082019050611ae0600083018461186c565b92915050565b6000602082019050611afb600083018461187b565b92915050565b60006020820190508181036000830152611b1b818461188a565b905092915050565b60006020820190508181036000830152611b3c816118c3565b9050919050565b60006020820190508181036000830152611b5c816118e6565b9050919050565b60006020820190508181036000830152611b7c81611909565b9050919050565b60006020820190508181036000830152611b9c8161192c565b9050919050565b60006020820190508181036000830152611bbc8161194f565b9050919050565b60006020820190508181036000830152611bdc81611972565b9050919050565b60006020820190508181036000830152611bfc81611995565b9050919050565b60006020820190508181036000830152611c1c816119b8565b9050919050565b60006020820190508181036000830152611c3c816119db565b9050919050565b60006020820190508181036000830152611c5c816119fe565b9050919050565b60006020820190508181036000830152611c7c81611a21565b9050919050565b60006020820190508181036000830152611c9c81611a44565b9050919050565b60006020820190508181036000830152611cbc81611a67565b9050919050565b60006020820190508181036000830152611cdc81611a8a565b9050919050565b6000602082019050611cf86000830184611aad565b92915050565b6000602082019050611d136000830184611abc565b92915050565b600081519050919050565b600082825260208201905092915050565b6000611d4082611dfd565b9150611d4b83611dfd565b9250827fffffffffffffffffffffffffffffffffffffffffffffffffffffffffffffffff03821115611d8057611d7f611e79565b5b828201905092915050565b6000611d9682611dfd565b9150611da183611dfd565b925082821015611db457611db3611e79565b5b828203905092915050565b6000611dca82611ddd565b9050919050565b60008115159050919050565b600073ffffffffffffffffffffffffffffffffffffffff82169050919050565b6000819050919050565b600060ff82169050919050565b60005b83811015611e32578082015181840152602081019050611e17565b83811115611e41576000848401525b50505050565b60006002820490506001821680611e5f57607f821691505b60208210811415611e7357611e72611ea8565b5b50919050565b7f4e487b7100000000000000000000000000000000000000000000000000000000600052601160045260246000fd5b7f4e487b7100000000000000000000000000000000000000000000000000000000600052602260045260246000fd5b600080fd5b6000601f19601f8301169050919050565b7f4163636f756e7420697320616c7265616479206578636c756465642066726f6d60008201527f20746865206c6973740000000000000000000000000000000000000000000000602082015250565b7f42455032303a207472616e736665722066726f6d20746865207a65726f20616460008201527f6472657373000000000000000000000000000000000000000000000000000000602082015250565b7f42616c616e636520746f6f206c6f770000000000000000000000000000000000600082015250565b7f42455032303a20617070726f76652066726f6d20746865207a65726f2061646460008201527f7265737300000000000000000000000000000000000000000000000000000000602082015250565b7f45524332303a206275726e20616d6f756e7420657863656564732062616c616e60008201527f6365000000000000000000000000000000000000000000000000000000000000602082015250565b7f536166654d6174683a206164646974696f6e206f766572666c6f770000000000600082015250565b7f5472616e73616374696f6e204572726f72000000000000000000000000000000600082015250565b7f4f776e61626c653a2063616c6c6572206973206e6f7420746865206f776e6572600082015250565b7f5472616e7366657220616d6f756e74206d75737420626520677265617465722060008201527f7468616e207a65726f0000000000000000000000000000000000000000000000602082015250565b7f42455032303a207472616e7366657220746f20746865207a65726f206164647260008201527f6573730000000000000000000000000000000000000000000000000000000000602082015250565b7f45524332303a206275726e2066726f6d20746865207a65726f2061646472657360008201527f7300000000000000000000000000000000000000000000000000000000000000602082015250565b7f4163636f756e7420697320616c726561647920696e206c697374000000000000600082015250565b7f5472616e73616374696f6e20426c6f636b656400000000000000000000000000600082015250565b7f42455032303a20617070726f766520746f20746865207a65726f20616464726560008201527f7373000000000000000000000000000000000000000000000000000000000000602082015250565b61226481611dbf565b811461226f57600080fd5b50565b61227b81611dfd565b811461228657600080fd5b5056fe5472616e7366657220616d6f756e74206578636565647320616c6c6f77616e636542455032303a207472616e7366657220616d6f756e7420657863656564732062616c616e6365a26469706673582212200b1ebc6542d34b734d84e98bcb2313096d6361fd01b448257a224f4876b9f07664736f6c63430008050033",
  "linkReferences": {},
  "deployedLinkReferences": {}
}