{
  "_format": "hh-sol-artifact-1",
  "contractName": "MyToken",
  "sourceName": "contracts/BeNFTPass.sol",
  "abi": [
    {
      "inputs": [],
      "stateMutability": "nonpayable",
      "type": "constructor"
    },
    {
      "anonymous": false,
      "inputs": [
        {
          "indexed": true,
          "internalType": "address",
          "name": "owner",
          "type": "address"
        },
        {
          "indexed": true,
          "internalType": "address",
          "name": "approved",
          "type": "address"
        },
        {
          "indexed": true,
          "internalType": "uint256",
          "name": "tokenId",
          "type": "uint256"
        }
      ],
      "name": "Approval",
      "type": "event"
    },
    {
      "anonymous": false,
      "inputs": [
        {
          "indexed": true,
          "internalType": "address",
          "name": "owner",
          "type": "address"
        },
        {
          "indexed": true,
          "internalType": "address",
          "name": "operator",
          "type": "address"
        },
        {
          "indexed": false,
          "internalType": "bool",
          "name": "approved",
          "type": "bool"
        }
      ],
      "name": "ApprovalForAll",
      "type": "event"
    },
    {
      "anonymous": false,
      "inputs": [
        {
          "indexed": true,
          "internalType": "address",
          "name": "previousOwner",
          "type": "address"
        },
        {
          "indexed": true,
          "internalType": "address",
          "name": "newOwner",
          "type": "address"
        }
      ],
      "name": "OwnershipTransferred",
      "type": "event"
    },
    {
      "anonymous": false,
      "inputs": [
        {
          "indexed": false,
          "internalType": "address",
          "name": "account",
          "type": "address"
        }
      ],
      "name": "Paused",
      "type": "event"
    },
    {
      "anonymous": false,
      "inputs": [
        {
          "indexed": true,
          "internalType": "address",
          "name": "from",
          "type": "address"
        },
        {
          "indexed": true,
          "internalType": "address",
          "name": "to",
          "type": "address"
        },
        {
          "indexed": true,
          "internalType": "uint256",
          "name": "tokenId",
          "type": "uint256"
        }
      ],
      "name": "Transfer",
      "type": "event"
    },
    {
      "anonymous": false,
      "inputs": [
        {
          "indexed": false,
          "internalType": "address",
          "name": "account",
          "type": "address"
        }
      ],
      "name": "Unpaused",
      "type": "event"
    },
    {
      "inputs": [
        {
          "internalType": "address",
          "name": "to",
          "type": "address"
        },
        {
          "internalType": "uint256",
          "name": "tokenId",
          "type": "uint256"
        }
      ],
      "name": "approve",
      "outputs": [],
      "stateMutability": "nonpayable",
      "type": "function"
    },
    {
      "inputs": [
        {
          "internalType": "address",
          "name": "owner",
          "type": "address"
        }
      ],
      "name": "balanceOf",
      "outputs": [
        {
          "internalType": "uint256",
          "name": "",
          "type": "uint256"
        }
      ],
      "stateMutability": "view",
      "type": "function"
    },
    {
      "inputs": [
        {
          "internalType": "uint256",
          "name": "tokenId",
          "type": "uint256"
        }
      ],
      "name": "burn",
      "outputs": [],
      "stateMutability": "nonpayable",
      "type": "function"
    },
    {
      "inputs": [
        {
          "internalType": "uint256",
          "name": "tokenId",
          "type": "uint256"
        }
      ],
      "name": "getApproved",
      "outputs": [
        {
          "internalType": "address",
          "name": "",
          "type": "address"
        }
      ],
      "stateMutability": "view",
      "type": "function"
    },
    {
      "inputs": [
        {
          "internalType": "address",
          "name": "owner",
          "type": "address"
        },
        {
          "internalType": "address",
          "name": "operator",
          "type": "address"
        }
      ],
      "name": "isApprovedForAll",
      "outputs": [
        {
          "internalType": "bool",
          "name": "",
          "type": "bool"
        }
      ],
      "stateMutability": "view",
      "type": "function"
    },
    {
      "inputs": [],
      "name": "mint",
      "outputs": [],
      "stateMutability": "payable",
      "type": "function"
    },
    {
      "inputs": [],
      "name": "name",
      "outputs": [
        {
          "internalType": "string",
          "name": "",
          "type": "string"
        }
      ],
      "stateMutability": "view",
      "type": "function"
    },
    {
      "inputs": [],
      "name": "owner",
      "outputs": [
        {
          "internalType": "address",
          "name": "",
          "type": "address"
        }
      ],
      "stateMutability": "view",
      "type": "function"
    },
    {
      "inputs": [
        {
          "internalType": "uint256",
          "name": "tokenId",
          "type": "uint256"
        }
      ],
      "name": "ownerOf",
      "outputs": [
        {
          "internalType": "address",
          "name": "",
          "type": "address"
        }
      ],
      "stateMutability": "view",
      "type": "function"
    },
    {
      "inputs": [],
      "name": "pause",
      "outputs": [],
      "stateMutability": "nonpayable",
      "type": "function"
    },
    {
      "inputs": [],
      "name": "paused",
      "outputs": [
        {
          "internalType": "bool",
          "name": "",
          "type": "bool"
        }
      ],
      "stateMutability": "view",
      "type": "function"
    },
    {
      "inputs": [],
      "name": "renounceOwnership",
      "outputs": [],
      "stateMutability": "nonpayable",
      "type": "function"
    },
    {
      "inputs": [
        {
          "internalType": "address",
          "name": "from",
          "type": "address"
        },
        {
          "internalType": "address",
          "name": "to",
          "type": "address"
        },
        {
          "internalType": "uint256",
          "name": "tokenId",
          "type": "uint256"
        }
      ],
      "name": "safeTransferFrom",
      "outputs": [],
      "stateMutability": "nonpayable",
      "type": "function"
    },
    {
      "inputs": [
        {
          "internalType": "address",
          "name": "from",
          "type": "address"
        },
        {
          "internalType": "address",
          "name": "to",
          "type": "address"
        },
        {
          "internalType": "uint256",
          "name": "tokenId",
          "type": "uint256"
        },
        {
          "internalType": "bytes",
          "name": "data",
          "type": "bytes"
        }
      ],
      "name": "safeTransferFrom",
      "outputs": [],
      "stateMutability": "nonpayable",
      "type": "function"
    },
    {
      "inputs": [
        {
          "internalType": "address",
          "name": "operator",
          "type": "address"
        },
        {
          "internalType": "bool",
          "name": "approved",
          "type": "bool"
        }
      ],
      "name": "setApprovalForAll",
      "outputs": [],
      "stateMutability": "nonpayable",
      "type": "function"
    },
    {
      "inputs": [
        {
          "internalType": "bytes4",
          "name": "interfaceId",
          "type": "bytes4"
        }
      ],
      "name": "supportsInterface",
      "outputs": [
        {
          "internalType": "bool",
          "name": "",
          "type": "bool"
        }
      ],
      "stateMutability": "view",
      "type": "function"
    },
    {
      "inputs": [],
      "name": "symbol",
      "outputs": [
        {
          "internalType": "string",
          "name": "",
          "type": "string"
        }
      ],
      "stateMutability": "view",
      "type": "function"
    },
    {
      "inputs": [
        {
          "internalType": "uint256",
          "name": "index",
          "type": "uint256"
        }
      ],
      "name": "tokenByIndex",
      "outputs": [
        {
          "internalType": "uint256",
          "name": "",
          "type": "uint256"
        }
      ],
      "stateMutability": "view",
      "type": "function"
    },
    {
      "inputs": [
        {
          "internalType": "address",
          "name": "owner",
          "type": "address"
        },
        {
          "internalType": "uint256",
          "name": "index",
          "type": "uint256"
        }
      ],
      "name": "tokenOfOwnerByIndex",
      "outputs": [
        {
          "internalType": "uint256",
          "name": "",
          "type": "uint256"
        }
      ],
      "stateMutability": "view",
      "type": "function"
    },
    {
      "inputs": [
        {
          "internalType": "uint256",
          "name": "tokenId",
          "type": "uint256"
        }
      ],
      "name": "tokenURI",
      "outputs": [
        {
          "internalType": "string",
          "name": "",
          "type": "string"
        }
      ],
      "stateMutability": "view",
      "type": "function"
    },
    {
      "inputs": [],
      "name": "totalSupply",
      "outputs": [
        {
          "internalType": "uint256",
          "name": "",
          "type": "uint256"
        }
      ],
      "stateMutability": "view",
      "type": "function"
    },
    {
      "inputs": [
        {
          "internalType": "address",
          "name": "from",
          "type": "address"
        },
        {
          "internalType": "address",
          "name": "to",
          "type": "address"
        },
        {
          "internalType": "uint256",
          "name": "tokenId",
          "type": "uint256"
        }
      ],
      "name": "transferFrom",
      "outputs": [],
      "stateMutability": "nonpayable",
      "type": "function"
    },
    {
      "inputs": [
        {
          "internalType": "address",
          "name": "newOwner",
          "type": "address"
        }
      ],
      "name": "transferOwnership",
      "outputs": [],
      "stateMutability": "nonpayable",
      "type": "function"
    },
    {
      "inputs": [],
      "name": "unpause",
      "outputs": [],
      "stateMutability": "nonpayable",
      "type": "function"
    }
  ],
  "bytecode": "0x6080604052671bc16d674ec80000600d5560405180602001604052806000815250601090805190602001906200003792919062000252565b507391cb35db8b59be55a54fbd086c03cdcd533c8a76601160006101000a81548173ffffffffffffffffffffffffffffffffffffffff021916908373ffffffffffffffffffffffffffffffffffffffff1602179055503480156200009a57600080fd5b506040518060400160405280601281526020017f42654e465420506173732047656e6573697300000000000000000000000000008152506040518060400160405280600381526020017f474e53000000000000000000000000000000000000000000000000000000000081525081600090805190602001906200011f92919062000252565b5080600190805190602001906200013892919062000252565b5050506000600b60006101000a81548160ff021916908315150217905550620001766200016a6200018460201b60201c565b6200018c60201b60201c565b6001600c8190555062000367565b600033905090565b6000600b60019054906101000a900473ffffffffffffffffffffffffffffffffffffffff16905081600b60016101000a81548173ffffffffffffffffffffffffffffffffffffffff021916908373ffffffffffffffffffffffffffffffffffffffff1602179055508173ffffffffffffffffffffffffffffffffffffffff168173ffffffffffffffffffffffffffffffffffffffff167f8be0079c531659141344cd1fd0a4f28419497f9722a3daafe3b4186f6b6457e060405160405180910390a35050565b828054620002609062000302565b90600052602060002090601f016020900481019282620002845760008555620002d0565b82601f106200029f57805160ff1916838001178555620002d0565b82800160010185558215620002d0579182015b82811115620002cf578251825591602001919060010190620002b2565b5b509050620002df9190620002e3565b5090565b5b80821115620002fe576000816000905550600101620002e4565b5090565b600060028204905060018216806200031b57607f821691505b6020821081141562000332576200033162000338565b5b50919050565b7f4e487b7100000000000000000000000000000000000000000000000000000000600052602260045260246000fd5b613d1880620003776000396000f3fe60806040526004361061014b5760003560e01c80635c975abb116100b657806395d89b411161006f57806395d89b411461045d578063a22cb46514610488578063b88d4fde146104b1578063c87b56dd146104da578063e985e9c514610517578063f2fde38b146105545761014b565b80635c975abb1461035f5780636352211e1461038a57806370a08231146103c7578063715018a6146104045780638456cb591461041b5780638da5cb5b146104325761014b565b806323b872dd1161010857806323b872dd146102535780632f745c591461027c5780633f4ba83a146102b957806342842e0e146102d057806342966c68146102f95780634f6ccce7146103225761014b565b806301ffc9a71461015057806306fdde031461018d578063081812fc146101b8578063095ea7b3146101f55780631249c58b1461021e57806318160ddd14610228575b600080fd5b34801561015c57600080fd5b5061017760048036038101906101729190612c83565b61057d565b6040516101849190613144565b60405180910390f35b34801561019957600080fd5b506101a261058f565b6040516101af919061315f565b60405180910390f35b3480156101c457600080fd5b506101df60048036038101906101da9190612cdd565b610621565b6040516101ec91906130dd565b60405180910390f35b34801561020157600080fd5b5061021c60048036038101906102179190612c43565b610667565b005b61022661077f565b005b34801561023457600080fd5b5061023d61086a565b60405161024a9190613421565b60405180910390f35b34801561025f57600080fd5b5061027a60048036038101906102759190612b2d565b610877565b005b34801561028857600080fd5b506102a3600480360381019061029e9190612c43565b6108d7565b6040516102b09190613421565b60405180910390f35b3480156102c557600080fd5b506102ce61097c565b005b3480156102dc57600080fd5b506102f760048036038101906102f29190612b2d565b61098e565b005b34801561030557600080fd5b50610320600480360381019061031b9190612cdd565b6109ae565b005b34801561032e57600080fd5b5061034960048036038101906103449190612cdd565b610a0a565b6040516103569190613421565b60405180910390f35b34801561036b57600080fd5b50610374610a7b565b6040516103819190613144565b60405180910390f35b34801561039657600080fd5b506103b160048036038101906103ac9190612cdd565b610a92565b6040516103be91906130dd565b60405180910390f35b3480156103d357600080fd5b506103ee60048036038101906103e99190612ac0565b610b19565b6040516103fb9190613421565b60405180910390f35b34801561041057600080fd5b50610419610bd1565b005b34801561042757600080fd5b50610430610be5565b005b34801561043e57600080fd5b50610447610bf7565b60405161045491906130dd565b60405180910390f35b34801561046957600080fd5b50610472610c21565b60405161047f919061315f565b60405180910390f35b34801561049457600080fd5b506104af60048036038101906104aa9190612c03565b610cb3565b005b3480156104bd57600080fd5b506104d860048036038101906104d39190612b80565b610cc9565b005b3480156104e657600080fd5b5061050160048036038101906104fc9190612cdd565b610d2b565b60405161050e919061315f565b60405180910390f35b34801561052357600080fd5b5061053e60048036038101906105399190612aed565b610d3d565b60405161054b9190613144565b60405180910390f35b34801561056057600080fd5b5061057b60048036038101906105769190612ac0565b610dd1565b005b600061058882610e55565b9050919050565b60606000805461059e906135bf565b80601f01602080910402602001604051908101604052809291908181526020018280546105ca906135bf565b80156106175780601f106105ec57610100808354040283529160200191610617565b820191906000526020600020905b8154815290600101906020018083116105fa57829003601f168201915b5050505050905090565b600061062c82610ecf565b6004600083815260200190815260200160002060009054906101000a900473ffffffffffffffffffffffffffffffffffffffff169050919050565b600061067282610a92565b90508073ffffffffffffffffffffffffffffffffffffffff168373ffffffffffffffffffffffffffffffffffffffff1614156106e3576040517f08c379a00000000000000000000000000000000000000000000000000000000081526004016106da90613381565b60405180910390fd5b8073ffffffffffffffffffffffffffffffffffffffff16610702610f1a565b73ffffffffffffffffffffffffffffffffffffffff16148061073157506107308161072b610f1a565b610d3d565b5b610770576040517f08c379a0000000000000000000000000000000000000000000000000000000008152600401610767906133a1565b60405180910390fd5b61077a8383610f22565b505050565b610787610fdb565b600d543410156107cc576040517f08c379a00000000000000000000000000000000000000000000000000000000081526004016107c3906132c1565b60405180910390fd5b61086033601080546107dd906135bf565b80601f0160208091040260200160405190810160405280929190818152602001828054610809906135bf565b80156108565780601f1061082b57610100808354040283529160200191610856565b820191906000526020600020905b81548152906001019060200180831161083957829003601f168201915b505050505061102b565b61086861105c565b565b6000600880549050905090565b610888610882610f1a565b82611066565b6108c7576040517f08c379a00000000000000000000000000000000000000000000000000000000081526004016108be906131a1565b60405180910390fd5b6108d28383836110fb565b505050565b60006108e283610b19565b8210610923576040517f08c379a000000000000000000000000000000000000000000000000000000000815260040161091a906131c1565b60405180910390fd5b600660008473ffffffffffffffffffffffffffffffffffffffff1673ffffffffffffffffffffffffffffffffffffffff168152602001908152602001600020600083815260200190815260200160002054905092915050565b6109846113f5565b61098c611473565b565b6109a983838360405180602001604052806000815250610cc9565b505050565b6109bf6109b9610f1a565b82611066565b6109fe576040517f08c379a00000000000000000000000000000000000000000000000000000000081526004016109f5906131a1565b60405180910390fd5b610a07816114d6565b50565b6000610a1461086a565b8210610a55576040517f08c379a0000000000000000000000000000000000000000000000000000000008152600401610a4c906133c1565b60405180910390fd5b60088281548110610a6957610a686136de565b5b90600052602060002001549050919050565b6000600b60009054906101000a900460ff16905090565b600080610a9e836114e2565b9050600073ffffffffffffffffffffffffffffffffffffffff168173ffffffffffffffffffffffffffffffffffffffff161415610b10576040517f08c379a0000000000000000000000000000000000000000000000000000000008152600401610b0790613361565b60405180910390fd5b80915050919050565b60008073ffffffffffffffffffffffffffffffffffffffff168273ffffffffffffffffffffffffffffffffffffffff161415610b8a576040517f08c379a0000000000000000000000000000000000000000000000000000000008152600401610b81906132e1565b60405180910390fd5b600360008373ffffffffffffffffffffffffffffffffffffffff1673ffffffffffffffffffffffffffffffffffffffff168152602001908152602001600020549050919050565b610bd96113f5565b610be3600061151f565b565b610bed6113f5565b610bf56115e5565b565b6000600b60019054906101000a900473ffffffffffffffffffffffffffffffffffffffff16905090565b606060018054610c30906135bf565b80601f0160208091040260200160405190810160405280929190818152602001828054610c5c906135bf565b8015610ca95780601f10610c7e57610100808354040283529160200191610ca9565b820191906000526020600020905b815481529060010190602001808311610c8c57829003601f168201915b5050505050905090565b610cc5610cbe610f1a565b8383611648565b5050565b610cda610cd4610f1a565b83611066565b610d19576040517f08c379a0000000000000000000000000000000000000000000000000000000008152600401610d10906131a1565b60405180910390fd5b610d25848484846117b5565b50505050565b6060610d3682611811565b9050919050565b6000600560008473ffffffffffffffffffffffffffffffffffffffff1673ffffffffffffffffffffffffffffffffffffffff16815260200190815260200160002060008373ffffffffffffffffffffffffffffffffffffffff1673ffffffffffffffffffffffffffffffffffffffff16815260200190815260200160002060009054906101000a900460ff16905092915050565b610dd96113f5565b600073ffffffffffffffffffffffffffffffffffffffff168173ffffffffffffffffffffffffffffffffffffffff161415610e49576040517f08c379a0000000000000000000000000000000000000000000000000000000008152600401610e4090613201565b60405180910390fd5b610e528161151f565b50565b60007f780e9d63000000000000000000000000000000000000000000000000000000007bffffffffffffffffffffffffffffffffffffffffffffffffffffffff1916827bffffffffffffffffffffffffffffffffffffffffffffffffffffffff19161480610ec85750610ec782611924565b5b9050919050565b610ed881611a06565b610f17576040517f08c379a0000000000000000000000000000000000000000000000000000000008152600401610f0e90613361565b60405180910390fd5b50565b600033905090565b816004600083815260200190815260200160002060006101000a81548173ffffffffffffffffffffffffffffffffffffffff021916908373ffffffffffffffffffffffffffffffffffffffff160217905550808273ffffffffffffffffffffffffffffffffffffffff16610f9583610a92565b73ffffffffffffffffffffffffffffffffffffffff167f8c5be1e5ebec7d5bd14f71427d1e84f3dd0314c0f7b2291e5b200ac8c7c3b92560405160405180910390a45050565b6002600c541415611021576040517f08c379a000000000000000000000000000000000000000000000000000000000815260040161101890613401565b60405180910390fd5b6002600c81905550565b6000611037600f611a47565b9050611043600f611a55565b61104d8382611a6b565b6110578183611a89565b505050565b6001600c81905550565b60008061107283610a92565b90508073ffffffffffffffffffffffffffffffffffffffff168473ffffffffffffffffffffffffffffffffffffffff1614806110b457506110b38185610d3d565b5b806110f257508373ffffffffffffffffffffffffffffffffffffffff166110da84610621565b73ffffffffffffffffffffffffffffffffffffffff16145b91505092915050565b8273ffffffffffffffffffffffffffffffffffffffff1661111b82610a92565b73ffffffffffffffffffffffffffffffffffffffff1614611171576040517f08c379a000000000000000000000000000000000000000000000000000000000815260040161116890613221565b60405180910390fd5b600073ffffffffffffffffffffffffffffffffffffffff168273ffffffffffffffffffffffffffffffffffffffff1614156111e1576040517f08c379a00000000000000000000000000000000000000000000000000000000081526004016111d890613261565b60405180910390fd5b6111ee8383836001611afd565b8273ffffffffffffffffffffffffffffffffffffffff1661120e82610a92565b73ffffffffffffffffffffffffffffffffffffffff1614611264576040517f08c379a000000000000000000000000000000000000000000000000000000000815260040161125b90613221565b60405180910390fd5b6004600082815260200190815260200160002060006101000a81549073ffffffffffffffffffffffffffffffffffffffff02191690556001600360008573ffffffffffffffffffffffffffffffffffffffff1673ffffffffffffffffffffffffffffffffffffffff168152602001908152602001600020600082825403925050819055506001600360008473ffffffffffffffffffffffffffffffffffffffff1673ffffffffffffffffffffffffffffffffffffffff16815260200190815260200160002060008282540192505081905550816002600083815260200190815260200160002060006101000a81548173ffffffffffffffffffffffffffffffffffffffff021916908373ffffffffffffffffffffffffffffffffffffffff160217905550808273ffffffffffffffffffffffffffffffffffffffff168473ffffffffffffffffffffffffffffffffffffffff167fddf252ad1be2c89b69c2b068fc378daa952ba7f163c4a11628f55a4df523b3ef60405160405180910390a46113f08383836001611b17565b505050565b6113fd610f1a565b73ffffffffffffffffffffffffffffffffffffffff1661141b610bf7565b73ffffffffffffffffffffffffffffffffffffffff1614611471576040517f08c379a000000000000000000000000000000000000000000000000000000000815260040161146890613341565b60405180910390fd5b565b61147b611b1d565b6000600b60006101000a81548160ff0219169083151502179055507f5db9ee0a495bf2e6ff9c91a7834c1ba4fdd244a5e8aa4e537bd38aeae4b073aa6114bf610f1a565b6040516114cc91906130dd565b60405180910390a1565b6114df81611b66565b50565b60006002600083815260200190815260200160002060009054906101000a900473ffffffffffffffffffffffffffffffffffffffff169050919050565b6000600b60019054906101000a900473ffffffffffffffffffffffffffffffffffffffff16905081600b60016101000a81548173ffffffffffffffffffffffffffffffffffffffff021916908373ffffffffffffffffffffffffffffffffffffffff1602179055508173ffffffffffffffffffffffffffffffffffffffff168173ffffffffffffffffffffffffffffffffffffffff167f8be0079c531659141344cd1fd0a4f28419497f9722a3daafe3b4186f6b6457e060405160405180910390a35050565b6115ed611bb9565b6001600b60006101000a81548160ff0219169083151502179055507f62e78cea01bee320cd4e420270b5ea74000d11b0c9f74754ebdbfc544b05a258611631610f1a565b60405161163e91906130dd565b60405180910390a1565b8173ffffffffffffffffffffffffffffffffffffffff168373ffffffffffffffffffffffffffffffffffffffff1614156116b7576040517f08c379a00000000000000000000000000000000000000000000000000000000081526004016116ae90613281565b60405180910390fd5b80600560008573ffffffffffffffffffffffffffffffffffffffff1673ffffffffffffffffffffffffffffffffffffffff16815260200190815260200160002060008473ffffffffffffffffffffffffffffffffffffffff1673ffffffffffffffffffffffffffffffffffffffff16815260200190815260200160002060006101000a81548160ff0219169083151502179055508173ffffffffffffffffffffffffffffffffffffffff168373ffffffffffffffffffffffffffffffffffffffff167f17307eab39ab6107e8899845ad3d59bd9653f200f220920489ca2b5937696c31836040516117a89190613144565b60405180910390a3505050565b6117c08484846110fb565b6117cc84848484611c03565b61180b576040517f08c379a0000000000000000000000000000000000000000000000000000000008152600401611802906131e1565b60405180910390fd5b50505050565b606061181c82610ecf565b6000600a6000848152602001908152602001600020805461183c906135bf565b80601f0160208091040260200160405190810160405280929190818152602001828054611868906135bf565b80156118b55780601f1061188a576101008083540402835291602001916118b5565b820191906000526020600020905b81548152906001019060200180831161189857829003601f168201915b5050505050905060006118c6611d9a565b90506000815114156118dc57819250505061191f565b6000825111156119115780826040516020016118f99291906130b9565b6040516020818303038152906040529250505061191f565b61191a84611db1565b925050505b919050565b60007f80ac58cd000000000000000000000000000000000000000000000000000000007bffffffffffffffffffffffffffffffffffffffffffffffffffffffff1916827bffffffffffffffffffffffffffffffffffffffffffffffffffffffff191614806119ef57507f5b5e139f000000000000000000000000000000000000000000000000000000007bffffffffffffffffffffffffffffffffffffffffffffffffffffffff1916827bffffffffffffffffffffffffffffffffffffffffffffffffffffffff1916145b806119ff57506119fe82611e19565b5b9050919050565b60008073ffffffffffffffffffffffffffffffffffffffff16611a28836114e2565b73ffffffffffffffffffffffffffffffffffffffff1614159050919050565b600081600001549050919050565b6001816000016000828254019250508190555050565b611a85828260405180602001604052806000815250611e83565b5050565b611a9282611a06565b611ad1576040517f08c379a0000000000000000000000000000000000000000000000000000000008152600401611ac890613301565b60405180910390fd5b80600a60008481526020019081526020016000209080519060200190611af8929190612904565b505050565b611b05611bb9565b611b1184848484611ede565b50505050565b50505050565b611b25610a7b565b611b64576040517f08c379a0000000000000000000000000000000000000000000000000000000008152600401611b5b90613181565b60405180910390fd5b565b611b6f8161203e565b6000600a60008381526020019081526020016000208054611b8f906135bf565b905014611bb657600a60008281526020019081526020016000206000611bb5919061298a565b5b50565b611bc1610a7b565b15611c01576040517f08c379a0000000000000000000000000000000000000000000000000000000008152600401611bf8906132a1565b60405180910390fd5b565b6000611c248473ffffffffffffffffffffffffffffffffffffffff1661218c565b15611d8d578373ffffffffffffffffffffffffffffffffffffffff1663150b7a02611c4d610f1a565b8786866040518563ffffffff1660e01b8152600401611c6f94939291906130f8565b602060405180830381600087803b158015611c8957600080fd5b505af1925050508015611cba57506040513d601f19601f82011682018060405250810190611cb79190612cb0565b60015b611d3d573d8060008114611cea576040519150601f19603f3d011682016040523d82523d6000602084013e611cef565b606091505b50600081511415611d35576040517f08c379a0000000000000000000000000000000000000000000000000000000008152600401611d2c906131e1565b60405180910390fd5b805181602001fd5b63150b7a0260e01b7bffffffffffffffffffffffffffffffffffffffffffffffffffffffff1916817bffffffffffffffffffffffffffffffffffffffffffffffffffffffff191614915050611d92565b600190505b949350505050565b606060405180602001604052806000815250905090565b6060611dbc82610ecf565b6000611dc6611d9a565b90506000815111611de65760405180602001604052806000815250611e11565b80611df0846121af565b604051602001611e019291906130b9565b6040516020818303038152906040525b915050919050565b60007f01ffc9a7000000000000000000000000000000000000000000000000000000007bffffffffffffffffffffffffffffffffffffffffffffffffffffffff1916827bffffffffffffffffffffffffffffffffffffffffffffffffffffffff1916149050919050565b611e8d8383612287565b611e9a6000848484611c03565b611ed9576040517f08c379a0000000000000000000000000000000000000000000000000000000008152600401611ed0906131e1565b60405180910390fd5b505050565b611eea848484846124a5565b6001811115611f2e576040517f08c379a0000000000000000000000000000000000000000000000000000000008152600401611f25906133e1565b60405180910390fd5b6000829050600073ffffffffffffffffffffffffffffffffffffffff168573ffffffffffffffffffffffffffffffffffffffff161415611f7657611f71816124ab565b611fb5565b8373ffffffffffffffffffffffffffffffffffffffff168573ffffffffffffffffffffffffffffffffffffffff1614611fb457611fb385826124f4565b5b5b600073ffffffffffffffffffffffffffffffffffffffff168473ffffffffffffffffffffffffffffffffffffffff161415611ff857611ff381612661565b612037565b8473ffffffffffffffffffffffffffffffffffffffff168473ffffffffffffffffffffffffffffffffffffffff1614612036576120358482612732565b5b5b5050505050565b600061204982610a92565b9050612059816000846001611afd565b61206282610a92565b90506004600083815260200190815260200160002060006101000a81549073ffffffffffffffffffffffffffffffffffffffff02191690556001600360008373ffffffffffffffffffffffffffffffffffffffff1673ffffffffffffffffffffffffffffffffffffffff168152602001908152602001600020600082825403925050819055506002600083815260200190815260200160002060006101000a81549073ffffffffffffffffffffffffffffffffffffffff021916905581600073ffffffffffffffffffffffffffffffffffffffff168273ffffffffffffffffffffffffffffffffffffffff167fddf252ad1be2c89b69c2b068fc378daa952ba7f163c4a11628f55a4df523b3ef60405160405180910390a4612188816000846001611b17565b5050565b6000808273ffffffffffffffffffffffffffffffffffffffff163b119050919050565b6060600060016121be846127b1565b01905060008167ffffffffffffffff8111156121dd576121dc61370d565b5b6040519080825280601f01601f19166020018201604052801561220f5781602001600182028036833780820191505090505b509050600082602001820190505b60011561227c578080600190039150507f3031323334353637383961626364656600000000000000000000000000000000600a86061a8153600a858161226657612265613651565b5b04945060008514156122775761227c565b61221d565b819350505050919050565b600073ffffffffffffffffffffffffffffffffffffffff168273ffffffffffffffffffffffffffffffffffffffff1614156122f7576040517f08c379a00000000000000000000000000000000000000000000000000000000081526004016122ee90613321565b60405180910390fd5b61230081611a06565b15612340576040517f08c379a000000000000000000000000000000000000000000000000000000000815260040161233790613241565b60405180910390fd5b61234e600083836001611afd565b61235781611a06565b15612397576040517f08c379a000000000000000000000000000000000000000000000000000000000815260040161238e90613241565b60405180910390fd5b6001600360008473ffffffffffffffffffffffffffffffffffffffff1673ffffffffffffffffffffffffffffffffffffffff16815260200190815260200160002060008282540192505081905550816002600083815260200190815260200160002060006101000a81548173ffffffffffffffffffffffffffffffffffffffff021916908373ffffffffffffffffffffffffffffffffffffffff160217905550808273ffffffffffffffffffffffffffffffffffffffff16600073ffffffffffffffffffffffffffffffffffffffff167fddf252ad1be2c89b69c2b068fc378daa952ba7f163c4a11628f55a4df523b3ef60405160405180910390a46124a1600083836001611b17565b5050565b50505050565b6008805490506009600083815260200190815260200160002081905550600881908060018154018082558091505060019003906000526020600020016000909190919091505550565b6000600161250184610b19565b61250b91906134d5565b90506000600760008481526020019081526020016000205490508181146125f0576000600660008673ffffffffffffffffffffffffffffffffffffffff1673ffffffffffffffffffffffffffffffffffffffff168152602001908152602001600020600084815260200190815260200160002054905080600660008773ffffffffffffffffffffffffffffffffffffffff1673ffffffffffffffffffffffffffffffffffffffff168152602001908152602001600020600084815260200190815260200160002081905550816007600083815260200190815260200160002081905550505b6007600084815260200190815260200160002060009055600660008573ffffffffffffffffffffffffffffffffffffffff1673ffffffffffffffffffffffffffffffffffffffff16815260200190815260200160002060008381526020019081526020016000206000905550505050565b6000600160088054905061267591906134d5565b90506000600960008481526020019081526020016000205490506000600883815481106126a5576126a46136de565b5b9060005260206000200154905080600883815481106126c7576126c66136de565b5b906000526020600020018190555081600960008381526020019081526020016000208190555060096000858152602001908152602001600020600090556008805480612716576127156136af565b5b6001900381819060005260206000200160009055905550505050565b600061273d83610b19565b905081600660008573ffffffffffffffffffffffffffffffffffffffff1673ffffffffffffffffffffffffffffffffffffffff168152602001908152602001600020600083815260200190815260200160002081905550806007600084815260200190815260200160002081905550505050565b600080600090507a184f03e93ff9f4daa797ed6e38ed64bf6a1f010000000000000000831061280f577a184f03e93ff9f4daa797ed6e38ed64bf6a1f010000000000000000838161280557612804613651565b5b0492506040810190505b6d04ee2d6d415b85acef8100000000831061284c576d04ee2d6d415b85acef8100000000838161284257612841613651565b5b0492506020810190505b662386f26fc10000831061287b57662386f26fc10000838161287157612870613651565b5b0492506010810190505b6305f5e10083106128a4576305f5e100838161289a57612899613651565b5b0492506008810190505b61271083106128c95761271083816128bf576128be613651565b5b0492506004810190505b606483106128ec57606483816128e2576128e1613651565b5b0492506002810190505b600a83106128fb576001810190505b80915050919050565b828054612910906135bf565b90600052602060002090601f0160209004810192826129325760008555612979565b82601f1061294b57805160ff1916838001178555612979565b82800160010185558215612979579182015b8281111561297857825182559160200191906001019061295d565b5b50905061298691906129ca565b5090565b508054612996906135bf565b6000825580601f106129a857506129c7565b601f0160209004906000526020600020908101906129c691906129ca565b5b50565b5b808211156129e35760008160009055506001016129cb565b5090565b60006129fa6129f584613461565b61343c565b905082815260208101848484011115612a1657612a15613741565b5b612a2184828561357d565b509392505050565b600081359050612a3881613c86565b92915050565b600081359050612a4d81613c9d565b92915050565b600081359050612a6281613cb4565b92915050565b600081519050612a7781613cb4565b92915050565b600082601f830112612a9257612a9161373c565b5b8135612aa28482602086016129e7565b91505092915050565b600081359050612aba81613ccb565b92915050565b600060208284031215612ad657612ad561374b565b5b6000612ae484828501612a29565b91505092915050565b60008060408385031215612b0457612b0361374b565b5b6000612b1285828601612a29565b9250506020612b2385828601612a29565b9150509250929050565b600080600060608486031215612b4657612b4561374b565b5b6000612b5486828701612a29565b9350506020612b6586828701612a29565b9250506040612b7686828701612aab565b9150509250925092565b60008060008060808587031215612b9a57612b9961374b565b5b6000612ba887828801612a29565b9450506020612bb987828801612a29565b9350506040612bca87828801612aab565b925050606085013567ffffffffffffffff811115612beb57612bea613746565b5b612bf787828801612a7d565b91505092959194509250565b60008060408385031215612c1a57612c1961374b565b5b6000612c2885828601612a29565b9250506020612c3985828601612a3e565b9150509250929050565b60008060408385031215612c5a57612c5961374b565b5b6000612c6885828601612a29565b9250506020612c7985828601612aab565b9150509250929050565b600060208284031215612c9957612c9861374b565b5b6000612ca784828501612a53565b91505092915050565b600060208284031215612cc657612cc561374b565b5b6000612cd484828501612a68565b91505092915050565b600060208284031215612cf357612cf261374b565b5b6000612d0184828501612aab565b91505092915050565b612d1381613509565b82525050565b612d228161351b565b82525050565b6000612d3382613492565b612d3d81856134a8565b9350612d4d81856020860161358c565b612d5681613750565b840191505092915050565b6000612d6c8261349d565b612d7681856134b9565b9350612d8681856020860161358c565b612d8f81613750565b840191505092915050565b6000612da58261349d565b612daf81856134ca565b9350612dbf81856020860161358c565b80840191505092915050565b6000612dd86014836134b9565b9150612de382613761565b602082019050919050565b6000612dfb602d836134b9565b9150612e068261378a565b604082019050919050565b6000612e1e602b836134b9565b9150612e29826137d9565b604082019050919050565b6000612e416032836134b9565b9150612e4c82613828565b604082019050919050565b6000612e646026836134b9565b9150612e6f82613877565b604082019050919050565b6000612e876025836134b9565b9150612e92826138c6565b604082019050919050565b6000612eaa601c836134b9565b9150612eb582613915565b602082019050919050565b6000612ecd6024836134b9565b9150612ed88261393e565b604082019050919050565b6000612ef06019836134b9565b9150612efb8261398d565b602082019050919050565b6000612f136010836134b9565b9150612f1e826139b6565b602082019050919050565b6000612f366016836134b9565b9150612f41826139df565b602082019050919050565b6000612f596029836134b9565b9150612f6482613a08565b604082019050919050565b6000612f7c602e836134b9565b9150612f8782613a57565b604082019050919050565b6000612f9f6020836134b9565b9150612faa82613aa6565b602082019050919050565b6000612fc26020836134b9565b9150612fcd82613acf565b602082019050919050565b6000612fe56018836134b9565b9150612ff082613af8565b602082019050919050565b60006130086021836134b9565b915061301382613b21565b604082019050919050565b600061302b603d836134b9565b915061303682613b70565b604082019050919050565b600061304e602c836134b9565b915061305982613bbf565b604082019050919050565b60006130716035836134b9565b915061307c82613c0e565b604082019050919050565b6000613094601f836134b9565b915061309f82613c5d565b602082019050919050565b6130b381613573565b82525050565b60006130c58285612d9a565b91506130d18284612d9a565b91508190509392505050565b60006020820190506130f26000830184612d0a565b92915050565b600060808201905061310d6000830187612d0a565b61311a6020830186612d0a565b61312760408301856130aa565b81810360608301526131398184612d28565b905095945050505050565b60006020820190506131596000830184612d19565b92915050565b600060208201905081810360008301526131798184612d61565b905092915050565b6000602082019050818103600083015261319a81612dcb565b9050919050565b600060208201905081810360008301526131ba81612dee565b9050919050565b600060208201905081810360008301526131da81612e11565b9050919050565b600060208201905081810360008301526131fa81612e34565b9050919050565b6000602082019050818103600083015261321a81612e57565b9050919050565b6000602082019050818103600083015261323a81612e7a565b9050919050565b6000602082019050818103600083015261325a81612e9d565b9050919050565b6000602082019050818103600083015261327a81612ec0565b9050919050565b6000602082019050818103600083015261329a81612ee3565b9050919050565b600060208201905081810360008301526132ba81612f06565b9050919050565b600060208201905081810360008301526132da81612f29565b9050919050565b600060208201905081810360008301526132fa81612f4c565b9050919050565b6000602082019050818103600083015261331a81612f6f565b9050919050565b6000602082019050818103600083015261333a81612f92565b9050919050565b6000602082019050818103600083015261335a81612fb5565b9050919050565b6000602082019050818103600083015261337a81612fd8565b9050919050565b6000602082019050818103600083015261339a81612ffb565b9050919050565b600060208201905081810360008301526133ba8161301e565b9050919050565b600060208201905081810360008301526133da81613041565b9050919050565b600060208201905081810360008301526133fa81613064565b9050919050565b6000602082019050818103600083015261341a81613087565b9050919050565b600060208201905061343660008301846130aa565b92915050565b6000613446613457565b905061345282826135f1565b919050565b6000604051905090565b600067ffffffffffffffff82111561347c5761347b61370d565b5b61348582613750565b9050602081019050919050565b600081519050919050565b600081519050919050565b600082825260208201905092915050565b600082825260208201905092915050565b600081905092915050565b60006134e082613573565b91506134eb83613573565b9250828210156134fe576134fd613622565b5b828203905092915050565b600061351482613553565b9050919050565b60008115159050919050565b60007fffffffff0000000000000000000000000000000000000000000000000000000082169050919050565b600073ffffffffffffffffffffffffffffffffffffffff82169050919050565b6000819050919050565b82818337600083830152505050565b60005b838110156135aa57808201518184015260208101905061358f565b838111156135b9576000848401525b50505050565b600060028204905060018216806135d757607f821691505b602082108114156135eb576135ea613680565b5b50919050565b6135fa82613750565b810181811067ffffffffffffffff821117156136195761361861370d565b5b80604052505050565b7f4e487b7100000000000000000000000000000000000000000000000000000000600052601160045260246000fd5b7f4e487b7100000000000000000000000000000000000000000000000000000000600052601260045260246000fd5b7f4e487b7100000000000000000000000000000000000000000000000000000000600052602260045260246000fd5b7f4e487b7100000000000000000000000000000000000000000000000000000000600052603160045260246000fd5b7f4e487b7100000000000000000000000000000000000000000000000000000000600052603260045260246000fd5b7f4e487b7100000000000000000000000000000000000000000000000000000000600052604160045260246000fd5b600080fd5b600080fd5b600080fd5b600080fd5b6000601f19601f8301169050919050565b7f5061757361626c653a206e6f7420706175736564000000000000000000000000600082015250565b7f4552433732313a2063616c6c6572206973206e6f7420746f6b656e206f776e6560008201527f72206f7220617070726f76656400000000000000000000000000000000000000602082015250565b7f455243373231456e756d657261626c653a206f776e657220696e646578206f7560008201527f74206f6620626f756e6473000000000000000000000000000000000000000000602082015250565b7f4552433732313a207472616e7366657220746f206e6f6e20455243373231526560008201527f63656976657220696d706c656d656e7465720000000000000000000000000000602082015250565b7f4f776e61626c653a206e6577206f776e657220697320746865207a65726f206160008201527f6464726573730000000000000000000000000000000000000000000000000000602082015250565b7f4552433732313a207472616e736665722066726f6d20696e636f72726563742060008201527f6f776e6572000000000000000000000000000000000000000000000000000000602082015250565b7f4552433732313a20746f6b656e20616c7265616479206d696e74656400000000600082015250565b7f4552433732313a207472616e7366657220746f20746865207a65726f2061646460008201527f7265737300000000000000000000000000000000000000000000000000000000602082015250565b7f4552433732313a20617070726f766520746f2063616c6c657200000000000000600082015250565b7f5061757361626c653a2070617573656400000000000000000000000000000000600082015250565b7f596f75206e6565642073656e64206d6f726520626e6200000000000000000000600082015250565b7f4552433732313a2061646472657373207a65726f206973206e6f74206120766160008201527f6c6964206f776e65720000000000000000000000000000000000000000000000602082015250565b7f45524337323155524953746f726167653a2055524920736574206f66206e6f6e60008201527f6578697374656e7420746f6b656e000000000000000000000000000000000000602082015250565b7f4552433732313a206d696e7420746f20746865207a65726f2061646472657373600082015250565b7f4f776e61626c653a2063616c6c6572206973206e6f7420746865206f776e6572600082015250565b7f4552433732313a20696e76616c696420746f6b656e2049440000000000000000600082015250565b7f4552433732313a20617070726f76616c20746f2063757272656e74206f776e6560008201527f7200000000000000000000000000000000000000000000000000000000000000602082015250565b7f4552433732313a20617070726f76652063616c6c6572206973206e6f7420746f60008201527f6b656e206f776e6572206f7220617070726f76656420666f7220616c6c000000602082015250565b7f455243373231456e756d657261626c653a20676c6f62616c20696e646578206f60008201527f7574206f6620626f756e64730000000000000000000000000000000000000000602082015250565b7f455243373231456e756d657261626c653a20636f6e736563757469766520747260008201527f616e7366657273206e6f7420737570706f727465640000000000000000000000602082015250565b7f5265656e7472616e637947756172643a207265656e7472616e742063616c6c00600082015250565b613c8f81613509565b8114613c9a57600080fd5b50565b613ca68161351b565b8114613cb157600080fd5b50565b613cbd81613527565b8114613cc857600080fd5b50565b613cd481613573565b8114613cdf57600080fd5b5056fea26469706673582212209a2914f75cf2746285fc03e4db30d14070680dc52957b8f91ec11024c1275f4b64736f6c63430008050033",
  "linkReferences": {},
  "deployedLinkReferences": {}
}