{
  "_format": "hh-sol-artifact-1",
  "contractName": "LAUNCHPAD",
  "sourceName": "contracts/LaunchPad.sol",
  "abi": [
    {
      "inputs": [
        {
          "internalType": "address",
          "name": "_walletPool",
          "type": "address"
        },
        {
          "internalType": "address",
          "name": "_TokenRecibe",
          "type": "address"
        }
      ],
      "stateMutability": "nonpayable",
      "type": "constructor"
    },
    {
      "anonymous": false,
      "inputs": [
        {
          "indexed": true,
          "internalType": "address",
          "name": "previousOwner",
          "type": "address"
        },
        {
          "indexed": true,
          "internalType": "address",
          "name": "newOwner",
          "type": "address"
        }
      ],
      "name": "OwnershipTransferred",
      "type": "event"
    },
    {
      "inputs": [
        {
          "internalType": "uint256",
          "name": "_amount",
          "type": "uint256"
        }
      ],
      "name": "ChangeLimitAmount",
      "outputs": [],
      "stateMutability": "nonpayable",
      "type": "function"
    },
    {
      "inputs": [
        {
          "internalType": "uint256",
          "name": "_amount",
          "type": "uint256"
        }
      ],
      "name": "ChangeMaxAmount",
      "outputs": [],
      "stateMutability": "nonpayable",
      "type": "function"
    },
    {
      "inputs": [
        {
          "internalType": "uint256",
          "name": "_amount",
          "type": "uint256"
        }
      ],
      "name": "ChangeMinAmount",
      "outputs": [],
      "stateMutability": "nonpayable",
      "type": "function"
    },
    {
      "inputs": [
        {
          "internalType": "uint256",
          "name": "_percent",
          "type": "uint256"
        }
      ],
      "name": "ChangePercent",
      "outputs": [],
      "stateMutability": "nonpayable",
      "type": "function"
    },
    {
      "inputs": [
        {
          "internalType": "address",
          "name": "_wallet",
          "type": "address"
        }
      ],
      "name": "ChangeWalletRecibe",
      "outputs": [],
      "stateMutability": "nonpayable",
      "type": "function"
    },
    {
      "inputs": [
        {
          "internalType": "uint256",
          "name": "_amount",
          "type": "uint256"
        }
      ],
      "name": "Deposit",
      "outputs": [],
      "stateMutability": "nonpayable",
      "type": "function"
    },
    {
      "inputs": [],
      "name": "EarnReward",
      "outputs": [],
      "stateMutability": "nonpayable",
      "type": "function"
    },
    {
      "inputs": [
        {
          "internalType": "uint256",
          "name": "_limit",
          "type": "uint256"
        },
        {
          "internalType": "uint256",
          "name": "_maxAmount",
          "type": "uint256"
        },
        {
          "internalType": "uint256",
          "name": "_minAmount",
          "type": "uint256"
        },
        {
          "internalType": "uint256",
          "name": "_percent",
          "type": "uint256"
        }
      ],
      "name": "Initialized",
      "outputs": [],
      "stateMutability": "nonpayable",
      "type": "function"
    },
    {
      "inputs": [],
      "name": "MaxAmount",
      "outputs": [
        {
          "internalType": "uint256",
          "name": "",
          "type": "uint256"
        }
      ],
      "stateMutability": "view",
      "type": "function"
    },
    {
      "inputs": [],
      "name": "MinAmount",
      "outputs": [
        {
          "internalType": "uint256",
          "name": "",
          "type": "uint256"
        }
      ],
      "stateMutability": "view",
      "type": "function"
    },
    {
      "inputs": [],
      "name": "PercentEarn",
      "outputs": [
        {
          "internalType": "uint256",
          "name": "",
          "type": "uint256"
        }
      ],
      "stateMutability": "view",
      "type": "function"
    },
    {
      "inputs": [
        {
          "internalType": "address",
          "name": "_tokens",
          "type": "address"
        }
      ],
      "name": "RecoverTokens",
      "outputs": [],
      "stateMutability": "nonpayable",
      "type": "function"
    },
    {
      "inputs": [
        {
          "internalType": "address",
          "name": "_wallet",
          "type": "address"
        }
      ],
      "name": "addUserWhiteList",
      "outputs": [],
      "stateMutability": "nonpayable",
      "type": "function"
    },
    {
      "inputs": [
        {
          "internalType": "address",
          "name": "",
          "type": "address"
        }
      ],
      "name": "balanceUser",
      "outputs": [
        {
          "internalType": "uint256",
          "name": "Amount",
          "type": "uint256"
        },
        {
          "internalType": "uint256",
          "name": "initTime",
          "type": "uint256"
        },
        {
          "internalType": "uint256",
          "name": "finishTime",
          "type": "uint256"
        },
        {
          "internalType": "uint256",
          "name": "Earn",
          "type": "uint256"
        }
      ],
      "stateMutability": "view",
      "type": "function"
    },
    {
      "inputs": [],
      "name": "limit",
      "outputs": [
        {
          "internalType": "uint256",
          "name": "",
          "type": "uint256"
        }
      ],
      "stateMutability": "view",
      "type": "function"
    },
    {
      "inputs": [],
      "name": "lock",
      "outputs": [],
      "stateMutability": "nonpayable",
      "type": "function"
    },
    {
      "inputs": [],
      "name": "owner",
      "outputs": [
        {
          "internalType": "address",
          "name": "",
          "type": "address"
        }
      ],
      "stateMutability": "view",
      "type": "function"
    },
    {
      "inputs": [],
      "name": "recolect",
      "outputs": [
        {
          "internalType": "uint256",
          "name": "",
          "type": "uint256"
        }
      ],
      "stateMutability": "view",
      "type": "function"
    },
    {
      "inputs": [],
      "name": "renounceOwnership",
      "outputs": [],
      "stateMutability": "nonpayable",
      "type": "function"
    },
    {
      "inputs": [
        {
          "internalType": "address",
          "name": "newOwner",
          "type": "address"
        }
      ],
      "name": "transferOwnership",
      "outputs": [],
      "stateMutability": "nonpayable",
      "type": "function"
    },
    {
      "inputs": [],
      "name": "walletPool",
      "outputs": [
        {
          "internalType": "address",
          "name": "",
          "type": "address"
        }
      ],
      "stateMutability": "view",
      "type": "function"
    },
    {
      "inputs": [
        {
          "internalType": "address",
          "name": "",
          "type": "address"
        }
      ],
      "name": "whiteList",
      "outputs": [
        {
          "internalType": "bool",
          "name": "",
          "type": "bool"
        }
      ],
      "stateMutability": "view",
      "type": "function"
    }
  ],
  "bytecode": "0x60806040523480156200001157600080fd5b5060405162001fd438038062001fd48339818101604052810190620000379190620001cb565b620000576200004b620000e860201b60201c565b620000f060201b60201c565b6001808190555081600260006101000a81548173ffffffffffffffffffffffffffffffffffffffff021916908373ffffffffffffffffffffffffffffffffffffffff16021790555080600360006101000a81548173ffffffffffffffffffffffffffffffffffffffff021916908373ffffffffffffffffffffffffffffffffffffffff160217905550505062000265565b600033905090565b60008060009054906101000a900473ffffffffffffffffffffffffffffffffffffffff169050816000806101000a81548173ffffffffffffffffffffffffffffffffffffffff021916908373ffffffffffffffffffffffffffffffffffffffff1602179055508173ffffffffffffffffffffffffffffffffffffffff168173ffffffffffffffffffffffffffffffffffffffff167f8be0079c531659141344cd1fd0a4f28419497f9722a3daafe3b4186f6b6457e060405160405180910390a35050565b600081519050620001c5816200024b565b92915050565b60008060408385031215620001e557620001e462000246565b5b6000620001f585828601620001b4565b92505060206200020885828601620001b4565b9150509250929050565b60006200021f8262000226565b9050919050565b600073ffffffffffffffffffffffffffffffffffffffff82169050919050565b600080fd5b620002568162000212565b81146200026257600080fd5b50565b611d5f80620002756000396000f3fe608060405234801561001057600080fd5b50600436106101425760003560e01c80637586c414116100b8578063e2d78e091161007c578063e2d78e0914610313578063e5c154f11461031d578063ec6524061461033b578063f2fde38b14610359578063f5eb889014610375578063f83d08ba146103a857610142565b80637586c414146102815780638da5cb5b1461029f57806397a64101146102bd578063a4d66daf146102d9578063bb1711a6146102f757610142565b806347afd82f1161010a57806347afd82f146101e75780634d6ce1e51461020357806354f3a6e01461021f57806360a810021461023d5780636b68f8101461025b578063715018a61461027757610142565b806313cad1d11461014757806321adc903146101635780632a8a99381461017f578063372c12b11461019b578063478b0f87146101cb575b600080fd5b610161600480360381019061015c9190611277565b6103b2565b005b61017d600480360381019061017891906112d1565b6103c4565b005b6101996004803603810190610194919061121d565b610459565b005b6101b560048036038101906101b0919061121d565b6104bc565b6040516101c291906115ed565b60405180910390f35b6101e560048036038101906101e0919061121d565b6104dc565b005b61020160048036038101906101fc919061121d565b6105fd565b005b61021d60048036038101906102189190611277565b610649565b005b610227610bdf565b60405161023491906117e8565b60405180910390f35b610245610be5565b60405161025291906117e8565b60405180910390f35b61027560048036038101906102709190611277565b610beb565b005b61027f610bfd565b005b610289610c11565b60405161029691906117e8565b60405180910390f35b6102a7610c17565b6040516102b49190611572565b60405180910390f35b6102d760048036038101906102d29190611277565b610c40565b005b6102e1610c95565b6040516102ee91906117e8565b60405180910390f35b610311600480360381019061030c9190611277565b610c9b565b005b61031b610cad565b005b610325610ee6565b6040516103329190611572565b60405180910390f35b610343610f0c565b60405161035091906117e8565b60405180910390f35b610373600480360381019061036e919061121d565b610f12565b005b61038f600480360381019061038a919061121d565b610f96565b60405161039f9493929190611803565b60405180910390f35b6103b0610fc6565b005b6103ba610ffa565b8060068190555050565b6103cc610ffa565b600960019054906101000a900460ff161561041c576040517f08c379a000000000000000000000000000000000000000000000000000000000815260040161041390611608565b60405180910390fd5b836005819055508260068190555081600781905550806008819055506001600960016101000a81548160ff02191690831515021790555050505050565b610461610ffa565b6001600b60008373ffffffffffffffffffffffffffffffffffffffff1673ffffffffffffffffffffffffffffffffffffffff16815260200190815260200160002060006101000a81548160ff02191690831515021790555050565b600b6020528060005260406000206000915054906101000a900460ff1681565b6104e4610ffa565b8073ffffffffffffffffffffffffffffffffffffffff1663a9059cbb338373ffffffffffffffffffffffffffffffffffffffff166370a08231306040518263ffffffff1660e01b815260040161053a9190611572565b60206040518083038186803b15801561055257600080fd5b505afa158015610566573d6000803e3d6000fd5b505050506040513d601f19601f8201168201806040525081019061058a91906112a4565b6040518363ffffffff1660e01b81526004016105a79291906115c4565b602060405180830381600087803b1580156105c157600080fd5b505af11580156105d5573d6000803e3d6000fd5b505050506040513d601f19601f820116820180604052508101906105f9919061124a565b5050565b610605610ffa565b80600260006101000a81548173ffffffffffffffffffffffffffffffffffffffff021916908373ffffffffffffffffffffffffffffffffffffffff16021790555050565b610651611078565b600960009054906101000a900460ff16156106a1576040517f08c379a000000000000000000000000000000000000000000000000000000000815260040161069890611628565b60405180910390fd5b600960019054906101000a900460ff166106f0576040517f08c379a00000000000000000000000000000000000000000000000000000000081526004016106e790611728565b60405180910390fd5b600b60003373ffffffffffffffffffffffffffffffffffffffff1673ffffffffffffffffffffffffffffffffffffffff16815260200190815260200160002060009054906101000a900460ff1661077c576040517f08c379a0000000000000000000000000000000000000000000000000000000008152600401610773906116c8565b60405180910390fd5b80600360009054906101000a900473ffffffffffffffffffffffffffffffffffffffff1673ffffffffffffffffffffffffffffffffffffffff166370a08231336040518263ffffffff1660e01b81526004016107d89190611572565b60206040518083038186803b1580156107f057600080fd5b505afa158015610804573d6000803e3d6000fd5b505050506040513d601f19601f8201168201806040525081019061082891906112a4565b1015610869576040517f08c379a000000000000000000000000000000000000000000000000000000000815260040161086090611768565b60405180910390fd5b6000600a60003373ffffffffffffffffffffffffffffffffffffffff1673ffffffffffffffffffffffffffffffffffffffff168152602001908152602001600020604051806080016040529081600082015481526020016001820154815260200160028201548152602001600382015481525050905081600460008282546108f19190611859565b92505081905550818160000181815161090a9190611859565b915081815250506006548160000151111561095a576040517f08c379a000000000000000000000000000000000000000000000000000000000815260040161095190611648565b60405180910390fd5b60055482111561099f576040517f08c379a0000000000000000000000000000000000000000000000000000000008152600401610996906116a8565b60405180910390fd5b60055460045411156109e6576040517f08c379a00000000000000000000000000000000000000000000000000000000081526004016109dd906117c8565b60405180910390fd5b60006007541115610a3757600754821015610a36576040517f08c379a0000000000000000000000000000000000000000000000000000000008152600401610a2d90611708565b60405180910390fd5b5b6000610a656064610a5760085485600001516110c890919063ffffffff16565b6110de90919063ffffffff16565b90508082606001818152505062093a8042610a809190611859565b8260400181815250504282602001818152505081600a60003373ffffffffffffffffffffffffffffffffffffffff1673ffffffffffffffffffffffffffffffffffffffff16815260200190815260200160002060008201518160000155602082015181600101556040820151816002015560608201518160030155905050600360009054906101000a900473ffffffffffffffffffffffffffffffffffffffff1673ffffffffffffffffffffffffffffffffffffffff166323b872dd33600260009054906101000a900473ffffffffffffffffffffffffffffffffffffffff16866040518463ffffffff1660e01b8152600401610b7f9392919061158d565b602060405180830381600087803b158015610b9957600080fd5b505af1158015610bad573d6000803e3d6000fd5b505050506040513d601f19601f82011682018060405250810190610bd1919061124a565b505050610bdc6110f4565b50565b60085481565b60065481565b610bf3610ffa565b8060058190555050565b610c05610ffa565b610c0f60006110fd565b565b60045481565b60008060009054906101000a900473ffffffffffffffffffffffffffffffffffffffff16905090565b610c48610ffa565b60008111610c8b576040517f08c379a0000000000000000000000000000000000000000000000000000000008152600401610c8290611788565b60405180910390fd5b8060088190555050565b60055481565b610ca3610ffa565b8060078190555050565b610cb5611078565b600960009054906101000a900460ff1615610d05576040517f08c379a0000000000000000000000000000000000000000000000000000000008152600401610cfc90611628565b60405180910390fd5b6000600a60003373ffffffffffffffffffffffffffffffffffffffff1673ffffffffffffffffffffffffffffffffffffffff16815260200190815260200160002060405180608001604052908160008201548152602001600182015481526020016002820154815260200160038201548152505090504281604001511115610dc2576040517f08c379a0000000000000000000000000000000000000000000000000000000008152600401610db990611688565b60405180910390fd5b6000816000015111610e09576040517f08c379a0000000000000000000000000000000000000000000000000000000008152600401610e0090611748565b60405180910390fd5b60008160600151905062093a8042610e219190611859565b826040018181525050600360009054906101000a900473ffffffffffffffffffffffffffffffffffffffff1673ffffffffffffffffffffffffffffffffffffffff1663a9059cbb33836040518363ffffffff1660e01b8152600401610e879291906115c4565b602060405180830381600087803b158015610ea157600080fd5b505af1158015610eb5573d6000803e3d6000fd5b505050506040513d601f19601f82011682018060405250810190610ed9919061124a565b505050610ee46110f4565b565b600260009054906101000a900473ffffffffffffffffffffffffffffffffffffffff1681565b60075481565b610f1a610ffa565b600073ffffffffffffffffffffffffffffffffffffffff168173ffffffffffffffffffffffffffffffffffffffff161415610f8a576040517f08c379a0000000000000000000000000000000000000000000000000000000008152600401610f8190611668565b60405180910390fd5b610f93816110fd565b50565b600a6020528060005260406000206000915090508060000154908060010154908060020154908060030154905084565b610fce610ffa565b600960009054906101000a900460ff1615600960006101000a81548160ff021916908315150217905550565b6110026111c1565b73ffffffffffffffffffffffffffffffffffffffff16611020610c17565b73ffffffffffffffffffffffffffffffffffffffff1614611076576040517f08c379a000000000000000000000000000000000000000000000000000000000815260040161106d906116e8565b60405180910390fd5b565b600260015414156110be576040517f08c379a00000000000000000000000000000000000000000000000000000000081526004016110b5906117a8565b60405180910390fd5b6002600181905550565b600081836110d691906118e0565b905092915050565b600081836110ec91906118af565b905092915050565b60018081905550565b60008060009054906101000a900473ffffffffffffffffffffffffffffffffffffffff169050816000806101000a81548173ffffffffffffffffffffffffffffffffffffffff021916908373ffffffffffffffffffffffffffffffffffffffff1602179055508173ffffffffffffffffffffffffffffffffffffffff168173ffffffffffffffffffffffffffffffffffffffff167f8be0079c531659141344cd1fd0a4f28419497f9722a3daafe3b4186f6b6457e060405160405180910390a35050565b600033905090565b6000813590506111d881611ce4565b92915050565b6000815190506111ed81611cfb565b92915050565b60008135905061120281611d12565b92915050565b60008151905061121781611d12565b92915050565b600060208284031215611233576112326119e0565b5b6000611241848285016111c9565b91505092915050565b6000602082840312156112605761125f6119e0565b5b600061126e848285016111de565b91505092915050565b60006020828403121561128d5761128c6119e0565b5b600061129b848285016111f3565b91505092915050565b6000602082840312156112ba576112b96119e0565b5b60006112c884828501611208565b91505092915050565b600080600080608085870312156112eb576112ea6119e0565b5b60006112f9878288016111f3565b945050602061130a878288016111f3565b935050604061131b878288016111f3565b925050606061132c878288016111f3565b91505092959194509250565b6113418161193a565b82525050565b6113508161194c565b82525050565b6000611363601983611848565b915061136e826119e5565b602082019050919050565b6000611386600b83611848565b915061139182611a0e565b602082019050919050565b60006113a9600d83611848565b91506113b482611a37565b602082019050919050565b60006113cc602683611848565b91506113d782611a60565b604082019050919050565b60006113ef602183611848565b91506113fa82611aaf565b604082019050919050565b6000611412600d83611848565b915061141d82611afe565b602082019050919050565b6000611435601883611848565b915061144082611b27565b602082019050919050565b6000611458602083611848565b915061146382611b50565b602082019050919050565b600061147b602a83611848565b915061148682611b79565b604082019050919050565b600061149e601883611848565b91506114a982611bc8565b602082019050919050565b60006114c1603383611848565b91506114cc82611bf1565b604082019050919050565b60006114e4601383611848565b91506114ef82611c40565b602082019050919050565b6000611507601783611848565b915061151282611c69565b602082019050919050565b600061152a601f83611848565b915061153582611c92565b602082019050919050565b600061154d601b83611848565b915061155882611cbb565b602082019050919050565b61156c81611978565b82525050565b60006020820190506115876000830184611338565b92915050565b60006060820190506115a26000830186611338565b6115af6020830185611338565b6115bc6040830184611563565b949350505050565b60006040820190506115d96000830185611338565b6115e66020830184611563565b9392505050565b60006020820190506116026000830184611347565b92915050565b6000602082019050818103600083015261162181611356565b9050919050565b6000602082019050818103600083015261164181611379565b9050919050565b600060208201905081810360008301526116618161139c565b9050919050565b60006020820190508181036000830152611681816113bf565b9050919050565b600060208201905081810360008301526116a1816113e2565b9050919050565b600060208201905081810360008301526116c181611405565b9050919050565b600060208201905081810360008301526116e181611428565b9050919050565b600060208201905081810360008301526117018161144b565b9050919050565b600060208201905081810360008301526117218161146e565b9050919050565b6000602082019050818103600083015261174181611491565b9050919050565b60006020820190508181036000830152611761816114b4565b9050919050565b60006020820190508181036000830152611781816114d7565b9050919050565b600060208201905081810360008301526117a1816114fa565b9050919050565b600060208201905081810360008301526117c18161151d565b9050919050565b600060208201905081810360008301526117e181611540565b9050919050565b60006020820190506117fd6000830184611563565b92915050565b60006080820190506118186000830187611563565b6118256020830186611563565b6118326040830185611563565b61183f6060830184611563565b95945050505050565b600082825260208201905092915050565b600061186482611978565b915061186f83611978565b9250827fffffffffffffffffffffffffffffffffffffffffffffffffffffffffffffffff038211156118a4576118a3611982565b5b828201905092915050565b60006118ba82611978565b91506118c583611978565b9250826118d5576118d46119b1565b5b828204905092915050565b60006118eb82611978565b91506118f683611978565b9250817fffffffffffffffffffffffffffffffffffffffffffffffffffffffffffffffff048311821515161561192f5761192e611982565b5b828202905092915050565b600061194582611958565b9050919050565b60008115159050919050565b600073ffffffffffffffffffffffffffffffffffffffff82169050919050565b6000819050919050565b7f4e487b7100000000000000000000000000000000000000000000000000000000600052601160045260246000fd5b7f4e487b7100000000000000000000000000000000000000000000000000000000600052601260045260246000fd5b600080fd5b7f506f6f6c20686173206265656e20696e697469616c697a656400000000000000600082015250565b7f506175736564204561726e000000000000000000000000000000000000000000600082015250565b7f4c696d6974206f66207573657200000000000000000000000000000000000000600082015250565b7f4f776e61626c653a206e6577206f776e657220697320746865207a65726f206160008201527f6464726573730000000000000000000000000000000000000000000000000000602082015250565b7f796f75206e65656420776169742066696e6973682c20746f207769746864726160008201527f7700000000000000000000000000000000000000000000000000000000000000602082015250565b7f4c696d6974206f6620706f6f6c00000000000000000000000000000000000000600082015250565b7f596f7520617265206e6f7420696e2077686974656c6973740000000000000000600082015250565b7f4f776e61626c653a2063616c6c6572206973206e6f7420746865206f776e6572600082015250565b7f496e73756666696369656e7420616d6f756e742c206c657373207468616e207460008201527f6865206d696e696d756d00000000000000000000000000000000000000000000602082015250565b7f506f6f6c20697473206e6f7420696e697469616c697a65640000000000000000600082015250565b7f796f75206861766520616c72656164792077697468647261776e20796f75722060008201527f6361706974616c20616e642070726f6669747300000000000000000000000000602082015250565b7f496e73756666696369656e7420616d6f756e7400000000000000000000000000600082015250565b7f746865206e756d626572207468616e2067726561742030000000000000000000600082015250565b7f5265656e7472616e637947756172643a207265656e7472616e742063616c6c00600082015250565b7f506f6f6c206c696d697420686173206265656e20726561636865640000000000600082015250565b611ced8161193a565b8114611cf857600080fd5b50565b611d048161194c565b8114611d0f57600080fd5b50565b611d1b81611978565b8114611d2657600080fd5b5056fea2646970667358221220e5c0b6f6ae4288a602c4f7ba5629591656c8a50ef6a6aaea8c3cfb3b5846bfb164736f6c63430008050033",
  "linkReferences": {},
  "deployedLinkReferences": {}
}