{
  "_format": "hh-sol-artifact-1",
  "contractName": "EARNTRADEAI",
  "sourceName": "contracts/EarnV2.sol",
  "abi": [
    {
      "inputs": [
        {
          "internalType": "address",
          "name": "_walletPool",
          "type": "address"
        },
        {
          "internalType": "address",
          "name": "_TokenRecibe",
          "type": "address"
        }
      ],
      "stateMutability": "nonpayable",
      "type": "constructor"
    },
    {
      "anonymous": false,
      "inputs": [
        {
          "indexed": true,
          "internalType": "address",
          "name": "previousOwner",
          "type": "address"
        },
        {
          "indexed": true,
          "internalType": "address",
          "name": "newOwner",
          "type": "address"
        }
      ],
      "name": "OwnershipTransferred",
      "type": "event"
    },
    {
      "anonymous": false,
      "inputs": [
        {
          "indexed": true,
          "internalType": "bytes32",
          "name": "role",
          "type": "bytes32"
        },
        {
          "indexed": true,
          "internalType": "bytes32",
          "name": "previousAdminRole",
          "type": "bytes32"
        },
        {
          "indexed": true,
          "internalType": "bytes32",
          "name": "newAdminRole",
          "type": "bytes32"
        }
      ],
      "name": "RoleAdminChanged",
      "type": "event"
    },
    {
      "anonymous": false,
      "inputs": [
        {
          "indexed": true,
          "internalType": "bytes32",
          "name": "role",
          "type": "bytes32"
        },
        {
          "indexed": true,
          "internalType": "address",
          "name": "account",
          "type": "address"
        },
        {
          "indexed": true,
          "internalType": "address",
          "name": "sender",
          "type": "address"
        }
      ],
      "name": "RoleGranted",
      "type": "event"
    },
    {
      "anonymous": false,
      "inputs": [
        {
          "indexed": true,
          "internalType": "bytes32",
          "name": "role",
          "type": "bytes32"
        },
        {
          "indexed": true,
          "internalType": "address",
          "name": "account",
          "type": "address"
        },
        {
          "indexed": true,
          "internalType": "address",
          "name": "sender",
          "type": "address"
        }
      ],
      "name": "RoleRevoked",
      "type": "event"
    },
    {
      "anonymous": false,
      "inputs": [
        {
          "indexed": false,
          "internalType": "address",
          "name": "user",
          "type": "address"
        },
        {
          "indexed": false,
          "internalType": "uint256",
          "name": "from",
          "type": "uint256"
        },
        {
          "indexed": false,
          "internalType": "uint256",
          "name": "to",
          "type": "uint256"
        }
      ],
      "name": "earlyClaim",
      "type": "event"
    },
    {
      "inputs": [
        {
          "internalType": "uint256",
          "name": "_amount",
          "type": "uint256"
        }
      ],
      "name": "ChangeLimitAmount",
      "outputs": [],
      "stateMutability": "nonpayable",
      "type": "function"
    },
    {
      "inputs": [
        {
          "internalType": "uint256",
          "name": "_amount",
          "type": "uint256"
        }
      ],
      "name": "ChangeMaxAmount",
      "outputs": [],
      "stateMutability": "nonpayable",
      "type": "function"
    },
    {
      "inputs": [
        {
          "internalType": "uint256",
          "name": "_amount",
          "type": "uint256"
        }
      ],
      "name": "ChangeMinAmount",
      "outputs": [],
      "stateMutability": "nonpayable",
      "type": "function"
    },
    {
      "inputs": [
        {
          "internalType": "uint256",
          "name": "_percent",
          "type": "uint256"
        }
      ],
      "name": "ChangePercent",
      "outputs": [],
      "stateMutability": "nonpayable",
      "type": "function"
    },
    {
      "inputs": [
        {
          "internalType": "uint256",
          "name": "_recolect",
          "type": "uint256"
        }
      ],
      "name": "ChangeRecolect",
      "outputs": [],
      "stateMutability": "nonpayable",
      "type": "function"
    },
    {
      "inputs": [
        {
          "internalType": "uint256",
          "name": "_tax",
          "type": "uint256"
        }
      ],
      "name": "ChangeTax",
      "outputs": [],
      "stateMutability": "nonpayable",
      "type": "function"
    },
    {
      "inputs": [
        {
          "internalType": "address",
          "name": "_wallet",
          "type": "address"
        }
      ],
      "name": "ChangeWalletRecibe",
      "outputs": [],
      "stateMutability": "nonpayable",
      "type": "function"
    },
    {
      "inputs": [],
      "name": "ChangeWhiteList",
      "outputs": [],
      "stateMutability": "nonpayable",
      "type": "function"
    },
    {
      "inputs": [],
      "name": "DEFAULT_ADMIN_ROLE",
      "outputs": [
        {
          "internalType": "bytes32",
          "name": "",
          "type": "bytes32"
        }
      ],
      "stateMutability": "view",
      "type": "function"
    },
    {
      "inputs": [
        {
          "internalType": "uint256",
          "name": "_amount",
          "type": "uint256"
        }
      ],
      "name": "Deposit",
      "outputs": [],
      "stateMutability": "nonpayable",
      "type": "function"
    },
    {
      "inputs": [
        {
          "internalType": "address",
          "name": "_user",
          "type": "address"
        }
      ],
      "name": "EarlyClaim",
      "outputs": [],
      "stateMutability": "nonpayable",
      "type": "function"
    },
    {
      "inputs": [],
      "name": "EarnDeposit",
      "outputs": [],
      "stateMutability": "nonpayable",
      "type": "function"
    },
    {
      "inputs": [
        {
          "internalType": "uint256",
          "name": "_limit",
          "type": "uint256"
        },
        {
          "internalType": "uint256",
          "name": "_maxAmount",
          "type": "uint256"
        },
        {
          "internalType": "uint256",
          "name": "_minAmount",
          "type": "uint256"
        },
        {
          "internalType": "uint256",
          "name": "_percent",
          "type": "uint256"
        },
        {
          "internalType": "uint256",
          "name": "_tax",
          "type": "uint256"
        },
        {
          "internalType": "bool",
          "name": "_whiteListed",
          "type": "bool"
        }
      ],
      "name": "Initialized",
      "outputs": [],
      "stateMutability": "nonpayable",
      "type": "function"
    },
    {
      "inputs": [],
      "name": "MaxAmount",
      "outputs": [
        {
          "internalType": "uint256",
          "name": "",
          "type": "uint256"
        }
      ],
      "stateMutability": "view",
      "type": "function"
    },
    {
      "inputs": [
        {
          "internalType": "address",
          "name": "_user",
          "type": "address"
        },
        {
          "internalType": "uint256",
          "name": "_amount",
          "type": "uint256"
        },
        {
          "internalType": "uint256",
          "name": "_initTime",
          "type": "uint256"
        },
        {
          "internalType": "uint256",
          "name": "_finishTime",
          "type": "uint256"
        },
        {
          "internalType": "uint256",
          "name": "_earn",
          "type": "uint256"
        }
      ],
      "name": "Migration",
      "outputs": [],
      "stateMutability": "nonpayable",
      "type": "function"
    },
    {
      "inputs": [],
      "name": "MinAmount",
      "outputs": [
        {
          "internalType": "uint256",
          "name": "",
          "type": "uint256"
        }
      ],
      "stateMutability": "view",
      "type": "function"
    },
    {
      "inputs": [
        {
          "internalType": "address[]",
          "name": "_wallets",
          "type": "address[]"
        }
      ],
      "name": "MultiWhitelist",
      "outputs": [],
      "stateMutability": "nonpayable",
      "type": "function"
    },
    {
      "inputs": [],
      "name": "PercentEarn",
      "outputs": [
        {
          "internalType": "uint256",
          "name": "",
          "type": "uint256"
        }
      ],
      "stateMutability": "view",
      "type": "function"
    },
    {
      "inputs": [
        {
          "internalType": "address",
          "name": "_tokens",
          "type": "address"
        }
      ],
      "name": "RecoverTokens",
      "outputs": [],
      "stateMutability": "nonpayable",
      "type": "function"
    },
    {
      "inputs": [],
      "name": "Tax",
      "outputs": [
        {
          "internalType": "uint256",
          "name": "",
          "type": "uint256"
        }
      ],
      "stateMutability": "view",
      "type": "function"
    },
    {
      "inputs": [],
      "name": "TokenRecibe",
      "outputs": [
        {
          "internalType": "address",
          "name": "",
          "type": "address"
        }
      ],
      "stateMutability": "view",
      "type": "function"
    },
    {
      "inputs": [
        {
          "internalType": "address",
          "name": "_wallet",
          "type": "address"
        }
      ],
      "name": "UserWhiteList",
      "outputs": [],
      "stateMutability": "nonpayable",
      "type": "function"
    },
    {
      "inputs": [],
      "name": "WHITELIST_ROLE",
      "outputs": [
        {
          "internalType": "bytes32",
          "name": "",
          "type": "bytes32"
        }
      ],
      "stateMutability": "view",
      "type": "function"
    },
    {
      "inputs": [],
      "name": "WITHDRAW_ROLE",
      "outputs": [
        {
          "internalType": "bytes32",
          "name": "",
          "type": "bytes32"
        }
      ],
      "stateMutability": "view",
      "type": "function"
    },
    {
      "inputs": [],
      "name": "_initialized",
      "outputs": [
        {
          "internalType": "bool",
          "name": "",
          "type": "bool"
        }
      ],
      "stateMutability": "view",
      "type": "function"
    },
    {
      "inputs": [],
      "name": "_lock",
      "outputs": [
        {
          "internalType": "bool",
          "name": "",
          "type": "bool"
        }
      ],
      "stateMutability": "view",
      "type": "function"
    },
    {
      "inputs": [],
      "name": "_whiteList",
      "outputs": [
        {
          "internalType": "bool",
          "name": "",
          "type": "bool"
        }
      ],
      "stateMutability": "view",
      "type": "function"
    },
    {
      "inputs": [
        {
          "internalType": "address",
          "name": "",
          "type": "address"
        }
      ],
      "name": "balanceUser",
      "outputs": [
        {
          "internalType": "uint256",
          "name": "Amount",
          "type": "uint256"
        },
        {
          "internalType": "uint256",
          "name": "initTime",
          "type": "uint256"
        },
        {
          "internalType": "uint256",
          "name": "finishTime",
          "type": "uint256"
        },
        {
          "internalType": "uint256",
          "name": "Earn",
          "type": "uint256"
        }
      ],
      "stateMutability": "view",
      "type": "function"
    },
    {
      "inputs": [
        {
          "internalType": "bytes32",
          "name": "role",
          "type": "bytes32"
        }
      ],
      "name": "getRoleAdmin",
      "outputs": [
        {
          "internalType": "bytes32",
          "name": "",
          "type": "bytes32"
        }
      ],
      "stateMutability": "view",
      "type": "function"
    },
    {
      "inputs": [
        {
          "internalType": "bytes32",
          "name": "role",
          "type": "bytes32"
        },
        {
          "internalType": "address",
          "name": "account",
          "type": "address"
        }
      ],
      "name": "grantRole",
      "outputs": [],
      "stateMutability": "nonpayable",
      "type": "function"
    },
    {
      "inputs": [
        {
          "internalType": "bytes32",
          "name": "role",
          "type": "bytes32"
        },
        {
          "internalType": "address",
          "name": "account",
          "type": "address"
        }
      ],
      "name": "hasRole",
      "outputs": [
        {
          "internalType": "bool",
          "name": "",
          "type": "bool"
        }
      ],
      "stateMutability": "view",
      "type": "function"
    },
    {
      "inputs": [],
      "name": "limit",
      "outputs": [
        {
          "internalType": "uint256",
          "name": "",
          "type": "uint256"
        }
      ],
      "stateMutability": "view",
      "type": "function"
    },
    {
      "inputs": [],
      "name": "lock",
      "outputs": [],
      "stateMutability": "nonpayable",
      "type": "function"
    },
    {
      "inputs": [],
      "name": "owner",
      "outputs": [
        {
          "internalType": "address",
          "name": "",
          "type": "address"
        }
      ],
      "stateMutability": "view",
      "type": "function"
    },
    {
      "inputs": [],
      "name": "recolect",
      "outputs": [
        {
          "internalType": "uint256",
          "name": "",
          "type": "uint256"
        }
      ],
      "stateMutability": "view",
      "type": "function"
    },
    {
      "inputs": [],
      "name": "renounceOwnership",
      "outputs": [],
      "stateMutability": "nonpayable",
      "type": "function"
    },
    {
      "inputs": [
        {
          "internalType": "bytes32",
          "name": "role",
          "type": "bytes32"
        },
        {
          "internalType": "address",
          "name": "account",
          "type": "address"
        }
      ],
      "name": "renounceRole",
      "outputs": [],
      "stateMutability": "nonpayable",
      "type": "function"
    },
    {
      "inputs": [
        {
          "internalType": "bytes32",
          "name": "role",
          "type": "bytes32"
        },
        {
          "internalType": "address",
          "name": "account",
          "type": "address"
        }
      ],
      "name": "revokeRole",
      "outputs": [],
      "stateMutability": "nonpayable",
      "type": "function"
    },
    {
      "inputs": [
        {
          "internalType": "bytes4",
          "name": "interfaceId",
          "type": "bytes4"
        }
      ],
      "name": "supportsInterface",
      "outputs": [
        {
          "internalType": "bool",
          "name": "",
          "type": "bool"
        }
      ],
      "stateMutability": "view",
      "type": "function"
    },
    {
      "inputs": [
        {
          "internalType": "address",
          "name": "newOwner",
          "type": "address"
        }
      ],
      "name": "transferOwnership",
      "outputs": [],
      "stateMutability": "nonpayable",
      "type": "function"
    },
    {
      "inputs": [],
      "name": "walletPool",
      "outputs": [
        {
          "internalType": "address",
          "name": "",
          "type": "address"
        }
      ],
      "stateMutability": "view",
      "type": "function"
    },
    {
      "inputs": [
        {
          "internalType": "address",
          "name": "",
          "type": "address"
        }
      ],
      "name": "whiteList",
      "outputs": [
        {
          "internalType": "bool",
          "name": "",
          "type": "bool"
        }
      ],
      "stateMutability": "view",
      "type": "function"
    }
  ],
  "bytecode": "0x60806040523480156200001157600080fd5b5060405162003ac038038062003ac083398181016040528101906200003791906200033d565b620000576200004b620000fd60201b60201c565b6200010560201b60201c565b6001808190555081600360006101000a81548173ffffffffffffffffffffffffffffffffffffffff021916908373ffffffffffffffffffffffffffffffffffffffff16021790555080600460006101000a81548173ffffffffffffffffffffffffffffffffffffffff021916908373ffffffffffffffffffffffffffffffffffffffff160217905550620000f56000801b33620001c960201b60201c565b5050620003d7565b600033905090565b60008060009054906101000a900473ffffffffffffffffffffffffffffffffffffffff169050816000806101000a81548173ffffffffffffffffffffffffffffffffffffffff021916908373ffffffffffffffffffffffffffffffffffffffff1602179055508173ffffffffffffffffffffffffffffffffffffffff168173ffffffffffffffffffffffffffffffffffffffff167f8be0079c531659141344cd1fd0a4f28419497f9722a3daafe3b4186f6b6457e060405160405180910390a35050565b620001db8282620002bb60201b60201c565b620002b75760016002600084815260200190815260200160002060000160008373ffffffffffffffffffffffffffffffffffffffff1673ffffffffffffffffffffffffffffffffffffffff16815260200190815260200160002060006101000a81548160ff0219169083151502179055506200025c620000fd60201b60201c565b73ffffffffffffffffffffffffffffffffffffffff168173ffffffffffffffffffffffffffffffffffffffff16837f2f8788117e7eff1d82e926ec794901d17c78024a50270940304540a733656f0d60405160405180910390a45b5050565b60006002600084815260200190815260200160002060000160008373ffffffffffffffffffffffffffffffffffffffff1673ffffffffffffffffffffffffffffffffffffffff16815260200190815260200160002060009054906101000a900460ff16905092915050565b6000815190506200033781620003bd565b92915050565b60008060408385031215620003575762000356620003b8565b5b6000620003678582860162000326565b92505060206200037a8582860162000326565b9150509250929050565b6000620003918262000398565b9050919050565b600073ffffffffffffffffffffffffffffffffffffffff82169050919050565b600080fd5b620003c88162000384565b8114620003d457600080fd5b50565b6136d980620003e76000396000f3fe608060405234801561001057600080fd5b506004361061025e5760003560e01c8063715018a611610146578063bb1711a6116100c3578063ea76ec7311610087578063ea76ec7314610689578063ec652406146106a5578063f2fde38b146106c3578063f3ea1e36146106df578063f5eb8890146106fb578063f83d08ba1461072e5761025e565b8063bb1711a6146105f9578063d547741f14610615578063dc6fd58b14610631578063e02023a11461064d578063e5c154f11461066b5761025e565b806391d148541161010a57806391d148541461055557806397a6410114610585578063a217fddf146105a1578063a4d66daf146105bf578063adbae2f0146105dd5761025e565b8063715018a6146104d55780637586c414146104df5780637a997ab7146104fd5780637d03889d1461051b5780638da5cb5b146105375761025e565b8063372c12b1116101df5780634d6ce1e5116101a35780634d6ce1e51461042757806354f3a6e01461044357806360a81002146104615780636b68f8101461047f5780636ea405d31461049b5780636ff8f8c2146104b95761025e565b8063372c12b11461038357806338492569146103b3578063478b0f87146103d157806347afd82f146103ed5780634bd724ed146104095761025e565b8063248a9ca311610226578063248a9ca3146102f35780632f2ff15d146103235780632ffd77781461033f5780633072cf601461034957806336568abe146103675761025e565b806301ffc9a7146102635780630a1e631414610293578063124ded92146102b1578063131bed34146102cd57806313cad1d1146102d7575b600080fd5b61027d6004803603810190610278919061268d565b610738565b60405161028a9190612bcc565b60405180910390f35b61029b6107b2565b6040516102a89190612b1a565b60405180910390f35b6102cb60048036038101906102c69190612714565b6107d8565b005b6102d5610896565b005b6102f160048036038101906102ec91906126ba565b610c6d565b005b61030d60048036038101906103089190612620565b610c85565b60405161031a9190612be7565b60405180910390f35b61033d6004803603810190610338919061264d565b610ca5565b005b610347610cc6565b005b610351610d00565b60405161035e9190612bcc565b60405180910390f35b610381600480360381019061037c919061264d565b610d13565b005b61039d60048036038101906103989190612502565b610d96565b6040516103aa9190612bcc565b60405180910390f35b6103bb610db6565b6040516103c89190612bcc565b60405180910390f35b6103eb60048036038101906103e69190612502565b610dc9565b005b61040760048036038101906104029190612502565b610eea565b005b610411610f3c565b60405161041e9190612bcc565b60405180910390f35b610441600480360381019061043c91906126ba565b610f4f565b005b61044b61150a565b6040516104589190612e44565b60405180910390f35b610469611510565b6040516104769190612e44565b60405180910390f35b610499600480360381019061049491906126ba565b611516565b005b6104a361152e565b6040516104b09190612e44565b60405180910390f35b6104d360048036038101906104ce91906126ba565b611534565b005b6104dd61154c565b005b6104e7611560565b6040516104f49190612e44565b60405180910390f35b610505611566565b6040516105129190612be7565b60405180910390f35b610535600480360381019061053091906126ba565b61158a565b005b61053f6115e5565b60405161054c9190612b1a565b60405180910390f35b61056f600480360381019061056a919061264d565b61160e565b60405161057c9190612bcc565b60405180910390f35b61059f600480360381019061059a91906126ba565b611679565b005b6105a96116d4565b6040516105b69190612be7565b60405180910390f35b6105c76116db565b6040516105d49190612e44565b60405180910390f35b6105f760048036038101906105f29190612502565b6116e1565b005b610613600480360381019061060e91906126ba565b6117c1565b005b61062f600480360381019061062a919061264d565b6117d9565b005b61064b600480360381019061064691906125aa565b6117fa565b005b61065561192e565b6040516106629190612be7565b60405180910390f35b610673611952565b6040516106809190612b1a565b60405180910390f35b6106a3600480360381019061069e9190612502565b611978565b005b6106ad611ab4565b6040516106ba9190612e44565b60405180910390f35b6106dd60048036038101906106d89190612502565b611aba565b005b6106f960048036038101906106f4919061252f565b611b3e565b005b61071560048036038101906107109190612502565b611c53565b6040516107259493929190612e5f565b60405180910390f35b610736611c83565b005b60007f7965db0b000000000000000000000000000000000000000000000000000000007bffffffffffffffffffffffffffffffffffffffffffffffffffffffff1916827bffffffffffffffffffffffffffffffffffffffffffffffffffffffff191614806107ab57506107aa82611cbd565b5b9050919050565b600460009054906101000a900473ffffffffffffffffffffffffffffffffffffffff1681565b6000801b6107e581611d27565b600b60019054906101000a900460ff1615610835576040517f08c379a000000000000000000000000000000000000000000000000000000000815260040161082c90612c44565b60405180910390fd5b8660068190555085600781905550846008819055508360098190555082600a819055506001600b60016101000a81548160ff02191690831515021790555081600b60026101000a81548160ff02191690831515021790555050505050505050565b61089e611d3b565b600b60009054906101000a900460ff16156108ee576040517f08c379a00000000000000000000000000000000000000000000000000000000081526004016108e590612c64565b60405180910390fd5b6000600c60003373ffffffffffffffffffffffffffffffffffffffff1673ffffffffffffffffffffffffffffffffffffffff1681526020019081526020016000206040518060800160405290816000820154815260200160018201548152602001600282015481526020016003820154815250509050600c60003373ffffffffffffffffffffffffffffffffffffffff1673ffffffffffffffffffffffffffffffffffffffff168152602001908152602001600020600080820160009055600182016000905560028201600090556003820160009055505060004282604001511115610a0f576040517f08c379a0000000000000000000000000000000000000000000000000000000008152600401610a0690612cc4565b60405180910390fd5b6000826000015111610a56576040517f08c379a0000000000000000000000000000000000000000000000000000000008152600401610a4d90612d84565b60405180910390fd5b610a6f8260000151600554611d8b90919063ffffffff16565b6005819055506000600a541115610ba9576000610aae6064610aa0600a548660600151611da190919063ffffffff16565b611db790919063ffffffff16565b8360600151610abd9190612ffd565b9050808360600151610acf9190612ffd565b9150600460009054906101000a900473ffffffffffffffffffffffffffffffffffffffff1673ffffffffffffffffffffffffffffffffffffffff1663a9059cbb600360009054906101000a900473ffffffffffffffffffffffffffffffffffffffff16836040518363ffffffff1660e01b8152600401610b50929190612b6c565b602060405180830381600087803b158015610b6a57600080fd5b505af1158015610b7e573d6000803e3d6000fd5b505050506040513d601f19601f82011682018060405250810190610ba291906125f3565b5050610bb1565b816060015190505b600460009054906101000a900473ffffffffffffffffffffffffffffffffffffffff1673ffffffffffffffffffffffffffffffffffffffff1663a9059cbb33836040518363ffffffff1660e01b8152600401610c0e929190612b6c565b602060405180830381600087803b158015610c2857600080fd5b505af1158015610c3c573d6000803e3d6000fd5b505050506040513d601f19601f82011682018060405250810190610c6091906125f3565b505050610c6b611dcd565b565b6000801b610c7a81611d27565b816007819055505050565b600060026000838152602001908152602001600020600101549050919050565b610cae82610c85565b610cb781611d27565b610cc18383611dd6565b505050565b6000801b610cd381611d27565b600b60029054906101000a900460ff1615600b60026101000a81548160ff02191690831515021790555050565b600b60019054906101000a900460ff1681565b610d1b611eb7565b73ffffffffffffffffffffffffffffffffffffffff168173ffffffffffffffffffffffffffffffffffffffff1614610d88576040517f08c379a0000000000000000000000000000000000000000000000000000000008152600401610d7f90612e24565b60405180910390fd5b610d928282611ebf565b5050565b600d6020528060005260406000206000915054906101000a900460ff1681565b600b60029054906101000a900460ff1681565b610dd1611fa1565b8073ffffffffffffffffffffffffffffffffffffffff1663a9059cbb338373ffffffffffffffffffffffffffffffffffffffff166370a08231306040518263ffffffff1660e01b8152600401610e279190612b1a565b60206040518083038186803b158015610e3f57600080fd5b505afa158015610e53573d6000803e3d6000fd5b505050506040513d601f19601f82011682018060405250810190610e7791906126e7565b6040518363ffffffff1660e01b8152600401610e94929190612b6c565b602060405180830381600087803b158015610eae57600080fd5b505af1158015610ec2573d6000803e3d6000fd5b505050506040513d601f19601f82011682018060405250810190610ee691906125f3565b5050565b6000801b610ef781611d27565b81600360006101000a81548173ffffffffffffffffffffffffffffffffffffffff021916908373ffffffffffffffffffffffffffffffffffffffff1602179055505050565b600b60009054906101000a900460ff1681565b610f57611d3b565b600b60009054906101000a900460ff1615610fa7576040517f08c379a0000000000000000000000000000000000000000000000000000000008152600401610f9e90612c64565b60405180910390fd5b600b60019054906101000a900460ff16610ff6576040517f08c379a0000000000000000000000000000000000000000000000000000000008152600401610fed90612d64565b60405180910390fd5b600b60029054906101000a900460ff161561109857600d60003373ffffffffffffffffffffffffffffffffffffffff1673ffffffffffffffffffffffffffffffffffffffff16815260200190815260200160002060009054906101000a900460ff16611097576040517f08c379a000000000000000000000000000000000000000000000000000000000815260040161108e90612d04565b60405180910390fd5b5b80600460009054906101000a900473ffffffffffffffffffffffffffffffffffffffff1673ffffffffffffffffffffffffffffffffffffffff166370a08231336040518263ffffffff1660e01b81526004016110f49190612b1a565b60206040518083038186803b15801561110c57600080fd5b505afa158015611120573d6000803e3d6000fd5b505050506040513d601f19601f8201168201806040525081019061114491906126e7565b1015611185576040517f08c379a000000000000000000000000000000000000000000000000000000000815260040161117c90612da4565b60405180910390fd5b6000600c60003373ffffffffffffffffffffffffffffffffffffffff1673ffffffffffffffffffffffffffffffffffffffff1681526020019081526020016000206040518060800160405290816000820154815260200160018201548152602001600282015481526020016003820154815250509050816005600082825461120d9190612f1c565b9250508190555081816000018181516112269190612f1c565b9150818152505060075481600001511115611276576040517f08c379a000000000000000000000000000000000000000000000000000000000815260040161126d90612c84565b60405180910390fd5b6006548211156112bb576040517f08c379a00000000000000000000000000000000000000000000000000000000081526004016112b290612ce4565b60405180910390fd5b6006546005541115611302576040517f08c379a00000000000000000000000000000000000000000000000000000000081526004016112f990612e04565b60405180910390fd5b6000600854111561135357600854821015611352576040517f08c379a000000000000000000000000000000000000000000000000000000000815260040161134990612d44565b60405180910390fd5b5b600061138160646113736009548560000151611da190919063ffffffff16565b611db790919063ffffffff16565b82600001516113909190612f1c565b90508082606001818152505062093a80426113ab9190612f1c565b8260400181815250504282602001818152505081600c60003373ffffffffffffffffffffffffffffffffffffffff1673ffffffffffffffffffffffffffffffffffffffff16815260200190815260200160002060008201518160000155602082015181600101556040820151816002015560608201518160030155905050600460009054906101000a900473ffffffffffffffffffffffffffffffffffffffff1673ffffffffffffffffffffffffffffffffffffffff166323b872dd33600360009054906101000a900473ffffffffffffffffffffffffffffffffffffffff16866040518463ffffffff1660e01b81526004016114aa93929190612b35565b602060405180830381600087803b1580156114c457600080fd5b505af11580156114d8573d6000803e3d6000fd5b505050506040513d601f19601f820116820180604052508101906114fc91906125f3565b505050611507611dcd565b50565b60095481565b60075481565b6000801b61152381611d27565b816006819055505050565b600a5481565b6000801b61154181611d27565b816005819055505050565b611554611fa1565b61155e600061201f565b565b60055481565b7fdc72ed553f2544c34465af23b847953efeb813428162d767f9ba5f4013be676081565b6000801b61159781611d27565b600082116115da576040517f08c379a00000000000000000000000000000000000000000000000000000000081526004016115d190612dc4565b60405180910390fd5b81600a819055505050565b60008060009054906101000a900473ffffffffffffffffffffffffffffffffffffffff16905090565b60006002600084815260200190815260200160002060000160008373ffffffffffffffffffffffffffffffffffffffff1673ffffffffffffffffffffffffffffffffffffffff16815260200190815260200160002060009054906101000a900460ff16905092915050565b6000801b61168681611d27565b600082116116c9576040517f08c379a00000000000000000000000000000000000000000000000000000000081526004016116c090612dc4565b60405180910390fd5b816009819055505050565b6000801b81565b60065481565b7fdc72ed553f2544c34465af23b847953efeb813428162d767f9ba5f4013be676061170b81611d27565b6000801b61171881611d27565b600d60008473ffffffffffffffffffffffffffffffffffffffff1673ffffffffffffffffffffffffffffffffffffffff16815260200190815260200160002060009054906101000a900460ff1615600d60008573ffffffffffffffffffffffffffffffffffffffff1673ffffffffffffffffffffffffffffffffffffffff16815260200190815260200160002060006101000a81548160ff021916908315150217905550505050565b6000801b6117ce81611d27565b816008819055505050565b6117e282610c85565b6117eb81611d27565b6117f58383611ebf565b505050565b6000801b61180781611d27565b7fdc72ed553f2544c34465af23b847953efeb813428162d767f9ba5f4013be676061183181611d27565b60005b835181101561192857600d6000858381518110611854576118536131e4565b5b602002602001015173ffffffffffffffffffffffffffffffffffffffff1673ffffffffffffffffffffffffffffffffffffffff16815260200190815260200160002060009054906101000a900460ff1615600d60008684815181106118bc576118bb6131e4565b5b602002602001015173ffffffffffffffffffffffffffffffffffffffff1673ffffffffffffffffffffffffffffffffffffffff16815260200190815260200160002060006101000a81548160ff02191690831515021790555080806119209061313d565b915050611834565b50505050565b7f5d8e12c39142ff96d79d04d15d1ba1269e4fe57bb9d26f43523628b34ba108ec81565b600360009054906101000a900473ffffffffffffffffffffffffffffffffffffffff1681565b6000801b61198581611d27565b6000600c60008473ffffffffffffffffffffffffffffffffffffffff1673ffffffffffffffffffffffffffffffffffffffff16815260200190815260200160002060405180608001604052908160008201548152602001600182015481526020016002820154815260200160038201548152505090504281604001818152505080600c60008573ffffffffffffffffffffffffffffffffffffffff1673ffffffffffffffffffffffffffffffffffffffff168152602001908152602001600020600082015181600001556020820151816001015560408201518160020155606082015181600301559050507fb79cc8bc32f75c57b53b9fe33ff31302d8befe74ba35a51afd8ebb6da0bf668483826040015142604051611aa793929190612b95565b60405180910390a1505050565b60085481565b611ac2611fa1565b600073ffffffffffffffffffffffffffffffffffffffff168173ffffffffffffffffffffffffffffffffffffffff161415611b32576040517f08c379a0000000000000000000000000000000000000000000000000000000008152600401611b2990612ca4565b60405180910390fd5b611b3b8161201f565b50565b7fdc72ed553f2544c34465af23b847953efeb813428162d767f9ba5f4013be6760611b6881611d27565b604051806080016040528086815260200185815260200184815260200183815250600c60008873ffffffffffffffffffffffffffffffffffffffff1673ffffffffffffffffffffffffffffffffffffffff168152602001908152602001600020600082015181600001556020820151816001015560408201518160020155606082015181600301559050506001600d60008873ffffffffffffffffffffffffffffffffffffffff1673ffffffffffffffffffffffffffffffffffffffff16815260200190815260200160002060006101000a81548160ff021916908315150217905550505050505050565b600c6020528060005260406000206000915090508060000154908060010154908060020154908060030154905084565b6000801b611c9081611d27565b600b60009054906101000a900460ff1615600b60006101000a81548160ff02191690831515021790555050565b60007f01ffc9a7000000000000000000000000000000000000000000000000000000007bffffffffffffffffffffffffffffffffffffffffffffffffffffffff1916827bffffffffffffffffffffffffffffffffffffffffffffffffffffffff1916149050919050565b611d3881611d33611eb7565b6120e3565b50565b60026001541415611d81576040517f08c379a0000000000000000000000000000000000000000000000000000000008152600401611d7890612de4565b60405180910390fd5b6002600181905550565b60008183611d999190612ffd565b905092915050565b60008183611daf9190612fa3565b905092915050565b60008183611dc59190612f72565b905092915050565b60018081905550565b611de0828261160e565b611eb35760016002600084815260200190815260200160002060000160008373ffffffffffffffffffffffffffffffffffffffff1673ffffffffffffffffffffffffffffffffffffffff16815260200190815260200160002060006101000a81548160ff021916908315150217905550611e58611eb7565b73ffffffffffffffffffffffffffffffffffffffff168173ffffffffffffffffffffffffffffffffffffffff16837f2f8788117e7eff1d82e926ec794901d17c78024a50270940304540a733656f0d60405160405180910390a45b5050565b600033905090565b611ec9828261160e565b15611f9d5760006002600084815260200190815260200160002060000160008373ffffffffffffffffffffffffffffffffffffffff1673ffffffffffffffffffffffffffffffffffffffff16815260200190815260200160002060006101000a81548160ff021916908315150217905550611f42611eb7565b73ffffffffffffffffffffffffffffffffffffffff168173ffffffffffffffffffffffffffffffffffffffff16837ff6391f5c32d9c69d2a47ea670b442974b53935d1edc7fd64eb21e047a839171b60405160405180910390a45b5050565b611fa9611eb7565b73ffffffffffffffffffffffffffffffffffffffff16611fc76115e5565b73ffffffffffffffffffffffffffffffffffffffff161461201d576040517f08c379a000000000000000000000000000000000000000000000000000000000815260040161201490612d24565b60405180910390fd5b565b60008060009054906101000a900473ffffffffffffffffffffffffffffffffffffffff169050816000806101000a81548173ffffffffffffffffffffffffffffffffffffffff021916908373ffffffffffffffffffffffffffffffffffffffff1602179055508173ffffffffffffffffffffffffffffffffffffffff168173ffffffffffffffffffffffffffffffffffffffff167f8be0079c531659141344cd1fd0a4f28419497f9722a3daafe3b4186f6b6457e060405160405180910390a35050565b6120ed828261160e565b612164576120fa81612168565b6121088360001c6020612195565b604051602001612119929190612ae0565b6040516020818303038152906040526040517f08c379a000000000000000000000000000000000000000000000000000000000815260040161215b9190612c02565b60405180910390fd5b5050565b606061218e8273ffffffffffffffffffffffffffffffffffffffff16601460ff16612195565b9050919050565b6060600060028360026121a89190612fa3565b6121b29190612f1c565b67ffffffffffffffff8111156121cb576121ca613213565b5b6040519080825280601f01601f1916602001820160405280156121fd5781602001600182028036833780820191505090505b5090507f300000000000000000000000000000000000000000000000000000000000000081600081518110612235576122346131e4565b5b60200101907effffffffffffffffffffffffffffffffffffffffffffffffffffffffffffff1916908160001a9053507f780000000000000000000000000000000000000000000000000000000000000081600181518110612299576122986131e4565b5b60200101907effffffffffffffffffffffffffffffffffffffffffffffffffffffffffffff1916908160001a905350600060018460026122d99190612fa3565b6122e39190612f1c565b90505b6001811115612383577f3031323334353637383961626364656600000000000000000000000000000000600f861660108110612325576123246131e4565b5b1a60f81b82828151811061233c5761233b6131e4565b5b60200101907effffffffffffffffffffffffffffffffffffffffffffffffffffffffffffff1916908160001a905350600485901c94508061237c906130e2565b90506122e6565b50600084146123c7576040517f08c379a00000000000000000000000000000000000000000000000000000000081526004016123be90612c24565b60405180910390fd5b8091505092915050565b60006123e46123df84612ec9565b612ea4565b9050808382526020820190508285602086028201111561240757612406613247565b5b60005b85811015612437578161241d8882612441565b84526020840193506020830192505060018101905061240a565b5050509392505050565b60008135905061245081613630565b92915050565b600082601f83011261246b5761246a613242565b5b813561247b8482602086016123d1565b91505092915050565b60008135905061249381613647565b92915050565b6000815190506124a881613647565b92915050565b6000813590506124bd8161365e565b92915050565b6000813590506124d281613675565b92915050565b6000813590506124e78161368c565b92915050565b6000815190506124fc8161368c565b92915050565b60006020828403121561251857612517613251565b5b600061252684828501612441565b91505092915050565b600080600080600060a0868803121561254b5761254a613251565b5b600061255988828901612441565b955050602061256a888289016124d8565b945050604061257b888289016124d8565b935050606061258c888289016124d8565b925050608061259d888289016124d8565b9150509295509295909350565b6000602082840312156125c0576125bf613251565b5b600082013567ffffffffffffffff8111156125de576125dd61324c565b5b6125ea84828501612456565b91505092915050565b60006020828403121561260957612608613251565b5b600061261784828501612499565b91505092915050565b60006020828403121561263657612635613251565b5b6000612644848285016124ae565b91505092915050565b6000806040838503121561266457612663613251565b5b6000612672858286016124ae565b925050602061268385828601612441565b9150509250929050565b6000602082840312156126a3576126a2613251565b5b60006126b1848285016124c3565b91505092915050565b6000602082840312156126d0576126cf613251565b5b60006126de848285016124d8565b91505092915050565b6000602082840312156126fd576126fc613251565b5b600061270b848285016124ed565b91505092915050565b60008060008060008060c0878903121561273157612730613251565b5b600061273f89828a016124d8565b965050602061275089828a016124d8565b955050604061276189828a016124d8565b945050606061277289828a016124d8565b935050608061278389828a016124d8565b92505060a061279489828a01612484565b9150509295509295509295565b6127aa81613031565b82525050565b6127b981613043565b82525050565b6127c88161304f565b82525050565b60006127d982612ef5565b6127e38185612f00565b93506127f38185602086016130af565b6127fc81613256565b840191505092915050565b600061281282612ef5565b61281c8185612f11565b935061282c8185602086016130af565b80840191505092915050565b6000612845602083612f00565b915061285082613267565b602082019050919050565b6000612868601983612f00565b915061287382613290565b602082019050919050565b600061288b600b83612f00565b9150612896826132b9565b602082019050919050565b60006128ae600d83612f00565b91506128b9826132e2565b602082019050919050565b60006128d1602683612f00565b91506128dc8261330b565b604082019050919050565b60006128f4602183612f00565b91506128ff8261335a565b604082019050919050565b6000612917600d83612f00565b9150612922826133a9565b602082019050919050565b600061293a601883612f00565b9150612945826133d2565b602082019050919050565b600061295d602083612f00565b9150612968826133fb565b602082019050919050565b6000612980602a83612f00565b915061298b82613424565b604082019050919050565b60006129a3601883612f00565b91506129ae82613473565b602082019050919050565b60006129c6603383612f00565b91506129d18261349c565b604082019050919050565b60006129e9601383612f00565b91506129f4826134eb565b602082019050919050565b6000612a0c601783612f11565b9150612a1782613514565b601782019050919050565b6000612a2f601783612f00565b9150612a3a8261353d565b602082019050919050565b6000612a52601f83612f00565b9150612a5d82613566565b602082019050919050565b6000612a75601b83612f00565b9150612a808261358f565b602082019050919050565b6000612a98601183612f11565b9150612aa3826135b8565b601182019050919050565b6000612abb602f83612f00565b9150612ac6826135e1565b604082019050919050565b612ada816130a5565b82525050565b6000612aeb826129ff565b9150612af78285612807565b9150612b0282612a8b565b9150612b0e8284612807565b91508190509392505050565b6000602082019050612b2f60008301846127a1565b92915050565b6000606082019050612b4a60008301866127a1565b612b5760208301856127a1565b612b646040830184612ad1565b949350505050565b6000604082019050612b8160008301856127a1565b612b8e6020830184612ad1565b9392505050565b6000606082019050612baa60008301866127a1565b612bb76020830185612ad1565b612bc46040830184612ad1565b949350505050565b6000602082019050612be160008301846127b0565b92915050565b6000602082019050612bfc60008301846127bf565b92915050565b60006020820190508181036000830152612c1c81846127ce565b905092915050565b60006020820190508181036000830152612c3d81612838565b9050919050565b60006020820190508181036000830152612c5d8161285b565b9050919050565b60006020820190508181036000830152612c7d8161287e565b9050919050565b60006020820190508181036000830152612c9d816128a1565b9050919050565b60006020820190508181036000830152612cbd816128c4565b9050919050565b60006020820190508181036000830152612cdd816128e7565b9050919050565b60006020820190508181036000830152612cfd8161290a565b9050919050565b60006020820190508181036000830152612d1d8161292d565b9050919050565b60006020820190508181036000830152612d3d81612950565b9050919050565b60006020820190508181036000830152612d5d81612973565b9050919050565b60006020820190508181036000830152612d7d81612996565b9050919050565b60006020820190508181036000830152612d9d816129b9565b9050919050565b60006020820190508181036000830152612dbd816129dc565b9050919050565b60006020820190508181036000830152612ddd81612a22565b9050919050565b60006020820190508181036000830152612dfd81612a45565b9050919050565b60006020820190508181036000830152612e1d81612a68565b9050919050565b60006020820190508181036000830152612e3d81612aae565b9050919050565b6000602082019050612e596000830184612ad1565b92915050565b6000608082019050612e746000830187612ad1565b612e816020830186612ad1565b612e8e6040830185612ad1565b612e9b6060830184612ad1565b95945050505050565b6000612eae612ebf565b9050612eba828261310c565b919050565b6000604051905090565b600067ffffffffffffffff821115612ee457612ee3613213565b5b602082029050602081019050919050565b600081519050919050565b600082825260208201905092915050565b600081905092915050565b6000612f27826130a5565b9150612f32836130a5565b9250827fffffffffffffffffffffffffffffffffffffffffffffffffffffffffffffffff03821115612f6757612f66613186565b5b828201905092915050565b6000612f7d826130a5565b9150612f88836130a5565b925082612f9857612f976131b5565b5b828204905092915050565b6000612fae826130a5565b9150612fb9836130a5565b9250817fffffffffffffffffffffffffffffffffffffffffffffffffffffffffffffffff0483118215151615612ff257612ff1613186565b5b828202905092915050565b6000613008826130a5565b9150613013836130a5565b92508282101561302657613025613186565b5b828203905092915050565b600061303c82613085565b9050919050565b60008115159050919050565b6000819050919050565b60007fffffffff0000000000000000000000000000000000000000000000000000000082169050919050565b600073ffffffffffffffffffffffffffffffffffffffff82169050919050565b6000819050919050565b60005b838110156130cd5780820151818401526020810190506130b2565b838111156130dc576000848401525b50505050565b60006130ed826130a5565b9150600082141561310157613100613186565b5b600182039050919050565b61311582613256565b810181811067ffffffffffffffff8211171561313457613133613213565b5b80604052505050565b6000613148826130a5565b91507fffffffffffffffffffffffffffffffffffffffffffffffffffffffffffffffff82141561317b5761317a613186565b5b600182019050919050565b7f4e487b7100000000000000000000000000000000000000000000000000000000600052601160045260246000fd5b7f4e487b7100000000000000000000000000000000000000000000000000000000600052601260045260246000fd5b7f4e487b7100000000000000000000000000000000000000000000000000000000600052603260045260246000fd5b7f4e487b7100000000000000000000000000000000000000000000000000000000600052604160045260246000fd5b600080fd5b600080fd5b600080fd5b600080fd5b6000601f19601f8301169050919050565b7f537472696e67733a20686578206c656e67746820696e73756666696369656e74600082015250565b7f506f6f6c20686173206265656e20696e697469616c697a656400000000000000600082015250565b7f506175736564204561726e000000000000000000000000000000000000000000600082015250565b7f4c696d6974206f66207573657200000000000000000000000000000000000000600082015250565b7f4f776e61626c653a206e6577206f776e657220697320746865207a65726f206160008201527f6464726573730000000000000000000000000000000000000000000000000000602082015250565b7f796f75206e65656420776169742066696e6973682c20746f207769746864726160008201527f7700000000000000000000000000000000000000000000000000000000000000602082015250565b7f4c696d6974206f6620706f6f6c00000000000000000000000000000000000000600082015250565b7f596f7520617265206e6f7420696e2077686974656c6973740000000000000000600082015250565b7f4f776e61626c653a2063616c6c6572206973206e6f7420746865206f776e6572600082015250565b7f496e73756666696369656e7420616d6f756e742c206c657373207468616e207460008201527f6865206d696e696d756d00000000000000000000000000000000000000000000602082015250565b7f506f6f6c20697473206e6f7420696e697469616c697a65640000000000000000600082015250565b7f796f75206861766520616c72656164792077697468647261776e20796f75722060008201527f6361706974616c20616e642070726f6669747300000000000000000000000000602082015250565b7f496e73756666696369656e7420616d6f756e7400000000000000000000000000600082015250565b7f416363657373436f6e74726f6c3a206163636f756e7420000000000000000000600082015250565b7f746865206e756d626572207468616e2067726561742030000000000000000000600082015250565b7f5265656e7472616e637947756172643a207265656e7472616e742063616c6c00600082015250565b7f506f6f6c206c696d697420686173206265656e20726561636865640000000000600082015250565b7f206973206d697373696e6720726f6c6520000000000000000000000000000000600082015250565b7f416363657373436f6e74726f6c3a2063616e206f6e6c792072656e6f756e636560008201527f20726f6c657320666f722073656c660000000000000000000000000000000000602082015250565b61363981613031565b811461364457600080fd5b50565b61365081613043565b811461365b57600080fd5b50565b6136678161304f565b811461367257600080fd5b50565b61367e81613059565b811461368957600080fd5b50565b613695816130a5565b81146136a057600080fd5b5056fea2646970667358221220b2490e75fa1ee127cba1107ffe586d6a3026ce56d095ca8ecf17d8fa6cf5716464736f6c63430008050033",
  "linkReferences": {},
  "deployedLinkReferences": {}
}