{
  "_format": "hh-sol-artifact-1",
  "contractName": "SwapBeNFt",
  "sourceName": "contracts/Swap.sol",
  "abi": [
    {
      "inputs": [
        {
          "internalType": "address",
          "name": "_BeNFt",
          "type": "address"
        },
        {
          "internalType": "address",
          "name": "_walletMain",
          "type": "address"
        }
      ],
      "stateMutability": "nonpayable",
      "type": "constructor"
    },
    {
      "anonymous": false,
      "inputs": [
        {
          "indexed": true,
          "internalType": "address",
          "name": "previousOwner",
          "type": "address"
        },
        {
          "indexed": true,
          "internalType": "address",
          "name": "newOwner",
          "type": "address"
        }
      ],
      "name": "OwnershipTransferred",
      "type": "event"
    },
    {
      "anonymous": false,
      "inputs": [
        {
          "indexed": false,
          "internalType": "address",
          "name": "seller",
          "type": "address"
        },
        {
          "indexed": false,
          "internalType": "uint256",
          "name": "_amount",
          "type": "uint256"
        }
      ],
      "name": "sellBenft",
      "type": "event"
    },
    {
      "inputs": [
        {
          "internalType": "address",
          "name": "_address",
          "type": "address"
        }
      ],
      "name": "AddTokenAccept",
      "outputs": [],
      "stateMutability": "nonpayable",
      "type": "function"
    },
    {
      "inputs": [],
      "name": "BeNft",
      "outputs": [
        {
          "internalType": "contract IERC20",
          "name": "",
          "type": "address"
        }
      ],
      "stateMutability": "view",
      "type": "function"
    },
    {
      "inputs": [
        {
          "internalType": "address",
          "name": "",
          "type": "address"
        }
      ],
      "name": "BuyAmount",
      "outputs": [
        {
          "internalType": "uint256",
          "name": "",
          "type": "uint256"
        }
      ],
      "stateMutability": "view",
      "type": "function"
    },
    {
      "inputs": [],
      "name": "ClaimVesting",
      "outputs": [],
      "stateMutability": "nonpayable",
      "type": "function"
    },
    {
      "inputs": [
        {
          "internalType": "address",
          "name": "_token",
          "type": "address"
        }
      ],
      "name": "RecoverAnyToken",
      "outputs": [],
      "stateMutability": "nonpayable",
      "type": "function"
    },
    {
      "inputs": [
        {
          "internalType": "uint256",
          "name": "_amount",
          "type": "uint256"
        },
        {
          "internalType": "address",
          "name": "_token",
          "type": "address"
        }
      ],
      "name": "Swap",
      "outputs": [],
      "stateMutability": "nonpayable",
      "type": "function"
    },
    {
      "inputs": [
        {
          "internalType": "address",
          "name": "",
          "type": "address"
        }
      ],
      "name": "TokenAcept",
      "outputs": [
        {
          "internalType": "bool",
          "name": "",
          "type": "bool"
        }
      ],
      "stateMutability": "view",
      "type": "function"
    },
    {
      "inputs": [
        {
          "internalType": "address",
          "name": "",
          "type": "address"
        }
      ],
      "name": "UserVesting",
      "outputs": [
        {
          "internalType": "uint256",
          "name": "amount",
          "type": "uint256"
        },
        {
          "internalType": "uint256",
          "name": "time",
          "type": "uint256"
        },
        {
          "internalType": "uint256",
          "name": "numberVesting",
          "type": "uint256"
        },
        {
          "internalType": "uint256",
          "name": "tansferAmount",
          "type": "uint256"
        },
        {
          "internalType": "uint256",
          "name": "remaing",
          "type": "uint256"
        }
      ],
      "stateMutability": "view",
      "type": "function"
    },
    {
      "inputs": [],
      "name": "lock",
      "outputs": [],
      "stateMutability": "nonpayable",
      "type": "function"
    },
    {
      "inputs": [],
      "name": "owner",
      "outputs": [
        {
          "internalType": "address",
          "name": "",
          "type": "address"
        }
      ],
      "stateMutability": "view",
      "type": "function"
    },
    {
      "inputs": [],
      "name": "renounceOwnership",
      "outputs": [],
      "stateMutability": "nonpayable",
      "type": "function"
    },
    {
      "inputs": [
        {
          "internalType": "address",
          "name": "newOwner",
          "type": "address"
        }
      ],
      "name": "transferOwnership",
      "outputs": [],
      "stateMutability": "nonpayable",
      "type": "function"
    },
    {
      "inputs": [],
      "name": "unlock",
      "outputs": [],
      "stateMutability": "nonpayable",
      "type": "function"
    }
  ],
  "bytecode": "0x60806040526702c68af0bb1400006003553480156200001d57600080fd5b5060405162001bec38038062001bec8339818101604052810190620000439190620002af565b6200006362000057620001cc60201b60201c565b620001d460201b60201c565b6001808190555081600260006101000a81548173ffffffffffffffffffffffffffffffffffffffff021916908373ffffffffffffffffffffffffffffffffffffffff16021790555080600460006101000a81548173ffffffffffffffffffffffffffffffffffffffff021916908373ffffffffffffffffffffffffffffffffffffffff16021790555060016006600073e9e7cea3dedca5984780bafc599bd69add087d5673ffffffffffffffffffffffffffffffffffffffff1673ffffffffffffffffffffffffffffffffffffffff16815260200190815260200160002060006101000a81548160ff0219169083151502179055506001600660007355d398326f99059ff775485246999027b319795573ffffffffffffffffffffffffffffffffffffffff1673ffffffffffffffffffffffffffffffffffffffff16815260200190815260200160002060006101000a81548160ff021916908315150217905550505062000349565b600033905090565b60008060009054906101000a900473ffffffffffffffffffffffffffffffffffffffff169050816000806101000a81548173ffffffffffffffffffffffffffffffffffffffff021916908373ffffffffffffffffffffffffffffffffffffffff1602179055508173ffffffffffffffffffffffffffffffffffffffff168173ffffffffffffffffffffffffffffffffffffffff167f8be0079c531659141344cd1fd0a4f28419497f9722a3daafe3b4186f6b6457e060405160405180910390a35050565b600081519050620002a9816200032f565b92915050565b60008060408385031215620002c957620002c86200032a565b5b6000620002d98582860162000298565b9250506020620002ec8582860162000298565b9150509250929050565b600062000303826200030a565b9050919050565b600073ffffffffffffffffffffffffffffffffffffffff82169050919050565b600080fd5b6200033a81620002f6565b81146200034657600080fd5b50565b61189380620003596000396000f3fe608060405234801561001057600080fd5b50600436106100cf5760003560e01c8063715018a61161008c5780638da5cb5b116100665780638da5cb5b146101ee578063a69df4b51461020c578063f2fde38b14610216578063f83d08ba14610232576100cf565b8063715018a6146101be578063757e61e0146101c857806376a06dd0146101e4576100cf565b806324a48ee4146100d45780632bb80912146100f25780632fa44036146101225780632fea6ac4146101525780635130962a1461016e57806355acc81c1461018a575b600080fd5b6100dc61023c565b6040516100e99190611274565b60405180910390f35b61010c60048036038101906101079190610f7d565b610262565b60405161011991906113cf565b60405180910390f35b61013c60048036038101906101379190610f7d565b61027a565b6040516101499190611259565b60405180910390f35b61016c60048036038101906101679190610f7d565b61029a565b005b61018860048036038101906101839190610f7d565b6102fd565b005b6101a4600480360381019061019f9190610f7d565b610425565b6040516101b59594939291906113ea565b60405180910390f35b6101c661045b565b005b6101e260048036038101906101dd9190611004565b61046f565b005b6101ec6109db565b005b6101f6610c63565b60405161020391906111de565b60405180910390f35b610214610c8c565b005b610230600480360381019061022b9190610f7d565b610cb1565b005b61023a610d35565b005b600260009054906101000a900473ffffffffffffffffffffffffffffffffffffffff1681565b60056020528060005260406000206000915090505481565b60066020528060005260406000206000915054906101000a900460ff1681565b6102a2610d5a565b6001600660008373ffffffffffffffffffffffffffffffffffffffff1673ffffffffffffffffffffffffffffffffffffffff16815260200190815260200160002060006101000a81548160ff02191690831515021790555050565b610305610d5a565b8073ffffffffffffffffffffffffffffffffffffffff1663a9059cbb610329610c63565b8373ffffffffffffffffffffffffffffffffffffffff166370a08231306040518263ffffffff1660e01b815260040161036291906111de565b60206040518083038186803b15801561037a57600080fd5b505afa15801561038e573d6000803e3d6000fd5b505050506040513d601f19601f820116820180604052508101906103b29190610fd7565b6040518363ffffffff1660e01b81526004016103cf929190611230565b602060405180830381600087803b1580156103e957600080fd5b505af11580156103fd573d6000803e3d6000fd5b505050506040513d601f19601f820116820180604052508101906104219190610faa565b5050565b60076020528060005260406000206000915090508060000154908060010154908060020154908060030154908060040154905085565b610463610d5a565b61046d6000610dd8565b565b610477610e9c565b600260149054906101000a900460ff16156104c7576040517f08c379a00000000000000000000000000000000000000000000000000000000081526004016104be9061130f565b60405180910390fd5b81600560003373ffffffffffffffffffffffffffffffffffffffff1673ffffffffffffffffffffffffffffffffffffffff1681526020019081526020016000206000828254610516919061144e565b92505081905550600660008273ffffffffffffffffffffffffffffffffffffffff1673ffffffffffffffffffffffffffffffffffffffff16815260200190815260200160002060009054906101000a900460ff166105a9576040517f08c379a00000000000000000000000000000000000000000000000000000000081526004016105a09061138f565b60405180910390fd5b818173ffffffffffffffffffffffffffffffffffffffff166370a08231336040518263ffffffff1660e01b81526004016105e391906111de565b60206040518083038186803b1580156105fb57600080fd5b505afa15801561060f573d6000803e3d6000fd5b505050506040513d601f19601f820116820180604052508101906106339190610fd7565b1015610674576040517f08c379a000000000000000000000000000000000000000000000000000000000815260040161066b9061132f565b60405180910390fd5b68d8e5076dcb21e4000082106106bf576040517f08c379a00000000000000000000000000000000000000000000000000000000081526004016106b6906112ef565b60405180910390fd5b68d8e5076dcb21e40000600560003373ffffffffffffffffffffffffffffffffffffffff1673ffffffffffffffffffffffffffffffffffffffff1681526020019081526020016000205410610749576040517f08c379a0000000000000000000000000000000000000000000000000000000008152600401610740906112cf565b60405180910390fd5b6000600760003373ffffffffffffffffffffffffffffffffffffffff1673ffffffffffffffffffffffffffffffffffffffff1681526020019081526020016000206040518060a00160405290816000820154815260200160018201548152602001600282015481526020016003820154815260200160048201548152505090506000610809633b9aca006003546107f1670de0b6b3a764000088610eec90919063ffffffff16565b6107fb91906114a4565b610f0290919063ffffffff16565b90506000826020015114156108315762278d0042610827919061144e565b8260200181815250505b8082600001818151610843919061144e565b91508181525050808260800181815161085c919061144e565b91508181525050600082604001818152505061088660038360800151610f0290919063ffffffff16565b82606001818152505081600760003373ffffffffffffffffffffffffffffffffffffffff1673ffffffffffffffffffffffffffffffffffffffff16815260200190815260200160002060008201518160000155602082015181600101556040820151816002015560608201518160030155608082015181600401559050508273ffffffffffffffffffffffffffffffffffffffff166323b872dd3330876040518463ffffffff1660e01b8152600401610941939291906111f9565b602060405180830381600087803b15801561095b57600080fd5b505af115801561096f573d6000803e3d6000fd5b505050506040513d601f19601f820116820180604052508101906109939190610faa565b507fcc5d8fe8a6771edceeda0917986b8bff826a5c55df55b5935195cc9cac21b7cf33856040516109c5929190611230565b60405180910390a150506109d7610f18565b5050565b6000600760003373ffffffffffffffffffffffffffffffffffffffff1673ffffffffffffffffffffffffffffffffffffffff1681526020019081526020016000206040518060a001604052908160008201548152602001600182015481526020016002820154815260200160038201548152602001600482015481525050905042816020015110610aa1576040517f08c379a0000000000000000000000000000000000000000000000000000000008152600401610a989061136f565b60405180910390fd5b6004816040015110610ae8576040517f08c379a0000000000000000000000000000000000000000000000000000000008152600401610adf9061128f565b60405180910390fd5b600181604001818151610afb919061144e565b9150818152505062278d0042610b11919061144e565b816020018181525050806060015181608001818151610b30919061152f565b9150818152505080600760003373ffffffffffffffffffffffffffffffffffffffff1673ffffffffffffffffffffffffffffffffffffffff1681526020019081526020016000206000820151816000015560208201518160010155604082015181600201556060820151816003015560808201518160040155905050600260009054906101000a900473ffffffffffffffffffffffffffffffffffffffff1673ffffffffffffffffffffffffffffffffffffffff1663a9059cbb3083606001516040518363ffffffff1660e01b8152600401610c0d929190611230565b602060405180830381600087803b158015610c2757600080fd5b505af1158015610c3b573d6000803e3d6000fd5b505050506040513d601f19601f82011682018060405250810190610c5f9190610faa565b5050565b60008060009054906101000a900473ffffffffffffffffffffffffffffffffffffffff16905090565b610c94610d5a565b6000600260146101000a81548160ff021916908315150217905550565b610cb9610d5a565b600073ffffffffffffffffffffffffffffffffffffffff168173ffffffffffffffffffffffffffffffffffffffff161415610d29576040517f08c379a0000000000000000000000000000000000000000000000000000000008152600401610d20906112af565b60405180910390fd5b610d3281610dd8565b50565b610d3d610d5a565b6001600260146101000a81548160ff021916908315150217905550565b610d62610f21565b73ffffffffffffffffffffffffffffffffffffffff16610d80610c63565b73ffffffffffffffffffffffffffffffffffffffff1614610dd6576040517f08c379a0000000000000000000000000000000000000000000000000000000008152600401610dcd9061134f565b60405180910390fd5b565b60008060009054906101000a900473ffffffffffffffffffffffffffffffffffffffff169050816000806101000a81548173ffffffffffffffffffffffffffffffffffffffff021916908373ffffffffffffffffffffffffffffffffffffffff1602179055508173ffffffffffffffffffffffffffffffffffffffff168173ffffffffffffffffffffffffffffffffffffffff167f8be0079c531659141344cd1fd0a4f28419497f9722a3daafe3b4186f6b6457e060405160405180910390a35050565b60026001541415610ee2576040517f08c379a0000000000000000000000000000000000000000000000000000000008152600401610ed9906113af565b60405180910390fd5b6002600181905550565b60008183610efa91906114d5565b905092915050565b60008183610f1091906114a4565b905092915050565b60018081905550565b600033905090565b600081359050610f3881611818565b92915050565b600081519050610f4d8161182f565b92915050565b600081359050610f6281611846565b92915050565b600081519050610f7781611846565b92915050565b600060208284031215610f9357610f9261162d565b5b6000610fa184828501610f29565b91505092915050565b600060208284031215610fc057610fbf61162d565b5b6000610fce84828501610f3e565b91505092915050565b600060208284031215610fed57610fec61162d565b5b6000610ffb84828501610f68565b91505092915050565b6000806040838503121561101b5761101a61162d565b5b600061102985828601610f53565b925050602061103a85828601610f29565b9150509250929050565b61104d81611563565b82525050565b61105c81611575565b82525050565b61106b816115ab565b82525050565b600061107e601a8361143d565b915061108982611632565b602082019050919050565b60006110a160268361143d565b91506110ac8261165b565b604082019050919050565b60006110c460178361143d565b91506110cf826116aa565b602082019050919050565b60006110e760118361143d565b91506110f2826116d3565b602082019050919050565b600061110a600d8361143d565b9150611115826116fc565b602082019050919050565b600061112d60238361143d565b915061113882611725565b604082019050919050565b600061115060208361143d565b915061115b82611774565b602082019050919050565b6000611173600b8361143d565b915061117e8261179d565b602082019050919050565b6000611196600d8361143d565b91506111a1826117c6565b602082019050919050565b60006111b9601f8361143d565b91506111c4826117ef565b602082019050919050565b6111d8816115a1565b82525050565b60006020820190506111f36000830184611044565b92915050565b600060608201905061120e6000830186611044565b61121b6020830185611044565b61122860408301846111cf565b949350505050565b60006040820190506112456000830185611044565b61125260208301846111cf565b9392505050565b600060208201905061126e6000830184611053565b92915050565b60006020820190506112896000830184611062565b92915050565b600060208201905081810360008301526112a881611071565b9050919050565b600060208201905081810360008301526112c881611094565b9050919050565b600060208201905081810360008301526112e8816110b7565b9050919050565b60006020820190508181036000830152611308816110da565b9050919050565b60006020820190508181036000830152611328816110fd565b9050919050565b6000602082019050818103600083015261134881611120565b9050919050565b6000602082019050818103600083015261136881611143565b9050919050565b6000602082019050818103600083015261138881611166565b9050919050565b600060208201905081810360008301526113a881611189565b9050919050565b600060208201905081810360008301526113c8816111ac565b9050919050565b60006020820190506113e460008301846111cf565b92915050565b600060a0820190506113ff60008301886111cf565b61140c60208301876111cf565b61141960408301866111cf565b61142660608301856111cf565b61143360808301846111cf565b9695505050505050565b600082825260208201905092915050565b6000611459826115a1565b9150611464836115a1565b9250827fffffffffffffffffffffffffffffffffffffffffffffffffffffffffffffffff03821115611499576114986115cf565b5b828201905092915050565b60006114af826115a1565b91506114ba836115a1565b9250826114ca576114c96115fe565b5b828204905092915050565b60006114e0826115a1565b91506114eb836115a1565b9250817fffffffffffffffffffffffffffffffffffffffffffffffffffffffffffffffff0483118215151615611524576115236115cf565b5b828202905092915050565b600061153a826115a1565b9150611545836115a1565b925082821015611558576115576115cf565b5b828203905092915050565b600061156e82611581565b9050919050565b60008115159050919050565b600073ffffffffffffffffffffffffffffffffffffffff82169050919050565b6000819050919050565b60006115b6826115bd565b9050919050565b60006115c882611581565b9050919050565b7f4e487b7100000000000000000000000000000000000000000000000000000000600052601160045260246000fd5b7f4e487b7100000000000000000000000000000000000000000000000000000000600052601260045260246000fd5b600080fd5b7f796f75206861766520616c6c20726561647920636c61696d6564000000000000600082015250565b7f4f776e61626c653a206e6577206f776e657220697320746865207a65726f206160008201527f6464726573730000000000000000000000000000000000000000000000000000602082015250565b7f596f752068617665206d617820616d6f756e7420627579000000000000000000600082015250565b7f4c696d6974206f66206275792034303030000000000000000000000000000000600082015250565b7f56656e7461205061757361646100000000000000000000000000000000000000600082015250565b7f496e737566696369656e742062616c616e6365206f662073656c65637420746f60008201527f6b656e0000000000000000000000000000000000000000000000000000000000602082015250565b7f4f776e61626c653a2063616c6c6572206973206e6f7420746865206f776e6572600082015250565b7f697473206e6f2074696d65000000000000000000000000000000000000000000600082015250565b7f496e76616c696420546f6b656e00000000000000000000000000000000000000600082015250565b7f5265656e7472616e637947756172643a207265656e7472616e742063616c6c00600082015250565b61182181611563565b811461182c57600080fd5b50565b61183881611575565b811461184357600080fd5b50565b61184f816115a1565b811461185a57600080fd5b5056fea26469706673582212202aedbdf6fab6eee831f933f27848b38a358a1dc36647bfd17e498934be41836f64736f6c63430008050033",
  "linkReferences": {},
  "deployedLinkReferences": {}
}