{
  "_format": "hh-sol-artifact-1",
  "contractName": "EARNPRIVATE",
  "sourceName": "contracts/Earnv3.sol",
  "abi": [
    {
      "inputs": [
        {
          "internalType": "address[]",
          "name": "addresses",
          "type": "address[]"
        }
      ],
      "name": "addToWhitelist",
      "outputs": [],
      "stateMutability": "nonpayable",
      "type": "function"
    },
    {
      "inputs": [
        {
          "internalType": "address",
          "name": "_wallet",
          "type": "address"
        }
      ],
      "name": "addUserWhiteList",
      "outputs": [],
      "stateMutability": "nonpayable",
      "type": "function"
    },
    {
      "inputs": [
        {
          "internalType": "uint256",
          "name": "_days",
          "type": "uint256"
        }
      ],
      "name": "ChangeDays",
      "outputs": [],
      "stateMutability": "nonpayable",
      "type": "function"
    },
    {
      "inputs": [
        {
          "internalType": "address",
          "name": "_user",
          "type": "address"
        },
        {
          "internalType": "uint256",
          "name": "_depositId",
          "type": "uint256"
        },
        {
          "internalType": "uint256",
          "name": "_period",
          "type": "uint256"
        },
        {
          "internalType": "uint256",
          "name": "_finishTime",
          "type": "uint256"
        },
        {
          "internalType": "uint256",
          "name": "_earn",
          "type": "uint256"
        },
        {
          "internalType": "bool",
          "name": "_finish",
          "type": "bool"
        }
      ],
      "name": "ChangeDeposit",
      "outputs": [],
      "stateMutability": "nonpayable",
      "type": "function"
    },
    {
      "inputs": [
        {
          "internalType": "uint256",
          "name": "_amount",
          "type": "uint256"
        }
      ],
      "name": "ChangeLimitAmount",
      "outputs": [],
      "stateMutability": "nonpayable",
      "type": "function"
    },
    {
      "inputs": [
        {
          "internalType": "uint256",
          "name": "_amount",
          "type": "uint256"
        }
      ],
      "name": "ChangeMaxAmount",
      "outputs": [],
      "stateMutability": "nonpayable",
      "type": "function"
    },
    {
      "inputs": [
        {
          "internalType": "uint256",
          "name": "_amount",
          "type": "uint256"
        }
      ],
      "name": "ChangeMinAmount",
      "outputs": [],
      "stateMutability": "nonpayable",
      "type": "function"
    },
    {
      "inputs": [
        {
          "internalType": "uint256",
          "name": "_percent",
          "type": "uint256"
        }
      ],
      "name": "ChangePercent",
      "outputs": [],
      "stateMutability": "nonpayable",
      "type": "function"
    },
    {
      "inputs": [
        {
          "internalType": "uint256",
          "name": "_recolect",
          "type": "uint256"
        }
      ],
      "name": "ChangeRecolect",
      "outputs": [],
      "stateMutability": "nonpayable",
      "type": "function"
    },
    {
      "inputs": [
        {
          "internalType": "address",
          "name": "_wallet",
          "type": "address"
        }
      ],
      "name": "ChangeWalletRecibe",
      "outputs": [],
      "stateMutability": "nonpayable",
      "type": "function"
    },
    {
      "inputs": [
        {
          "internalType": "uint256",
          "name": "_amount",
          "type": "uint256"
        }
      ],
      "name": "Deposit",
      "outputs": [],
      "stateMutability": "nonpayable",
      "type": "function"
    },
    {
      "inputs": [
        {
          "internalType": "address",
          "name": "_user",
          "type": "address"
        },
        {
          "internalType": "uint256",
          "name": "_depositId",
          "type": "uint256"
        },
        {
          "internalType": "uint256",
          "name": "_period",
          "type": "uint256"
        }
      ],
      "name": "EarlyClaim",
      "outputs": [],
      "stateMutability": "nonpayable",
      "type": "function"
    },
    {
      "inputs": [
        {
          "internalType": "address",
          "name": "_tokens",
          "type": "address"
        }
      ],
      "name": "RecoverTokens",
      "outputs": [],
      "stateMutability": "nonpayable",
      "type": "function"
    },
    {
      "inputs": [
        {
          "internalType": "address",
          "name": "_walletPool",
          "type": "address"
        },
        {
          "internalType": "address",
          "name": "_TokenRecibe",
          "type": "address"
        },
        {
          "internalType": "bool",
          "name": "_whiteListed",
          "type": "bool"
        }
      ],
      "stateMutability": "nonpayable",
      "type": "constructor"
    },
    {
      "anonymous": false,
      "inputs": [
        {
          "indexed": true,
          "internalType": "address",
          "name": "user",
          "type": "address"
        },
        {
          "indexed": false,
          "internalType": "uint256",
          "name": "amount",
          "type": "uint256"
        },
        {
          "indexed": false,
          "internalType": "uint256",
          "name": "depositId",
          "type": "uint256"
        }
      ],
      "name": "DepositMade",
      "type": "event"
    },
    {
      "inputs": [
        {
          "internalType": "uint256",
          "name": "_depositId",
          "type": "uint256"
        },
        {
          "internalType": "uint256",
          "name": "_lapseTime",
          "type": "uint256"
        }
      ],
      "name": "EarnDeposit",
      "outputs": [],
      "stateMutability": "nonpayable",
      "type": "function"
    },
    {
      "inputs": [
        {
          "internalType": "uint256",
          "name": "_limit",
          "type": "uint256"
        },
        {
          "internalType": "uint256",
          "name": "_maxAmount",
          "type": "uint256"
        },
        {
          "internalType": "uint256",
          "name": "_minAmount",
          "type": "uint256"
        },
        {
          "internalType": "uint256",
          "name": "_percent",
          "type": "uint256"
        },
        {
          "internalType": "uint256",
          "name": "_days",
          "type": "uint256"
        }
      ],
      "name": "Initialized",
      "outputs": [],
      "stateMutability": "nonpayable",
      "type": "function"
    },
    {
      "inputs": [],
      "name": "lock",
      "outputs": [],
      "stateMutability": "nonpayable",
      "type": "function"
    },
    {
      "anonymous": false,
      "inputs": [
        {
          "indexed": true,
          "internalType": "address",
          "name": "previousOwner",
          "type": "address"
        },
        {
          "indexed": true,
          "internalType": "address",
          "name": "newOwner",
          "type": "address"
        }
      ],
      "name": "OwnershipTransferred",
      "type": "event"
    },
    {
      "inputs": [
        {
          "internalType": "address[]",
          "name": "addresses",
          "type": "address[]"
        }
      ],
      "name": "removeFromWhitelist",
      "outputs": [],
      "stateMutability": "nonpayable",
      "type": "function"
    },
    {
      "inputs": [],
      "name": "renounceOwnership",
      "outputs": [],
      "stateMutability": "nonpayable",
      "type": "function"
    },
    {
      "inputs": [
        {
          "internalType": "address",
          "name": "newOwner",
          "type": "address"
        }
      ],
      "name": "transferOwnership",
      "outputs": [],
      "stateMutability": "nonpayable",
      "type": "function"
    },
    {
      "anonymous": false,
      "inputs": [
        {
          "indexed": true,
          "internalType": "address",
          "name": "user",
          "type": "address"
        },
        {
          "indexed": false,
          "internalType": "uint256",
          "name": "amount",
          "type": "uint256"
        },
        {
          "indexed": false,
          "internalType": "uint256",
          "name": "depositId",
          "type": "uint256"
        }
      ],
      "name": "WithdrawalMade",
      "type": "event"
    },
    {
      "anonymous": false,
      "inputs": [
        {
          "indexed": false,
          "internalType": "address",
          "name": "user",
          "type": "address"
        },
        {
          "indexed": false,
          "internalType": "uint256",
          "name": "from",
          "type": "uint256"
        },
        {
          "indexed": false,
          "internalType": "uint256",
          "name": "to",
          "type": "uint256"
        }
      ],
      "name": "earlyClaim",
      "type": "event"
    },
    {
      "inputs": [
        {
          "internalType": "address",
          "name": "",
          "type": "address"
        },
        {
          "internalType": "uint256",
          "name": "",
          "type": "uint256"
        }
      ],
      "name": "balanceUser",
      "outputs": [
        {
          "internalType": "uint256",
          "name": "Amount",
          "type": "uint256"
        },
        {
          "internalType": "uint256",
          "name": "initTime",
          "type": "uint256"
        },
        {
          "internalType": "uint256",
          "name": "finishTime",
          "type": "uint256"
        },
        {
          "internalType": "uint256",
          "name": "Earn",
          "type": "uint256"
        }
      ],
      "stateMutability": "view",
      "type": "function"
    },
    {
      "inputs": [
        {
          "internalType": "address",
          "name": "",
          "type": "address"
        }
      ],
      "name": "depositCount",
      "outputs": [
        {
          "internalType": "uint256",
          "name": "",
          "type": "uint256"
        }
      ],
      "stateMutability": "view",
      "type": "function"
    },
    {
      "inputs": [
        {
          "internalType": "address",
          "name": "",
          "type": "address"
        },
        {
          "internalType": "uint256",
          "name": "",
          "type": "uint256"
        },
        {
          "internalType": "uint256",
          "name": "",
          "type": "uint256"
        }
      ],
      "name": "depositEarnings",
      "outputs": [
        {
          "internalType": "uint256",
          "name": "finishTime",
          "type": "uint256"
        },
        {
          "internalType": "uint256",
          "name": "Earn",
          "type": "uint256"
        },
        {
          "internalType": "uint256",
          "name": "period",
          "type": "uint256"
        },
        {
          "internalType": "bool",
          "name": "finished",
          "type": "bool"
        }
      ],
      "stateMutability": "view",
      "type": "function"
    },
    {
      "inputs": [],
      "name": "limit",
      "outputs": [
        {
          "internalType": "uint256",
          "name": "",
          "type": "uint256"
        }
      ],
      "stateMutability": "view",
      "type": "function"
    },
    {
      "inputs": [],
      "name": "MaxAmount",
      "outputs": [
        {
          "internalType": "uint256",
          "name": "",
          "type": "uint256"
        }
      ],
      "stateMutability": "view",
      "type": "function"
    },
    {
      "inputs": [],
      "name": "MinAmount",
      "outputs": [
        {
          "internalType": "uint256",
          "name": "",
          "type": "uint256"
        }
      ],
      "stateMutability": "view",
      "type": "function"
    },
    {
      "inputs": [],
      "name": "owner",
      "outputs": [
        {
          "internalType": "address",
          "name": "",
          "type": "address"
        }
      ],
      "stateMutability": "view",
      "type": "function"
    },
    {
      "inputs": [],
      "name": "PercentEarn",
      "outputs": [
        {
          "internalType": "uint256",
          "name": "",
          "type": "uint256"
        }
      ],
      "stateMutability": "view",
      "type": "function"
    },
    {
      "inputs": [],
      "name": "recolect",
      "outputs": [
        {
          "internalType": "uint256",
          "name": "",
          "type": "uint256"
        }
      ],
      "stateMutability": "view",
      "type": "function"
    },
    {
      "inputs": [],
      "name": "ViewDay",
      "outputs": [
        {
          "internalType": "uint256",
          "name": "",
          "type": "uint256"
        }
      ],
      "stateMutability": "view",
      "type": "function"
    },
    {
      "inputs": [],
      "name": "walletPool",
      "outputs": [
        {
          "internalType": "address",
          "name": "",
          "type": "address"
        }
      ],
      "stateMutability": "view",
      "type": "function"
    },
    {
      "inputs": [
        {
          "internalType": "address",
          "name": "",
          "type": "address"
        }
      ],
      "name": "whiteList",
      "outputs": [
        {
          "internalType": "bool",
          "name": "",
          "type": "bool"
        }
      ],
      "stateMutability": "view",
      "type": "function"
    }
  ],
  "bytecode": "0x608060405262015180600b553480156200001857600080fd5b506040516200361e3803806200361e83398181016040528101906200003e919062000204565b6200005e620000526200010a60201b60201c565b6200011260201b60201c565b6001808190555082600260006101000a81548173ffffffffffffffffffffffffffffffffffffffff021916908373ffffffffffffffffffffffffffffffffffffffff16021790555081600360006101000a81548173ffffffffffffffffffffffffffffffffffffffff021916908373ffffffffffffffffffffffffffffffffffffffff16021790555080600d60026101000a81548160ff021916908315150217905550505050620002d9565b600033905090565b60008060009054906101000a900473ffffffffffffffffffffffffffffffffffffffff169050816000806101000a81548173ffffffffffffffffffffffffffffffffffffffff021916908373ffffffffffffffffffffffffffffffffffffffff1602179055508173ffffffffffffffffffffffffffffffffffffffff168173ffffffffffffffffffffffffffffffffffffffff167f8be0079c531659141344cd1fd0a4f28419497f9722a3daafe3b4186f6b6457e060405160405180910390a35050565b600081519050620001e781620002a5565b92915050565b600081519050620001fe81620002bf565b92915050565b60008060006060848603121562000220576200021f620002a0565b5b60006200023086828701620001d6565b93505060206200024386828701620001d6565b92505060406200025686828701620001ed565b9150509250925092565b60006200026d8262000280565b9050919050565b60008115159050919050565b600073ffffffffffffffffffffffffffffffffffffffff82169050919050565b600080fd5b620002b08162000260565b8114620002bc57600080fd5b50565b620002ca8162000274565b8114620002d657600080fd5b50565b61333580620002e96000396000f3fe608060405234801561001057600080fd5b50600436106101e55760003560e01c80636b68f8101161010f578063a4d66daf116100a2578063ec65240611610071578063ec6524061461051c578063f2fde38b1461053a578063f4443d9a14610556578063f83d08ba14610586576101e5565b8063a4d66daf14610491578063b8d25a43146104af578063bb1711a6146104e2578063e5c154f1146104fe576101e5565b80637586c414116100de5780637586c4141461041d5780637f6497831461043b5780638da5cb5b1461045757806397a6410114610475576101e5565b80636b68f810146103bd5780636ff8f8c2146103d95780636ffe7bbe146103f5578063715018a614610413576101e5565b806347afd82f116101875780635aa1cae9116101565780635aa1cae91461034b57806360a8100214610367578063638d23d014610385578063694333e7146103a1576101e5565b806347afd82f146102d95780634d6ce1e5146102f5578063548db1741461031157806354f3a6e01461032d576101e5565b80632a8a9938116101c35780632a8a9938146102555780633366bff914610271578063372c12b11461028d578063478b0f87146102bd576101e5565b806313cad1d1146101ea57806316451dc9146102065780632a466bf214610222575b600080fd5b61020460048036038101906101ff9190612550565b610590565b005b610220600480360381019061021b9190612550565b6105a2565b005b61023c600480360381019061023791906123f6565b6105c1565b60405161024c9493929190612c59565b60405180910390f35b61026f600480360381019061026a9190612389565b61061e565b005b61028b600480360381019061028691906125ea565b610681565b005b6102a760048036038101906102a29190612389565b61072b565b6040516102b491906129ba565b60405180910390f35b6102d760048036038101906102d29190612389565b61074b565b005b6102f360048036038101906102ee9190612389565b6108b0565b005b61030f600480360381019061030a9190612550565b6108fc565b005b61032b600480360381019061032691906124d6565b61112e565b005b6103356111e1565b6040516103429190612c15565b60405180910390f35b610365600480360381019061036091906123f6565b6111e7565b005b61036f611394565b60405161037c9190612c15565b60405180910390f35b61039f600480360381019061039a91906125aa565b61139a565b005b6103bb60048036038101906103b69190612449565b611bc7565b005b6103d760048036038101906103d29190612550565b611d54565b005b6103f360048036038101906103ee9190612550565b611d66565b005b6103fd611d78565b60405161040a9190612c15565b60405180910390f35b61041b611d8f565b005b610425611da3565b6040516104329190612c15565b60405180910390f35b610455600480360381019061045091906124d6565b611da9565b005b61045f611e5c565b60405161046c9190612908565b60405180910390f35b61048f600480360381019061048a9190612550565b611e85565b005b610499611eda565b6040516104a69190612c15565b60405180910390f35b6104c960048036038101906104c491906123b6565b611ee0565b6040516104d99493929190612c9e565b60405180910390f35b6104fc60048036038101906104f79190612550565b611f2d565b005b610506611f3f565b6040516105139190612908565b60405180910390f35b610524611f65565b6040516105319190612c15565b60405180910390f35b610554600480360381019061054f9190612389565b611f6b565b005b610570600480360381019061056b9190612389565b611fef565b60405161057d9190612c15565b60405180910390f35b61058e612007565b005b61059861203b565b8060088190555050565b6105aa61203b565b600b54816105b89190612d7b565b600c8190555050565b600f60205282600052604060002060205281600052604060002081600381106105e957600080fd5b6004020160009250925050508060000154908060010154908060020154908060030160009054906101000a900460ff16905084565b61062661203b565b6001601160008373ffffffffffffffffffffffffffffffffffffffff1673ffffffffffffffffffffffffffffffffffffffff16815260200190815260200160002060006101000a81548160ff02191690831515021790555050565b61068961203b565b600d60019054906101000a900460ff16156106d9576040517f08c379a00000000000000000000000000000000000000000000000000000000081526004016106d0906129d5565b60405180910390fd5b84600781905550836008819055508260098190555081600a81905550600b54816107039190612d7b565b600c819055506001600d60016101000a81548160ff0219169083151502179055505050505050565b60116020528060005260406000206000915054906101000a900460ff1681565b61075361203b565b60008173ffffffffffffffffffffffffffffffffffffffff1663a9059cbb338473ffffffffffffffffffffffffffffffffffffffff166370a08231306040518263ffffffff1660e01b81526004016107ab9190612908565b60206040518083038186803b1580156107c357600080fd5b505afa1580156107d7573d6000803e3d6000fd5b505050506040513d601f19601f820116820180604052508101906107fb919061257d565b6040518363ffffffff1660e01b815260040161081892919061295a565b602060405180830381600087803b15801561083257600080fd5b505af1158015610846573d6000803e3d6000fd5b505050506040513d601f19601f8201168201806040525081019061086a9190612523565b9050806108ac576040517f08c379a00000000000000000000000000000000000000000000000000000000081526004016108a390612a55565b60405180910390fd5b5050565b6108b861203b565b80600260006101000a81548173ffffffffffffffffffffffffffffffffffffffff021916908373ffffffffffffffffffffffffffffffffffffffff16021790555050565b6109046120b9565b600d60009054906101000a900460ff1615610954576040517f08c379a000000000000000000000000000000000000000000000000000000000815260040161094b90612a15565b60405180910390fd5b600d60019054906101000a900460ff166109a3576040517f08c379a000000000000000000000000000000000000000000000000000000000815260040161099a90612b15565b60405180910390fd5b600081116109e6576040517f08c379a00000000000000000000000000000000000000000000000000000000081526004016109dd90612a75565b60405180910390fd5b600d60029054906101000a900460ff1615610a8857601160003373ffffffffffffffffffffffffffffffffffffffff1673ffffffffffffffffffffffffffffffffffffffff16815260200190815260200160002060009054906101000a900460ff16610a87576040517f08c379a0000000000000000000000000000000000000000000000000000000008152600401610a7e90612a95565b60405180910390fd5b5b80600360009054906101000a900473ffffffffffffffffffffffffffffffffffffffff1673ffffffffffffffffffffffffffffffffffffffff166370a08231336040518263ffffffff1660e01b8152600401610ae49190612908565b60206040518083038186803b158015610afc57600080fd5b505afa158015610b10573d6000803e3d6000fd5b505050506040513d601f19601f82011682018060405250810190610b34919061257d565b1015610b75576040517f08c379a0000000000000000000000000000000000000000000000000000000008152600401610b6c90612b95565b60405180910390fd5b60006040518060800160405280600081526020016000815260200160008152602001600081525090508181600001818152505060085481600001511115610bf1576040517f08c379a0000000000000000000000000000000000000000000000000000000008152600401610be890612af5565b60405180910390fd5b600754821115610c36576040517f08c379a0000000000000000000000000000000000000000000000000000000008152600401610c2d90612ad5565b60405180910390fd5b60075482600654610c479190612cf4565b1115610c88576040517f08c379a0000000000000000000000000000000000000000000000000000000008152600401610c7f90612bf5565b60405180910390fd5b60006009541115610cd957600954821015610cd8576040517f08c379a0000000000000000000000000000000000000000000000000000000008152600401610ccf90612b55565b60405180910390fd5b5b6000600e60003373ffffffffffffffffffffffffffffffffffffffff1673ffffffffffffffffffffffffffffffffffffffff1681526020019081526020016000208054905090506000601e90506000600d905060005b6003811015610e88576002811415610d4657601491505b6000610d726064610d6485896000015161210990919063ffffffff16565b61211f90919063ffffffff16565b90506040518060800160405280610da6610d97600b548861210990919063ffffffff16565b4261213590919063ffffffff16565b815260200182815260200185815260200160001515815250600f60003373ffffffffffffffffffffffffffffffffffffffff1673ffffffffffffffffffffffffffffffffffffffff16815260200190815260200160002060008781526020019081526020016000208360038110610e2057610e1f612ef8565b5b6004020160008201518160000155602082015181600101556040820151816002015560608201518160030160006101000a81548160ff021916908315150217905550905050601e84610e729190612cf4565b9350508080610e8090612e51565b915050610d2f565b50605a600c54610e989190612d7b565b42610ea39190612cf4565b84604001818152505042846020018181525050600e60003373ffffffffffffffffffffffffffffffffffffffff1673ffffffffffffffffffffffffffffffffffffffff1681526020019081526020016000208490806001815401808255809150506001900390600052602060002090600402016000909190919091506000820151816000015560208201518160010155604082015181600201556060820151816003015550503373ffffffffffffffffffffffffffffffffffffffff167f0b05f0d1cd0819f155b8a61f60baf7767c1ee49d04aeaab701df236140eb93f98685604051610f91929190612c30565b60405180910390a2601060003373ffffffffffffffffffffffffffffffffffffffff1673ffffffffffffffffffffffffffffffffffffffff1681526020019081526020016000206000815480929190610fe990612e51565b919050555084600660008282546110009190612cf4565b925050819055506000600360009054906101000a900473ffffffffffffffffffffffffffffffffffffffff1673ffffffffffffffffffffffffffffffffffffffff166323b872dd33600260009054906101000a900473ffffffffffffffffffffffffffffffffffffffff16896040518463ffffffff1660e01b815260040161108a93929190612923565b602060405180830381600087803b1580156110a457600080fd5b505af11580156110b8573d6000803e3d6000fd5b505050506040513d601f19601f820116820180604052508101906110dc9190612523565b90508061111e576040517f08c379a000000000000000000000000000000000000000000000000000000000815260040161111590612a55565b60405180910390fd5b505050505061112b61214b565b50565b61113661203b565b60005b828290508110156111dc57600083838381811061115957611158612ef8565b5b905060200201602081019061116e9190612389565b90506000601160008373ffffffffffffffffffffffffffffffffffffffff1673ffffffffffffffffffffffffffffffffffffffff16815260200190815260200160002060006101000a81548160ff0219169083151502179055505080806111d490612e51565b915050611139565b505050565b600a5481565b6111ef61203b565b6000600f60008573ffffffffffffffffffffffffffffffffffffffff1673ffffffffffffffffffffffffffffffffffffffff1681526020019081526020016000206000848152602001908152602001600020826003811061125357611252612ef8565b5b600402016040518060800160405290816000820154815260200160018201548152602001600282015481526020016003820160009054906101000a900460ff16151515158152505090504281600001818152505080600f60003373ffffffffffffffffffffffffffffffffffffffff1673ffffffffffffffffffffffffffffffffffffffff1681526020019081526020016000206000858152602001908152602001600020836003811061130a57611309612ef8565b5b6004020160008201518160000155602082015181600101556040820151816002015560608201518160030160006101000a81548160ff0219169083151502179055509050507fb79cc8bc32f75c57b53b9fe33ff31302d8befe74ba35a51afd8ebb6da0bf66848482600001514260405161138693929190612983565b60405180910390a150505050565b60085481565b6113a26120b9565b600d60009054906101000a900460ff16156113f2576040517f08c379a00000000000000000000000000000000000000000000000000000000081526004016113e990612a15565b60405180910390fd5b600d60019054906101000a900460ff16611441576040517f08c379a000000000000000000000000000000000000000000000000000000000815260040161143890612b15565b60405180910390fd5b6000600e60003373ffffffffffffffffffffffffffffffffffffffff1673ffffffffffffffffffffffffffffffffffffffff168152602001908152602001600020838154811061149457611493612ef8565b5b906000526020600020906004020160000154116114e6576040517f08c379a00000000000000000000000000000000000000000000000000000000081526004016114dd90612b75565b60405180910390fd5b6000600e60003373ffffffffffffffffffffffffffffffffffffffff1673ffffffffffffffffffffffffffffffffffffffff168152602001908152602001600020838154811061153957611538612ef8565b5b9060005260206000209060040201604051806080016040529081600082015481526020016001820154815260200160028201548152602001600382015481525050905060008160000151116115c3576040517f08c379a00000000000000000000000000000000000000000000000000000000081526004016115ba90612ab5565b60405180910390fd5b6000600f60003373ffffffffffffffffffffffffffffffffffffffff1673ffffffffffffffffffffffffffffffffffffffff1681526020019081526020016000206000858152602001908152602001600020836003811061162757611626612ef8565b5b600402016040518060800160405290816000820154815260200160018201548152602001600282015481526020016003820160009054906101000a900460ff16151515158152505090506000601e826040015114801561168f57506000151582606001511515145b801561169e5750428260000151105b156117845781602001519050604051806080016040528083600001518152602001836020015181526020016000815260200160011515815250600f60003373ffffffffffffffffffffffffffffffffffffffff1673ffffffffffffffffffffffffffffffffffffffff168152602001908152602001600020600087815260200190815260200160002060006003811061173a57611739612ef8565b5b6004020160008201518160000155602082015181600101556040820151816002015560608201518160030160006101000a81548160ff021916908315150217905550905050611a74565b603c82604001511480156117a057506000151582606001511515145b80156117af5750428260000151105b156118955781602001519050604051806080016040528083600001518152602001836020015181526020016000815260200160011515815250600f60003373ffffffffffffffffffffffffffffffffffffffff1673ffffffffffffffffffffffffffffffffffffffff168152602001908152602001600020600087815260200190815260200160002060016003811061184b5761184a612ef8565b5b6004020160008201518160000155602082015181600101556040820151816002015560608201518160030160006101000a81548160ff021916908315150217905550905050611a73565b605a82604001511480156118b157506000151582606001511515145b80156118c05750428260000151105b15611a375781602001519050600f60003373ffffffffffffffffffffffffffffffffffffffff1673ffffffffffffffffffffffffffffffffffffffff168152602001908152602001600020600086815260200190815260200160002060006119289190612236565b600e60003373ffffffffffffffffffffffffffffffffffffffff1673ffffffffffffffffffffffffffffffffffffffff168152602001908152602001600020858154811061197957611978612ef8565b5b906000526020600020906004020160008082016000905560018201600090556002820160009055600382016000905550506119c3836000015160065461215490919063ffffffff16565b6006819055508260000151816119d99190612cf4565b90506001601060003373ffffffffffffffffffffffffffffffffffffffff1673ffffffffffffffffffffffffffffffffffffffff1681526020019081526020016000206000828254611a2b9190612dd5565b92505081905550611a72565b6040517f08c379a0000000000000000000000000000000000000000000000000000000008152600401611a69906129f5565b60405180910390fd5b5b5b3373ffffffffffffffffffffffffffffffffffffffff167f2d4d49c3e017b8235c908cbaa83a2431a08f3b950712696ece2088964fd399f08287604051611abc929190612c30565b60405180910390a26000600360009054906101000a900473ffffffffffffffffffffffffffffffffffffffff1673ffffffffffffffffffffffffffffffffffffffff1663a9059cbb33846040518363ffffffff1660e01b8152600401611b2392919061295a565b602060405180830381600087803b158015611b3d57600080fd5b505af1158015611b51573d6000803e3d6000fd5b505050506040513d601f19601f82011682018060405250810190611b759190612523565b905080611bb7576040517f08c379a0000000000000000000000000000000000000000000000000000000008152600401611bae90612a55565b60405180910390fd5b50505050611bc361214b565b5050565b611bcf61203b565b6000600f60008873ffffffffffffffffffffffffffffffffffffffff1673ffffffffffffffffffffffffffffffffffffffff16815260200190815260200160002060008781526020019081526020016000208560038110611c3357611c32612ef8565b5b600402016040518060800160405290816000820154815260200160018201548152602001600282015481526020016003820160009054906101000a900460ff1615151515815250509050604051806080016040528085815260200184815260200182604001518152602001831515815250600f60008973ffffffffffffffffffffffffffffffffffffffff1673ffffffffffffffffffffffffffffffffffffffff16815260200190815260200160002060008881526020019081526020016000208660038110611d0657611d05612ef8565b5b6004020160008201518160000155602082015181600101556040820151816002015560608201518160030160006101000a81548160ff02191690831515021790555090505050505050505050565b611d5c61203b565b8060078190555050565b611d6e61203b565b8060068190555050565b6000600b54600c54611d8a9190612d4a565b905090565b611d9761203b565b611da1600061216a565b565b60065481565b611db161203b565b60005b82829050811015611e57576000838383818110611dd457611dd3612ef8565b5b9050602002016020810190611de99190612389565b90506001601160008373ffffffffffffffffffffffffffffffffffffffff1673ffffffffffffffffffffffffffffffffffffffff16815260200190815260200160002060006101000a81548160ff021916908315150217905550508080611e4f90612e51565b915050611db4565b505050565b60008060009054906101000a900473ffffffffffffffffffffffffffffffffffffffff16905090565b611e8d61203b565b60008111611ed0576040517f08c379a0000000000000000000000000000000000000000000000000000000008152600401611ec790612bb5565b60405180910390fd5b80600a8190555050565b60075481565b600e6020528160005260406000208181548110611efc57600080fd5b9060005260206000209060040201600091509150508060000154908060010154908060020154908060030154905084565b611f3561203b565b8060098190555050565b600260009054906101000a900473ffffffffffffffffffffffffffffffffffffffff1681565b60095481565b611f7361203b565b600073ffffffffffffffffffffffffffffffffffffffff168173ffffffffffffffffffffffffffffffffffffffff161415611fe3576040517f08c379a0000000000000000000000000000000000000000000000000000000008152600401611fda90612a35565b60405180910390fd5b611fec8161216a565b50565b60106020528060005260406000206000915090505481565b61200f61203b565b600d60009054906101000a900460ff1615600d60006101000a81548160ff021916908315150217905550565b61204361222e565b73ffffffffffffffffffffffffffffffffffffffff16612061611e5c565b73ffffffffffffffffffffffffffffffffffffffff16146120b7576040517f08c379a00000000000000000000000000000000000000000000000000000000081526004016120ae90612b35565b60405180910390fd5b565b600260015414156120ff576040517f08c379a00000000000000000000000000000000000000000000000000000000081526004016120f690612bd5565b60405180910390fd5b6002600181905550565b600081836121179190612d7b565b905092915050565b6000818361212d9190612d4a565b905092915050565b600081836121439190612cf4565b905092915050565b60018081905550565b600081836121629190612dd5565b905092915050565b60008060009054906101000a900473ffffffffffffffffffffffffffffffffffffffff169050816000806101000a81548173ffffffffffffffffffffffffffffffffffffffff021916908373ffffffffffffffffffffffffffffffffffffffff1602179055508173ffffffffffffffffffffffffffffffffffffffff168173ffffffffffffffffffffffffffffffffffffffff167f8be0079c531659141344cd1fd0a4f28419497f9722a3daafe3b4186f6b6457e060405160405180910390a35050565b600033905090565b50600080820160009055600182016000905560028201600090556003820160006101000a81549060ff021916905550600401600080820160009055600182016000905560028201600090556003820160006101000a81549060ff021916905550600401600080820160009055600182016000905560028201600090556003820160006101000a81549060ff02191690555050565b6000813590506122d9816132ba565b92915050565b60008083601f8401126122f5576122f4612f2c565b5b8235905067ffffffffffffffff81111561231257612311612f27565b5b60208301915083602082028301111561232e5761232d612f31565b5b9250929050565b600081359050612344816132d1565b92915050565b600081519050612359816132d1565b92915050565b60008135905061236e816132e8565b92915050565b600081519050612383816132e8565b92915050565b60006020828403121561239f5761239e612f3b565b5b60006123ad848285016122ca565b91505092915050565b600080604083850312156123cd576123cc612f3b565b5b60006123db858286016122ca565b92505060206123ec8582860161235f565b9150509250929050565b60008060006060848603121561240f5761240e612f3b565b5b600061241d868287016122ca565b935050602061242e8682870161235f565b925050604061243f8682870161235f565b9150509250925092565b60008060008060008060c0878903121561246657612465612f3b565b5b600061247489828a016122ca565b965050602061248589828a0161235f565b955050604061249689828a0161235f565b94505060606124a789828a0161235f565b93505060806124b889828a0161235f565b92505060a06124c989828a01612335565b9150509295509295509295565b600080602083850312156124ed576124ec612f3b565b5b600083013567ffffffffffffffff81111561250b5761250a612f36565b5b612517858286016122df565b92509250509250929050565b60006020828403121561253957612538612f3b565b5b60006125478482850161234a565b91505092915050565b60006020828403121561256657612565612f3b565b5b60006125748482850161235f565b91505092915050565b60006020828403121561259357612592612f3b565b5b60006125a184828501612374565b91505092915050565b600080604083850312156125c1576125c0612f3b565b5b60006125cf8582860161235f565b92505060206125e08582860161235f565b9150509250929050565b600080600080600060a0868803121561260657612605612f3b565b5b60006126148882890161235f565b95505060206126258882890161235f565b94505060406126368882890161235f565b93505060606126478882890161235f565b92505060806126588882890161235f565b9150509295509295909350565b61266e81612e09565b82525050565b61267d81612e1b565b82525050565b6000612690601983612ce3565b915061269b82612f40565b602082019050919050565b60006126b3602b83612ce3565b91506126be82612f69565b604082019050919050565b60006126d6600b83612ce3565b91506126e182612fb8565b602082019050919050565b60006126f9602683612ce3565b915061270482612fe1565b604082019050919050565b600061271c600f83612ce3565b915061272782613030565b602082019050919050565b600061273f602083612ce3565b915061274a82613059565b602082019050919050565b6000612762601883612ce3565b915061276d82613082565b602082019050919050565b6000612785603383612ce3565b9150612790826130ab565b604082019050919050565b60006127a8601383612ce3565b91506127b3826130fa565b602082019050919050565b60006127cb601383612ce3565b91506127d682613123565b602082019050919050565b60006127ee601783612ce3565b91506127f98261314c565b602082019050919050565b6000612811602083612ce3565b915061281c82613175565b602082019050919050565b6000612834602683612ce3565b915061283f8261319e565b604082019050919050565b6000612857601683612ce3565b9150612862826131ed565b602082019050919050565b600061287a601383612ce3565b915061288582613216565b602082019050919050565b600061289d601783612ce3565b91506128a88261323f565b602082019050919050565b60006128c0601f83612ce3565b91506128cb82613268565b602082019050919050565b60006128e3601b83612ce3565b91506128ee82613291565b602082019050919050565b61290281612e47565b82525050565b600060208201905061291d6000830184612665565b92915050565b60006060820190506129386000830186612665565b6129456020830185612665565b61295260408301846128f9565b949350505050565b600060408201905061296f6000830185612665565b61297c60208301846128f9565b9392505050565b60006060820190506129986000830186612665565b6129a560208301856128f9565b6129b260408301846128f9565b949350505050565b60006020820190506129cf6000830184612674565b92915050565b600060208201905081810360008301526129ee81612683565b9050919050565b60006020820190508181036000830152612a0e816126a6565b9050919050565b60006020820190508181036000830152612a2e816126c9565b9050919050565b60006020820190508181036000830152612a4e816126ec565b9050919050565b60006020820190508181036000830152612a6e8161270f565b9050919050565b60006020820190508181036000830152612a8e81612732565b9050919050565b60006020820190508181036000830152612aae81612755565b9050919050565b60006020820190508181036000830152612ace81612778565b9050919050565b60006020820190508181036000830152612aee8161279b565b9050919050565b60006020820190508181036000830152612b0e816127be565b9050919050565b60006020820190508181036000830152612b2e816127e1565b9050919050565b60006020820190508181036000830152612b4e81612804565b9050919050565b60006020820190508181036000830152612b6e81612827565b9050919050565b60006020820190508181036000830152612b8e8161284a565b9050919050565b60006020820190508181036000830152612bae8161286d565b9050919050565b60006020820190508181036000830152612bce81612890565b9050919050565b60006020820190508181036000830152612bee816128b3565b9050919050565b60006020820190508181036000830152612c0e816128d6565b9050919050565b6000602082019050612c2a60008301846128f9565b92915050565b6000604082019050612c4560008301856128f9565b612c5260208301846128f9565b9392505050565b6000608082019050612c6e60008301876128f9565b612c7b60208301866128f9565b612c8860408301856128f9565b612c956060830184612674565b95945050505050565b6000608082019050612cb360008301876128f9565b612cc060208301866128f9565b612ccd60408301856128f9565b612cda60608301846128f9565b95945050505050565b600082825260208201905092915050565b6000612cff82612e47565b9150612d0a83612e47565b9250827fffffffffffffffffffffffffffffffffffffffffffffffffffffffffffffffff03821115612d3f57612d3e612e9a565b5b828201905092915050565b6000612d5582612e47565b9150612d6083612e47565b925082612d7057612d6f612ec9565b5b828204905092915050565b6000612d8682612e47565b9150612d9183612e47565b9250817fffffffffffffffffffffffffffffffffffffffffffffffffffffffffffffffff0483118215151615612dca57612dc9612e9a565b5b828202905092915050565b6000612de082612e47565b9150612deb83612e47565b925082821015612dfe57612dfd612e9a565b5b828203905092915050565b6000612e1482612e27565b9050919050565b60008115159050919050565b600073ffffffffffffffffffffffffffffffffffffffff82169050919050565b6000819050919050565b6000612e5c82612e47565b91507fffffffffffffffffffffffffffffffffffffffffffffffffffffffffffffffff821415612e8f57612e8e612e9a565b5b600182019050919050565b7f4e487b7100000000000000000000000000000000000000000000000000000000600052601160045260246000fd5b7f4e487b7100000000000000000000000000000000000000000000000000000000600052601260045260246000fd5b7f4e487b7100000000000000000000000000000000000000000000000000000000600052603260045260246000fd5b600080fd5b600080fd5b600080fd5b600080fd5b600080fd5b7f506f6f6c20686173206265656e20696e697469616c697a656400000000000000600082015250565b7f5769746864726177616c206f6e6c7920616c6c6f776564206f6e20646179203360008201527f302c203630206f72203930000000000000000000000000000000000000000000602082015250565b7f506175736564204561726e000000000000000000000000000000000000000000600082015250565b7f4f776e61626c653a206e6577206f776e657220697320746865207a65726f206160008201527f6464726573730000000000000000000000000000000000000000000000000000602082015250565b7f5472616e73666572206661696c65640000000000000000000000000000000000600082015250565b7f416d6f756e74206d7573742062652067726561746572207468616e207a65726f600082015250565b7f596f7520617265206e6f7420696e2077686974656c6973740000000000000000600082015250565b7f596f75206861766520616c72656164792077697468647261776e20796f75722060008201527f6361706974616c20616e642070726f6669747300000000000000000000000000602082015250565b7f506f6f6c206c696d697420657863656564656400000000000000000000000000600082015250565b7f55736572206c696d697420657863656564656400000000000000000000000000600082015250565b7f506f6f6c206973206e6f7420696e697469616c697a6564000000000000000000600082015250565b7f4f776e61626c653a2063616c6c6572206973206e6f7420746865206f776e6572600082015250565b7f496e73756666696369656e7420616d6f756e742c206c657373207468616e206d60008201527f696e696d756d0000000000000000000000000000000000000000000000000000602082015250565b7f4465706f73697420646f6573206e6f7420657869737400000000000000000000600082015250565b7f496e73756666696369656e7420616d6f756e7400000000000000000000000000600082015250565b7f746865206e756d626572207468616e2067726561742030000000000000000000600082015250565b7f5265656e7472616e637947756172643a207265656e7472616e742063616c6c00600082015250565b7f506f6f6c206c696d697420686173206265656e20726561636865640000000000600082015250565b6132c381612e09565b81146132ce57600080fd5b50565b6132da81612e1b565b81146132e557600080fd5b50565b6132f181612e47565b81146132fc57600080fd5b5056fea2646970667358221220b78fbe4b193bbb6324b92be72d746912207eed15c5331eac272895537453667e64736f6c63430008050033",
  "linkReferences": {},
  "deployedLinkReferences": {}
}