{
  "_format": "hh-sol-artifact-1",
  "contractName": "EARNPRIVATE",
  "sourceName": "contracts/Earnv3.sol",
  "abi": [
    {
      "inputs": [
        {
          "internalType": "address",
          "name": "_walletPool",
          "type": "address"
        },
        {
          "internalType": "address",
          "name": "_TokenRecibe",
          "type": "address"
        },
        {
          "internalType": "bool",
          "name": "_whiteListed",
          "type": "bool"
        }
      ],
      "stateMutability": "nonpayable",
      "type": "constructor"
    },
    {
      "anonymous": false,
      "inputs": [
        {
          "indexed": true,
          "internalType": "address",
          "name": "user",
          "type": "address"
        },
        {
          "indexed": false,
          "internalType": "uint256",
          "name": "amount",
          "type": "uint256"
        },
        {
          "indexed": false,
          "internalType": "uint256",
          "name": "depositId",
          "type": "uint256"
        }
      ],
      "name": "DepositMade",
      "type": "event"
    },
    {
      "anonymous": false,
      "inputs": [
        {
          "indexed": true,
          "internalType": "address",
          "name": "previousOwner",
          "type": "address"
        },
        {
          "indexed": true,
          "internalType": "address",
          "name": "newOwner",
          "type": "address"
        }
      ],
      "name": "OwnershipTransferred",
      "type": "event"
    },
    {
      "anonymous": false,
      "inputs": [
        {
          "indexed": true,
          "internalType": "address",
          "name": "user",
          "type": "address"
        },
        {
          "indexed": false,
          "internalType": "uint256",
          "name": "amount",
          "type": "uint256"
        },
        {
          "indexed": false,
          "internalType": "uint256",
          "name": "depositId",
          "type": "uint256"
        }
      ],
      "name": "WithdrawalMade",
      "type": "event"
    },
    {
      "anonymous": false,
      "inputs": [
        {
          "indexed": false,
          "internalType": "address",
          "name": "user",
          "type": "address"
        },
        {
          "indexed": false,
          "internalType": "uint256",
          "name": "from",
          "type": "uint256"
        },
        {
          "indexed": false,
          "internalType": "uint256",
          "name": "to",
          "type": "uint256"
        }
      ],
      "name": "earlyClaim",
      "type": "event"
    },
    {
      "inputs": [
        {
          "internalType": "uint256",
          "name": "_days",
          "type": "uint256"
        }
      ],
      "name": "ChangeDays",
      "outputs": [],
      "stateMutability": "nonpayable",
      "type": "function"
    },
    {
      "inputs": [
        {
          "internalType": "uint256",
          "name": "_amount",
          "type": "uint256"
        }
      ],
      "name": "ChangeLimitAmount",
      "outputs": [],
      "stateMutability": "nonpayable",
      "type": "function"
    },
    {
      "inputs": [
        {
          "internalType": "uint256",
          "name": "_amount",
          "type": "uint256"
        }
      ],
      "name": "ChangeMaxAmount",
      "outputs": [],
      "stateMutability": "nonpayable",
      "type": "function"
    },
    {
      "inputs": [
        {
          "internalType": "uint256",
          "name": "_amount",
          "type": "uint256"
        }
      ],
      "name": "ChangeMinAmount",
      "outputs": [],
      "stateMutability": "nonpayable",
      "type": "function"
    },
    {
      "inputs": [
        {
          "internalType": "uint256",
          "name": "_percent",
          "type": "uint256"
        }
      ],
      "name": "ChangePercent",
      "outputs": [],
      "stateMutability": "nonpayable",
      "type": "function"
    },
    {
      "inputs": [
        {
          "internalType": "uint256",
          "name": "_recolect",
          "type": "uint256"
        }
      ],
      "name": "ChangeRecolect",
      "outputs": [],
      "stateMutability": "nonpayable",
      "type": "function"
    },
    {
      "inputs": [
        {
          "internalType": "address",
          "name": "_wallet",
          "type": "address"
        }
      ],
      "name": "ChangeWalletRecibe",
      "outputs": [],
      "stateMutability": "nonpayable",
      "type": "function"
    },
    {
      "inputs": [
        {
          "internalType": "uint256",
          "name": "_amount",
          "type": "uint256"
        }
      ],
      "name": "Deposit",
      "outputs": [],
      "stateMutability": "nonpayable",
      "type": "function"
    },
    {
      "inputs": [
        {
          "internalType": "address",
          "name": "_user",
          "type": "address"
        },
        {
          "internalType": "uint256",
          "name": "_depositId",
          "type": "uint256"
        }
      ],
      "name": "EarlyClaim",
      "outputs": [],
      "stateMutability": "nonpayable",
      "type": "function"
    },
    {
      "inputs": [
        {
          "internalType": "uint256",
          "name": "_depositId",
          "type": "uint256"
        },
        {
          "internalType": "uint256",
          "name": "_lapseTime",
          "type": "uint256"
        }
      ],
      "name": "EarnDeposit",
      "outputs": [],
      "stateMutability": "nonpayable",
      "type": "function"
    },
    {
      "inputs": [
        {
          "internalType": "uint256",
          "name": "_limit",
          "type": "uint256"
        },
        {
          "internalType": "uint256",
          "name": "_maxAmount",
          "type": "uint256"
        },
        {
          "internalType": "uint256",
          "name": "_minAmount",
          "type": "uint256"
        },
        {
          "internalType": "uint256",
          "name": "_percent",
          "type": "uint256"
        },
        {
          "internalType": "uint256",
          "name": "_days",
          "type": "uint256"
        }
      ],
      "name": "Initialized",
      "outputs": [],
      "stateMutability": "nonpayable",
      "type": "function"
    },
    {
      "inputs": [],
      "name": "MaxAmount",
      "outputs": [
        {
          "internalType": "uint256",
          "name": "",
          "type": "uint256"
        }
      ],
      "stateMutability": "view",
      "type": "function"
    },
    {
      "inputs": [
        {
          "internalType": "address",
          "name": "_user",
          "type": "address"
        },
        {
          "internalType": "uint256",
          "name": "_depositId",
          "type": "uint256"
        },
        {
          "internalType": "uint256",
          "name": "_amount",
          "type": "uint256"
        },
        {
          "internalType": "uint256",
          "name": "_initTime",
          "type": "uint256"
        },
        {
          "internalType": "uint256",
          "name": "_finishTime",
          "type": "uint256"
        },
        {
          "internalType": "uint256",
          "name": "_earn",
          "type": "uint256"
        }
      ],
      "name": "Migration",
      "outputs": [],
      "stateMutability": "nonpayable",
      "type": "function"
    },
    {
      "inputs": [],
      "name": "MinAmount",
      "outputs": [
        {
          "internalType": "uint256",
          "name": "",
          "type": "uint256"
        }
      ],
      "stateMutability": "view",
      "type": "function"
    },
    {
      "inputs": [],
      "name": "PercentEarn",
      "outputs": [
        {
          "internalType": "uint256",
          "name": "",
          "type": "uint256"
        }
      ],
      "stateMutability": "view",
      "type": "function"
    },
    {
      "inputs": [
        {
          "internalType": "address",
          "name": "_tokens",
          "type": "address"
        }
      ],
      "name": "RecoverTokens",
      "outputs": [],
      "stateMutability": "nonpayable",
      "type": "function"
    },
    {
      "inputs": [],
      "name": "ViewDay",
      "outputs": [
        {
          "internalType": "uint256",
          "name": "",
          "type": "uint256"
        }
      ],
      "stateMutability": "view",
      "type": "function"
    },
    {
      "inputs": [
        {
          "internalType": "address[]",
          "name": "addresses",
          "type": "address[]"
        }
      ],
      "name": "addToWhitelist",
      "outputs": [],
      "stateMutability": "nonpayable",
      "type": "function"
    },
    {
      "inputs": [
        {
          "internalType": "address",
          "name": "_wallet",
          "type": "address"
        }
      ],
      "name": "addUserWhiteList",
      "outputs": [],
      "stateMutability": "nonpayable",
      "type": "function"
    },
    {
      "inputs": [
        {
          "internalType": "address",
          "name": "",
          "type": "address"
        },
        {
          "internalType": "uint256",
          "name": "",
          "type": "uint256"
        }
      ],
      "name": "balanceUser",
      "outputs": [
        {
          "internalType": "uint256",
          "name": "Amount",
          "type": "uint256"
        },
        {
          "internalType": "uint256",
          "name": "initTime",
          "type": "uint256"
        },
        {
          "internalType": "uint256",
          "name": "finishTime",
          "type": "uint256"
        },
        {
          "internalType": "uint256",
          "name": "Earn",
          "type": "uint256"
        }
      ],
      "stateMutability": "view",
      "type": "function"
    },
    {
      "inputs": [
        {
          "internalType": "address",
          "name": "",
          "type": "address"
        }
      ],
      "name": "depositCount",
      "outputs": [
        {
          "internalType": "uint256",
          "name": "",
          "type": "uint256"
        }
      ],
      "stateMutability": "view",
      "type": "function"
    },
    {
      "inputs": [
        {
          "internalType": "address",
          "name": "",
          "type": "address"
        },
        {
          "internalType": "uint256",
          "name": "",
          "type": "uint256"
        },
        {
          "internalType": "uint256",
          "name": "",
          "type": "uint256"
        }
      ],
      "name": "depositEarnings",
      "outputs": [
        {
          "internalType": "uint256",
          "name": "finishTime",
          "type": "uint256"
        },
        {
          "internalType": "uint256",
          "name": "Earn",
          "type": "uint256"
        },
        {
          "internalType": "uint256",
          "name": "period",
          "type": "uint256"
        },
        {
          "internalType": "bool",
          "name": "finished",
          "type": "bool"
        }
      ],
      "stateMutability": "view",
      "type": "function"
    },
    {
      "inputs": [],
      "name": "limit",
      "outputs": [
        {
          "internalType": "uint256",
          "name": "",
          "type": "uint256"
        }
      ],
      "stateMutability": "view",
      "type": "function"
    },
    {
      "inputs": [],
      "name": "lock",
      "outputs": [],
      "stateMutability": "nonpayable",
      "type": "function"
    },
    {
      "inputs": [],
      "name": "owner",
      "outputs": [
        {
          "internalType": "address",
          "name": "",
          "type": "address"
        }
      ],
      "stateMutability": "view",
      "type": "function"
    },
    {
      "inputs": [],
      "name": "recolect",
      "outputs": [
        {
          "internalType": "uint256",
          "name": "",
          "type": "uint256"
        }
      ],
      "stateMutability": "view",
      "type": "function"
    },
    {
      "inputs": [
        {
          "internalType": "address[]",
          "name": "addresses",
          "type": "address[]"
        }
      ],
      "name": "removeFromWhitelist",
      "outputs": [],
      "stateMutability": "nonpayable",
      "type": "function"
    },
    {
      "inputs": [],
      "name": "renounceOwnership",
      "outputs": [],
      "stateMutability": "nonpayable",
      "type": "function"
    },
    {
      "inputs": [
        {
          "internalType": "address",
          "name": "newOwner",
          "type": "address"
        }
      ],
      "name": "transferOwnership",
      "outputs": [],
      "stateMutability": "nonpayable",
      "type": "function"
    },
    {
      "inputs": [],
      "name": "walletPool",
      "outputs": [
        {
          "internalType": "address",
          "name": "",
          "type": "address"
        }
      ],
      "stateMutability": "view",
      "type": "function"
    },
    {
      "inputs": [
        {
          "internalType": "address",
          "name": "",
          "type": "address"
        }
      ],
      "name": "whiteList",
      "outputs": [
        {
          "internalType": "bool",
          "name": "",
          "type": "bool"
        }
      ],
      "stateMutability": "view",
      "type": "function"
    }
  ],
  "bytecode": "0x608060405262015180600b553480156200001857600080fd5b50604051620034843803806200348483398181016040528101906200003e919062000204565b6200005e620000526200010a60201b60201c565b6200011260201b60201c565b6001808190555082600260006101000a81548173ffffffffffffffffffffffffffffffffffffffff021916908373ffffffffffffffffffffffffffffffffffffffff16021790555081600360006101000a81548173ffffffffffffffffffffffffffffffffffffffff021916908373ffffffffffffffffffffffffffffffffffffffff16021790555080600d60026101000a81548160ff021916908315150217905550505050620002d9565b600033905090565b60008060009054906101000a900473ffffffffffffffffffffffffffffffffffffffff169050816000806101000a81548173ffffffffffffffffffffffffffffffffffffffff021916908373ffffffffffffffffffffffffffffffffffffffff1602179055508173ffffffffffffffffffffffffffffffffffffffff168173ffffffffffffffffffffffffffffffffffffffff167f8be0079c531659141344cd1fd0a4f28419497f9722a3daafe3b4186f6b6457e060405160405180910390a35050565b600081519050620001e781620002a5565b92915050565b600081519050620001fe81620002bf565b92915050565b60008060006060848603121562000220576200021f620002a0565b5b60006200023086828701620001d6565b93505060206200024386828701620001d6565b92505060406200025686828701620001ed565b9150509250925092565b60006200026d8262000280565b9050919050565b60008115159050919050565b600073ffffffffffffffffffffffffffffffffffffffff82169050919050565b600080fd5b620002b08162000260565b8114620002bc57600080fd5b50565b620002ca8162000274565b8114620002d657600080fd5b50565b61319b80620002e96000396000f3fe608060405234801561001057600080fd5b50600436106101e55760003560e01c80636ffe7bbe1161010f578063b8d25a43116100a2578063ec65240611610071578063ec6524061461051c578063f2fde38b1461053a578063f4443d9a14610556578063f83d08ba14610586576101e5565b8063b8d25a4314610493578063bb1711a6146104c6578063bdcbd5a9146104e2578063e5c154f1146104fe576101e5565b80637f649783116100de5780637f6497831461041f5780638da5cb5b1461043b57806397a6410114610459578063a4d66daf14610475576101e5565b80636ffe7bbe146103bd578063714a2b90146103db578063715018a6146103f75780637586c41414610401576101e5565b806347afd82f1161018757806360a810021161015657806360a810021461034b578063638d23d0146103695780636b68f810146103855780636ff8f8c2146103a1576101e5565b806347afd82f146102d95780634d6ce1e5146102f5578063548db1741461031157806354f3a6e01461032d576101e5565b80632a8a9938116101c35780632a8a9938146102555780633366bff914610271578063372c12b11461028d578063478b0f87146102bd576101e5565b806313cad1d1146101ea57806316451dc9146102065780632a466bf214610222575b600080fd5b61020460048036038101906101ff91906123b6565b610590565b005b610220600480360381019061021b91906123b6565b6105a2565b005b61023c6004803603810190610237919061225c565b6105c1565b60405161024c9493929190612abf565b60405180910390f35b61026f600480360381019061026a91906121ef565b61061e565b005b61028b60048036038101906102869190612450565b610681565b005b6102a760048036038101906102a291906121ef565b61072b565b6040516102b49190612820565b60405180910390f35b6102d760048036038101906102d291906121ef565b61074b565b005b6102f360048036038101906102ee91906121ef565b6108b0565b005b61030f600480360381019061030a91906123b6565b6108fc565b005b61032b6004803603810190610326919061233c565b61112e565b005b6103356111e1565b6040516103429190612a7b565b60405180910390f35b6103536111e7565b6040516103609190612a7b565b60405180910390f35b610383600480360381019061037e9190612410565b6111ed565b005b61039f600480360381019061039a91906123b6565b611a31565b005b6103bb60048036038101906103b691906123b6565b611a43565b005b6103c5611a55565b6040516103d29190612a7b565b60405180910390f35b6103f560048036038101906103f0919061221c565b611a6c565b005b6103ff611be3565b005b610409611bf7565b6040516104169190612a7b565b60405180910390f35b6104396004803603810190610434919061233c565b611bfd565b005b610443611cb0565b604051610450919061276e565b60405180910390f35b610473600480360381019061046e91906123b6565b611cd9565b005b61047d611d2e565b60405161048a9190612a7b565b60405180910390f35b6104ad60048036038101906104a8919061221c565b611d34565b6040516104bd9493929190612b04565b60405180910390f35b6104e060048036038101906104db91906123b6565b611d81565b005b6104fc60048036038101906104f791906122af565b611d93565b005b610506611e4e565b604051610513919061276e565b60405180910390f35b610524611e74565b6040516105319190612a7b565b60405180910390f35b610554600480360381019061054f91906121ef565b611e7a565b005b610570600480360381019061056b91906121ef565b611efe565b60405161057d9190612a7b565b60405180910390f35b61058e611f16565b005b610598611f4a565b8060088190555050565b6105aa611f4a565b600b54816105b89190612be1565b600c8190555050565b600f60205282600052604060002060205281600052604060002081600381106105e957600080fd5b6004020160009250925050508060000154908060010154908060020154908060030160009054906101000a900460ff16905084565b610626611f4a565b6001601160008373ffffffffffffffffffffffffffffffffffffffff1673ffffffffffffffffffffffffffffffffffffffff16815260200190815260200160002060006101000a81548160ff02191690831515021790555050565b610689611f4a565b600d60019054906101000a900460ff16156106d9576040517f08c379a00000000000000000000000000000000000000000000000000000000081526004016106d09061283b565b60405180910390fd5b84600781905550836008819055508260098190555081600a81905550600b54816107039190612be1565b600c819055506001600d60016101000a81548160ff0219169083151502179055505050505050565b60116020528060005260406000206000915054906101000a900460ff1681565b610753611f4a565b60008173ffffffffffffffffffffffffffffffffffffffff1663a9059cbb338473ffffffffffffffffffffffffffffffffffffffff166370a08231306040518263ffffffff1660e01b81526004016107ab919061276e565b60206040518083038186803b1580156107c357600080fd5b505afa1580156107d7573d6000803e3d6000fd5b505050506040513d601f19601f820116820180604052508101906107fb91906123e3565b6040518363ffffffff1660e01b81526004016108189291906127c0565b602060405180830381600087803b15801561083257600080fd5b505af1158015610846573d6000803e3d6000fd5b505050506040513d601f19601f8201168201806040525081019061086a9190612389565b9050806108ac576040517f08c379a00000000000000000000000000000000000000000000000000000000081526004016108a3906128bb565b60405180910390fd5b5050565b6108b8611f4a565b80600260006101000a81548173ffffffffffffffffffffffffffffffffffffffff021916908373ffffffffffffffffffffffffffffffffffffffff16021790555050565b610904611fc8565b600d60009054906101000a900460ff1615610954576040517f08c379a000000000000000000000000000000000000000000000000000000000815260040161094b9061287b565b60405180910390fd5b600d60019054906101000a900460ff166109a3576040517f08c379a000000000000000000000000000000000000000000000000000000000815260040161099a9061297b565b60405180910390fd5b600081116109e6576040517f08c379a00000000000000000000000000000000000000000000000000000000081526004016109dd906128db565b60405180910390fd5b600d60029054906101000a900460ff1615610a8857601160003373ffffffffffffffffffffffffffffffffffffffff1673ffffffffffffffffffffffffffffffffffffffff16815260200190815260200160002060009054906101000a900460ff16610a87576040517f08c379a0000000000000000000000000000000000000000000000000000000008152600401610a7e906128fb565b60405180910390fd5b5b80600360009054906101000a900473ffffffffffffffffffffffffffffffffffffffff1673ffffffffffffffffffffffffffffffffffffffff166370a08231336040518263ffffffff1660e01b8152600401610ae4919061276e565b60206040518083038186803b158015610afc57600080fd5b505afa158015610b10573d6000803e3d6000fd5b505050506040513d601f19601f82011682018060405250810190610b3491906123e3565b1015610b75576040517f08c379a0000000000000000000000000000000000000000000000000000000008152600401610b6c906129fb565b60405180910390fd5b60006040518060800160405280600081526020016000815260200160008152602001600081525090508181600001818152505060085481600001511115610bf1576040517f08c379a0000000000000000000000000000000000000000000000000000000008152600401610be89061295b565b60405180910390fd5b600754821115610c36576040517f08c379a0000000000000000000000000000000000000000000000000000000008152600401610c2d9061293b565b60405180910390fd5b60075482600654610c479190612b5a565b1115610c88576040517f08c379a0000000000000000000000000000000000000000000000000000000008152600401610c7f90612a5b565b60405180910390fd5b60006009541115610cd957600954821015610cd8576040517f08c379a0000000000000000000000000000000000000000000000000000000008152600401610ccf906129bb565b60405180910390fd5b5b6000600e60003373ffffffffffffffffffffffffffffffffffffffff1673ffffffffffffffffffffffffffffffffffffffff1681526020019081526020016000208054905090506000601e90506000600d905060005b6003811015610e88576002811415610d4657601491505b6000610d726064610d6485896000015161201890919063ffffffff16565b61202e90919063ffffffff16565b90506040518060800160405280610da6610d97600b548861201890919063ffffffff16565b4261204490919063ffffffff16565b815260200182815260200185815260200160001515815250600f60003373ffffffffffffffffffffffffffffffffffffffff1673ffffffffffffffffffffffffffffffffffffffff16815260200190815260200160002060008781526020019081526020016000208360038110610e2057610e1f612d5e565b5b6004020160008201518160000155602082015181600101556040820151816002015560608201518160030160006101000a81548160ff021916908315150217905550905050601e84610e729190612b5a565b9350508080610e8090612cb7565b915050610d2f565b50605a600c54610e989190612be1565b42610ea39190612b5a565b84604001818152505042846020018181525050600e60003373ffffffffffffffffffffffffffffffffffffffff1673ffffffffffffffffffffffffffffffffffffffff1681526020019081526020016000208490806001815401808255809150506001900390600052602060002090600402016000909190919091506000820151816000015560208201518160010155604082015181600201556060820151816003015550503373ffffffffffffffffffffffffffffffffffffffff167f0b05f0d1cd0819f155b8a61f60baf7767c1ee49d04aeaab701df236140eb93f98685604051610f91929190612a96565b60405180910390a2601060003373ffffffffffffffffffffffffffffffffffffffff1673ffffffffffffffffffffffffffffffffffffffff1681526020019081526020016000206000815480929190610fe990612cb7565b919050555084600660008282546110009190612b5a565b925050819055506000600360009054906101000a900473ffffffffffffffffffffffffffffffffffffffff1673ffffffffffffffffffffffffffffffffffffffff166323b872dd33600260009054906101000a900473ffffffffffffffffffffffffffffffffffffffff16896040518463ffffffff1660e01b815260040161108a93929190612789565b602060405180830381600087803b1580156110a457600080fd5b505af11580156110b8573d6000803e3d6000fd5b505050506040513d601f19601f820116820180604052508101906110dc9190612389565b90508061111e576040517f08c379a0000000000000000000000000000000000000000000000000000000008152600401611115906128bb565b60405180910390fd5b505050505061112b61205a565b50565b611136611f4a565b60005b828290508110156111dc57600083838381811061115957611158612d5e565b5b905060200201602081019061116e91906121ef565b90506000601160008373ffffffffffffffffffffffffffffffffffffffff1673ffffffffffffffffffffffffffffffffffffffff16815260200190815260200160002060006101000a81548160ff0219169083151502179055505080806111d490612cb7565b915050611139565b505050565b600a5481565b60085481565b6111f5611fc8565b600d60009054906101000a900460ff1615611245576040517f08c379a000000000000000000000000000000000000000000000000000000000815260040161123c9061287b565b60405180910390fd5b600d60019054906101000a900460ff16611294576040517f08c379a000000000000000000000000000000000000000000000000000000000815260040161128b9061297b565b60405180910390fd5b6000600e60003373ffffffffffffffffffffffffffffffffffffffff1673ffffffffffffffffffffffffffffffffffffffff16815260200190815260200160002083815481106112e7576112e6612d5e565b5b90600052602060002090600402016000015411611339576040517f08c379a0000000000000000000000000000000000000000000000000000000008152600401611330906129db565b60405180910390fd5b6000600e60003373ffffffffffffffffffffffffffffffffffffffff1673ffffffffffffffffffffffffffffffffffffffff168152602001908152602001600020838154811061138c5761138b612d5e565b5b906000526020600020906004020160405180608001604052908160008201548152602001600182015481526020016002820154815260200160038201548152505090506000816000015111611416576040517f08c379a000000000000000000000000000000000000000000000000000000000815260040161140d9061291b565b60405180910390fd5b6000600f60003373ffffffffffffffffffffffffffffffffffffffff1673ffffffffffffffffffffffffffffffffffffffff1681526020019081526020016000206000858152602001908152602001600020836003811061147a57611479612d5e565b5b600402016040518060800160405290816000820154815260200160018201548152602001600282015481526020016003820160009054906101000a900460ff161515151581525050905060008260200151426114d69190612c3b565b90506000601e83604001511480156114f057508260600151155b80156114ff5750428360000151115b156115e55782602001519050604051806080016040528084600001518152602001846020015181526020016000815260200160011515815250600f60003373ffffffffffffffffffffffffffffffffffffffff1673ffffffffffffffffffffffffffffffffffffffff168152602001908152602001600020600088815260200190815260200160002060006003811061159b5761159a612d5e565b5b6004020160008201518160000155602082015181600101556040820151816002015560608201518160030160006101000a81548160ff021916908315150217905550905050611852565b603c83604001511480156115fb57508260600151155b801561160a5750428360000151115b156116f05782602001519050604051806080016040528084600001518152602001846020015181526020016000815260200160011515815250600f60003373ffffffffffffffffffffffffffffffffffffffff1673ffffffffffffffffffffffffffffffffffffffff16815260200190815260200160002060008881526020019081526020016000206001600381106116a6576116a5612d5e565b5b6004020160008201518160000155602082015181600101556040820151816002015560608201518160030160006101000a81548160ff021916908315150217905550905050611851565b605a82106118155782602001519050604051806080016040528084600001518152602001846020015181526020016000815260200160011515815250600f60003373ffffffffffffffffffffffffffffffffffffffff1673ffffffffffffffffffffffffffffffffffffffff168152602001908152602001600020600088815260200190815260200160002060026003811061178f5761178e612d5e565b5b6004020160008201518160000155602082015181600101556040820151816002015560608201518160030160006101000a81548160ff0219169083151502179055509050506117ed846000015160065461206390919063ffffffff16565b6006819055508360000151816118039190612b5a565b90506000846000018181525050611850565b6040517f08c379a00000000000000000000000000000000000000000000000000000000081526004016118479061285b565b60405180910390fd5b5b5b3373ffffffffffffffffffffffffffffffffffffffff167f2d4d49c3e017b8235c908cbaa83a2431a08f3b950712696ece2088964fd399f0828860405161189a929190612a96565b60405180910390a283600e60003373ffffffffffffffffffffffffffffffffffffffff1673ffffffffffffffffffffffffffffffffffffffff16815260200190815260200160002087815481106118f4576118f3612d5e565b5b9060005260206000209060040201600082015181600001556020820151816001015560408201518160020155606082015181600301559050506000600360009054906101000a900473ffffffffffffffffffffffffffffffffffffffff1673ffffffffffffffffffffffffffffffffffffffff1663a9059cbb33846040518363ffffffff1660e01b815260040161198c9291906127c0565b602060405180830381600087803b1580156119a657600080fd5b505af11580156119ba573d6000803e3d6000fd5b505050506040513d601f19601f820116820180604052508101906119de9190612389565b905080611a20576040517f08c379a0000000000000000000000000000000000000000000000000000000008152600401611a17906128bb565b60405180910390fd5b5050505050611a2d61205a565b5050565b611a39611f4a565b8060078190555050565b611a4b611f4a565b8060068190555050565b6000600b54600c54611a679190612bb0565b905090565b611a74611f4a565b6000600e60008473ffffffffffffffffffffffffffffffffffffffff1673ffffffffffffffffffffffffffffffffffffffff1681526020019081526020016000208281548110611ac757611ac6612d5e565b5b906000526020600020906004020160405180608001604052908160008201548152602001600182015481526020016002820154815260200160038201548152505090504281604001818152505080600e60008573ffffffffffffffffffffffffffffffffffffffff1673ffffffffffffffffffffffffffffffffffffffff1681526020019081526020016000208381548110611b6657611b65612d5e565b5b9060005260206000209060040201600082015181600001556020820151816001015560408201518160020155606082015181600301559050507fb79cc8bc32f75c57b53b9fe33ff31302d8befe74ba35a51afd8ebb6da0bf668483826040015142604051611bd6939291906127e9565b60405180910390a1505050565b611beb611f4a565b611bf56000612079565b565b60065481565b611c05611f4a565b60005b82829050811015611cab576000838383818110611c2857611c27612d5e565b5b9050602002016020810190611c3d91906121ef565b90506001601160008373ffffffffffffffffffffffffffffffffffffffff1673ffffffffffffffffffffffffffffffffffffffff16815260200190815260200160002060006101000a81548160ff021916908315150217905550508080611ca390612cb7565b915050611c08565b505050565b60008060009054906101000a900473ffffffffffffffffffffffffffffffffffffffff16905090565b611ce1611f4a565b60008111611d24576040517f08c379a0000000000000000000000000000000000000000000000000000000008152600401611d1b90612a1b565b60405180910390fd5b80600a8190555050565b60075481565b600e6020528160005260406000208181548110611d5057600080fd5b9060005260206000209060040201600091509150508060000154908060010154908060020154908060030154905084565b611d89611f4a565b8060098190555050565b611d9b611f4a565b604051806080016040528085815260200184815260200183815260200182815250600e60008873ffffffffffffffffffffffffffffffffffffffff1673ffffffffffffffffffffffffffffffffffffffff1681526020019081526020016000208681548110611e0d57611e0c612d5e565b5b906000526020600020906004020160008201518160000155602082015181600101556040820151816002015560608201518160030155905050505050505050565b600260009054906101000a900473ffffffffffffffffffffffffffffffffffffffff1681565b60095481565b611e82611f4a565b600073ffffffffffffffffffffffffffffffffffffffff168173ffffffffffffffffffffffffffffffffffffffff161415611ef2576040517f08c379a0000000000000000000000000000000000000000000000000000000008152600401611ee99061289b565b60405180910390fd5b611efb81612079565b50565b60106020528060005260406000206000915090505481565b611f1e611f4a565b600d60009054906101000a900460ff1615600d60006101000a81548160ff021916908315150217905550565b611f5261213d565b73ffffffffffffffffffffffffffffffffffffffff16611f70611cb0565b73ffffffffffffffffffffffffffffffffffffffff1614611fc6576040517f08c379a0000000000000000000000000000000000000000000000000000000008152600401611fbd9061299b565b60405180910390fd5b565b6002600154141561200e576040517f08c379a000000000000000000000000000000000000000000000000000000000815260040161200590612a3b565b60405180910390fd5b6002600181905550565b600081836120269190612be1565b905092915050565b6000818361203c9190612bb0565b905092915050565b600081836120529190612b5a565b905092915050565b60018081905550565b600081836120719190612c3b565b905092915050565b60008060009054906101000a900473ffffffffffffffffffffffffffffffffffffffff169050816000806101000a81548173ffffffffffffffffffffffffffffffffffffffff021916908373ffffffffffffffffffffffffffffffffffffffff1602179055508173ffffffffffffffffffffffffffffffffffffffff168173ffffffffffffffffffffffffffffffffffffffff167f8be0079c531659141344cd1fd0a4f28419497f9722a3daafe3b4186f6b6457e060405160405180910390a35050565b600033905090565b60008135905061215481613120565b92915050565b60008083601f8401126121705761216f612d92565b5b8235905067ffffffffffffffff81111561218d5761218c612d8d565b5b6020830191508360208202830111156121a9576121a8612d97565b5b9250929050565b6000815190506121bf81613137565b92915050565b6000813590506121d48161314e565b92915050565b6000815190506121e98161314e565b92915050565b60006020828403121561220557612204612da1565b5b600061221384828501612145565b91505092915050565b6000806040838503121561223357612232612da1565b5b600061224185828601612145565b9250506020612252858286016121c5565b9150509250929050565b60008060006060848603121561227557612274612da1565b5b600061228386828701612145565b9350506020612294868287016121c5565b92505060406122a5868287016121c5565b9150509250925092565b60008060008060008060c087890312156122cc576122cb612da1565b5b60006122da89828a01612145565b96505060206122eb89828a016121c5565b95505060406122fc89828a016121c5565b945050606061230d89828a016121c5565b935050608061231e89828a016121c5565b92505060a061232f89828a016121c5565b9150509295509295509295565b6000806020838503121561235357612352612da1565b5b600083013567ffffffffffffffff81111561237157612370612d9c565b5b61237d8582860161215a565b92509250509250929050565b60006020828403121561239f5761239e612da1565b5b60006123ad848285016121b0565b91505092915050565b6000602082840312156123cc576123cb612da1565b5b60006123da848285016121c5565b91505092915050565b6000602082840312156123f9576123f8612da1565b5b6000612407848285016121da565b91505092915050565b6000806040838503121561242757612426612da1565b5b6000612435858286016121c5565b9250506020612446858286016121c5565b9150509250929050565b600080600080600060a0868803121561246c5761246b612da1565b5b600061247a888289016121c5565b955050602061248b888289016121c5565b945050604061249c888289016121c5565b93505060606124ad888289016121c5565b92505060806124be888289016121c5565b9150509295509295909350565b6124d481612c6f565b82525050565b6124e381612c81565b82525050565b60006124f6601983612b49565b915061250182612da6565b602082019050919050565b6000612519602b83612b49565b915061252482612dcf565b604082019050919050565b600061253c600b83612b49565b915061254782612e1e565b602082019050919050565b600061255f602683612b49565b915061256a82612e47565b604082019050919050565b6000612582600f83612b49565b915061258d82612e96565b602082019050919050565b60006125a5602083612b49565b91506125b082612ebf565b602082019050919050565b60006125c8601883612b49565b91506125d382612ee8565b602082019050919050565b60006125eb603383612b49565b91506125f682612f11565b604082019050919050565b600061260e601383612b49565b915061261982612f60565b602082019050919050565b6000612631601383612b49565b915061263c82612f89565b602082019050919050565b6000612654601783612b49565b915061265f82612fb2565b602082019050919050565b6000612677602083612b49565b915061268282612fdb565b602082019050919050565b600061269a602683612b49565b91506126a582613004565b604082019050919050565b60006126bd601683612b49565b91506126c882613053565b602082019050919050565b60006126e0601383612b49565b91506126eb8261307c565b602082019050919050565b6000612703601783612b49565b915061270e826130a5565b602082019050919050565b6000612726601f83612b49565b9150612731826130ce565b602082019050919050565b6000612749601b83612b49565b9150612754826130f7565b602082019050919050565b61276881612cad565b82525050565b600060208201905061278360008301846124cb565b92915050565b600060608201905061279e60008301866124cb565b6127ab60208301856124cb565b6127b8604083018461275f565b949350505050565b60006040820190506127d560008301856124cb565b6127e2602083018461275f565b9392505050565b60006060820190506127fe60008301866124cb565b61280b602083018561275f565b612818604083018461275f565b949350505050565b600060208201905061283560008301846124da565b92915050565b60006020820190508181036000830152612854816124e9565b9050919050565b600060208201905081810360008301526128748161250c565b9050919050565b600060208201905081810360008301526128948161252f565b9050919050565b600060208201905081810360008301526128b481612552565b9050919050565b600060208201905081810360008301526128d481612575565b9050919050565b600060208201905081810360008301526128f481612598565b9050919050565b60006020820190508181036000830152612914816125bb565b9050919050565b60006020820190508181036000830152612934816125de565b9050919050565b6000602082019050818103600083015261295481612601565b9050919050565b6000602082019050818103600083015261297481612624565b9050919050565b6000602082019050818103600083015261299481612647565b9050919050565b600060208201905081810360008301526129b48161266a565b9050919050565b600060208201905081810360008301526129d48161268d565b9050919050565b600060208201905081810360008301526129f4816126b0565b9050919050565b60006020820190508181036000830152612a14816126d3565b9050919050565b60006020820190508181036000830152612a34816126f6565b9050919050565b60006020820190508181036000830152612a5481612719565b9050919050565b60006020820190508181036000830152612a748161273c565b9050919050565b6000602082019050612a90600083018461275f565b92915050565b6000604082019050612aab600083018561275f565b612ab8602083018461275f565b9392505050565b6000608082019050612ad4600083018761275f565b612ae1602083018661275f565b612aee604083018561275f565b612afb60608301846124da565b95945050505050565b6000608082019050612b19600083018761275f565b612b26602083018661275f565b612b33604083018561275f565b612b40606083018461275f565b95945050505050565b600082825260208201905092915050565b6000612b6582612cad565b9150612b7083612cad565b9250827fffffffffffffffffffffffffffffffffffffffffffffffffffffffffffffffff03821115612ba557612ba4612d00565b5b828201905092915050565b6000612bbb82612cad565b9150612bc683612cad565b925082612bd657612bd5612d2f565b5b828204905092915050565b6000612bec82612cad565b9150612bf783612cad565b9250817fffffffffffffffffffffffffffffffffffffffffffffffffffffffffffffffff0483118215151615612c3057612c2f612d00565b5b828202905092915050565b6000612c4682612cad565b9150612c5183612cad565b925082821015612c6457612c63612d00565b5b828203905092915050565b6000612c7a82612c8d565b9050919050565b60008115159050919050565b600073ffffffffffffffffffffffffffffffffffffffff82169050919050565b6000819050919050565b6000612cc282612cad565b91507fffffffffffffffffffffffffffffffffffffffffffffffffffffffffffffffff821415612cf557612cf4612d00565b5b600182019050919050565b7f4e487b7100000000000000000000000000000000000000000000000000000000600052601160045260246000fd5b7f4e487b7100000000000000000000000000000000000000000000000000000000600052601260045260246000fd5b7f4e487b7100000000000000000000000000000000000000000000000000000000600052603260045260246000fd5b600080fd5b600080fd5b600080fd5b600080fd5b600080fd5b7f506f6f6c20686173206265656e20696e697469616c697a656400000000000000600082015250565b7f5769746864726177616c206f6e6c7920616c6c6f776564206f6e20646179203360008201527f302c203630206f72203930000000000000000000000000000000000000000000602082015250565b7f506175736564204561726e000000000000000000000000000000000000000000600082015250565b7f4f776e61626c653a206e6577206f776e657220697320746865207a65726f206160008201527f6464726573730000000000000000000000000000000000000000000000000000602082015250565b7f5472616e73666572206661696c65640000000000000000000000000000000000600082015250565b7f416d6f756e74206d7573742062652067726561746572207468616e207a65726f600082015250565b7f596f7520617265206e6f7420696e2077686974656c6973740000000000000000600082015250565b7f596f75206861766520616c72656164792077697468647261776e20796f75722060008201527f6361706974616c20616e642070726f6669747300000000000000000000000000602082015250565b7f506f6f6c206c696d697420657863656564656400000000000000000000000000600082015250565b7f55736572206c696d697420657863656564656400000000000000000000000000600082015250565b7f506f6f6c206973206e6f7420696e697469616c697a6564000000000000000000600082015250565b7f4f776e61626c653a2063616c6c6572206973206e6f7420746865206f776e6572600082015250565b7f496e73756666696369656e7420616d6f756e742c206c657373207468616e206d60008201527f696e696d756d0000000000000000000000000000000000000000000000000000602082015250565b7f4465706f73697420646f6573206e6f7420657869737400000000000000000000600082015250565b7f496e73756666696369656e7420616d6f756e7400000000000000000000000000600082015250565b7f746865206e756d626572207468616e2067726561742030000000000000000000600082015250565b7f5265656e7472616e637947756172643a207265656e7472616e742063616c6c00600082015250565b7f506f6f6c206c696d697420686173206265656e20726561636865640000000000600082015250565b61312981612c6f565b811461313457600080fd5b50565b61314081612c81565b811461314b57600080fd5b50565b61315781612cad565b811461316257600080fd5b5056fea2646970667358221220c28d30416496b0d55ab08dc5cdcdec050f3b82f8ee3a94b9897e054efc1666ce64736f6c63430008050033",
  "linkReferences": {},
  "deployedLinkReferences": {}
}