{
  "_format": "hh-sol-artifact-1",
  "contractName": "EARNPRIVATE",
  "sourceName": "contracts/Earnv3.sol",
  "abi": [
    {
      "inputs": [
        {
          "internalType": "address",
          "name": "_walletPool",
          "type": "address"
        },
        {
          "internalType": "address",
          "name": "_TokenRecibe",
          "type": "address"
        },
        {
          "internalType": "bool",
          "name": "_whiteListed",
          "type": "bool"
        }
      ],
      "stateMutability": "nonpayable",
      "type": "constructor"
    },
    {
      "anonymous": false,
      "inputs": [
        {
          "indexed": true,
          "internalType": "address",
          "name": "user",
          "type": "address"
        },
        {
          "indexed": false,
          "internalType": "uint256",
          "name": "amount",
          "type": "uint256"
        },
        {
          "indexed": false,
          "internalType": "uint256",
          "name": "depositId",
          "type": "uint256"
        }
      ],
      "name": "DepositMade",
      "type": "event"
    },
    {
      "anonymous": false,
      "inputs": [
        {
          "indexed": true,
          "internalType": "address",
          "name": "previousOwner",
          "type": "address"
        },
        {
          "indexed": true,
          "internalType": "address",
          "name": "newOwner",
          "type": "address"
        }
      ],
      "name": "OwnershipTransferred",
      "type": "event"
    },
    {
      "anonymous": false,
      "inputs": [
        {
          "indexed": true,
          "internalType": "address",
          "name": "user",
          "type": "address"
        },
        {
          "indexed": false,
          "internalType": "uint256",
          "name": "amount",
          "type": "uint256"
        },
        {
          "indexed": false,
          "internalType": "uint256",
          "name": "depositId",
          "type": "uint256"
        }
      ],
      "name": "WithdrawalMade",
      "type": "event"
    },
    {
      "anonymous": false,
      "inputs": [
        {
          "indexed": false,
          "internalType": "address",
          "name": "user",
          "type": "address"
        },
        {
          "indexed": false,
          "internalType": "uint256",
          "name": "from",
          "type": "uint256"
        },
        {
          "indexed": false,
          "internalType": "uint256",
          "name": "to",
          "type": "uint256"
        }
      ],
      "name": "earlyClaim",
      "type": "event"
    },
    {
      "inputs": [
        {
          "internalType": "uint256",
          "name": "_days",
          "type": "uint256"
        }
      ],
      "name": "ChangeDays",
      "outputs": [],
      "stateMutability": "nonpayable",
      "type": "function"
    },
    {
      "inputs": [
        {
          "internalType": "uint256",
          "name": "_amount",
          "type": "uint256"
        }
      ],
      "name": "ChangeLimitAmount",
      "outputs": [],
      "stateMutability": "nonpayable",
      "type": "function"
    },
    {
      "inputs": [
        {
          "internalType": "uint256",
          "name": "_amount",
          "type": "uint256"
        }
      ],
      "name": "ChangeMaxAmount",
      "outputs": [],
      "stateMutability": "nonpayable",
      "type": "function"
    },
    {
      "inputs": [
        {
          "internalType": "uint256",
          "name": "_amount",
          "type": "uint256"
        }
      ],
      "name": "ChangeMinAmount",
      "outputs": [],
      "stateMutability": "nonpayable",
      "type": "function"
    },
    {
      "inputs": [
        {
          "internalType": "uint256",
          "name": "_percent",
          "type": "uint256"
        }
      ],
      "name": "ChangePercent",
      "outputs": [],
      "stateMutability": "nonpayable",
      "type": "function"
    },
    {
      "inputs": [
        {
          "internalType": "uint256",
          "name": "_recolect",
          "type": "uint256"
        }
      ],
      "name": "ChangeRecolect",
      "outputs": [],
      "stateMutability": "nonpayable",
      "type": "function"
    },
    {
      "inputs": [
        {
          "internalType": "address",
          "name": "_wallet",
          "type": "address"
        }
      ],
      "name": "ChangeWalletRecibe",
      "outputs": [],
      "stateMutability": "nonpayable",
      "type": "function"
    },
    {
      "inputs": [
        {
          "internalType": "uint256",
          "name": "_amount",
          "type": "uint256"
        }
      ],
      "name": "Deposit",
      "outputs": [],
      "stateMutability": "nonpayable",
      "type": "function"
    },
    {
      "inputs": [
        {
          "internalType": "address",
          "name": "_user",
          "type": "address"
        },
        {
          "internalType": "uint256",
          "name": "_depositId",
          "type": "uint256"
        }
      ],
      "name": "EarlyClaim",
      "outputs": [],
      "stateMutability": "nonpayable",
      "type": "function"
    },
    {
      "inputs": [
        {
          "internalType": "uint256",
          "name": "_depositId",
          "type": "uint256"
        }
      ],
      "name": "EarnDeposit",
      "outputs": [],
      "stateMutability": "nonpayable",
      "type": "function"
    },
    {
      "inputs": [
        {
          "internalType": "uint256",
          "name": "_limit",
          "type": "uint256"
        },
        {
          "internalType": "uint256",
          "name": "_maxAmount",
          "type": "uint256"
        },
        {
          "internalType": "uint256",
          "name": "_minAmount",
          "type": "uint256"
        },
        {
          "internalType": "uint256",
          "name": "_percent",
          "type": "uint256"
        },
        {
          "internalType": "uint256",
          "name": "_days",
          "type": "uint256"
        }
      ],
      "name": "Initialized",
      "outputs": [],
      "stateMutability": "nonpayable",
      "type": "function"
    },
    {
      "inputs": [],
      "name": "MaxAmount",
      "outputs": [
        {
          "internalType": "uint256",
          "name": "",
          "type": "uint256"
        }
      ],
      "stateMutability": "view",
      "type": "function"
    },
    {
      "inputs": [
        {
          "internalType": "address",
          "name": "_user",
          "type": "address"
        },
        {
          "internalType": "uint256",
          "name": "_depositId",
          "type": "uint256"
        },
        {
          "internalType": "uint256",
          "name": "_amount",
          "type": "uint256"
        },
        {
          "internalType": "uint256",
          "name": "_initTime",
          "type": "uint256"
        },
        {
          "internalType": "uint256",
          "name": "_finishTime",
          "type": "uint256"
        },
        {
          "internalType": "uint256",
          "name": "_earn",
          "type": "uint256"
        }
      ],
      "name": "Migration",
      "outputs": [],
      "stateMutability": "nonpayable",
      "type": "function"
    },
    {
      "inputs": [],
      "name": "MinAmount",
      "outputs": [
        {
          "internalType": "uint256",
          "name": "",
          "type": "uint256"
        }
      ],
      "stateMutability": "view",
      "type": "function"
    },
    {
      "inputs": [],
      "name": "PercentEarn",
      "outputs": [
        {
          "internalType": "uint256",
          "name": "",
          "type": "uint256"
        }
      ],
      "stateMutability": "view",
      "type": "function"
    },
    {
      "inputs": [
        {
          "internalType": "address",
          "name": "_tokens",
          "type": "address"
        }
      ],
      "name": "RecoverTokens",
      "outputs": [],
      "stateMutability": "nonpayable",
      "type": "function"
    },
    {
      "inputs": [],
      "name": "ViewDay",
      "outputs": [
        {
          "internalType": "uint256",
          "name": "",
          "type": "uint256"
        }
      ],
      "stateMutability": "view",
      "type": "function"
    },
    {
      "inputs": [
        {
          "internalType": "address[]",
          "name": "addresses",
          "type": "address[]"
        }
      ],
      "name": "addToWhitelist",
      "outputs": [],
      "stateMutability": "nonpayable",
      "type": "function"
    },
    {
      "inputs": [
        {
          "internalType": "address",
          "name": "_wallet",
          "type": "address"
        }
      ],
      "name": "addUserWhiteList",
      "outputs": [],
      "stateMutability": "nonpayable",
      "type": "function"
    },
    {
      "inputs": [
        {
          "internalType": "address",
          "name": "",
          "type": "address"
        },
        {
          "internalType": "uint256",
          "name": "",
          "type": "uint256"
        }
      ],
      "name": "balanceUser",
      "outputs": [
        {
          "internalType": "uint256",
          "name": "Amount",
          "type": "uint256"
        },
        {
          "internalType": "uint256",
          "name": "initTime",
          "type": "uint256"
        },
        {
          "internalType": "uint256",
          "name": "finishTime",
          "type": "uint256"
        },
        {
          "internalType": "uint256",
          "name": "Earn",
          "type": "uint256"
        }
      ],
      "stateMutability": "view",
      "type": "function"
    },
    {
      "inputs": [
        {
          "internalType": "address",
          "name": "",
          "type": "address"
        }
      ],
      "name": "depositCount",
      "outputs": [
        {
          "internalType": "uint256",
          "name": "",
          "type": "uint256"
        }
      ],
      "stateMutability": "view",
      "type": "function"
    },
    {
      "inputs": [],
      "name": "limit",
      "outputs": [
        {
          "internalType": "uint256",
          "name": "",
          "type": "uint256"
        }
      ],
      "stateMutability": "view",
      "type": "function"
    },
    {
      "inputs": [],
      "name": "lock",
      "outputs": [],
      "stateMutability": "nonpayable",
      "type": "function"
    },
    {
      "inputs": [],
      "name": "owner",
      "outputs": [
        {
          "internalType": "address",
          "name": "",
          "type": "address"
        }
      ],
      "stateMutability": "view",
      "type": "function"
    },
    {
      "inputs": [],
      "name": "recolect",
      "outputs": [
        {
          "internalType": "uint256",
          "name": "",
          "type": "uint256"
        }
      ],
      "stateMutability": "view",
      "type": "function"
    },
    {
      "inputs": [
        {
          "internalType": "address[]",
          "name": "addresses",
          "type": "address[]"
        }
      ],
      "name": "removeFromWhitelist",
      "outputs": [],
      "stateMutability": "nonpayable",
      "type": "function"
    },
    {
      "inputs": [],
      "name": "renounceOwnership",
      "outputs": [],
      "stateMutability": "nonpayable",
      "type": "function"
    },
    {
      "inputs": [
        {
          "internalType": "address",
          "name": "newOwner",
          "type": "address"
        }
      ],
      "name": "transferOwnership",
      "outputs": [],
      "stateMutability": "nonpayable",
      "type": "function"
    },
    {
      "inputs": [],
      "name": "walletPool",
      "outputs": [
        {
          "internalType": "address",
          "name": "",
          "type": "address"
        }
      ],
      "stateMutability": "view",
      "type": "function"
    },
    {
      "inputs": [
        {
          "internalType": "address",
          "name": "",
          "type": "address"
        }
      ],
      "name": "whiteList",
      "outputs": [
        {
          "internalType": "bool",
          "name": "",
          "type": "bool"
        }
      ],
      "stateMutability": "view",
      "type": "function"
    }
  ],
  "bytecode": "0x608060405262015180600b553480156200001857600080fd5b5060405162002d9a38038062002d9a83398181016040528101906200003e919062000204565b6200005e620000526200010a60201b60201c565b6200011260201b60201c565b6001808190555082600260006101000a81548173ffffffffffffffffffffffffffffffffffffffff021916908373ffffffffffffffffffffffffffffffffffffffff16021790555081600360006101000a81548173ffffffffffffffffffffffffffffffffffffffff021916908373ffffffffffffffffffffffffffffffffffffffff16021790555080600d60026101000a81548160ff021916908315150217905550505050620002d9565b600033905090565b60008060009054906101000a900473ffffffffffffffffffffffffffffffffffffffff169050816000806101000a81548173ffffffffffffffffffffffffffffffffffffffff021916908373ffffffffffffffffffffffffffffffffffffffff1602179055508173ffffffffffffffffffffffffffffffffffffffff168173ffffffffffffffffffffffffffffffffffffffff167f8be0079c531659141344cd1fd0a4f28419497f9722a3daafe3b4186f6b6457e060405160405180910390a35050565b600081519050620001e781620002a5565b92915050565b600081519050620001fe81620002bf565b92915050565b60008060006060848603121562000220576200021f620002a0565b5b60006200023086828701620001d6565b93505060206200024386828701620001d6565b92505060406200025686828701620001ed565b9150509250925092565b60006200026d8262000280565b9050919050565b60008115159050919050565b600073ffffffffffffffffffffffffffffffffffffffff82169050919050565b600080fd5b620002b08162000260565b8114620002bc57600080fd5b50565b620002ca8162000274565b8114620002d657600080fd5b50565b612ab180620002e96000396000f3fe608060405234801561001057600080fd5b50600436106101da5760003560e01c8063715018a611610104578063bb1711a6116100a2578063ec65240611610071578063ec652406146104de578063f2fde38b146104fc578063f4443d9a14610518578063f83d08ba14610548576101da565b8063bb1711a61461046c578063bdcbd5a914610488578063c760dad5146104a4578063e5c154f1146104c0576101da565b80638da5cb5b116100de5780638da5cb5b146103e157806397a64101146103ff578063a4d66daf1461041b578063b8d25a4314610439576101da565b8063715018a61461039d5780637586c414146103a75780637f649783146103c5576101da565b80634d6ce1e51161017c5780636b68f8101161014b5780636b68f8101461032b5780636ff8f8c2146103475780636ffe7bbe14610363578063714a2b9014610381576101da565b80634d6ce1e5146102b7578063548db174146102d357806354f3a6e0146102ef57806360a810021461030d576101da565b80633366bff9116101b85780633366bff914610233578063372c12b11461024f578063478b0f871461027f57806347afd82f1461029b576101da565b806313cad1d1146101df57806316451dc9146101fb5780632a8a993814610217575b600080fd5b6101f960048036038101906101f49190611dbd565b610552565b005b61021560048036038101906102109190611dbd565b610564565b005b610231600480360381019061022c9190611c49565b610583565b005b61024d60048036038101906102489190611e17565b6105e6565b005b61026960048036038101906102649190611c49565b610690565b60405161027691906121c4565b60405180910390f35b61029960048036038101906102949190611c49565b6106b0565b005b6102b560048036038101906102b09190611c49565b6107d1565b005b6102d160048036038101906102cc9190611dbd565b61081d565b005b6102ed60048036038101906102e89190611d43565b610eae565b005b6102f7610f61565b60405161030491906123ff565b60405180910390f35b610315610f67565b60405161032291906123ff565b60405180910390f35b61034560048036038101906103409190611dbd565b610f6d565b005b610361600480360381019061035c9190611dbd565b610f7f565b005b61036b610f91565b60405161037891906123ff565b60405180910390f35b61039b60048036038101906103969190611c76565b610fa8565b005b6103a561111f565b005b6103af611133565b6040516103bc91906123ff565b60405180910390f35b6103df60048036038101906103da9190611d43565b611139565b005b6103e96111ec565b6040516103f69190612112565b60405180910390f35b61041960048036038101906104149190611dbd565b611215565b005b61042361126a565b60405161043091906123ff565b60405180910390f35b610453600480360381019061044e9190611c76565b611270565b6040516104639493929190612443565b60405180910390f35b61048660048036038101906104819190611dbd565b6112bd565b005b6104a2600480360381019061049d9190611cb6565b6112cf565b005b6104be60048036038101906104b99190611dbd565b61138a565b005b6104c8611896565b6040516104d59190612112565b60405180910390f35b6104e66118bc565b6040516104f391906123ff565b60405180910390f35b61051660048036038101906105119190611c49565b6118c2565b005b610532600480360381019061052d9190611c49565b611946565b60405161053f91906123ff565b60405180910390f35b61055061195e565b005b61055a611992565b8060088190555050565b61056c611992565b600b548161057a9190612520565b600c8190555050565b61058b611992565b6001601060008373ffffffffffffffffffffffffffffffffffffffff1673ffffffffffffffffffffffffffffffffffffffff16815260200190815260200160002060006101000a81548160ff02191690831515021790555050565b6105ee611992565b600d60019054906101000a900460ff161561063e576040517f08c379a0000000000000000000000000000000000000000000000000000000008152600401610635906121df565b60405180910390fd5b84600781905550836008819055508260098190555081600a81905550600b54816106689190612520565b600c819055506001600d60016101000a81548160ff0219169083151502179055505050505050565b60106020528060005260406000206000915054906101000a900460ff1681565b6106b8611992565b8073ffffffffffffffffffffffffffffffffffffffff1663a9059cbb338373ffffffffffffffffffffffffffffffffffffffff166370a08231306040518263ffffffff1660e01b815260040161070e9190612112565b60206040518083038186803b15801561072657600080fd5b505afa15801561073a573d6000803e3d6000fd5b505050506040513d601f19601f8201168201806040525081019061075e9190611dea565b6040518363ffffffff1660e01b815260040161077b929190612164565b602060405180830381600087803b15801561079557600080fd5b505af11580156107a9573d6000803e3d6000fd5b505050506040513d601f19601f820116820180604052508101906107cd9190611d90565b5050565b6107d9611992565b80600260006101000a81548173ffffffffffffffffffffffffffffffffffffffff021916908373ffffffffffffffffffffffffffffffffffffffff16021790555050565b610825611a10565b600d60009054906101000a900460ff1615610875576040517f08c379a000000000000000000000000000000000000000000000000000000000815260040161086c9061221f565b60405180910390fd5b600d60019054906101000a900460ff166108c4576040517f08c379a00000000000000000000000000000000000000000000000000000000081526004016108bb906122ff565b60405180910390fd5b60008111610907576040517f08c379a00000000000000000000000000000000000000000000000000000000081526004016108fe9061225f565b60405180910390fd5b600d60029054906101000a900460ff16156109a957601060003373ffffffffffffffffffffffffffffffffffffffff1673ffffffffffffffffffffffffffffffffffffffff16815260200190815260200160002060009054906101000a900460ff166109a8576040517f08c379a000000000000000000000000000000000000000000000000000000000815260040161099f9061227f565b60405180910390fd5b5b80600360009054906101000a900473ffffffffffffffffffffffffffffffffffffffff1673ffffffffffffffffffffffffffffffffffffffff166370a08231336040518263ffffffff1660e01b8152600401610a059190612112565b60206040518083038186803b158015610a1d57600080fd5b505afa158015610a31573d6000803e3d6000fd5b505050506040513d601f19601f82011682018060405250810190610a559190611dea565b1015610a96576040517f08c379a0000000000000000000000000000000000000000000000000000000008152600401610a8d9061237f565b60405180910390fd5b610a9e611b77565b8181600001818152505060085481600001511115610af1576040517f08c379a0000000000000000000000000000000000000000000000000000000008152600401610ae8906122df565b60405180910390fd5b600754821115610b36576040517f08c379a0000000000000000000000000000000000000000000000000000000008152600401610b2d906122bf565b60405180910390fd5b60075482600654610b479190612499565b1115610b88576040517f08c379a0000000000000000000000000000000000000000000000000000000008152600401610b7f906123df565b60405180910390fd5b60006009541115610bd957600954821015610bd8576040517f08c379a0000000000000000000000000000000000000000000000000000000008152600401610bcf9061233f565b60405180910390fd5b5b6000610c076064610bf9600a548560000151611a6090919063ffffffff16565b611a7690919063ffffffff16565b905080826060018181525050600c5442610c219190612499565b826040018181525050428260200181815250506000600e60003373ffffffffffffffffffffffffffffffffffffffff1673ffffffffffffffffffffffffffffffffffffffff168152602001908152602001600020805490509050600e60003373ffffffffffffffffffffffffffffffffffffffff1673ffffffffffffffffffffffffffffffffffffffff1681526020019081526020016000208390806001815401808255809150506001900390600052602060002090600402016000909190919091506000820151816000015560208201518160010155604082015181600201556060820151816003015550503373ffffffffffffffffffffffffffffffffffffffff167f0b05f0d1cd0819f155b8a61f60baf7767c1ee49d04aeaab701df236140eb93f98583604051610d5692919061241a565b60405180910390a2600f60003373ffffffffffffffffffffffffffffffffffffffff1673ffffffffffffffffffffffffffffffffffffffff1681526020019081526020016000206000815480929190610dae906125f6565b91905055508360066000828254610dc59190612499565b92505081905550600360009054906101000a900473ffffffffffffffffffffffffffffffffffffffff1673ffffffffffffffffffffffffffffffffffffffff166323b872dd33600260009054906101000a900473ffffffffffffffffffffffffffffffffffffffff16876040518463ffffffff1660e01b8152600401610e4d9392919061212d565b602060405180830381600087803b158015610e6757600080fd5b505af1158015610e7b573d6000803e3d6000fd5b505050506040513d601f19601f82011682018060405250810190610e9f9190611d90565b50505050610eab611a8c565b50565b610eb6611992565b60005b82829050811015610f5c576000838383818110610ed957610ed861269d565b5b9050602002016020810190610eee9190611c49565b90506000601060008373ffffffffffffffffffffffffffffffffffffffff1673ffffffffffffffffffffffffffffffffffffffff16815260200190815260200160002060006101000a81548160ff021916908315150217905550508080610f54906125f6565b915050610eb9565b505050565b600a5481565b60085481565b610f75611992565b8060078190555050565b610f87611992565b8060068190555050565b6000600b54600c54610fa391906124ef565b905090565b610fb0611992565b6000600e60008473ffffffffffffffffffffffffffffffffffffffff1673ffffffffffffffffffffffffffffffffffffffff16815260200190815260200160002082815481106110035761100261269d565b5b906000526020600020906004020160405180608001604052908160008201548152602001600182015481526020016002820154815260200160038201548152505090504281604001818152505080600e60008573ffffffffffffffffffffffffffffffffffffffff1673ffffffffffffffffffffffffffffffffffffffff16815260200190815260200160002083815481106110a2576110a161269d565b5b9060005260206000209060040201600082015181600001556020820151816001015560408201518160020155606082015181600301559050507fb79cc8bc32f75c57b53b9fe33ff31302d8befe74ba35a51afd8ebb6da0bf6684838260400151426040516111129392919061218d565b60405180910390a1505050565b611127611992565b6111316000611a95565b565b60065481565b611141611992565b60005b828290508110156111e75760008383838181106111645761116361269d565b5b90506020020160208101906111799190611c49565b90506001601060008373ffffffffffffffffffffffffffffffffffffffff1673ffffffffffffffffffffffffffffffffffffffff16815260200190815260200160002060006101000a81548160ff0219169083151502179055505080806111df906125f6565b915050611144565b505050565b60008060009054906101000a900473ffffffffffffffffffffffffffffffffffffffff16905090565b61121d611992565b60008111611260576040517f08c379a00000000000000000000000000000000000000000000000000000000081526004016112579061239f565b60405180910390fd5b80600a8190555050565b60075481565b600e602052816000526040600020818154811061128c57600080fd5b9060005260206000209060040201600091509150508060000154908060010154908060020154908060030154905084565b6112c5611992565b8060098190555050565b6112d7611992565b604051806080016040528085815260200184815260200183815260200182815250600e60008873ffffffffffffffffffffffffffffffffffffffff1673ffffffffffffffffffffffffffffffffffffffff16815260200190815260200160002086815481106113495761134861269d565b5b906000526020600020906004020160008201518160000155602082015181600101556040820151816002015560608201518160030155905050505050505050565b611392611a10565b600d60009054906101000a900460ff16156113e2576040517f08c379a00000000000000000000000000000000000000000000000000000000081526004016113d99061221f565b60405180910390fd5b600d60019054906101000a900460ff16611431576040517f08c379a0000000000000000000000000000000000000000000000000000000008152600401611428906122ff565b60405180910390fd5b6000600e60003373ffffffffffffffffffffffffffffffffffffffff1673ffffffffffffffffffffffffffffffffffffffff16815260200190815260200160002082815481106114845761148361269d565b5b906000526020600020906004020160000154116114d6576040517f08c379a00000000000000000000000000000000000000000000000000000000081526004016114cd9061235f565b60405180910390fd5b6000600e60003373ffffffffffffffffffffffffffffffffffffffff1673ffffffffffffffffffffffffffffffffffffffff16815260200190815260200160002082815481106115295761152861269d565b5b9060005260206000209060040201604051806080016040529081600082015481526020016001820154815260200160028201548152602001600382015481525050905060008160000151116115b3576040517f08c379a00000000000000000000000000000000000000000000000000000000081526004016115aa9061229f565b60405180910390fd5b60008160200151426115c5919061257a565b9050600062278d00821415611626576115ff60646115f1600d8660600151611a6090919063ffffffff16565b611a7690919063ffffffff16565b9050611618818460600151611b5990919063ffffffff16565b8360600181815250506116fd565b603c8214156116815761165a606461164c600d8660600151611a6090919063ffffffff16565b611a7690919063ffffffff16565b9050611673818460600151611b5990919063ffffffff16565b8360600181815250506116fc565b605a8214156116c057826060015190506116aa8360000151600654611b5990919063ffffffff16565b60068190555060008360000181815250506116fb565b6040517f08c379a00000000000000000000000000000000000000000000000000000000081526004016116f2906121ff565b60405180910390fd5b5b5b3373ffffffffffffffffffffffffffffffffffffffff167f2d4d49c3e017b8235c908cbaa83a2431a08f3b950712696ece2088964fd399f0828660405161174592919061241a565b60405180910390a282600e60003373ffffffffffffffffffffffffffffffffffffffff1673ffffffffffffffffffffffffffffffffffffffff168152602001908152602001600020858154811061179f5761179e61269d565b5b906000526020600020906004020160008201518160000155602082015181600101556040820151816002015560608201518160030155905050600360009054906101000a900473ffffffffffffffffffffffffffffffffffffffff1673ffffffffffffffffffffffffffffffffffffffff1663a9059cbb33836040518363ffffffff1660e01b8152600401611835929190612164565b602060405180830381600087803b15801561184f57600080fd5b505af1158015611863573d6000803e3d6000fd5b505050506040513d601f19601f820116820180604052508101906118879190611d90565b50505050611893611a8c565b50565b600260009054906101000a900473ffffffffffffffffffffffffffffffffffffffff1681565b60095481565b6118ca611992565b600073ffffffffffffffffffffffffffffffffffffffff168173ffffffffffffffffffffffffffffffffffffffff16141561193a576040517f08c379a00000000000000000000000000000000000000000000000000000000081526004016119319061223f565b60405180910390fd5b61194381611a95565b50565b600f6020528060005260406000206000915090505481565b611966611992565b600d60009054906101000a900460ff1615600d60006101000a81548160ff021916908315150217905550565b61199a611b6f565b73ffffffffffffffffffffffffffffffffffffffff166119b86111ec565b73ffffffffffffffffffffffffffffffffffffffff1614611a0e576040517f08c379a0000000000000000000000000000000000000000000000000000000008152600401611a059061231f565b60405180910390fd5b565b60026001541415611a56576040517f08c379a0000000000000000000000000000000000000000000000000000000008152600401611a4d906123bf565b60405180910390fd5b6002600181905550565b60008183611a6e9190612520565b905092915050565b60008183611a8491906124ef565b905092915050565b60018081905550565b60008060009054906101000a900473ffffffffffffffffffffffffffffffffffffffff169050816000806101000a81548173ffffffffffffffffffffffffffffffffffffffff021916908373ffffffffffffffffffffffffffffffffffffffff1602179055508173ffffffffffffffffffffffffffffffffffffffff168173ffffffffffffffffffffffffffffffffffffffff167f8be0079c531659141344cd1fd0a4f28419497f9722a3daafe3b4186f6b6457e060405160405180910390a35050565b60008183611b67919061257a565b905092915050565b600033905090565b6040518060800160405280600081526020016000815260200160008152602001600081525090565b600081359050611bae81612a36565b92915050565b60008083601f840112611bca57611bc96126d1565b5b8235905067ffffffffffffffff811115611be757611be66126cc565b5b602083019150836020820283011115611c0357611c026126d6565b5b9250929050565b600081519050611c1981612a4d565b92915050565b600081359050611c2e81612a64565b92915050565b600081519050611c4381612a64565b92915050565b600060208284031215611c5f57611c5e6126e0565b5b6000611c6d84828501611b9f565b91505092915050565b60008060408385031215611c8d57611c8c6126e0565b5b6000611c9b85828601611b9f565b9250506020611cac85828601611c1f565b9150509250929050565b60008060008060008060c08789031215611cd357611cd26126e0565b5b6000611ce189828a01611b9f565b9650506020611cf289828a01611c1f565b9550506040611d0389828a01611c1f565b9450506060611d1489828a01611c1f565b9350506080611d2589828a01611c1f565b92505060a0611d3689828a01611c1f565b9150509295509295509295565b60008060208385031215611d5a57611d596126e0565b5b600083013567ffffffffffffffff811115611d7857611d776126db565b5b611d8485828601611bb4565b92509250509250929050565b600060208284031215611da657611da56126e0565b5b6000611db484828501611c0a565b91505092915050565b600060208284031215611dd357611dd26126e0565b5b6000611de184828501611c1f565b91505092915050565b600060208284031215611e0057611dff6126e0565b5b6000611e0e84828501611c34565b91505092915050565b600080600080600060a08688031215611e3357611e326126e0565b5b6000611e4188828901611c1f565b9550506020611e5288828901611c1f565b9450506040611e6388828901611c1f565b9350506060611e7488828901611c1f565b9250506080611e8588828901611c1f565b9150509295509295909350565b611e9b816125ae565b82525050565b611eaa816125c0565b82525050565b6000611ebd601983612488565b9150611ec8826126e5565b602082019050919050565b6000611ee0602b83612488565b9150611eeb8261270e565b604082019050919050565b6000611f03600b83612488565b9150611f0e8261275d565b602082019050919050565b6000611f26602683612488565b9150611f3182612786565b604082019050919050565b6000611f49602083612488565b9150611f54826127d5565b602082019050919050565b6000611f6c601883612488565b9150611f77826127fe565b602082019050919050565b6000611f8f603383612488565b9150611f9a82612827565b604082019050919050565b6000611fb2601383612488565b9150611fbd82612876565b602082019050919050565b6000611fd5601383612488565b9150611fe08261289f565b602082019050919050565b6000611ff8601783612488565b9150612003826128c8565b602082019050919050565b600061201b602083612488565b9150612026826128f1565b602082019050919050565b600061203e602683612488565b91506120498261291a565b604082019050919050565b6000612061601683612488565b915061206c82612969565b602082019050919050565b6000612084601383612488565b915061208f82612992565b602082019050919050565b60006120a7601783612488565b91506120b2826129bb565b602082019050919050565b60006120ca601f83612488565b91506120d5826129e4565b602082019050919050565b60006120ed601b83612488565b91506120f882612a0d565b602082019050919050565b61210c816125ec565b82525050565b60006020820190506121276000830184611e92565b92915050565b60006060820190506121426000830186611e92565b61214f6020830185611e92565b61215c6040830184612103565b949350505050565b60006040820190506121796000830185611e92565b6121866020830184612103565b9392505050565b60006060820190506121a26000830186611e92565b6121af6020830185612103565b6121bc6040830184612103565b949350505050565b60006020820190506121d96000830184611ea1565b92915050565b600060208201905081810360008301526121f881611eb0565b9050919050565b6000602082019050818103600083015261221881611ed3565b9050919050565b6000602082019050818103600083015261223881611ef6565b9050919050565b6000602082019050818103600083015261225881611f19565b9050919050565b6000602082019050818103600083015261227881611f3c565b9050919050565b6000602082019050818103600083015261229881611f5f565b9050919050565b600060208201905081810360008301526122b881611f82565b9050919050565b600060208201905081810360008301526122d881611fa5565b9050919050565b600060208201905081810360008301526122f881611fc8565b9050919050565b6000602082019050818103600083015261231881611feb565b9050919050565b600060208201905081810360008301526123388161200e565b9050919050565b6000602082019050818103600083015261235881612031565b9050919050565b6000602082019050818103600083015261237881612054565b9050919050565b6000602082019050818103600083015261239881612077565b9050919050565b600060208201905081810360008301526123b88161209a565b9050919050565b600060208201905081810360008301526123d8816120bd565b9050919050565b600060208201905081810360008301526123f8816120e0565b9050919050565b60006020820190506124146000830184612103565b92915050565b600060408201905061242f6000830185612103565b61243c6020830184612103565b9392505050565b60006080820190506124586000830187612103565b6124656020830186612103565b6124726040830185612103565b61247f6060830184612103565b95945050505050565b600082825260208201905092915050565b60006124a4826125ec565b91506124af836125ec565b9250827fffffffffffffffffffffffffffffffffffffffffffffffffffffffffffffffff038211156124e4576124e361263f565b5b828201905092915050565b60006124fa826125ec565b9150612505836125ec565b9250826125155761251461266e565b5b828204905092915050565b600061252b826125ec565b9150612536836125ec565b9250817fffffffffffffffffffffffffffffffffffffffffffffffffffffffffffffffff048311821515161561256f5761256e61263f565b5b828202905092915050565b6000612585826125ec565b9150612590836125ec565b9250828210156125a3576125a261263f565b5b828203905092915050565b60006125b9826125cc565b9050919050565b60008115159050919050565b600073ffffffffffffffffffffffffffffffffffffffff82169050919050565b6000819050919050565b6000612601826125ec565b91507fffffffffffffffffffffffffffffffffffffffffffffffffffffffffffffffff8214156126345761263361263f565b5b600182019050919050565b7f4e487b7100000000000000000000000000000000000000000000000000000000600052601160045260246000fd5b7f4e487b7100000000000000000000000000000000000000000000000000000000600052601260045260246000fd5b7f4e487b7100000000000000000000000000000000000000000000000000000000600052603260045260246000fd5b600080fd5b600080fd5b600080fd5b600080fd5b600080fd5b7f506f6f6c20686173206265656e20696e697469616c697a656400000000000000600082015250565b7f5769746864726177616c206f6e6c7920616c6c6f776564206f6e20646179203360008201527f302c203630206f72203930000000000000000000000000000000000000000000602082015250565b7f506175736564204561726e000000000000000000000000000000000000000000600082015250565b7f4f776e61626c653a206e6577206f776e657220697320746865207a65726f206160008201527f6464726573730000000000000000000000000000000000000000000000000000602082015250565b7f416d6f756e74206d7573742062652067726561746572207468616e207a65726f600082015250565b7f596f7520617265206e6f7420696e2077686974656c6973740000000000000000600082015250565b7f596f75206861766520616c72656164792077697468647261776e20796f75722060008201527f6361706974616c20616e642070726f6669747300000000000000000000000000602082015250565b7f506f6f6c206c696d697420657863656564656400000000000000000000000000600082015250565b7f55736572206c696d697420657863656564656400000000000000000000000000600082015250565b7f506f6f6c206973206e6f7420696e697469616c697a6564000000000000000000600082015250565b7f4f776e61626c653a2063616c6c6572206973206e6f7420746865206f776e6572600082015250565b7f496e73756666696369656e7420616d6f756e742c206c657373207468616e206d60008201527f696e696d756d0000000000000000000000000000000000000000000000000000602082015250565b7f4465706f73697420646f6573206e6f7420657869737400000000000000000000600082015250565b7f496e73756666696369656e7420616d6f756e7400000000000000000000000000600082015250565b7f746865206e756d626572207468616e2067726561742030000000000000000000600082015250565b7f5265656e7472616e637947756172643a207265656e7472616e742063616c6c00600082015250565b7f506f6f6c206c696d697420686173206265656e20726561636865640000000000600082015250565b612a3f816125ae565b8114612a4a57600080fd5b50565b612a56816125c0565b8114612a6157600080fd5b50565b612a6d816125ec565b8114612a7857600080fd5b5056fea2646970667358221220e698cd959e116bfbb3a3d133c2b8423134bcdb90df207ebd67617f3e97617ed864736f6c63430008050033",
  "linkReferences": {},
  "deployedLinkReferences": {}
}