{
  "_format": "hh-sol-artifact-1",
  "contractName": "EARNPRIVATE",
  "sourceName": "contracts/Earnv3.sol",
  "abi": [
    {
      "inputs": [
        {
          "internalType": "address",
          "name": "_walletPool",
          "type": "address"
        },
        {
          "internalType": "address",
          "name": "_TokenRecibe",
          "type": "address"
        },
        {
          "internalType": "bool",
          "name": "_whiteListed",
          "type": "bool"
        }
      ],
      "stateMutability": "nonpayable",
      "type": "constructor"
    },
    {
      "anonymous": false,
      "inputs": [
        {
          "indexed": true,
          "internalType": "address",
          "name": "user",
          "type": "address"
        },
        {
          "indexed": false,
          "internalType": "uint256",
          "name": "amount",
          "type": "uint256"
        },
        {
          "indexed": false,
          "internalType": "uint256",
          "name": "depositId",
          "type": "uint256"
        }
      ],
      "name": "DepositMade",
      "type": "event"
    },
    {
      "anonymous": false,
      "inputs": [
        {
          "indexed": true,
          "internalType": "address",
          "name": "previousOwner",
          "type": "address"
        },
        {
          "indexed": true,
          "internalType": "address",
          "name": "newOwner",
          "type": "address"
        }
      ],
      "name": "OwnershipTransferred",
      "type": "event"
    },
    {
      "anonymous": false,
      "inputs": [
        {
          "indexed": true,
          "internalType": "address",
          "name": "user",
          "type": "address"
        },
        {
          "indexed": false,
          "internalType": "uint256",
          "name": "amount",
          "type": "uint256"
        },
        {
          "indexed": false,
          "internalType": "uint256",
          "name": "depositId",
          "type": "uint256"
        }
      ],
      "name": "WithdrawalMade",
      "type": "event"
    },
    {
      "anonymous": false,
      "inputs": [
        {
          "indexed": false,
          "internalType": "address",
          "name": "user",
          "type": "address"
        },
        {
          "indexed": false,
          "internalType": "uint256",
          "name": "from",
          "type": "uint256"
        },
        {
          "indexed": false,
          "internalType": "uint256",
          "name": "to",
          "type": "uint256"
        }
      ],
      "name": "earlyClaim",
      "type": "event"
    },
    {
      "inputs": [
        {
          "internalType": "uint256",
          "name": "_days",
          "type": "uint256"
        }
      ],
      "name": "ChangeDays",
      "outputs": [],
      "stateMutability": "nonpayable",
      "type": "function"
    },
    {
      "inputs": [
        {
          "internalType": "uint256",
          "name": "_amount",
          "type": "uint256"
        }
      ],
      "name": "ChangeLimitAmount",
      "outputs": [],
      "stateMutability": "nonpayable",
      "type": "function"
    },
    {
      "inputs": [
        {
          "internalType": "uint256",
          "name": "_amount",
          "type": "uint256"
        }
      ],
      "name": "ChangeMaxAmount",
      "outputs": [],
      "stateMutability": "nonpayable",
      "type": "function"
    },
    {
      "inputs": [
        {
          "internalType": "uint256",
          "name": "_amount",
          "type": "uint256"
        }
      ],
      "name": "ChangeMinAmount",
      "outputs": [],
      "stateMutability": "nonpayable",
      "type": "function"
    },
    {
      "inputs": [
        {
          "internalType": "uint256",
          "name": "_percent",
          "type": "uint256"
        }
      ],
      "name": "ChangePercent",
      "outputs": [],
      "stateMutability": "nonpayable",
      "type": "function"
    },
    {
      "inputs": [
        {
          "internalType": "uint256",
          "name": "_recolect",
          "type": "uint256"
        }
      ],
      "name": "ChangeRecolect",
      "outputs": [],
      "stateMutability": "nonpayable",
      "type": "function"
    },
    {
      "inputs": [
        {
          "internalType": "address",
          "name": "_wallet",
          "type": "address"
        }
      ],
      "name": "ChangeWalletRecibe",
      "outputs": [],
      "stateMutability": "nonpayable",
      "type": "function"
    },
    {
      "inputs": [
        {
          "internalType": "uint256",
          "name": "_amount",
          "type": "uint256"
        }
      ],
      "name": "Deposit",
      "outputs": [],
      "stateMutability": "nonpayable",
      "type": "function"
    },
    {
      "inputs": [],
      "name": "DisableWhitelist",
      "outputs": [],
      "stateMutability": "nonpayable",
      "type": "function"
    },
    {
      "inputs": [
        {
          "internalType": "address",
          "name": "_user",
          "type": "address"
        },
        {
          "internalType": "uint256",
          "name": "_depositId",
          "type": "uint256"
        }
      ],
      "name": "EarlyClaim",
      "outputs": [],
      "stateMutability": "nonpayable",
      "type": "function"
    },
    {
      "inputs": [
        {
          "internalType": "uint256",
          "name": "_depositId",
          "type": "uint256"
        }
      ],
      "name": "EarnDeposit",
      "outputs": [],
      "stateMutability": "nonpayable",
      "type": "function"
    },
    {
      "inputs": [],
      "name": "EnableWhiteList",
      "outputs": [],
      "stateMutability": "nonpayable",
      "type": "function"
    },
    {
      "inputs": [
        {
          "internalType": "uint256",
          "name": "_limit",
          "type": "uint256"
        },
        {
          "internalType": "uint256",
          "name": "_maxAmount",
          "type": "uint256"
        },
        {
          "internalType": "uint256",
          "name": "_minAmount",
          "type": "uint256"
        },
        {
          "internalType": "uint256",
          "name": "_percent",
          "type": "uint256"
        },
        {
          "internalType": "uint256",
          "name": "_days",
          "type": "uint256"
        }
      ],
      "name": "Initialized",
      "outputs": [],
      "stateMutability": "nonpayable",
      "type": "function"
    },
    {
      "inputs": [],
      "name": "MaxAmount",
      "outputs": [
        {
          "internalType": "uint256",
          "name": "",
          "type": "uint256"
        }
      ],
      "stateMutability": "view",
      "type": "function"
    },
    {
      "inputs": [
        {
          "internalType": "address",
          "name": "_user",
          "type": "address"
        },
        {
          "internalType": "uint256",
          "name": "_depositId",
          "type": "uint256"
        },
        {
          "internalType": "uint256",
          "name": "_amount",
          "type": "uint256"
        },
        {
          "internalType": "uint256",
          "name": "_initTime",
          "type": "uint256"
        },
        {
          "internalType": "uint256",
          "name": "_finishTime",
          "type": "uint256"
        },
        {
          "internalType": "uint256",
          "name": "_earn",
          "type": "uint256"
        }
      ],
      "name": "Migration",
      "outputs": [],
      "stateMutability": "nonpayable",
      "type": "function"
    },
    {
      "inputs": [],
      "name": "MinAmount",
      "outputs": [
        {
          "internalType": "uint256",
          "name": "",
          "type": "uint256"
        }
      ],
      "stateMutability": "view",
      "type": "function"
    },
    {
      "inputs": [],
      "name": "PercentEarn",
      "outputs": [
        {
          "internalType": "uint256",
          "name": "",
          "type": "uint256"
        }
      ],
      "stateMutability": "view",
      "type": "function"
    },
    {
      "inputs": [
        {
          "internalType": "address",
          "name": "_tokens",
          "type": "address"
        }
      ],
      "name": "RecoverTokens",
      "outputs": [],
      "stateMutability": "nonpayable",
      "type": "function"
    },
    {
      "inputs": [],
      "name": "ViewDay",
      "outputs": [
        {
          "internalType": "uint256",
          "name": "",
          "type": "uint256"
        }
      ],
      "stateMutability": "view",
      "type": "function"
    },
    {
      "inputs": [
        {
          "internalType": "address[]",
          "name": "addresses",
          "type": "address[]"
        }
      ],
      "name": "addToWhitelist",
      "outputs": [],
      "stateMutability": "nonpayable",
      "type": "function"
    },
    {
      "inputs": [
        {
          "internalType": "address",
          "name": "_wallet",
          "type": "address"
        }
      ],
      "name": "addUserWhiteList",
      "outputs": [],
      "stateMutability": "nonpayable",
      "type": "function"
    },
    {
      "inputs": [
        {
          "internalType": "address",
          "name": "",
          "type": "address"
        },
        {
          "internalType": "uint256",
          "name": "",
          "type": "uint256"
        }
      ],
      "name": "balanceUser",
      "outputs": [
        {
          "internalType": "uint256",
          "name": "Amount",
          "type": "uint256"
        },
        {
          "internalType": "uint256",
          "name": "initTime",
          "type": "uint256"
        },
        {
          "internalType": "uint256",
          "name": "finishTime",
          "type": "uint256"
        },
        {
          "internalType": "uint256",
          "name": "Earn",
          "type": "uint256"
        }
      ],
      "stateMutability": "view",
      "type": "function"
    },
    {
      "inputs": [
        {
          "internalType": "address",
          "name": "",
          "type": "address"
        }
      ],
      "name": "depositCount",
      "outputs": [
        {
          "internalType": "uint256",
          "name": "",
          "type": "uint256"
        }
      ],
      "stateMutability": "view",
      "type": "function"
    },
    {
      "inputs": [],
      "name": "limit",
      "outputs": [
        {
          "internalType": "uint256",
          "name": "",
          "type": "uint256"
        }
      ],
      "stateMutability": "view",
      "type": "function"
    },
    {
      "inputs": [],
      "name": "lock",
      "outputs": [],
      "stateMutability": "nonpayable",
      "type": "function"
    },
    {
      "inputs": [],
      "name": "owner",
      "outputs": [
        {
          "internalType": "address",
          "name": "",
          "type": "address"
        }
      ],
      "stateMutability": "view",
      "type": "function"
    },
    {
      "inputs": [],
      "name": "recolect",
      "outputs": [
        {
          "internalType": "uint256",
          "name": "",
          "type": "uint256"
        }
      ],
      "stateMutability": "view",
      "type": "function"
    },
    {
      "inputs": [
        {
          "internalType": "address[]",
          "name": "addresses",
          "type": "address[]"
        }
      ],
      "name": "removeFromWhitelist",
      "outputs": [],
      "stateMutability": "nonpayable",
      "type": "function"
    },
    {
      "inputs": [],
      "name": "renounceOwnership",
      "outputs": [],
      "stateMutability": "nonpayable",
      "type": "function"
    },
    {
      "inputs": [
        {
          "internalType": "address",
          "name": "newOwner",
          "type": "address"
        }
      ],
      "name": "transferOwnership",
      "outputs": [],
      "stateMutability": "nonpayable",
      "type": "function"
    },
    {
      "inputs": [],
      "name": "walletPool",
      "outputs": [
        {
          "internalType": "address",
          "name": "",
          "type": "address"
        }
      ],
      "stateMutability": "view",
      "type": "function"
    },
    {
      "inputs": [
        {
          "internalType": "address",
          "name": "",
          "type": "address"
        }
      ],
      "name": "whiteList",
      "outputs": [
        {
          "internalType": "bool",
          "name": "",
          "type": "bool"
        }
      ],
      "stateMutability": "view",
      "type": "function"
    }
  ],
  "bytecode": "0x608060405262015180600b553480156200001857600080fd5b50604051620029ef380380620029ef83398181016040528101906200003e919062000204565b6200005e620000526200010a60201b60201c565b6200011260201b60201c565b6001808190555082600260006101000a81548173ffffffffffffffffffffffffffffffffffffffff021916908373ffffffffffffffffffffffffffffffffffffffff16021790555081600360006101000a81548173ffffffffffffffffffffffffffffffffffffffff021916908373ffffffffffffffffffffffffffffffffffffffff16021790555080600d60026101000a81548160ff021916908315150217905550505050620002d9565b600033905090565b60008060009054906101000a900473ffffffffffffffffffffffffffffffffffffffff169050816000806101000a81548173ffffffffffffffffffffffffffffffffffffffff021916908373ffffffffffffffffffffffffffffffffffffffff1602179055508173ffffffffffffffffffffffffffffffffffffffff168173ffffffffffffffffffffffffffffffffffffffff167f8be0079c531659141344cd1fd0a4f28419497f9722a3daafe3b4186f6b6457e060405160405180910390a35050565b600081519050620001e781620002a5565b92915050565b600081519050620001fe81620002bf565b92915050565b60008060006060848603121562000220576200021f620002a0565b5b60006200023086828701620001d6565b93505060206200024386828701620001d6565b92505060406200025686828701620001ed565b9150509250925092565b60006200026d8262000280565b9050919050565b60008115159050919050565b600073ffffffffffffffffffffffffffffffffffffffff82169050919050565b600080fd5b620002b08162000260565b8114620002bc57600080fd5b50565b620002ca8162000274565b8114620002d657600080fd5b50565b61270680620002e96000396000f3fe608060405234801561001057600080fd5b50600436106101f05760003560e01c8063714a2b901161010f578063bb1711a6116100a2578063ec65240611610071578063ec65240614610508578063f2fde38b14610526578063f4443d9a14610542578063f83d08ba14610572576101f0565b8063bb1711a614610496578063bdcbd5a9146104b2578063c760dad5146104ce578063e5c154f1146104ea576101f0565b80638da5cb5b116100de5780638da5cb5b1461040b57806397a6410114610429578063a4d66daf14610445578063b8d25a4314610463576101f0565b8063714a2b90146103ab578063715018a6146103c75780637586c414146103d15780637f649783146103ef576101f0565b80634d6ce1e51161018757806360a810021161015657806360a81002146103375780636b68f810146103555780636ff8f8c2146103715780636ffe7bbe1461038d576101f0565b80634d6ce1e5146102d7578063508560e1146102f3578063548db174146102fd57806354f3a6e014610319576101f0565b8063372c12b1116101c3578063372c12b1146102655780633a2a197814610295578063478b0f871461029f57806347afd82f146102bb576101f0565b806313cad1d1146101f557806316451dc9146102115780632a8a99381461022d5780633366bff914610249575b600080fd5b61020f600480360381019061020a9190611b44565b61057c565b005b61022b60048036038101906102269190611b44565b61058e565b005b610247600480360381019061024291906119d0565b6105ad565b005b610263600480360381019061025e9190611b9e565b610610565b005b61027f600480360381019061027a91906119d0565b6106ba565b60405161028c9190611f05565b60405180910390f35b61029d6106da565b005b6102b960048036038101906102b491906119d0565b6106ff565b005b6102d560048036038101906102d091906119d0565b610864565b005b6102f160048036038101906102ec9190611b44565b6108b0565b005b6102fb610d9f565b005b61031760048036038101906103129190611aca565b610dc4565b005b610321610e77565b60405161032e9190612100565b60405180910390f35b61033f610e7d565b60405161034c9190612100565b60405180910390f35b61036f600480360381019061036a9190611b44565b610e83565b005b61038b60048036038101906103869190611b44565b610e95565b005b610395610ea7565b6040516103a29190612100565b60405180910390f35b6103c560048036038101906103c091906119fd565b610ebe565b005b6103cf611035565b005b6103d9611049565b6040516103e69190612100565b60405180910390f35b61040960048036038101906104049190611aca565b61104f565b005b610413611102565b6040516104209190611e53565b60405180910390f35b610443600480360381019061043e9190611b44565b61112b565b005b61044d611180565b60405161045a9190612100565b60405180910390f35b61047d600480360381019061047891906119fd565b611186565b60405161048d9493929190612144565b60405180910390f35b6104b060048036038101906104ab9190611b44565b6111d3565b005b6104cc60048036038101906104c79190611a3d565b6111e5565b005b6104e860048036038101906104e39190611b44565b6112a0565b005b6104f261165b565b6040516104ff9190611e53565b60405180910390f35b610510611681565b60405161051d9190612100565b60405180910390f35b610540600480360381019061053b91906119d0565b611687565b005b61055c600480360381019061055791906119d0565b61170b565b6040516105699190612100565b60405180910390f35b61057a611723565b005b610584611757565b8060088190555050565b610596611757565b600b54816105a49190612221565b600c8190555050565b6105b5611757565b6001600f60008373ffffffffffffffffffffffffffffffffffffffff1673ffffffffffffffffffffffffffffffffffffffff16815260200190815260200160002060006101000a81548160ff02191690831515021790555050565b610618611757565b600d60019054906101000a900460ff1615610668576040517f08c379a000000000000000000000000000000000000000000000000000000000815260040161065f90611f20565b60405180910390fd5b84600781905550836008819055508260098190555081600a81905550600b54816106929190612221565b600c819055506001600d60016101000a81548160ff0219169083151502179055505050505050565b600f6020528060005260406000206000915054906101000a900460ff1681565b6106e2611757565b6001600d60026101000a81548160ff021916908315150217905550565b610707611757565b60008173ffffffffffffffffffffffffffffffffffffffff1663a9059cbb338473ffffffffffffffffffffffffffffffffffffffff166370a08231306040518263ffffffff1660e01b815260040161075f9190611e53565b60206040518083038186803b15801561077757600080fd5b505afa15801561078b573d6000803e3d6000fd5b505050506040513d601f19601f820116820180604052508101906107af9190611b71565b6040518363ffffffff1660e01b81526004016107cc929190611ea5565b602060405180830381600087803b1580156107e657600080fd5b505af11580156107fa573d6000803e3d6000fd5b505050506040513d601f19601f8201168201806040525081019061081e9190611b17565b905080610860576040517f08c379a000000000000000000000000000000000000000000000000000000000815260040161085790611f80565b60405180910390fd5b5050565b61086c611757565b80600260006101000a81548173ffffffffffffffffffffffffffffffffffffffff021916908373ffffffffffffffffffffffffffffffffffffffff16021790555050565b6108b86117d5565b600d60009054906101000a900460ff1615610908576040517f08c379a00000000000000000000000000000000000000000000000000000000081526004016108ff90611f40565b60405180910390fd5b600d60019054906101000a900460ff16610957576040517f08c379a000000000000000000000000000000000000000000000000000000000815260040161094e90612000565b60405180910390fd5b6000600c5442610967919061219a565b9050600082116109ac576040517f08c379a00000000000000000000000000000000000000000000000000000000081526004016109a390611fa0565b60405180910390fd5b6008548211156109f1576040517f08c379a00000000000000000000000000000000000000000000000000000000081526004016109e890612080565b60405180910390fd5b600954821015610a36576040517f08c379a0000000000000000000000000000000000000000000000000000000008152600401610a2d90612040565b60405180910390fd5b60075482600654610a47919061219a565b1115610a88576040517f08c379a0000000000000000000000000000000000000000000000000000000008152600401610a7f906120e0565b60405180910390fd5b6000604051806080016040528084815260200142815260200183815260200160008152509050610ad66064610ac8600a548661182590919063ffffffff16565b61183b90919063ffffffff16565b83610ae1919061219a565b816060018181525050600e60003373ffffffffffffffffffffffffffffffffffffffff1673ffffffffffffffffffffffffffffffffffffffff168152602001908152602001600020819080600181540180825580915050600190039060005260206000209060040201600090919091909150600082015181600001556020820151816001015560408201518160020155606082015181600301555050601060003373ffffffffffffffffffffffffffffffffffffffff1673ffffffffffffffffffffffffffffffffffffffff1681526020019081526020016000206000815480929190610bcd906122c3565b91905055508260066000828254610be4919061219a565b925050819055503373ffffffffffffffffffffffffffffffffffffffff167f0b05f0d1cd0819f155b8a61f60baf7767c1ee49d04aeaab701df236140eb93f984601060003373ffffffffffffffffffffffffffffffffffffffff1673ffffffffffffffffffffffffffffffffffffffff16815260200190815260200160002054604051610c7292919061211b565b60405180910390a26000600360009054906101000a900473ffffffffffffffffffffffffffffffffffffffff1673ffffffffffffffffffffffffffffffffffffffff166323b872dd33600260009054906101000a900473ffffffffffffffffffffffffffffffffffffffff16876040518463ffffffff1660e01b8152600401610cfd93929190611e6e565b602060405180830381600087803b158015610d1757600080fd5b505af1158015610d2b573d6000803e3d6000fd5b505050506040513d601f19601f82011682018060405250810190610d4f9190611b17565b905080610d91576040517f08c379a0000000000000000000000000000000000000000000000000000000008152600401610d8890611f80565b60405180910390fd5b505050610d9c611851565b50565b610da7611757565b6000600d60026101000a81548160ff021916908315150217905550565b610dcc611757565b60005b82829050811015610e72576000838383818110610def57610dee61236a565b5b9050602002016020810190610e0491906119d0565b90506000600f60008373ffffffffffffffffffffffffffffffffffffffff1673ffffffffffffffffffffffffffffffffffffffff16815260200190815260200160002060006101000a81548160ff021916908315150217905550508080610e6a906122c3565b915050610dcf565b505050565b600a5481565b60085481565b610e8b611757565b8060078190555050565b610e9d611757565b8060068190555050565b6000600b54600c54610eb991906121f0565b905090565b610ec6611757565b6000600e60008473ffffffffffffffffffffffffffffffffffffffff1673ffffffffffffffffffffffffffffffffffffffff1681526020019081526020016000208281548110610f1957610f1861236a565b5b906000526020600020906004020160405180608001604052908160008201548152602001600182015481526020016002820154815260200160038201548152505090504281604001818152505080600e60008573ffffffffffffffffffffffffffffffffffffffff1673ffffffffffffffffffffffffffffffffffffffff1681526020019081526020016000208381548110610fb857610fb761236a565b5b9060005260206000209060040201600082015181600001556020820151816001015560408201518160020155606082015181600301559050507fb79cc8bc32f75c57b53b9fe33ff31302d8befe74ba35a51afd8ebb6da0bf66848382604001514260405161102893929190611ece565b60405180910390a1505050565b61103d611757565b611047600061185a565b565b60065481565b611057611757565b60005b828290508110156110fd57600083838381811061107a5761107961236a565b5b905060200201602081019061108f91906119d0565b90506001600f60008373ffffffffffffffffffffffffffffffffffffffff1673ffffffffffffffffffffffffffffffffffffffff16815260200190815260200160002060006101000a81548160ff0219169083151502179055505080806110f5906122c3565b91505061105a565b505050565b60008060009054906101000a900473ffffffffffffffffffffffffffffffffffffffff16905090565b611133611757565b60008111611176576040517f08c379a000000000000000000000000000000000000000000000000000000000815260040161116d906120a0565b60405180910390fd5b80600a8190555050565b60075481565b600e60205281600052604060002081815481106111a257600080fd5b9060005260206000209060040201600091509150508060000154908060010154908060020154908060030154905084565b6111db611757565b8060098190555050565b6111ed611757565b604051806080016040528085815260200184815260200183815260200182815250600e60008873ffffffffffffffffffffffffffffffffffffffff1673ffffffffffffffffffffffffffffffffffffffff168152602001908152602001600020868154811061125f5761125e61236a565b5b906000526020600020906004020160008201518160000155602082015181600101556040820151816002015560608201518160030155905050505050505050565b6112a86117d5565b600d60009054906101000a900460ff16156112f8576040517f08c379a00000000000000000000000000000000000000000000000000000000081526004016112ef90611f40565b60405180910390fd5b600d60019054906101000a900460ff16611347576040517f08c379a000000000000000000000000000000000000000000000000000000000815260040161133e90612000565b60405180910390fd5b6000600e60003373ffffffffffffffffffffffffffffffffffffffff1673ffffffffffffffffffffffffffffffffffffffff1681526020019081526020016000209050808054905082106113d0576040517f08c379a00000000000000000000000000000000000000000000000000000000081526004016113c790612060565b60405180910390fd5b60008183815481106113e5576113e461236a565b5b9060005260206000209060040201604051806080016040529081600082015481526020016001820154815260200160028201548152602001600382015481525050905081838154811061143b5761143a61236a565b5b9060005260206000209060040201600080820160009055600182016000905560028201600090556003820160009055505060008160000151116114b3576040517f08c379a00000000000000000000000000000000000000000000000000000000081526004016114aa90611fe0565b60405180910390fd5b600081604001519050428111156114ff576040517f08c379a00000000000000000000000000000000000000000000000000000000081526004016114f690611fc0565b60405180910390fd5b6000826060015190503373ffffffffffffffffffffffffffffffffffffffff167f2d4d49c3e017b8235c908cbaa83a2431a08f3b950712696ece2088964fd399f0828760405161155092919061211b565b60405180910390a26000600360009054906101000a900473ffffffffffffffffffffffffffffffffffffffff1673ffffffffffffffffffffffffffffffffffffffff1663a9059cbb33846040518363ffffffff1660e01b81526004016115b7929190611ea5565b602060405180830381600087803b1580156115d157600080fd5b505af11580156115e5573d6000803e3d6000fd5b505050506040513d601f19601f820116820180604052508101906116099190611b17565b90508061164b576040517f08c379a000000000000000000000000000000000000000000000000000000000815260040161164290611f80565b60405180910390fd5b5050505050611658611851565b50565b600260009054906101000a900473ffffffffffffffffffffffffffffffffffffffff1681565b60095481565b61168f611757565b600073ffffffffffffffffffffffffffffffffffffffff168173ffffffffffffffffffffffffffffffffffffffff1614156116ff576040517f08c379a00000000000000000000000000000000000000000000000000000000081526004016116f690611f60565b60405180910390fd5b6117088161185a565b50565b60106020528060005260406000206000915090505481565b61172b611757565b600d60009054906101000a900460ff1615600d60006101000a81548160ff021916908315150217905550565b61175f61191e565b73ffffffffffffffffffffffffffffffffffffffff1661177d611102565b73ffffffffffffffffffffffffffffffffffffffff16146117d3576040517f08c379a00000000000000000000000000000000000000000000000000000000081526004016117ca90612020565b60405180910390fd5b565b6002600154141561181b576040517f08c379a0000000000000000000000000000000000000000000000000000000008152600401611812906120c0565b60405180910390fd5b6002600181905550565b600081836118339190612221565b905092915050565b6000818361184991906121f0565b905092915050565b60018081905550565b60008060009054906101000a900473ffffffffffffffffffffffffffffffffffffffff169050816000806101000a81548173ffffffffffffffffffffffffffffffffffffffff021916908373ffffffffffffffffffffffffffffffffffffffff1602179055508173ffffffffffffffffffffffffffffffffffffffff168173ffffffffffffffffffffffffffffffffffffffff167f8be0079c531659141344cd1fd0a4f28419497f9722a3daafe3b4186f6b6457e060405160405180910390a35050565b600033905090565b6000813590506119358161268b565b92915050565b60008083601f8401126119515761195061239e565b5b8235905067ffffffffffffffff81111561196e5761196d612399565b5b60208301915083602082028301111561198a576119896123a3565b5b9250929050565b6000815190506119a0816126a2565b92915050565b6000813590506119b5816126b9565b92915050565b6000815190506119ca816126b9565b92915050565b6000602082840312156119e6576119e56123ad565b5b60006119f484828501611926565b91505092915050565b60008060408385031215611a1457611a136123ad565b5b6000611a2285828601611926565b9250506020611a33858286016119a6565b9150509250929050565b60008060008060008060c08789031215611a5a57611a596123ad565b5b6000611a6889828a01611926565b9650506020611a7989828a016119a6565b9550506040611a8a89828a016119a6565b9450506060611a9b89828a016119a6565b9350506080611aac89828a016119a6565b92505060a0611abd89828a016119a6565b9150509295509295509295565b60008060208385031215611ae157611ae06123ad565b5b600083013567ffffffffffffffff811115611aff57611afe6123a8565b5b611b0b8582860161193b565b92509250509250929050565b600060208284031215611b2d57611b2c6123ad565b5b6000611b3b84828501611991565b91505092915050565b600060208284031215611b5a57611b596123ad565b5b6000611b68848285016119a6565b91505092915050565b600060208284031215611b8757611b866123ad565b5b6000611b95848285016119bb565b91505092915050565b600080600080600060a08688031215611bba57611bb96123ad565b5b6000611bc8888289016119a6565b9550506020611bd9888289016119a6565b9450506040611bea888289016119a6565b9350506060611bfb888289016119a6565b9250506080611c0c888289016119a6565b9150509295509295909350565b611c228161227b565b82525050565b611c318161228d565b82525050565b6000611c44601983612189565b9150611c4f826123b2565b602082019050919050565b6000611c67600b83612189565b9150611c72826123db565b602082019050919050565b6000611c8a602683612189565b9150611c9582612404565b604082019050919050565b6000611cad600f83612189565b9150611cb882612453565b602082019050919050565b6000611cd0602083612189565b9150611cdb8261247c565b602082019050919050565b6000611cf3603d83612189565b9150611cfe826124a5565b604082019050919050565b6000611d16603383612189565b9150611d21826124f4565b604082019050919050565b6000611d39601783612189565b9150611d4482612543565b602082019050919050565b6000611d5c602083612189565b9150611d678261256c565b602082019050919050565b6000611d7f601d83612189565b9150611d8a82612595565b602082019050919050565b6000611da2601283612189565b9150611dad826125be565b602082019050919050565b6000611dc5601c83612189565b9150611dd0826125e7565b602082019050919050565b6000611de8601783612189565b9150611df382612610565b602082019050919050565b6000611e0b601f83612189565b9150611e1682612639565b602082019050919050565b6000611e2e601b83612189565b9150611e3982612662565b602082019050919050565b611e4d816122b9565b82525050565b6000602082019050611e686000830184611c19565b92915050565b6000606082019050611e836000830186611c19565b611e906020830185611c19565b611e9d6040830184611e44565b949350505050565b6000604082019050611eba6000830185611c19565b611ec76020830184611e44565b9392505050565b6000606082019050611ee36000830186611c19565b611ef06020830185611e44565b611efd6040830184611e44565b949350505050565b6000602082019050611f1a6000830184611c28565b92915050565b60006020820190508181036000830152611f3981611c37565b9050919050565b60006020820190508181036000830152611f5981611c5a565b9050919050565b60006020820190508181036000830152611f7981611c7d565b9050919050565b60006020820190508181036000830152611f9981611ca0565b9050919050565b60006020820190508181036000830152611fb981611cc3565b9050919050565b60006020820190508181036000830152611fd981611ce6565b9050919050565b60006020820190508181036000830152611ff981611d09565b9050919050565b6000602082019050818103600083015261201981611d2c565b9050919050565b6000602082019050818103600083015261203981611d4f565b9050919050565b6000602082019050818103600083015261205981611d72565b9050919050565b6000602082019050818103600083015261207981611d95565b9050919050565b6000602082019050818103600083015261209981611db8565b9050919050565b600060208201905081810360008301526120b981611ddb565b9050919050565b600060208201905081810360008301526120d981611dfe565b9050919050565b600060208201905081810360008301526120f981611e21565b9050919050565b60006020820190506121156000830184611e44565b92915050565b60006040820190506121306000830185611e44565b61213d6020830184611e44565b9392505050565b60006080820190506121596000830187611e44565b6121666020830186611e44565b6121736040830185611e44565b6121806060830184611e44565b95945050505050565b600082825260208201905092915050565b60006121a5826122b9565b91506121b0836122b9565b9250827fffffffffffffffffffffffffffffffffffffffffffffffffffffffffffffffff038211156121e5576121e461230c565b5b828201905092915050565b60006121fb826122b9565b9150612206836122b9565b9250826122165761221561233b565b5b828204905092915050565b600061222c826122b9565b9150612237836122b9565b9250817fffffffffffffffffffffffffffffffffffffffffffffffffffffffffffffffff04831182151516156122705761226f61230c565b5b828202905092915050565b600061228682612299565b9050919050565b60008115159050919050565b600073ffffffffffffffffffffffffffffffffffffffff82169050919050565b6000819050919050565b60006122ce826122b9565b91507fffffffffffffffffffffffffffffffffffffffffffffffffffffffffffffffff8214156123015761230061230c565b5b600182019050919050565b7f4e487b7100000000000000000000000000000000000000000000000000000000600052601160045260246000fd5b7f4e487b7100000000000000000000000000000000000000000000000000000000600052601260045260246000fd5b7f4e487b7100000000000000000000000000000000000000000000000000000000600052603260045260246000fd5b600080fd5b600080fd5b600080fd5b600080fd5b600080fd5b7f506f6f6c20686173206265656e20696e697469616c697a656400000000000000600082015250565b7f506175736564204561726e000000000000000000000000000000000000000000600082015250565b7f4f776e61626c653a206e6577206f776e657220697320746865207a65726f206160008201527f6464726573730000000000000000000000000000000000000000000000000000602082015250565b7f5472616e73666572206661696c65640000000000000000000000000000000000600082015250565b7f416d6f756e74206d7573742062652067726561746572207468616e207a65726f600082015250565b7f596f75206e65656420746f207761697420666f7220746865206465706f73697460008201527f20746f2066696e697368206265666f7265207769746864726177696e67000000602082015250565b7f596f75206861766520616c72656164792077697468647261776e20796f75722060008201527f6361706974616c20616e642070726f6669747300000000000000000000000000602082015250565b7f506f6f6c206973206e6f7420696e697469616c697a6564000000000000000000600082015250565b7f4f776e61626c653a2063616c6c6572206973206e6f7420746865206f776e6572600082015250565b7f416d6f756e742069732062656c6f77206d696e696d756d206c696d6974000000600082015250565b7f496e76616c6964206465706f7369742049440000000000000000000000000000600082015250565b7f416d6f756e742065786365656473206d6178696d756d206c696d697400000000600082015250565b7f746865206e756d626572207468616e2067726561742030000000000000000000600082015250565b7f5265656e7472616e637947756172643a207265656e7472616e742063616c6c00600082015250565b7f506f6f6c206c696d697420686173206265656e20726561636865640000000000600082015250565b6126948161227b565b811461269f57600080fd5b50565b6126ab8161228d565b81146126b657600080fd5b50565b6126c2816122b9565b81146126cd57600080fd5b5056fea264697066735822122092a6f72fca0381d3d77e40a11085b942345c596a78695718afe83eb33fcb529664736f6c63430008050033",
  "linkReferences": {},
  "deployedLinkReferences": {}
}