{
  "_format": "hh-sol-artifact-1",
  "contractName": "DonationBeNft",
  "sourceName": "contracts/BeNFTDonation.sol",
  "abi": [
    {
      "inputs": [
        {
          "internalType": "address",
          "name": "_walletPool",
          "type": "address"
        },
        {
          "internalType": "address",
          "name": "_tokenRecibe",
          "type": "address"
        }
      ],
      "stateMutability": "nonpayable",
      "type": "constructor"
    },
    {
      "anonymous": false,
      "inputs": [
        {
          "indexed": false,
          "internalType": "address",
          "name": "donor",
          "type": "address"
        },
        {
          "indexed": false,
          "internalType": "uint256",
          "name": "amount",
          "type": "uint256"
        }
      ],
      "name": "Donation",
      "type": "event"
    },
    {
      "anonymous": false,
      "inputs": [
        {
          "indexed": true,
          "internalType": "address",
          "name": "previousOwner",
          "type": "address"
        },
        {
          "indexed": true,
          "internalType": "address",
          "name": "newOwner",
          "type": "address"
        }
      ],
      "name": "OwnershipTransferred",
      "type": "event"
    },
    {
      "inputs": [],
      "name": "BenftWallet",
      "outputs": [
        {
          "internalType": "address",
          "name": "",
          "type": "address"
        }
      ],
      "stateMutability": "view",
      "type": "function"
    },
    {
      "inputs": [
        {
          "internalType": "address",
          "name": "_wallet",
          "type": "address"
        }
      ],
      "name": "ChangeWalletRecibe",
      "outputs": [],
      "stateMutability": "nonpayable",
      "type": "function"
    },
    {
      "inputs": [
        {
          "internalType": "uint256",
          "name": "_amount",
          "type": "uint256"
        }
      ],
      "name": "Donate",
      "outputs": [],
      "stateMutability": "nonpayable",
      "type": "function"
    },
    {
      "inputs": [
        {
          "internalType": "address",
          "name": "_tokens",
          "type": "address"
        }
      ],
      "name": "RecoverTokens",
      "outputs": [],
      "stateMutability": "nonpayable",
      "type": "function"
    },
    {
      "inputs": [],
      "name": "TokenRecibe",
      "outputs": [
        {
          "internalType": "address",
          "name": "",
          "type": "address"
        }
      ],
      "stateMutability": "view",
      "type": "function"
    },
    {
      "inputs": [],
      "name": "lock",
      "outputs": [],
      "stateMutability": "nonpayable",
      "type": "function"
    },
    {
      "inputs": [],
      "name": "owner",
      "outputs": [
        {
          "internalType": "address",
          "name": "",
          "type": "address"
        }
      ],
      "stateMutability": "view",
      "type": "function"
    },
    {
      "inputs": [],
      "name": "renounceOwnership",
      "outputs": [],
      "stateMutability": "nonpayable",
      "type": "function"
    },
    {
      "inputs": [],
      "name": "totalDonation",
      "outputs": [
        {
          "internalType": "uint256",
          "name": "",
          "type": "uint256"
        }
      ],
      "stateMutability": "view",
      "type": "function"
    },
    {
      "inputs": [
        {
          "internalType": "address",
          "name": "newOwner",
          "type": "address"
        }
      ],
      "name": "transferOwnership",
      "outputs": [],
      "stateMutability": "nonpayable",
      "type": "function"
    }
  ],
  "bytecode": "0x60806040523480156200001157600080fd5b5060405162001112380380620011128339818101604052810190620000379190620001cb565b620000576200004b620000e860201b60201c565b620000f060201b60201c565b6001808190555081600260006101000a81548173ffffffffffffffffffffffffffffffffffffffff021916908373ffffffffffffffffffffffffffffffffffffffff16021790555080600360006101000a81548173ffffffffffffffffffffffffffffffffffffffff021916908373ffffffffffffffffffffffffffffffffffffffff160217905550505062000265565b600033905090565b60008060009054906101000a900473ffffffffffffffffffffffffffffffffffffffff169050816000806101000a81548173ffffffffffffffffffffffffffffffffffffffff021916908373ffffffffffffffffffffffffffffffffffffffff1602179055508173ffffffffffffffffffffffffffffffffffffffff168173ffffffffffffffffffffffffffffffffffffffff167f8be0079c531659141344cd1fd0a4f28419497f9722a3daafe3b4186f6b6457e060405160405180910390a35050565b600081519050620001c5816200024b565b92915050565b60008060408385031215620001e557620001e462000246565b5b6000620001f585828601620001b4565b92505060206200020885828601620001b4565b9150509250929050565b60006200021f8262000226565b9050919050565b600073ffffffffffffffffffffffffffffffffffffffff82169050919050565b600080fd5b620002568162000212565b81146200026257600080fd5b50565b610e9d80620002756000396000f3fe608060405234801561001057600080fd5b506004361061009e5760003560e01c80638da5cb5b116100665780638da5cb5b1461011f578063c18b3f8a1461013d578063ee2ac05f1461015b578063f2fde38b14610179578063f83d08ba146101955761009e565b80630a1e6314146100a357806333ac2627146100c1578063478b0f87146100dd57806347afd82f146100f9578063715018a614610115575b600080fd5b6100ab61019f565b6040516100b89190610aa7565b60405180910390f35b6100db60048036038101906100d6919061095d565b6101c5565b005b6100f760048036038101906100f29190610903565b61047e565b005b610113600480360381019061010e9190610903565b61059f565b005b61011d6105eb565b005b6101276105ff565b6040516101349190610aa7565b60405180910390f35b610145610628565b6040516101529190610aa7565b60405180910390f35b61016361064e565b6040516101709190610be2565b60405180910390f35b610193600480360381019061018e9190610903565b610654565b005b61019d6106d8565b005b600360009054906101000a900473ffffffffffffffffffffffffffffffffffffffff1681565b6101cd61070c565b600560009054906101000a900460ff161561021d576040517f08c379a000000000000000000000000000000000000000000000000000000000815260040161021490610b22565b60405180910390fd5b60008111610260576040517f08c379a000000000000000000000000000000000000000000000000000000000815260040161025790610b82565b60405180910390fd5b80600360009054906101000a900473ffffffffffffffffffffffffffffffffffffffff1673ffffffffffffffffffffffffffffffffffffffff166370a08231336040518263ffffffff1660e01b81526004016102bc9190610aa7565b60206040518083038186803b1580156102d457600080fd5b505afa1580156102e8573d6000803e3d6000fd5b505050506040513d601f19601f8201168201806040525081019061030c919061098a565b101561034d576040517f08c379a000000000000000000000000000000000000000000000000000000000815260040161034490610ba2565b60405180910390fd5b806004600082825461035f9190610c0e565b92505081905550600360009054906101000a900473ffffffffffffffffffffffffffffffffffffffff1673ffffffffffffffffffffffffffffffffffffffff166323b872dd33600260009054906101000a900473ffffffffffffffffffffffffffffffffffffffff16846040518463ffffffff1660e01b81526004016103e793929190610ac2565b602060405180830381600087803b15801561040157600080fd5b505af1158015610415573d6000803e3d6000fd5b505050506040513d601f19601f820116820180604052508101906104399190610930565b507f5d8bc849764969eb1bcc6d0a2f55999d0167c1ccec240a4f39cf664ca9c4148e338260405161046b929190610af9565b60405180910390a161047b61075c565b50565b610486610765565b8073ffffffffffffffffffffffffffffffffffffffff1663a9059cbb338373ffffffffffffffffffffffffffffffffffffffff166370a08231306040518263ffffffff1660e01b81526004016104dc9190610aa7565b60206040518083038186803b1580156104f457600080fd5b505afa158015610508573d6000803e3d6000fd5b505050506040513d601f19601f8201168201806040525081019061052c919061098a565b6040518363ffffffff1660e01b8152600401610549929190610af9565b602060405180830381600087803b15801561056357600080fd5b505af1158015610577573d6000803e3d6000fd5b505050506040513d601f19601f8201168201806040525081019061059b9190610930565b5050565b6105a7610765565b80600260006101000a81548173ffffffffffffffffffffffffffffffffffffffff021916908373ffffffffffffffffffffffffffffffffffffffff16021790555050565b6105f3610765565b6105fd60006107e3565b565b60008060009054906101000a900473ffffffffffffffffffffffffffffffffffffffff16905090565b600260009054906101000a900473ffffffffffffffffffffffffffffffffffffffff1681565b60045481565b61065c610765565b600073ffffffffffffffffffffffffffffffffffffffff168173ffffffffffffffffffffffffffffffffffffffff1614156106cc576040517f08c379a00000000000000000000000000000000000000000000000000000000081526004016106c390610b42565b60405180910390fd5b6106d5816107e3565b50565b6106e0610765565b600560009054906101000a900460ff1615600560006101000a81548160ff021916908315150217905550565b60026001541415610752576040517f08c379a000000000000000000000000000000000000000000000000000000000815260040161074990610bc2565b60405180910390fd5b6002600181905550565b60018081905550565b61076d6108a7565b73ffffffffffffffffffffffffffffffffffffffff1661078b6105ff565b73ffffffffffffffffffffffffffffffffffffffff16146107e1576040517f08c379a00000000000000000000000000000000000000000000000000000000081526004016107d890610b62565b60405180910390fd5b565b60008060009054906101000a900473ffffffffffffffffffffffffffffffffffffffff169050816000806101000a81548173ffffffffffffffffffffffffffffffffffffffff021916908373ffffffffffffffffffffffffffffffffffffffff1602179055508173ffffffffffffffffffffffffffffffffffffffff168173ffffffffffffffffffffffffffffffffffffffff167f8be0079c531659141344cd1fd0a4f28419497f9722a3daafe3b4186f6b6457e060405160405180910390a35050565b600033905090565b6000813590506108be81610e22565b92915050565b6000815190506108d381610e39565b92915050565b6000813590506108e881610e50565b92915050565b6000815190506108fd81610e50565b92915050565b60006020828403121561091957610918610cdb565b5b6000610927848285016108af565b91505092915050565b60006020828403121561094657610945610cdb565b5b6000610954848285016108c4565b91505092915050565b60006020828403121561097357610972610cdb565b5b6000610981848285016108d9565b91505092915050565b6000602082840312156109a05761099f610cdb565b5b60006109ae848285016108ee565b91505092915050565b6109c081610c64565b82525050565b60006109d3600b83610bfd565b91506109de82610ce0565b602082019050919050565b60006109f6602683610bfd565b9150610a0182610d09565b604082019050919050565b6000610a19602083610bfd565b9150610a2482610d58565b602082019050919050565b6000610a3c602283610bfd565b9150610a4782610d81565b604082019050919050565b6000610a5f601383610bfd565b9150610a6a82610dd0565b602082019050919050565b6000610a82601f83610bfd565b9150610a8d82610df9565b602082019050919050565b610aa181610ca2565b82525050565b6000602082019050610abc60008301846109b7565b92915050565b6000606082019050610ad760008301866109b7565b610ae460208301856109b7565b610af16040830184610a98565b949350505050565b6000604082019050610b0e60008301856109b7565b610b1b6020830184610a98565b9392505050565b60006020820190508181036000830152610b3b816109c6565b9050919050565b60006020820190508181036000830152610b5b816109e9565b9050919050565b60006020820190508181036000830152610b7b81610a0c565b9050919050565b60006020820190508181036000830152610b9b81610a2f565b9050919050565b60006020820190508181036000830152610bbb81610a52565b9050919050565b60006020820190508181036000830152610bdb81610a75565b9050919050565b6000602082019050610bf76000830184610a98565b92915050565b600082825260208201905092915050565b6000610c1982610ca2565b9150610c2483610ca2565b9250827fffffffffffffffffffffffffffffffffffffffffffffffffffffffffffffffff03821115610c5957610c58610cac565b5b828201905092915050565b6000610c6f82610c82565b9050919050565b60008115159050919050565b600073ffffffffffffffffffffffffffffffffffffffff82169050919050565b6000819050919050565b7f4e487b7100000000000000000000000000000000000000000000000000000000600052601160045260246000fd5b600080fd5b7f506175736564204561726e000000000000000000000000000000000000000000600082015250565b7f4f776e61626c653a206e6577206f776e657220697320746865207a65726f206160008201527f6464726573730000000000000000000000000000000000000000000000000000602082015250565b7f4f776e61626c653a2063616c6c6572206973206e6f7420746865206f776e6572600082015250565b7f5175616e74697479206d7573742062652067726561746572207468616e207a6560008201527f726f000000000000000000000000000000000000000000000000000000000000602082015250565b7f496e73756666696369656e7420616d6f756e7400000000000000000000000000600082015250565b7f5265656e7472616e637947756172643a207265656e7472616e742063616c6c00600082015250565b610e2b81610c64565b8114610e3657600080fd5b50565b610e4281610c76565b8114610e4d57600080fd5b50565b610e5981610ca2565b8114610e6457600080fd5b5056fea264697066735822122061af404cde3c736fff5df1d1c5b8f91b160324eefb928ff7b196f31cfea57f6764736f6c63430008050033",
  "linkReferences": {},
  "deployedLinkReferences": {}
}