{
  "_format": "hh-sol-artifact-1",
  "contractName": "BeNFTEARNPASS",
  "sourceName": "contracts/EarnPass.sol",
  "abi": [
    {
      "inputs": [
        {
          "internalType": "address",
          "name": "_walletPool",
          "type": "address"
        },
        {
          "internalType": "address",
          "name": "_TokenRecibe",
          "type": "address"
        },
        {
          "internalType": "bool",
          "name": "_Iswhitelist",
          "type": "bool"
        }
      ],
      "stateMutability": "nonpayable",
      "type": "constructor"
    },
    {
      "anonymous": false,
      "inputs": [
        {
          "indexed": true,
          "internalType": "address",
          "name": "previousOwner",
          "type": "address"
        },
        {
          "indexed": true,
          "internalType": "address",
          "name": "newOwner",
          "type": "address"
        }
      ],
      "name": "OwnershipTransferred",
      "type": "event"
    },
    {
      "inputs": [
        {
          "internalType": "uint256",
          "name": "_amount",
          "type": "uint256"
        }
      ],
      "name": "ChangeLimitAmount",
      "outputs": [],
      "stateMutability": "nonpayable",
      "type": "function"
    },
    {
      "inputs": [
        {
          "internalType": "uint256",
          "name": "_amount",
          "type": "uint256"
        }
      ],
      "name": "ChangeMaxAmount",
      "outputs": [],
      "stateMutability": "nonpayable",
      "type": "function"
    },
    {
      "inputs": [
        {
          "internalType": "uint256",
          "name": "_amount",
          "type": "uint256"
        }
      ],
      "name": "ChangeMinAmount",
      "outputs": [],
      "stateMutability": "nonpayable",
      "type": "function"
    },
    {
      "inputs": [
        {
          "internalType": "uint256",
          "name": "_amount",
          "type": "uint256"
        }
      ],
      "name": "ChangePercent",
      "outputs": [],
      "stateMutability": "nonpayable",
      "type": "function"
    },
    {
      "inputs": [
        {
          "internalType": "address",
          "name": "_wallet",
          "type": "address"
        }
      ],
      "name": "ChangeWalletRecibe",
      "outputs": [],
      "stateMutability": "nonpayable",
      "type": "function"
    },
    {
      "inputs": [],
      "name": "Claim",
      "outputs": [],
      "stateMutability": "nonpayable",
      "type": "function"
    },
    {
      "inputs": [
        {
          "internalType": "uint256",
          "name": "_amount",
          "type": "uint256"
        }
      ],
      "name": "Deposit",
      "outputs": [],
      "stateMutability": "nonpayable",
      "type": "function"
    },
    {
      "inputs": [
        {
          "internalType": "address",
          "name": "_user",
          "type": "address"
        }
      ],
      "name": "EarlyClaim",
      "outputs": [],
      "stateMutability": "nonpayable",
      "type": "function"
    },
    {
      "inputs": [
        {
          "internalType": "uint256",
          "name": "_limit",
          "type": "uint256"
        },
        {
          "internalType": "uint256",
          "name": "_maxAmount",
          "type": "uint256"
        },
        {
          "internalType": "uint256",
          "name": "_minAmount",
          "type": "uint256"
        },
        {
          "internalType": "uint256",
          "name": "_percent",
          "type": "uint256"
        }
      ],
      "name": "Initialized",
      "outputs": [],
      "stateMutability": "nonpayable",
      "type": "function"
    },
    {
      "inputs": [],
      "name": "MaxAmount",
      "outputs": [
        {
          "internalType": "uint256",
          "name": "",
          "type": "uint256"
        }
      ],
      "stateMutability": "view",
      "type": "function"
    },
    {
      "inputs": [],
      "name": "MinAmount",
      "outputs": [
        {
          "internalType": "uint256",
          "name": "",
          "type": "uint256"
        }
      ],
      "stateMutability": "view",
      "type": "function"
    },
    {
      "inputs": [],
      "name": "PercentEarn",
      "outputs": [
        {
          "internalType": "uint256",
          "name": "",
          "type": "uint256"
        }
      ],
      "stateMutability": "view",
      "type": "function"
    },
    {
      "inputs": [
        {
          "internalType": "address",
          "name": "_tokens",
          "type": "address"
        }
      ],
      "name": "RecoverTokens",
      "outputs": [],
      "stateMutability": "nonpayable",
      "type": "function"
    },
    {
      "inputs": [],
      "name": "TokenRecibe",
      "outputs": [
        {
          "internalType": "address",
          "name": "",
          "type": "address"
        }
      ],
      "stateMutability": "view",
      "type": "function"
    },
    {
      "inputs": [],
      "name": "_initialized",
      "outputs": [
        {
          "internalType": "bool",
          "name": "",
          "type": "bool"
        }
      ],
      "stateMutability": "view",
      "type": "function"
    },
    {
      "inputs": [],
      "name": "_lock",
      "outputs": [
        {
          "internalType": "bool",
          "name": "",
          "type": "bool"
        }
      ],
      "stateMutability": "view",
      "type": "function"
    },
    {
      "inputs": [],
      "name": "_whiteList",
      "outputs": [
        {
          "internalType": "bool",
          "name": "",
          "type": "bool"
        }
      ],
      "stateMutability": "view",
      "type": "function"
    },
    {
      "inputs": [
        {
          "internalType": "address",
          "name": "_wallet",
          "type": "address"
        },
        {
          "internalType": "uint256",
          "name": "_nftPass",
          "type": "uint256"
        }
      ],
      "name": "addUserWhiteList",
      "outputs": [],
      "stateMutability": "nonpayable",
      "type": "function"
    },
    {
      "inputs": [
        {
          "internalType": "address",
          "name": "",
          "type": "address"
        }
      ],
      "name": "balanceUser",
      "outputs": [
        {
          "internalType": "uint256",
          "name": "Amount",
          "type": "uint256"
        },
        {
          "internalType": "uint256",
          "name": "initTime",
          "type": "uint256"
        },
        {
          "internalType": "uint256",
          "name": "finishTime",
          "type": "uint256"
        },
        {
          "internalType": "uint256",
          "name": "Earn",
          "type": "uint256"
        }
      ],
      "stateMutability": "view",
      "type": "function"
    },
    {
      "inputs": [
        {
          "internalType": "address",
          "name": "_wallet",
          "type": "address"
        }
      ],
      "name": "getMaxPerUser",
      "outputs": [
        {
          "internalType": "uint256",
          "name": "",
          "type": "uint256"
        }
      ],
      "stateMutability": "view",
      "type": "function"
    },
    {
      "inputs": [],
      "name": "limit",
      "outputs": [
        {
          "internalType": "uint256",
          "name": "",
          "type": "uint256"
        }
      ],
      "stateMutability": "view",
      "type": "function"
    },
    {
      "inputs": [],
      "name": "lock",
      "outputs": [],
      "stateMutability": "nonpayable",
      "type": "function"
    },
    {
      "inputs": [],
      "name": "owner",
      "outputs": [
        {
          "internalType": "address",
          "name": "",
          "type": "address"
        }
      ],
      "stateMutability": "view",
      "type": "function"
    },
    {
      "inputs": [],
      "name": "recolect",
      "outputs": [
        {
          "internalType": "uint256",
          "name": "",
          "type": "uint256"
        }
      ],
      "stateMutability": "view",
      "type": "function"
    },
    {
      "inputs": [],
      "name": "renounceOwnership",
      "outputs": [],
      "stateMutability": "nonpayable",
      "type": "function"
    },
    {
      "inputs": [
        {
          "internalType": "address",
          "name": "newOwner",
          "type": "address"
        }
      ],
      "name": "transferOwnership",
      "outputs": [],
      "stateMutability": "nonpayable",
      "type": "function"
    },
    {
      "inputs": [],
      "name": "walletPool",
      "outputs": [
        {
          "internalType": "address",
          "name": "",
          "type": "address"
        }
      ],
      "stateMutability": "view",
      "type": "function"
    },
    {
      "inputs": [
        {
          "internalType": "address",
          "name": "",
          "type": "address"
        }
      ],
      "name": "whiteList",
      "outputs": [
        {
          "internalType": "bool",
          "name": "whitelist",
          "type": "bool"
        },
        {
          "internalType": "uint256",
          "name": "nftPass",
          "type": "uint256"
        }
      ],
      "stateMutability": "view",
      "type": "function"
    }
  ],
  "bytecode": "0x60806040523480156200001157600080fd5b506040516200247b3803806200247b8339818101604052810190620000379190620001fd565b620000576200004b6200010360201b60201c565b6200010b60201b60201c565b6001808190555082600260006101000a81548173ffffffffffffffffffffffffffffffffffffffff021916908373ffffffffffffffffffffffffffffffffffffffff16021790555081600360006101000a81548173ffffffffffffffffffffffffffffffffffffffff021916908373ffffffffffffffffffffffffffffffffffffffff16021790555080600960026101000a81548160ff021916908315150217905550505050620002d2565b600033905090565b60008060009054906101000a900473ffffffffffffffffffffffffffffffffffffffff169050816000806101000a81548173ffffffffffffffffffffffffffffffffffffffff021916908373ffffffffffffffffffffffffffffffffffffffff1602179055508173ffffffffffffffffffffffffffffffffffffffff168173ffffffffffffffffffffffffffffffffffffffff167f8be0079c531659141344cd1fd0a4f28419497f9722a3daafe3b4186f6b6457e060405160405180910390a35050565b600081519050620001e0816200029e565b92915050565b600081519050620001f781620002b8565b92915050565b60008060006060848603121562000219576200021862000299565b5b60006200022986828701620001cf565b93505060206200023c86828701620001cf565b92505060406200024f86828701620001e6565b9150509250925092565b6000620002668262000279565b9050919050565b60008115159050919050565b600073ffffffffffffffffffffffffffffffffffffffff82169050919050565b600080fd5b620002a98162000259565b8114620002b557600080fd5b50565b620002c3816200026d565b8114620002cf57600080fd5b50565b61219980620002e26000396000f3fe608060405234801561001057600080fd5b50600436106101c45760003560e01c806360a81002116100f9578063bb1711a611610097578063ec65240611610071578063ec65240614610482578063f2fde38b146104a0578063f5eb8890146104bc578063f83d08ba146104ef576101c4565b8063bb1711a61461042c578063e5c154f114610448578063ea76ec7314610466576101c4565b80637586c414116100d35780637586c414146103b65780638da5cb5b146103d457806397a64101146103f2578063a4d66daf1461040e576101c4565b806360a81002146103725780636b68f81014610390578063715018a6146103ac576101c4565b806338492569116101665780634bd724ed116101405780634bd724ed146102ea5780634d6ce1e51461030857806354f3a6e014610324578063592f0af114610342576101c4565b80633849256914610294578063478b0f87146102b257806347afd82f146102ce576101c4565b80632a059b97116101a25780632a059b971461021f5780633072cf601461023b5780633158952e14610259578063372c12b114610263576101c4565b80630a1e6314146101c957806313cad1d1146101e757806321adc90314610203575b600080fd5b6101d16104f9565b6040516101de9190611998565b60405180910390f35b61020160048036038101906101fc91906116c0565b61051f565b005b61021d6004803603810190610218919061171a565b610531565b005b61023960048036038101906102349190611653565b6105c6565b005b610243610656565b6040516102509190611a13565b60405180910390f35b610261610669565b005b61027d60048036038101906102789190611626565b610924565b60405161028b929190611a2e565b60405180910390f35b61029c610955565b6040516102a99190611a13565b60405180910390f35b6102cc60048036038101906102c79190611626565b610968565b005b6102e860048036038101906102e39190611626565b610a89565b005b6102f2610ad5565b6040516102ff9190611a13565b60405180910390f35b610322600480360381019061031d91906116c0565b610ae8565b005b61032c6110f7565b6040516103399190611c17565b60405180910390f35b61035c60048036038101906103579190611626565b6110fd565b6040516103699190611c17565b60405180910390f35b61037a61115d565b6040516103879190611c17565b60405180910390f35b6103aa60048036038101906103a591906116c0565b611163565b005b6103b4611175565b005b6103be611189565b6040516103cb9190611c17565b60405180910390f35b6103dc61118f565b6040516103e99190611998565b60405180910390f35b61040c600480360381019061040791906116c0565b6111b8565b005b6104166111ca565b6040516104239190611c17565b60405180910390f35b610446600480360381019061044191906116c0565b6111d0565b005b6104506111e2565b60405161045d9190611998565b60405180910390f35b610480600480360381019061047b9190611626565b611208565b005b61048a6112ff565b6040516104979190611c17565b60405180910390f35b6104ba60048036038101906104b59190611626565b611305565b005b6104d660048036038101906104d19190611626565b611389565b6040516104e69493929190611c32565b60405180910390f35b6104f76113b9565b005b600360009054906101000a900473ffffffffffffffffffffffffffffffffffffffff1681565b6105276113ed565b8060068190555050565b6105396113ed565b600960019054906101000a900460ff1615610589576040517f08c379a000000000000000000000000000000000000000000000000000000000815260040161058090611a57565b60405180910390fd5b836005819055508260068190555081600781905550806008819055506001600960016101000a81548160ff02191690831515021790555050505050565b6105ce6113ed565b604051806040016040528060011515815260200182815250600b60008473ffffffffffffffffffffffffffffffffffffffff1673ffffffffffffffffffffffffffffffffffffffff16815260200190815260200160002060008201518160000160006101000a81548160ff021916908315150217905550602082015181600101559050505050565b600960019054906101000a900460ff1681565b61067161146b565b600960009054906101000a900460ff16156106c1576040517f08c379a00000000000000000000000000000000000000000000000000000000081526004016106b890611a77565b60405180910390fd5b6000600a60003373ffffffffffffffffffffffffffffffffffffffff1673ffffffffffffffffffffffffffffffffffffffff1681526020019081526020016000206040518060800160405290816000820154815260200160018201548152602001600282015481526020016003820154815250509050428160400151111561077e576040517f08c379a000000000000000000000000000000000000000000000000000000000815260040161077590611ad7565b60405180910390fd5b60008160000151116107c5576040517f08c379a00000000000000000000000000000000000000000000000000000000081526004016107bc90611b97565b60405180910390fd5b6107de81600001516004546114bb90919063ffffffff16565b6004819055506000816000018181525050600081606001818152505080600a60003373ffffffffffffffffffffffffffffffffffffffff1673ffffffffffffffffffffffffffffffffffffffff16815260200190815260200160002060008201518160000155602082015181600101556040820151816002015560608201518160030155905050600360009054906101000a900473ffffffffffffffffffffffffffffffffffffffff1673ffffffffffffffffffffffffffffffffffffffff1663a9059cbb3383606001516040518363ffffffff1660e01b81526004016108c69291906119ea565b602060405180830381600087803b1580156108e057600080fd5b505af11580156108f4573d6000803e3d6000fd5b505050506040513d601f19601f820116820180604052508101906109189190611693565b50506109226114d1565b565b600b6020528060005260406000206000915090508060000160009054906101000a900460ff16908060010154905082565b600960029054906101000a900460ff1681565b6109706113ed565b8073ffffffffffffffffffffffffffffffffffffffff1663a9059cbb338373ffffffffffffffffffffffffffffffffffffffff166370a08231306040518263ffffffff1660e01b81526004016109c69190611998565b60206040518083038186803b1580156109de57600080fd5b505afa1580156109f2573d6000803e3d6000fd5b505050506040513d601f19601f82011682018060405250810190610a1691906116ed565b6040518363ffffffff1660e01b8152600401610a339291906119ea565b602060405180830381600087803b158015610a4d57600080fd5b505af1158015610a61573d6000803e3d6000fd5b505050506040513d601f19601f82011682018060405250810190610a859190611693565b5050565b610a916113ed565b80600260006101000a81548173ffffffffffffffffffffffffffffffffffffffff021916908373ffffffffffffffffffffffffffffffffffffffff16021790555050565b600960009054906101000a900460ff1681565b610af061146b565b600960009054906101000a900460ff1615610b40576040517f08c379a0000000000000000000000000000000000000000000000000000000008152600401610b3790611a77565b60405180910390fd5b600960019054906101000a900460ff16610b8f576040517f08c379a0000000000000000000000000000000000000000000000000000000008152600401610b8690611b77565b60405180910390fd5b600960029054906101000a900460ff1615610c3457600b60003373ffffffffffffffffffffffffffffffffffffffff1673ffffffffffffffffffffffffffffffffffffffff16815260200190815260200160002060000160009054906101000a900460ff16610c33576040517f08c379a0000000000000000000000000000000000000000000000000000000008152600401610c2a90611b17565b60405180910390fd5b5b80600360009054906101000a900473ffffffffffffffffffffffffffffffffffffffff1673ffffffffffffffffffffffffffffffffffffffff166370a08231336040518263ffffffff1660e01b8152600401610c909190611998565b60206040518083038186803b158015610ca857600080fd5b505afa158015610cbc573d6000803e3d6000fd5b505050506040513d601f19601f82011682018060405250810190610ce091906116ed565b1015610d21576040517f08c379a0000000000000000000000000000000000000000000000000000000008152600401610d1890611bb7565b60405180910390fd5b6000600a60003373ffffffffffffffffffffffffffffffffffffffff1673ffffffffffffffffffffffffffffffffffffffff16815260200190815260200160002060405180608001604052908160008201548152602001600182015481526020016002820154815260200160038201548152505090508160046000828254610da99190611c88565b925050819055508181600001818151610dc29190611c88565b91508181525050610e20600b60003373ffffffffffffffffffffffffffffffffffffffff1673ffffffffffffffffffffffffffffffffffffffff168152602001908152602001600020600101546006546114da90919063ffffffff16565b816000015110610e65576040517f08c379a0000000000000000000000000000000000000000000000000000000008152600401610e5c90611a97565b60405180910390fd5b6005548210610ea9576040517f08c379a0000000000000000000000000000000000000000000000000000000008152600401610ea090611af7565b60405180910390fd5b60055460045410610eef576040517f08c379a0000000000000000000000000000000000000000000000000000000008152600401610ee690611bf7565b60405180910390fd5b60006007541115610f4057600754821015610f3f576040517f08c379a0000000000000000000000000000000000000000000000000000000008152600401610f3690611b57565b60405180910390fd5b5b6000610f6e6064610f6060085485600001516114da90919063ffffffff16565b6114f090919063ffffffff16565b8260000151610f7d9190611c88565b90508082606001818152505062093a8042610f989190611c88565b8260400181815250504282602001818152505081600a60003373ffffffffffffffffffffffffffffffffffffffff1673ffffffffffffffffffffffffffffffffffffffff16815260200190815260200160002060008201518160000155602082015181600101556040820151816002015560608201518160030155905050600360009054906101000a900473ffffffffffffffffffffffffffffffffffffffff1673ffffffffffffffffffffffffffffffffffffffff166323b872dd33600260009054906101000a900473ffffffffffffffffffffffffffffffffffffffff16866040518463ffffffff1660e01b8152600401611097939291906119b3565b602060405180830381600087803b1580156110b157600080fd5b505af11580156110c5573d6000803e3d6000fd5b505050506040513d601f19601f820116820180604052508101906110e99190611693565b5050506110f46114d1565b50565b60085481565b6000611156600b60008473ffffffffffffffffffffffffffffffffffffffff1673ffffffffffffffffffffffffffffffffffffffff168152602001908152602001600020600101546006546114da90919063ffffffff16565b9050919050565b60065481565b61116b6113ed565b8060058190555050565b61117d6113ed565b6111876000611506565b565b60045481565b60008060009054906101000a900473ffffffffffffffffffffffffffffffffffffffff16905090565b6111c06113ed565b8060088190555050565b60055481565b6111d86113ed565b8060078190555050565b600260009054906101000a900473ffffffffffffffffffffffffffffffffffffffff1681565b6112106113ed565b6000600a60008373ffffffffffffffffffffffffffffffffffffffff1673ffffffffffffffffffffffffffffffffffffffff16815260200190815260200160002060405180608001604052908160008201548152602001600182015481526020016002820154815260200160038201548152505090504281604001818152505080600a60003373ffffffffffffffffffffffffffffffffffffffff1673ffffffffffffffffffffffffffffffffffffffff168152602001908152602001600020600082015181600001556020820151816001015560408201518160020155606082015181600301559050505050565b60075481565b61130d6113ed565b600073ffffffffffffffffffffffffffffffffffffffff168173ffffffffffffffffffffffffffffffffffffffff16141561137d576040517f08c379a000000000000000000000000000000000000000000000000000000000815260040161137490611ab7565b60405180910390fd5b61138681611506565b50565b600a6020528060005260406000206000915090508060000154908060010154908060020154908060030154905084565b6113c16113ed565b600960009054906101000a900460ff1615600960006101000a81548160ff021916908315150217905550565b6113f56115ca565b73ffffffffffffffffffffffffffffffffffffffff1661141361118f565b73ffffffffffffffffffffffffffffffffffffffff1614611469576040517f08c379a000000000000000000000000000000000000000000000000000000000815260040161146090611b37565b60405180910390fd5b565b600260015414156114b1576040517f08c379a00000000000000000000000000000000000000000000000000000000081526004016114a890611bd7565b60405180910390fd5b6002600181905550565b600081836114c99190611d69565b905092915050565b60018081905550565b600081836114e89190611d0f565b905092915050565b600081836114fe9190611cde565b905092915050565b60008060009054906101000a900473ffffffffffffffffffffffffffffffffffffffff169050816000806101000a81548173ffffffffffffffffffffffffffffffffffffffff021916908373ffffffffffffffffffffffffffffffffffffffff1602179055508173ffffffffffffffffffffffffffffffffffffffff168173ffffffffffffffffffffffffffffffffffffffff167f8be0079c531659141344cd1fd0a4f28419497f9722a3daafe3b4186f6b6457e060405160405180910390a35050565b600033905090565b6000813590506115e18161211e565b92915050565b6000815190506115f681612135565b92915050565b60008135905061160b8161214c565b92915050565b6000815190506116208161214c565b92915050565b60006020828403121561163c5761163b611e43565b5b600061164a848285016115d2565b91505092915050565b6000806040838503121561166a57611669611e43565b5b6000611678858286016115d2565b9250506020611689858286016115fc565b9150509250929050565b6000602082840312156116a9576116a8611e43565b5b60006116b7848285016115e7565b91505092915050565b6000602082840312156116d6576116d5611e43565b5b60006116e4848285016115fc565b91505092915050565b60006020828403121561170357611702611e43565b5b600061171184828501611611565b91505092915050565b6000806000806080858703121561173457611733611e43565b5b6000611742878288016115fc565b9450506020611753878288016115fc565b9350506040611764878288016115fc565b9250506060611775878288016115fc565b91505092959194509250565b61178a81611d9d565b82525050565b61179981611daf565b82525050565b60006117ac601983611c77565b91506117b782611e48565b602082019050919050565b60006117cf600b83611c77565b91506117da82611e71565b602082019050919050565b60006117f2600d83611c77565b91506117fd82611e9a565b602082019050919050565b6000611815602683611c77565b915061182082611ec3565b604082019050919050565b6000611838602183611c77565b915061184382611f12565b604082019050919050565b600061185b600d83611c77565b915061186682611f61565b602082019050919050565b600061187e601883611c77565b915061188982611f8a565b602082019050919050565b60006118a1602083611c77565b91506118ac82611fb3565b602082019050919050565b60006118c4602a83611c77565b91506118cf82611fdc565b604082019050919050565b60006118e7601883611c77565b91506118f28261202b565b602082019050919050565b600061190a603383611c77565b915061191582612054565b604082019050919050565b600061192d601383611c77565b9150611938826120a3565b602082019050919050565b6000611950601f83611c77565b915061195b826120cc565b602082019050919050565b6000611973601b83611c77565b915061197e826120f5565b602082019050919050565b61199281611ddb565b82525050565b60006020820190506119ad6000830184611781565b92915050565b60006060820190506119c86000830186611781565b6119d56020830185611781565b6119e26040830184611989565b949350505050565b60006040820190506119ff6000830185611781565b611a0c6020830184611989565b9392505050565b6000602082019050611a286000830184611790565b92915050565b6000604082019050611a436000830185611790565b611a506020830184611989565b9392505050565b60006020820190508181036000830152611a708161179f565b9050919050565b60006020820190508181036000830152611a90816117c2565b9050919050565b60006020820190508181036000830152611ab0816117e5565b9050919050565b60006020820190508181036000830152611ad081611808565b9050919050565b60006020820190508181036000830152611af08161182b565b9050919050565b60006020820190508181036000830152611b108161184e565b9050919050565b60006020820190508181036000830152611b3081611871565b9050919050565b60006020820190508181036000830152611b5081611894565b9050919050565b60006020820190508181036000830152611b70816118b7565b9050919050565b60006020820190508181036000830152611b90816118da565b9050919050565b60006020820190508181036000830152611bb0816118fd565b9050919050565b60006020820190508181036000830152611bd081611920565b9050919050565b60006020820190508181036000830152611bf081611943565b9050919050565b60006020820190508181036000830152611c1081611966565b9050919050565b6000602082019050611c2c6000830184611989565b92915050565b6000608082019050611c476000830187611989565b611c546020830186611989565b611c616040830185611989565b611c6e6060830184611989565b95945050505050565b600082825260208201905092915050565b6000611c9382611ddb565b9150611c9e83611ddb565b9250827fffffffffffffffffffffffffffffffffffffffffffffffffffffffffffffffff03821115611cd357611cd2611de5565b5b828201905092915050565b6000611ce982611ddb565b9150611cf483611ddb565b925082611d0457611d03611e14565b5b828204905092915050565b6000611d1a82611ddb565b9150611d2583611ddb565b9250817fffffffffffffffffffffffffffffffffffffffffffffffffffffffffffffffff0483118215151615611d5e57611d5d611de5565b5b828202905092915050565b6000611d7482611ddb565b9150611d7f83611ddb565b925082821015611d9257611d91611de5565b5b828203905092915050565b6000611da882611dbb565b9050919050565b60008115159050919050565b600073ffffffffffffffffffffffffffffffffffffffff82169050919050565b6000819050919050565b7f4e487b7100000000000000000000000000000000000000000000000000000000600052601160045260246000fd5b7f4e487b7100000000000000000000000000000000000000000000000000000000600052601260045260246000fd5b600080fd5b7f506f6f6c20686173206265656e20696e697469616c697a656400000000000000600082015250565b7f506175736564204561726e000000000000000000000000000000000000000000600082015250565b7f4c696d6974206f66207573657200000000000000000000000000000000000000600082015250565b7f4f776e61626c653a206e6577206f776e657220697320746865207a65726f206160008201527f6464726573730000000000000000000000000000000000000000000000000000602082015250565b7f796f75206e65656420776169742066696e6973682c20746f207769746864726160008201527f7700000000000000000000000000000000000000000000000000000000000000602082015250565b7f4c696d6974206f6620706f6f6c00000000000000000000000000000000000000600082015250565b7f596f7520617265206e6f7420696e2077686974656c6973740000000000000000600082015250565b7f4f776e61626c653a2063616c6c6572206973206e6f7420746865206f776e6572600082015250565b7f496e73756666696369656e7420616d6f756e742c206c657373207468616e207460008201527f6865206d696e696d756d00000000000000000000000000000000000000000000602082015250565b7f506f6f6c20697473206e6f7420696e697469616c697a65640000000000000000600082015250565b7f796f75206861766520616c72656164792077697468647261776e20796f75722060008201527f6361706974616c20616e642070726f6669747300000000000000000000000000602082015250565b7f496e73756666696369656e7420616d6f756e7400000000000000000000000000600082015250565b7f5265656e7472616e637947756172643a207265656e7472616e742063616c6c00600082015250565b7f506f6f6c206c696d697420686173206265656e20726561636865640000000000600082015250565b61212781611d9d565b811461213257600080fd5b50565b61213e81611daf565b811461214957600080fd5b50565b61215581611ddb565b811461216057600080fd5b5056fea2646970667358221220b3421dcba207f06f8a6185b54439f41ed700be33a49713df60830ddc5826391964736f6c63430008050033",
  "linkReferences": {},
  "deployedLinkReferences": {}
}